:04C000006F2000139A
:10C004000000000000000000900000208E090020C5
:10C01400A9BDF9F594000020000000000000000014
:10C02400960000209800002000000000000000009E
:10C034009A000020000000009C0000200000000086
:10C044009E00002026030020AA030020A400002054
:10C05400A6000020A8000020AA000020AC000020B8
:10C06400AE000020B0000020C60000205E010020C9
:10C074000A0A0020B8000020BA000020BC000020FA
:10C08400BE000020F60100208E020020C400002023
:10C0940001A001A001A001A001A001A001A001A094
:10C0A40001A001A001A001A001A001A001A001A084
:10C0B40001A001A001A001A001A001A001A001A074
:10C0C40001A001A001A037370040834747009946EB
:10C0D4004111BD8B638ED70231476386E706114752
:10C0E4006390E704A3030100174600000346062FEC
:10C0F40037370040834771006317F6022C00173569
:10C1040000001305E526977001E0E780E0CE09A85A
:10C114008347570093F7F70F2304F1008347810007
:10C1240041017300203083477100834687000C0867
:10C13400AE97238CD7FE83477100850793F7F70FDB
:10C14400A303F10045BF280097E001E0E780A0D9F0
:10C154001375F50FA303A1000346710045B73737E4
:10C1640000408347474099464111BD8B638ED702F7
:10C1740031476386E70611476390E704A303010090
:10C18400174600000346A625373700408347710051
:10C194006317F6022C00173500001305A51E9770CF
:10C1A40001E0E78060C509A88347574093F7F70F7C
:10C1B4002304F10083478100410173002030834749
:10C1C4007100834687400C08AE97238CD7FE8347C3
:10C1D4007100850793F7F70FA303F10045BF28000B
:10C1E40097E001E0E780E0E11375F50FA303A100F8
:10C1F4000346710045B73747004083474780994657
:10C204004111BD8B638ED70231476386E706114720
:10C214006390E704A3030100174600000346161CBD
:10C2240037470040834771006317F6022C00173527
:10C23400000013056516977001E0E780E0BB09A8CC
:10C244008347578093F7F70F2304F1008347810056
:10C2540041017300203083477100834687800C08B6
:10C26400AE97238CD7FE83477100850793F7F70FAA
:10C27400A303F10045BF280097E001E0E78020EA2E
:10C284001375F50FA303A1000346710045B73747A3
:10C294000040834747C099464111BD8B638ED70246
:10C2A40031476386E70611476390E704A30301005F
:10C2B4001746000003466673374700408347710002
:10C2C4006317F6022C00173500001305250E97702E
:10C2D40001E0E78060B209A8834757C093F7F70FDE
:10C2E4002304F10083478100410173002030834718
:10C2F4007100834687C00C08AE97238CD7FE834712
:10C304007100850793F7F70FA303F10045BF2800D9
:10C3140097E001E0E78060F21375F50FA303A10035
:10C324000346710045B7411126C4B714004022C624
:10C3340003D4C409420441809317240163DB07003A
:10C34400A145014597C001E0E78020CC8967239E81
:10C35400F4081374042015CC9747000083C7177F93
:10C3640093E7170017470000A302F77EB7170040B2
:10C3740003A7470A1377072015C303A7C70A136740
:10C38400072023A6E70AB717004013070020239EBF
:10C39400E7083244A24441017300203003A7870A0E
:10C3A4001367072023A4E70AF9BFB717004003D790
:10C3B400E70903D7E7099316370163D4060417473F
:10C3C40000000347677A050797460000238EE67846
:10C3D400174700000357477213670740974600004A
:10C3E400239CE6700567239FE70803A7470C85662F
:10C3F400131637016359060003A7C70C558F23A6EC
:10C40400E70C7300203003A7870C558F23A4E70C97
:10C41400CDBF411122C406C69747000083C7679069
:10C42400174400001304446D95CB83475405858B52
:10C4340095C78357040013974701634107028D454D
:10C44400094597C001E0E78040BC914517450000CD
:10C454000345E56C971002E0E78020419747000010
:10C4640083D7876913F7074005CF139747016341C3
:10C4740007028D45094597C001E0E78000B9914561
:10C48400174500000345A569971002E0E780E03DE9
:10C494008357040093F7F7BF17470000231EF76480
:10C4A400B2402244410182804111814601468145C6
:10C4B400114506C6EF00A077B72700401147238334
:10C4C400E780B7F700E003A707D16D9B23A8E7D067
:10C4D40003A707D15D9B23A8E7D073005010010088
:10C4E4000100B240410182804111814681450146EB
:10C4F400114506C62D2FB727004011472383E78037
:10C50400B717004003C7E70283C5E70483D787034F
:10C5140091661377F70F93E5350063E5D700719BB8
:10C5240013671700B7170040130670052380C7046C
:10C53400930680FA2380D7040100010023820702B6
:10C544002380C7042380D704010001002387E70266
:10C554002387B7042380C7042380D7040100010084
:10C5640003C7B70413670702A385E70423800704FE
:10C5740037F700E0832507D193E545002328B7D09A
:10C58400832507D1DD992328B7D07300501001000B
:10C5940001002380C7042380D7040100010003C7DE
:10C5A400B7041377F70DA385E70423800704B2408B
:10C5B400410182800111B7F5070022CC8146E105D3
:10C5C4002A840A86194506CE26CA02C0231201000F
:10C5D400B92DB717004003C7E70283C5E70483D723
:10C5E400870391661377F70F93E5350063E5D7006A
:10C5F400719B13671700B71700401306700523805B
:10C60400C704930680FA2380D70401000100238223
:10C6140007022380C7042380D70401000100238775
:10C62400E7022387B70423800704B7F500E003A7D4
:10C6340005D11367470023A8E5D003D50702657722
:10C64400110713750560418D598D42054181010023
:10C654002380C7042380D7040100010003C7F70027
:10C6640037F40700B7F400E013670704A387E70073
:10C6740003C7B704610413670702A385E704239083
:10C68400A70283A704D1DD9B23A8F4D07300501024
:10C694000100010013056004352E81463000A28597
:10C6A400194502C423160100592322478247E31A7D
:10C6B400F7FCB7170040130770052380E70413073E
:10C6C40080FA2380E7040100010003C7B70413774D
:10C6D400F70DA385E70423800704F2406244D244A3
:10C6E4000561828001114EC681460146AA898145B1
:10C6F400114506CE22CC26CA4AC8152BB7160040CF
:10C7040083C7E60203C7E60483D68603116693F75C
:10C71400F70F1367370063E5C600F19B93E7170033
:10C72400371400401309700523002405930480FA8C
:10C7340023009404010001002302040223002405C1
:10C7440023009404010001002307F4022307E404F6
:10C7540023000404130550025920B7F700E003A78F
:10C7640007D11367470023A8E7D02300240523003B
:10C774009404010001000347F40013670704A307AE
:10C78400E40023002405230094040100010025672C
:10C79400B3E9E9002310340303A707D15D9B23A861
:10C7A400E7D0730050100100010081460146814525
:10C7B4001145B52923002405230094040100010038
:10C7C4008347640493E717002303F4042300040459
:10C7D400F2406244D2444249B24905618280B717AB
:10C7E4000040930670052380D704130780FA238042
:10C7F400E7040100010003C6B7041376F60DA38510
:10C80400C70423800704137605024DC203C6A7009C
:10C81400118A1DE22380D7042380E704010001006C
:10C8240003C7A700136747002385E7009307004B5E
:10C8340001000100FD17EDFFB717004093067005D6
:10C844002380D704130780FA2380E7040100010042
:10C854007D892394A70001000100010001002380C9
:10C8640007042380D7042380E704010001000100AA
:10C8740001003727004093061005A303D7802380C7
:10C884000704B7170040130770052380E704130754
:10C8940080FA2380E7040100010003C7B70413678B
:10C8A4000708A385E7042380070482801376050420
:10C8B40041C603C6A700418A1DE22380D704238012
:10C8C400E7040100010003C7A700136707012385DC
:10C8D400E7009307007D01000100FD17EDFFB71786
:10C8E4000040930670052380D704130780FA238041
:10C8F400E704010001001376F5011366060423948E
:10C90400C700010001000100010023800704238007
:10C91400D704130660042380E7046318C5000100EC
:10C92400010037270040894689BF010001003727ED
:10C9340000409306200591B72380D7042380E704A1
:10C944000100010003D787001367070C2394E70055
:10C954000DBF4111814601468145114506C6C12CD2
:10C96400B7170040130770052380E704130780FA04
:10C974002380E7040100010003C76704136717005D
:10C984002383E70423800704B24041018280814667
:10C99400014681451145612CB71700409306700587
:10C9A4002380D704130780FA2380E70401000100E1
:10C9B4007D562396C7022380D7042380E704010011
:10C9C400010003C76704136717002383E704238068
:10C9D400070401A0BD473305F50201007D1575FD6F
:10C9E4008280411122C426C206C6AA840144631768
:10C9F4009400B2402244924441018280050413050C
:10CA0400803E4204C13F4180DDB7B71700401307A1
:10CA140000032388E7028547174700002322F718FD
:10CA240073002030397122DC4ED656D237140040C0
:10CA3400E57AB7F9070026DA52D45AD05ECE06DE7C
:10CA44004AD862CC2A8B916B93040404130A7005B0
:10CA5400910AE1098347E4020347E404835684030B
:10CA640093F7F70F1367370063E57601F19B93E7BC
:10CA7400170023804401130980FA23802401010054
:10CA840001002302040223804401238024010100C5
:10CA940001002307F4022307E4042380040037F78A
:10CAA40000E0832707D193E747002328F7D0835773
:10CAB400040293F70760B3E76701B3E75701C207BE
:10CAC400C18301002380440123802401010001006B
:10CAD4008346F400130CB40493E60604A307D400BD
:10CAE4008346B40493E60602A305D4042310F40297
:10CAF400832707D1DD9B2328F7D073005010010052
:10CB0400010013056004F9353000CE8581461945CE
:10CB140002C423160100212A11469745000093857B
:10CB2400A508280011231DD5930770052380F40060
:10CB3400238024010100010083470C0093F7F70DC3
:10CB44002300FC0023800400F2506254D254425962
:10CB5400B259225A925A025BF24B624C2161828092
:10CB6400411106C6AD2D7530977001E0E780605F16
:10CB7400D5BF2303048015472303E4800100230267
:10CB8400A480828083076480E3CE07FE23030480AD
:10CB9400828083076480E3CE07FE0345448082805D
:10CBA40083076480E3CE07FE2302A48082804111C0
:10CBB40026C44AC24EC006C61377F50BAD47AA89F0
:10CBC4002E8995446306F70019456537653F8D4402
:10CBD4004E854537FD59FD1463983401B240A24493
:10CBE4001249824941018280135509011375F50FD9
:10CBF400453F2209CDB7011126CC06CEB704080063
:10CC040051371545BD37713769372AC6A53F3245B7
:10CC14009377150089EB136515001375F50FF24032
:10CC2400E24405618280FD14E9FC0145CDBF397100
:10CC340026DC4ADA4ED852D656D45AD25ED006DE14
:10CC440062CE66CCB7E700E07D5783AA070022C610
:10CC540003AA470023A0E71823A2E718B717004048
:10CC6400130770052380E704130780FA2380E70481
:10CC740083C74704930B75FFB684E20793FBFB0F4E
:10CC84008546AA892E8B328937240040E1870157D3
:10CC940063FA76016308D50089461307000263131B
:10CCA400D5000157D98F93F7F70FB71C00402382A3
:10CCB400FC0411472303E4801305F00F5D3D094C88
:10CCC400D135636D7C11B7050700DA953787070006
:10CCD400795563F2E504B3879500636EF702370B69
:10CCE4000800A94733EB65016399F90689E4814497
:10CCF400513D26850DA0DA850945553D05090345B5
:10CD0400F9FFFD14050B693D81C49377FB0FFDF713
:10CD1400DD3569FD7D55B717004013077005238085
:10CD2400E704130780FA2380E70403C74704418B11
:10CD34002382E704F250B7E700E023A0571123A2AF
:10CD44004711E25432445259C259325AA25A125B20
:10CD5400825B724CE24C21618280A5476395F9069F
:10CD640085691309F00FB3069900B3742B01B694C7
:10CD74001349F9FFB3749900856B33796901416BE9
:10CD84009387F9FFB3F7270199E363FC340193D93F
:10CD94004900C147E3E637FF99BF0569C1697D19B9
:10CDA400D9B71305800D63886901130500026384F4
:10CDB400790113051008CA85DD3B353D21DD4E9907
:10CDC400B3843441D9B7DA852D45D533CA94E30009
:10CDD40099F205097D3BA30FA9FED5BF9387F9FFFF
:10CDE40093F7F70F6361FC0C83C71C041307300827
:10CDF400631FF70437070800636BEB04B3079B005A
:10CE0400B706100063F5D704334BEB0089476393EF
:10CE1400F9068980D549E38C04ECDA850945413B60
:10CE240011090327C9FF91472320E4800307648085
:10CE3400E34E07FE23033481FD17EDFBFD14110BB4
:10CE440081C49377FB0FE9FF7D3371F5E1B5B71723
:10CE5400004003C75704B70708001377070219E314
:10CE6400B78707007955E378FBEA33079B00E3FFB4
:10CE7400E7F855B58547E382F9F2DA852D45053B98
:10CE84009389F4FFE38504E6293393F7390091EBA2
:10CE9400832604800327090093074900E39AE6E404
:10CEA4003E89CE84F1BFB5476396F9001305900B14
:10CEB400C93135BDB1471305B00AE38BF9FE994773
:10CEC4006391F904B7050800B365BB002D45C5316E
:10CED40081448D4BA149753963967401832704807D
:10CEE4002320F9008504E39834FF83270480131773
:10CEF4002B01635507002312F900D5BB2322F90047
:10CF0400FDB39D476399F90281451305B00445318A
:10CF1400BD442320090023220900FD599D3993F7BC
:10CF24007400CA9703C70700FD14398D2380A70036
:10CF3400E39634FF6DBBA1476392F9046D398144D4
:10CF4400630D0B008D479304C0036308FB00930437
:10CF5400000563048B01930440041375C507E308BB
:10CF640095D81945393139390545213126850D3989
:10CF740009453D314931E31C05D669BB91476399A5
:10CF8400F90013056006F536F53E130590090DB753
:10CF9400E38F09D4F154A9BB19CD91CD09CE8147B2
:10CFA4003387F500834607003307F5008507230020
:10CFB400D700E317F6FE828019C991C909CA910501
:10CFC40083A7C5FF11057D16232EF5FEC5BF8280FC
:10CFD40001C919C62A960505A30FB5FEE31DA6FED1
:10CFE400828081473307F5000307070019E33E8574
:10CFF40082808507C5BF01112E8626CAAA8413150F
:10D0040006019305F004418122CC06CE32C6EF001E
:10D0140010762A8401C53246A685BD3F2285F2409A
:10D024006244D24405618280854715C18DC105C221
:10D034008147B306F5003387F50083C6060003472E
:10D0440007006398E6008507E315F6FE85473E85ED
:10D0540082808147EDBF9307F6FFBE952A9663133E
:10D06400C5008280FD1583C715000505A30FF5FED5
:10D07400FDB7AA87014581CF09CE3E96850703C730
:10D08400F7FF6317B700E39BC7FE054582808280E4
:10D09400014582807971975700009387273922D4FC
:10D0A400804306D626D24AD04ECE52CC56CA5AC84F
:10D0B4005EC662C45DCC37C9C901814B175A0000F2
:10D0C400130A4A3B97540000938484361309F937B2
:10D0D400975A0000938A4A30B709C0A8370B4057C3
:10D0E4008357240095E35C44639D0B0017570000AD
:10D0F400232EF732032CC4002285EF00707462845F
:10D1040099A823A6FB00FDB783270A00829783868C
:10D1140064011C4463DB06063307F5406367E908D2
:10D124009757000023A2072C8355240003450400CD
:10D13400970002E0E78060735C405844A9CF144430
:10D14400B6978386640163C5060063E33701DA9703
:10D154001CC4A28B3A8449F4975700009387C727CD
:10D164009C4B09476378F706F91717570000232DDE
:10D17400F726B250225492540259F249624AD24AD2
:10D18400424BB24B224C45618280E377F5F83387FA
:10D19400F9402A9761B763970B009757000023A7BC
:10D1A400E72889BF23A6EB00B1B7D85009CF63DFC6
:10D1B40006003385A74083A70A016376F5009757D5
:10D1C400000023A3A722A28B404471B7E3F3A7FE78
:10D1D400CE97C5B79757000023A8072059BF411120
:10D1E40022C417540000130424221C4006C626C27D
:10D1F4004AC091C782979757000023A707205C4035
:10D2040091C382971C406390071C9757000083C703
:10D21400773A858B95C797570000A38D0738175722
:10D22400000003475739954763FCE700352B9757B0
:10D23400000083C75738F5178A07A2979C43829743
:10D24400175900001309C93A8347C900918B99C340
:10D25400EF0050451C4491C3829797540000938477
:10D26400A41C984017560000034616179757000051
:10D2740083C7871693961700BA9683D60600D5CA35
:10D284009757000083C7471563EFC70A97570000F5
:10D29400238407141C40639807129757000083C720
:10D2A400B73191CF9757000083C7F73089EB975771
:10D2B4000000A3830730972002E0E78020D297572D
:10D2C40000009387271B9C43638F070EB707C0A8F2
:10D2D40017570000232AF710753B975700009387D0
:10D2E4002715DC53EDC3175700001307E70E184B3F
:10D2F4009757000083C717156367F70C175700008B
:10D304000347772B954763E0E70C8347C900918B6C
:10D31400DDEB90409756000083C6160C63CBD70A0A
:10D324002244B240924402494101170302E06700DB
:10D33400A340850793F7F70F97560000238EF6084E
:10D34400E3E6C7F235BF86073E97835507002310EF
:10D354000700975700002397070C975700009387FF
:10D36400670A9C431755000003450507131725005A
:10D37400BA979C4382979757000083D7A70A1757F9
:10D3840000000347670593C7F7FF7D8D93171700C8
:10D3940098403E97835707005D8D2310A700975749
:10D3A400000083C7670391C785071757000023054B
:10D3B400F70217570000034727029757000083C757
:10D3C400B701E375F7ECB2402244924402494101AB
:10D3D4008280139717003297035707006DF785076C
:10D3E40035BFAD6737C70040BD072326F7200F10B0
:10D3F400000097570000938727FEC84F832787268E
:10D40400BD66BD0693C7F7FF99836A052326D72017
:10D414005D8D82804111B7170040985F3AC6945FD2
:10D424003247E39CE6FE324541018280828001114D
:10D4340022CC175400001304641918402AC62EC4C1
:10D4440032C206CE3C4B93F7F7F73CCB972002E071
:10D45400E78080B5184097560000938666143C4BCD
:10D4640093E707083CCB9C423245A24523A0070022
:10D474000347150003482500220742084297034842
:10D4840005004297034835006208429798D703473E
:10D4940055000348650022074208429703484500A7
:10D4A40042970348750062084297D8D7034795000E
:10D4B4000348A50022074208429703488500429783
:10D4C4000348B5006208429798DB0347D500034838
:10D4D400E5002207420842970348C5000345F500CA
:10D4E400429762052A97D8DB03C7150003C52500B8
:10D4F400220742052A9703C505002A9703C535006C
:10D5040062052A9798CF03C7550003C56500220713
:10D5140042052A9703C545002A9703C5750062058D
:10D524002A97D8CF03C7950003C5A5002207420553
:10D534002A9703C585002A9703C5B50062052A9773
:10D5440098D303C7D50003C5E500220742052A97EF
:10D5540003C5C50083C5F5002A97E2052E97D8D3E5
:10D56400D843759BD8C3D84313671700D8C39843CF
:10D574001367170098C3124698425C43858BD1E722
:10D584001C4F01452300F6009C429C4FA183A3003D
:10D59400F6009C429C4FC1832301F6009C429C4FA1
:10D5A400E183A301F6009C42D84F2302E600D84F42
:10D5B4002183A302E600D84F41832303E600D84F1A
:10D5C4006183A303E60098532304E6009853218360
:10D5D400A304E600985341832305E600985361832E
:10D5E400A305E600D8532306E600D8532183A306F7
:10D5F400E600D85341832307E600DC53E183A30705
:10D60400F600F2406244056182800100B5B7175705
:10D614000000130727F91443411122C49C5E4AC039
:10D6240006C6998326C2858B3A84175900001309CC
:10D6340029F7D1CB9C5E97540000938464F793F749
:10D64400F7F99CDE175700000347E7F69307000835
:10D65400631BF700832709009C4393F707041757BC
:10D664000000230AF7F483C7040093F707049DC35B
:10D6740097570000938707E09C43829797570000D1
:10D6840023A0A7F483C7040093F7F70B17570000F0
:10D694002300F7F283C7440093F707048DE7854717
:10D6A40017570000A308F7F097570000938707F275
:10D6B4009C43096798C7130700FC97560000238B07
:10D6C400E6EED844F8D31C40985F1183058B09CB50
:10D6D400985F3D9B98DF054797560000238CE6EC46
:10D6E400985F1D83058B11CB985F1377F7F798DF4D
:10D6F400854717570000230FF7EA83270900D8430B
:10D704000583058B19C7D843759BD8C3D843799B28
:10D71400D8C3B24022449244024941018280397103
:10D7240006DE16DC1ADA1ED82AD62ED432D236D029
:10D734003ACE3ECC42CA46C872C676C47AC27EC0CD
:10D74400F935F250E2525253C2533255A255125691
:10D7540082567247E2475248C248324EA24E124F96
:10D76400824F21617300203097570000938707E6AA
:10D774009443975700009387A7E303C70700058BDB
:10D7840011CB97570000238707E297570000A38324
:10D7940007E2828003C71700058B65F7F85271FF13
:10D7A40083C75700DDB7175800001308A8DF032705
:10D7B40008001C5F9583858BD1E709C61C5BBD837C
:10D7C4002300F60085CA83270800985B4607935711
:10D7D40067016356070093E707C0C207C183039735
:10D7E4000600C207C18709C7BA970947B3C7E7024A
:10D7F4002390F60085CD834715008DCB9756000006
:10D8040083C666DB93F606041387970089478DCA9F
:10D814003A9503470500854699471376F706631141
:10D82400D60262076187B947634C07008327080063
:10D834009C5FED838D8B17570000A300F7D88147B9
:10D844003E8582808547EDBF411122C406C6175428
:10D8540000001304A4D7184049E9AE877453FDFEB1
:10D864003E85B28597570000238507D4971002E0C0
:10D87400E780E04E975700009387C7D29C43B706D2
:10D8840080009843558F98C3D857719BD8D7975722
:10D894000000A38107D297570000A38B07D01C4038
:10D8A400094798C3B7F700E003A707D16D9B23A8E6
:10D8B400E7D003A707D15D9B23A8E7D073005010DE
:10D8C4001440175700001307A7CE83472700858B02
:10D8D40089EB83473700858BD9C797570000238B83
:10D8E40007CCB2402244410182808D476310F50287
:10D8F40097570000938707CB9C43B7068000984353
:10D90400558F98C3D857719BD8D75DBF8547E31906
:10D91400F5FAB567BD075CC70F1000001C40096726
:10D92400094698C7130700F8975600002384E6C8F1
:10D9340017570000130707C71443984231830D8B10
:10D944006319C7001307E043F8D33D673D07D8C701
:10D9540085BF984231830D8B01E713076019EDB73A
:10D964001307E01BD5B7FC52ADF3A5BF5D7152DCC4
:10D97400175A0000130A0AC303270A0086C6A2C462
:10D98400A6C2CAC04EDE1C43975900009389C9C879
:10D9940017590000130989C393F7F7E793E70708BA
:10D9A4001CC383A609003707CEFF7D179C461306C8
:10D9B40080022A84F98F9CC6832709001307000874
:10D9C4002800B8CBAE8493051008EFF06FE09710F1
:10D9D40002E0E780605D971002E0E780606A8327D9
:10D9E4000A009376F41F370FFCFF23A40700984B1B
:10D9F4004E88CA881367F70398CBF84F130510F8BD
:10DA0400D285137707E0558FF8CF9843F576FD1646
:10DA1400758F98C39843B7063300B7020400137791
:10DA2400F7E798C398439303401F7D1F1377F7E7E5
:10DA34001367071098C303A70900930F8002854951
:10DA44001C47D58F1CC7832709001307900D34008A
:10DA5400B8CB11490147135337002693834703007A
:10DA640013767700B3D7C740858BDDCF9C41832ED7
:10DA74000800239C07042390070603AECE02137EFE
:10DA8400DEFF23A6CE0383AE0700137EF70793FEC3
:10DA94000EF833EECE0123A0C70103AE4702336E66
:10DAA4005E0023A2C70383AE0800014E23A27E06B4
:10DAB40003DA070663074E0303AE0703038A06006F
:10DAC400135EFE00620E135E8E416358CA0103AEFC
:10DAD4000703135EFE002380C60103DE0706137EE0
:10DAE400FE0F03AA4E0663060A0003DA8705E37FE6
:10DAF40049FB03AE4702337EEE0123A2C7038387AB
:10DB04000600635CF400034E03003396C900134619
:10DB1400F6FF3376C6012300C3003E8663D3A70015
:10DB24002A8613158601618505071377F70F850685
:10DB3400E313F7F3B640264496440649F259625A71
:10DB44006161828097560000938646A89C42D8471C
:10DB540013161701635506029847131617016350ED
:10DB640006027D57B8D7175700001307E786584FAA
:10DB7400050717560000232FE686116798C79847B4
:10DB84000D83058B1DC317570000034787A2136736
:10DB9400170017560000230EE6A0130700F81756C7
:10DBA40000002309E6A0214798C79847058B09CFB1
:10DBB400175700000347D79F136717001756000035
:10DBC400A308E69E054798C798470983058B09E78C
:10DBD40098470583058B31CF9847175600001306E5
:10DBE400269D175500001305E59B0983058B6303E8
:10DBF40007101841184331830D8B75EBAC4B184E4D
:10DC040093F5050203471700CDCD79EF130770068E
:10DC1400D8CF0347060013671700175600002309DF
:10DC2400E698114798C718415C57F19B93E7170092
:10DC34005CD79C4298479316370163D606029756E1
:10DC4400000083C6E6A5C18A175700001307079E84
:10DC5400C5CE034747071367070297560000238181
:10DC6400E6A4056798C798479316270163D106026F
:10DC7400175700000347079462076187635707003B
:10DC84000547975600002387E692096798C7984787
:10DC94009316070163D606029756000083C656A062
:10DCA400858A1757000013076798ADCE03475707B7
:10DCB4001367270097560000A384E69E216798C740
:10DCC400828029D785456315B7001307B00689B745
:10DCD40089456315B7001307F0061DBF8D4563150D
:10DCE400B700130730072DB71307500715B71307ED
:10DCF400600739BF03473600136717001756000043
:10DD0400A309E68A094739BF834647070946BD8AFE
:10DD14006388C600034747078D463D8BE313D7F45A
:10DD2400114725BF83465707918AC9DA0347570726
:10DD34001367870041B7397106DE16DC1ADA1ED87C
:10DD44002AD62ED432D236D03ACE3ECC42CA46C897
:10DD540072C676C47AC27EC0F533F250E252525390
:10DD6400C2533255A255125682567247E247524860
:10DD7400C248324EA24E124F824F216173002030AE
:10DD8400175700001307C7848346B701975700004D
:10DD940083C7D7864C4BB697FD8B33D7F500975680
:10DDA4000000A387F68297560000A389F684058BAA
:10DDB40015EF175700000347B784B3F7E70281460E
:10DDC40001471305000233D6E500058A1378F70FDF
:10DDD40019CA6397D70097470000A38B077F8280F7
:10DDE400850693F6F60F0507E31FA7FC8280974785
:10DDF4000000938727689C43011122CC4EC606CEAF
:10DE040026CA4AC852C456C28297974700009387CD
:10DE1400277E804781496305A406BE849747000096
:10DE240093870761038767013E8963550706018D60
:10DE3400135455009747000083C7277B9379F50156
:10DE4400636DF402370AC0A8B70A4057153F9C44D3
:10DE54009746000083C66679139756003E9783075A
:10DE64006901158C63C5070063634701569797479B
:10DE7400000023A3E778E37BD4FC1604B3693401E0
:10DE8400F24062444E85D2444249B249224A924AFF
:10DE940005618280E37D85F8B707C0A83384874095
:10DEA400229579B7974700009387C75C9C4341113B
:10DEB40022C406C626C282979747000093874773F9
:10DEC40080476309A406BE8497470000938747569A
:10DED4008387670163D80704018D1354550097475E
:10DEE400000083C787706367F404593D98449747DB
:10DEF400000083C7876F9396570036971D8C97460B
:10DF0400000023ABE66EE372F4FE2244B240924476
:10DF1400174500000345D56B81454101171302E005
:10DF240067008331E37A85FAB707C0A83384874052
:10DF3400229565B7B24022449244410182809747BA
:10DF440000009387676D9843B75702009387079F34
:10DF5400832607091396560063580600832607098B
:10DF64001396660063440600FD17FDF3828071C5B5
:10DF7400AA870145E9C58D07C207C183F19BC20782
:10DF8400C18313074003636FF702174700001307A9
:10DF9400A769084317470000130787681443639869
:10DFA400A602174700001307A748185B014541CB99
:10DFB4004111C20706C60545DD8D0297B2400145F1
:10DFC40041018280174700001307C765D9B703577B
:10DFD400650035E303574500636FF704B306F74064
:10DFE4002146637CD60203280500938687001D8F93
:10DFF400AA966117174600000356663E2392E60070
:10E0040023A006012393060014C12312F50013076D
:10E0140086FF974600002394E63C2313B5009745FA
:10E02400000083D5C53BB387F5401747000023188C
:10E03400F73A2105828008419DB70145828082809C
:10E044000DC1974700009387275E03A307009747F6
:10E0540000009387E75C83A8070081469A8763E3FF
:10E064001701828003A80700636DF50A636BA80A91
:10E0740013878700E367E5FE03D66700216705077A
:10E084006317E60003C7F18B0507A38FE18A974561
:10E0940000009385653403D6470003D765002393B6
:10E0A4000700329742074183174500002319E532E0
:10E0B400638A6702174500001305C55608416303C8
:10E0C400F50203D5660019ED83D7460023A00601A7
:10E0D40021073E9621062392C6009747000023900D
:10E0E400E730B6879843E30E17F797460000938608
:10E0F40066539442E307D7F683566700BDF283D68E
:10E104004700035647001843A106B2962392D7004E
:10E1140098C383D76500A107174700002311F72C84
:08E124008280BE86C28725BF80
:10E130009751FF1F938101A217A1FF1F130181ECCB
:10E1400017E5FFFF130545EC9725FF1F938585EB2A
:10E150001746FF1F130686FD63FAC50083220500DC
:10E1600023A0550011059105E3EAC5FE172502001D
:10E17000130505F59745FF1F938545FB138601821F
:10E1800063FAC5008322050023A0550011059105FF
:10E19000E3EAC5FE138501829785FF1F9385C55A63
:10E1A0006377B500232005001105E36DB5FEFD4240
:10E1B000739002BC8D4273904280B722000093821C
:10E1C000828873A002309722FF1F9382A2E393E21A
:10E1D000320073905230970201009382824B739009
:10E1E0001234730020303D432A876373C302937750
:10E1F000F700BDEFADE5937606FF3D8ABA960CC3F6
:10E200004CC30CC74CC74107E36BD7FE11E28280B9
:10E21000B306C3408A069702000096966780A60060
:10E220002307B700A306B7002306B700A305B7006E
:10E230002305B700A304B7002304B700A303B70066
:10E240002303B700A302B7002302B700A301B7005E
:10E250002301B700A300B7002300B700828093F525
:10E26000F50F93968500D58D93960501D58D61B7F1
:10E27000939627009702000096968682E78086FA9A
:10E280009680C1171D8F3E96E374C3F8A5B7336718
:10E29000B500FD530D8B79E7B7877F7F9387F7F73D
:10E2A00010419441B372F6003363F600BE92B3E2BC
:10E2B00062006397720C6318D6065041D441B37262
:10E2C000F6003363F600BE92B3E262006398720A0E
:10E2D000631BD60410459445B372F6003363F60011
:10E2E000BE92B3E262006391720A631ED602504589
:10E2F000D445B372F6003363F600BE92B3E2620017
:10E30000639A72086311D60210499449B372F600F9
:10E310003363F600BE92B3E2620063937208510564
:10E32000D105E30FD6F61317060193970601631C78
:10E33000F7001357060193D706013305F74093758D
:10E34000F50F91E982804183C1833305F7409375CE
:10E35000F50F91E182801377F70F93F7F70F3305ED
:10E36000F74082800346050083C605000505850544
:10E370006313D60065FA3305D640828011059105F6
:10E38000E312D6FE014582802105A105E31CD6FCDF
:10E39000014582803105B105E316D6FC0145828036
:10E3A0004105C105E310D6FC0145828001471146B5
:10E3B0004148B386E5008147B308F50083C80800EB
:10E3C0008507C10623A816FFE398C7FE11071105AC
:10E3D000E31107FF8280935785019CC19357054144
:10E3E00093F7F70FDCC19357854093F7F70F137539
:10E3F000F50F9CC5C8C582801C414111130705015A
:10E400003EC05C413EC21C453EC45C453EC693973F
:10E4100025001408B69783A707FF85051105232E4D
:10E42000F5FE8D89E315E5FE41018280397122DC1C
:10E4300041661384018D06DE26DA4AD84ED652D4C0
:10E4400056D25AD05ECE93050501A2863708FF004A
:10E450007D1683070500034735001105E207D98FB4
:10E460000307D5FF9106420733770701D98F0307CA
:10E47000E5FF2207718FD98F23AEF6FEE39BA5FC43
:10E4800081499144930A010117DB0100130BCB5022
:10E4900097DB0100938BCB4D130AC00293F7340036
:10E4A000032904004844BDE78A85353785450A8538
:10E4B000A1370A871C43110793F6F70093F7070F5C
:10E4C000DA97B69783C70700232EF7FEE394EAFE98
:10E4D000024592476205C2075D8DB2475D8DA24736
:10E4E000A2075D8D93972900DE979C4385093D8D9A
:10E4F0003345250108C885041104E39144FBF2501B
:10E500006254D2544259B259225A925A025BF24B87
:10E51000216182803345A90008C8F1BF797122D4F6
:10E5200026D24AD04ECE52CC56CA06D62A8A9399C3
:10E5300045000144938A018D13090101C144B307C9
:10E540003401D69788438A85793533078A008A87CC
:10E550001443904391074107B18E2328D7FEE399D6
:10E5600027FF1104E31D94FCB25022549254025927
:10E57000F249624AD24A45618280397122DC130431
:10E58000050106DE22878147C1460C433306F100B0
:10E5900011070CC24C4710083E960CC24C4F10108D
:10E5A0003E960CC29107E392D7FE85450A85A935B0
:10E5B0008945080891358D4508103D3D8147414703
:10E5C000B306F10094421104232ED4FE1408BE9623
:10E5D000944254C41410BE969442910754CCE391D3
:10E5E000E7FEF250625421618280060593770510A0
:10E5F00089C71375F50F1345B5018280411106C611
:10E60000ED37B2404101D5B781471148C148338643
:10E61000F500B306F500014703AE06003303E6003C
:10E6200005072300C301C106E31807FF9107E39024
:10E6300017FF82809306050117D601001306C63521
:10E6400013050505138706FF1C43110793F5F70013
:10E6500093F7070FB297AE9783C70700232EF7FEF5
:10E66000E394E6FEC106E31FD5FC8280411122C47B
:10E6700006C626C285472E846301F50289476318C2
:10E68000F5002244B24092442E854101B9BF8D4726
:10E69000631BF5002E85913F298C2285B2402244D0
:10E6A000924441018280A5476315F5002E85B93754
:10E6B000DDB7AD47631AF5002E8589373D37AA844B
:10E6C00022852537258DC9BFB5476316F5002E85F0
:10E6D0003537AA84FDB7B947E311F5FC2E85393FDC
:10E6E000AA842137A98C228509373344950075B750
:10E6F0006382051493F7F500639E07121571D6C364
:10E70000AA8A3285A2CDA6CB86CFCAC9CEC7D2C52A
:10E71000DAC15EDF62DD66DB6AD96ED73284AE8431
:10E72000EF907146C147631EF50022850133014910
:10E73000130A010697DB0100938B0B3A294C6341C6
:10E740009902FE406E44DE444E49BE492E4A9E4A1E
:10E750000E4BFA5B6A5CDA5C4A5DBA5D2D618280C1
:10E76000338B2A010C105A859131814508107D3375
:10E7700085490810C135081009351C10D2863E871E
:10E7800010434107C10623A8C6FE032647FF23AA5C
:10E79000C6FE032687FF23ACC6FE0326C7FF23AEB3
:10E7A000C6FEE31FEAFC17D701001307E72E032874
:10E7B0000700832D4700032D8700832CC700528458
:10E7C000138607010C4042853ECE3ACC32CA42C87D
:10E7D000713D0C482AC66E85513DB2460C5011045D
:10E7E000A98E6A8536C65935B2464C54A98E6685BF
:10E7F00036C6AD3DB246F2475246358D88C39107C5
:10E8000042486247E310F6FC4107B287E391EBFA16
:10E81000CE85081085091933E39D89F50810193D47
:10E820000810A13BA9450810D539DA850810E93B45
:10E83000410931B782809307F00F6384F60A2D7186
:10E84000232A911023282111B28423263111130683
:10E8500000102E89AA89930530020A85232E1110F3
:10E86000232C811036844132A2852685EFC0802674
:10E8700013178500935785003365F7002310A10017
:10E88000A6852286130531009304340023018100FC
:10E8900093F4F40FEF80115893F6F40089C64D04F9
:10E8A000158C9374F40F1C02A697A6850A8517D6BB
:10E8B000010013066622238007F01D3D26868A8507
:10E8C0004E85EF803155230099008320C111032428
:10E8D000811183244111032901118329C11015617C
:10E8E00082808280411106C6EF808000B240AA86F5
:10E8F00017D70100130747241756FF1F1306062AD0
:10E9000097D5010093858524114541016FC080365C
:10E91000130101DB23248124232021252326112414
:10E9200023229124232E3123232C4123232A5123D4
:10E930002328612303470500930710042A892E84A6
:10E940006317F76E03471500930740056311F76ED1
:10E95000034725009307E005631BF76C2E86AA8505
:10E960002545EFC000261306D003A2854A85EFC0D7
:10E97000E03EAA84635A05003546A2854A85EFC069
:10E98000E03DAA84634405089389D4FF93071003EC
:10E9900063CE37074E86930539002808EF90912201
:10E9A0001C1CBE9917DA0100130A0A49238409DEE8
:10E9B000D28A81494D4B83254A002808EFC0C033D5
:10E9C0000DC18E09D69983D709004947636FF700B7
:10E9D00017D70100130787118A07BA979C43BA9784
:10E9E00082878509210AE39869FD97D501009385FF
:10E9F000E543CDA89305F4FF858D13851400C2056A
:10EA000081460146C1814A95EF2050698320C12487
:10EA10000324812483244124032901248329C1233D
:10EA2000032A8123832A4123032B01231301012578
:10EA300082801306F4FF058E9385140042064182FE
:10EA4000CA95E800EFC0E0591305D104EF90B11367
:10EA500093150501C1811305D104EFC0006597D559
:10EA600001009385E50F1305D104EFC0E02819CD0F
:10EA700097D501009385450F0545EFC060091765DF
:10EA8000FF1F03457508EF50A07049B797D50100E7
:10EA90009385C50E1305D104EFC0002619CD97D577
:10EAA00001009385250E0545EFC080061765FF1F01
:10EAB00003459505EF50807091BF97D50100938570
:10EAC000650D1305D104EFC0202319CD3717004081
:10EAD0008327C70A856697D501009385250CD58FB6
:10EAE0002326F70A2545A5A697D501009385C50BD2
:10EAF0001305D104EFC0402011CD37170040832704
:10EB0000870A856697D501009385850AD58F2324CA
:10EB1000F70AC9BF97D501009385050A1305D104EB
:10EB2000EFC0801D11CD371700408327C70AA166AB
:10EB300097D5010093850509D58F2326F70A5DB780
:10EB400097D50100938505091305D104EFC0C01ABC
:10EB500011CD371700408327870AA16697D501009A
:10EB600093850508D58F2324F70AADBF97D50100FB
:10EB7000938505081305D104EFC0001805C1B71629
:10EB8000004083A7860A056713070780D98F23A44F
:10EB9000F60A97D5010093856506A9B797D50100B8
:10EBA000938585061305D104EFC0001505C1B7167E
:10EBB000004083A7C60A056713070780D98F23A6DD
:10EBC000F60A97D501009385E50429BF97D5010082
:10EBD000938505051305D104EFC0001201C5EF6050
:10EBE000106B2DB597D501009385C5031305D1048E
:10EBF000EFC0801011C59767FF1F23A907F239B531
:10EC000097D501009385C5021305D104EFC0C00E4E
:10EC100001C5EF60A011DDBB97D50100938505020A
:10EC20001305D104EFC0400D01C5EF608010F9BBA2
:10EC300097D50100938545011305D104EFC0C00BA2
:10EC400001C5EF60400ED9B397D5010093858500CB
:10EC50001305D104EFC0400A01C5EF90A04E7DB36B
:10EC600097D50100938585FF1305D104EFC0C00837
:10EC700009C50545EF80504D51BB97D501009385DF
:10EC800065FE1305D104EFC0200719C10145DDB7AA
:10EC900097D50100938585FD1305D104EFC0C0050C
:10ECA00011C9371700408327C70A9166D58F2326DD
:10ECB000F70AA9BB97D501009385C5FB1305D104BD
:10ECC000EFC0800311C9371700408327870A916678
:10ECD000D58F2324F70A1DBB97D50100938505FA2C
:10ECE0001305D104EFC0400109CD396697760000C5
:10ECF0009386A6F71306061085450145EF8040353B
:10ED000031B397D501009385A5F71305D104EFB072
:10ED1000B07E19C539668146130606108145F1BFDC
:10ED200097D50100938505F61305D104EFB0D07C8B
:10ED300011C913059108EF80310B1375F50FEF50D2
:10ED4000107DE9B10346D104A547130606FD1376ED
:10ED5000F60FE3EDC7CA9767FF1FA38FC7DA97D5F2
:10ED60000100938565F2EFB0F0704DB11306F4FF2A
:10ED7000058E138514004206418297E501009385B4
:10ED8000E5AB4A95EFC0000B1764FF1F1304C4D610
:10ED90001DC50545EF10901B97D50100938505F023
:10EDA0001145EFB0F05683570400414593E7170033
:10EDB0001767FF1F2312F7D4EFC0101681B997D53C
:10EDC0000100938565EE1145EFB090547D55EFC07D
:10EDD000901783570400F99B1767FF1F231EF7D076
:10EDE00035B1093625B11306F4FF058E13851400DD
:10EDF0004206418297E50100938545A44A95EFC0FC
:10EE000060031764FF1F130424CF29C58357040030
:10EE100097D50100938505EAE80093E71700176787
:10EE2000FF1F231BF7CCEF90E154E800EF90A155B2
:10EE300013160501EC0041821745FF1F1305055706
:10EE4000EF80005F97D50100938585E81145EFB00D
:10EE5000304C6DBE97D50100938545E8E800EF90F2
:10EE60006151E800EF90215213160501EC00418238
:10EE70001745FF1F13058553EF80805B8357040000
:10EE800097D50100938545E7F99B1767FF1F231569
:10EE9000F7C66DBFEF7060649767FF1F9387C7C5A4
:10EEA000E847EF80414BAE862A8697D501009385CF
:10EEB00065E51145EFB0105C91BEEF500043B9B667
:10EEC00017E601001306069897D50100938545E4DF
:10EED000114551BDEF70302697D50100938505E4AB
:10EEE00035F597D50100938565E48DB73145EF90F1
:10EEF000200BAA84EF8021462A86AE86254597D529
:10EF000001009385E5E3EFB0F05697D701009387B2
:10EF1000E7C48843A6851754FF1F130464E0EF700D
:10EF200031592320A422EF70102803250422EF80FA
:10EF30008142AE862A8697D50100938525E195BF4B
:10EF400081450D45EF507049EF70D0192A8697D54D
:10EF50000100938565E2ADBF81452D45EF50F04737
:10EF6000814513055004EF50504797D50100938514
:10EF7000A5E13145EF507046EF7030172AC6EF70AB
:10EF80009017B2462A871756FF1F130626C197D53A
:10EF900001009385A5DF1145EFB0D04D85BC175713
:10EFA000FF1F035787F99756FF1F938676E1175681
:10EFB000FF1F1306A6BE97D50100938565DFE1BF4D
:10EFC00085471757FF1F2303F7F8EF70D01D97D51C
:10EFD0000100938525DF9DBD1757FF1F034707F7E6
:10EFE000854797D50100938565DEE311F7E6C5B740
:10EFF0009767FF1F938747B0A847EF80C135AE865C
:10F000002A8697D501009385E5DC65B5B7170040E2
:10F0100083A7470A97D50100938505DD93F707205D
:10F02000E39607E297D50100938505DE05B5014615
:10F03000A2854A85EF50501AD1BA411122C42164E9
:10F040009305048099460146254506C69720FF1F73
:10F05000E78020BE930504802244B240994613867F
:10F060000182294541011723FF1F670083BC99E1F5
:10F070000145828075DD011152C403DA418226CA3E
:10F0800093548A008504A204C204C18056C2B38A84
:10F090004441C20A22CC4AC82E862E842A8997D59A
:10F0A0000100938525FD254593DA0A014EC606CE5B
:10F0B00093890182EFB0103C63ED8A0883D54182C9
:10F0C00093F7F50FB1CF8D6783D541829387078082
:10F0D000A2864A86BE9529459720FF1FE78060B526
:10F0E0001375F50F29ED83D749001566A297239272
:10F0F000F18203D7418283D721826309F70063F34A
:10F10000E700B297998F139607014182254597D55D
:10F1100001009385A5F7EFB0F0351375F40F0DA03E
:10F120008D6793870780930600100146BE9525459D
:10F130009720FF1FE780E0AF1375F50F49D5014514
:10F14000F2406244D2444249B249224A924A05619D
:10F150008280B3079440D297C207C183A18303C7BB
:10F160004900850793F7F70F9396870011EB938675
:10F17000170093740AF0A206C204C206C180C182BD
:10F1800083D7218263F6F40033879600E3C9E7FA58
:10F190000D6A130A0A800146B3854401254597206C
:10F1A000FF1FE78000A91375F50F51F983D5418240
:10F1B000A2864A86D29505B7411122C413840182E2
:10F1C00022858145194606C69720FF1FE78080E00B
:10F1D0009307B0FA2300F4008D352244B24097D54E
:10F1E00001009385A5E1254541016FB07012A1652D
:10F1F0004111994613860182938505802D4506C6E7
:10F200009720FF1FE780E0A203C701829307B00A9F
:10F210006303F7005537B24083D6418203D621827B
:10F2200097D50100938545DE254541016FB09024B7
:10F2300083D701980145638C071003D52198636635
:10F24000F50023A00198014582803385A740D1476E
:10F250003355F5021375F50F01E52390019882806F
:10F26000130101BD2324814223261142232291420E
:10F2700023202143232E3141232C4141232A514174
:10F2800095471374F50F63F3A7001544228697D5AD
:10F290000100938565E12545EFB0D01D014981440A
:10F2A00093894198514AA14A9377F90F03D5219840
:10F2B0001757FF1F034757BD63E98704D14733043E
:10F2C000F4022A9423918198A147631CF706A6852E
:10F2D0000808EF40001C03D7219883D70198054503
:10F2E0006364F70023A001988320C1420324814274
:10F2F00083244142032901428329C141032A8141D8
:10F30000832A4141130101438280B3074903140852
:10F31000AA97CE9733859600631E5701BE85EF40AE
:10F32000C0362317A1008357E1000509BE94C2042B
:10F33000C1809DBFAA851306E1003E85EF90D040B5
:10F34000DDB726860C080145EF60006B69B7828047
:10F35000011106CE22CC26CA4AC84EC691E9014404
:10F360002285F2406244D2444249B249056182801A
:10F37000AA8975D583D7418203D621822E849564CC
:10F38000638AC7006374F60015673A961D8E93145E
:10F390000601C180268697D50100938525C32545A2
:10F3A000EFB0500D938714F06356F4009307F00FFD
:10F3B00063EA970097D501009385C5C22545EFB054
:10F3C000700B71BF83D4418233878400956763C714
:10F3D000E700A2854E8561398D3159B7156933092A
:10F3E0009940420913590901CA854E85493125D9E9
:10F3F000ED75A695A295C20523920182C181338540
:10F400002901D1BF83D6019881EA97D50100938560
:10F41000E5C325456FB0C06F03D621984111918E89
:10F4200097D50100938585C3254506C6EFB09004A6
:10F43000138701988355070083D721981385419836
:10F440009D8DC2053E95C1812137B24023A0019810
:10F4500041018280411183D7019822C426C206C689
:10F46000AE971307401FAA842E84635AF700593FB2
:10F4700097D50100938545BB2545EFB0606983D7DB
:10F480000198138541982286A6853E95EF808118C4
:10F4900003D60198229642062244B2409244418209
:10F4A0002390C19897D50100938585B925454101E1
:10F4B0006FB0407C011126CA06CE22CC4AC84EC687
:10F4C00052C456C2814459C1D1C183D7218203D4C9
:10F4D0004182638D870663F587081D8C4204418055
:10F4E000AE892A89228697D501009385A5AA014570
:10F4F000EFB04078A28463F38900CE84C2040D6A21
:10F5000083D7218203D74182C180938A0182130A63
:10F510000A8063FAE704A6864A86B38547012D452B
:10F520009710FF1FE780E07083D72A00A6972391EA
:10F53000F182EFF09FB083D6418203D6218297D526
:10F540000100938565A62545EFB0C072F240624484
:10F5500026854249D244B249224A924A05618280B4
:10F5600015673A949DBF15671D8FB385470163D515
:10F57000E400A6864A8665B79569B389F9406D743B
:10F580003E94C20993D909012694CE864A86420444
:10F590002D459710FF1FE780C0694180A286330682
:10F5A0003901D2852D45239101829710FF1FE780F5
:10F5B000406883D72A003E94239181829DBF1841E1
:10F5C000938781FB104598C303574500544590C766
:10F5D0002392E70058551049D4C7544998CF97D57E
:10F5E00001009385E5C00547254590CBD4CB238EFC
:10F5F000E7006FB0E051397126DA4AD84ED652D4BE
:10F6000056D25AD006DE22DC62CE66CC2A89EF8042
:10F6100091579374F50F8149254BE54A17DA01009C
:10F62000130ACAA991ECF25062544E85D254425941
:10F63000B259225A925A025B724CE24C216182808A
:10F6400003470900930707FD93F7F70F637CFB005F
:10F650009307F7F993F7F70F63E2FA06930797FA20
:10F6600093F7F70F139487016184FD142300890039
:10F670002685EF70A11F2A86AE8603250A00832502
:10F680004A0093F4F40F0509EFF0E02A2AC422851A
:10F690002EC6EF70A11D2246B246EF60C14D2A8CE6
:10F6A0004E85AE8CEF70A1232A86AE866285E685F4
:10F6B000EF504161EF70C115AA89ADB79306F7FB12
:10F6C00093F6F60F8147E3EFDAF8930797FC49BF0B
:10F6D000411122C406C6830795022A8499C71305DF
:10F6E0009502EF7071702389A1F68307D41291CB34
:10F6F0001305D412EF70F16EEF70B150938701F4DF
:10F70000C8D3B240224441018280011126CA930429
:10F71000150022CC97D50100938545B12A84268512
:10F7200006CE4AC84EC6EFB02065631E051097D5B9
:10F7300001009385E5AF2685EFB000646302050EF6
:10F7400085448307D4036386070C13059402EF7086
:10F75000B16985491379F50F1305D4036387340F15
:10F760008947638CF418EF703168A38AA1F6631A95
:10F77000390179468145138571F923830182EFE0D0
:10F780009FA68307D40885C31305D408EF70D165FD
:10F7900003C76182930717002383F182938701F4E3
:10F7A000BA97A38BA7048307D40D85C31305D40D83
:10F7B000EF70916303C76182930717002383F1827F
:10F7C000938701F4BA97A38BA7048307D41285C348
:10F7D0001305D412EF70516103C7618293071700BC
:10F7E0002383F182938701F4BA97A38BA70483073D
:10F7F000D41785C31305D417EF70115F03C7618257
:10F80000930717002383F182938701F4BA97A38BA0
:10F81000A704F2406244D2444249B2490561828061
:10F8200097D50100938505A12685EFB0E054E31933
:10F8300005F0268597D50100938505A0EFB0C0534C
:10F840008944E31005F08144EDBDEF70F159238B3D
:10F85000A1F6631A990079468145138591F72383B0
:10F860000182EFE05F988307D40885C31305D408AD
:10F87000EF70915703C76182930717002383F182CA
:10F88000938701F4BA97A38CA7028307D40D85C38D
:10F890001305D40DEF70515503C76182930717000C
:10F8A0002383F182938701F4BA97A38CA70283077D
:10F8B000D41285C31305D412EF70115303C76182AC
:10F8C000930717002383F182938701F4BA97A38CDF
:10F8D000A7028307D417E38E07F21305D417EF703E
:10F8E000B15003C76182930717002383F182938786
:10F8F00001F4BA97A38CA70229BFEF70F14EA38B36
:10F90000A1F601BF411122C406C6830795072A84C8
:10F9100099C713059507EF70314DA389A1F68307A9
:10F92000D40899C71305D408EF70114C238AA1F6A7
:10F930008307540B91CB1305540BEF70914AEF7072
:10F94000512C938701F488D7B24022444101828030
:10F95000011126CA8146B284014652C456C206CE5F
:10F9600022CC4AC84EC62A8AAE8AEF60E10341CD56
:10F970009307E0046386F400930730056395F40869
:10F9800097D901009389898803A6090083A64900B5
:10F990005285D685EF60211E37949800EF6051673D
:10F9A000130404682A8933758502EF60517303A636
:10F9B000090083A64900EF50F12397D701009387F0
:10F9C00067859043D443EF50F1222A8A3355890248
:10F9D000AE8AEF60D1702A86AE865285D685EF500A
:10F9E000612E13073005AE876395E400B7070080EA
:10F9F000AD8FF2406244D2444249B249224A924A0F
:10FA0000BE850561828001458147E5B7011126CA9F
:10FA10008146B284014652C456C206CE22CC4AC8A0
:10FA20004EC62A8AAE8AEF50317841CD93075004F2
:10FA30006386F400930770056395F40897C9010085
:10FA40009389C97C03A6090083A649005285D685FF
:10FA5000EF60611237949800EF60915B13040468C3
:10FA60002A8933758502EF60916703A6090083A692
:10FA70004900EF50311897C701009387A779904349
:10FA8000D443EF5031172A8A33558902AE8AEF608A
:10FA900011652A86AE865285D685EF50A1221307BE
:10FAA0007005AE876395E400B7070080AD8FF24024
:10FAB0006244D2444249B249224A924ABE85056113
:10FAC000828001458147E5B71357850093570501AB
:10FAD00013D885009376F50F01111377F70F93F77D
:10FAE000F70F618593F5F50F1378F80F99C211C3DD
:10FAF000B9E3230CD100A30CE100230DF100A30D09
:10FB0000A10003459101834781010347A10122051B
:10FB1000A30E01014207C98F230EB1000345B101B5
:10FB2000D98F0347D1018345C101620522075D8D4D
:10FB3000D98D0561828032951375F50F13138501F8
:10FB4000135383415D466357660861463363C302BE
:10FB500085071376D70F114593F7F70F6305A600B6
:10FB60002545631AA6007946637FF60205071377D9
:10FB7000F70F85470DA809466312C7041386067D53
:10FB800093084006B36816036385080013F5360032
:10FB900011C5130500193366A60219EE7546637484
:10FBA000F60085470D47230CD100A30CE100230D7F
:10FBB000F100A30D6100B1B77146D5B77D46E3747E
:10FBC000F6FEB147E314F7FA850693F6F60F85477C
:10FBD0000547D1BFE35903FC6105FD1713138501E8
:10FBE00093F7F70F13538341DDFF7D171377F70F5B
:10FBF0001146F947E309C7FA1946E306C7FA25464D
:10FC0000E303C7FA2D46E300C7FA89476316F702F4
:10FC10001386067D93074006B367F60291C793F8F3
:10FC20003600F547E38108F893070019B367F60239
:10FC300093B71700F10785BFFD4735F7FD1693F61B
:10FC4000F60F31478DB783471500034705000111B3
:10FC5000A2075D8F83472500834635008345450015
:10FC6000C207D98F0347550022CC1744FF1F130446
:10FC7000240B03061420E206220733E5F600D98D93
:10FC800006CE9935135885001356050193D7850084
:10FC900013F7F50F93F7F70F935685011376F60FC9
:10FCA0009375F80F1375F50FEF80C00883471400A4
:10FCB000054793F7B70F6397E7006244F240056189
:10FCC0006F80A016F240624405618280497123244E
:10FCD0008116138401F48307340083C851F403C8E8
:10FCE00041F403C721F483C611F403C601F497C598
:10FCF00001009385255648102326111623229116BC
:10FD000023202117232E3115EF8061624810EF80E8
:10FD1000816718485C48030604033AC03EC20308E2
:10FD200014035C441844541097C50100938585540E
:10FD30003695EF80C15F4810EF80E1645C103E951E
:10FD40008307640017C601001306465089C717C60B
:10FD500001001306264F97D501009385A50AEF8071
:10FD6000015D4810EF802162544C104C5C1097C527
:10FD70000100938525513E95EF80615B4810EF802F
:10FD80008160030634035C103E9597C5010093859E
:10FD90002550EF80C1594810EF80E15E030724032E
:10FDA000AA8448503ACE138401F4EF70C15A7247C6
:10FDB0005C10AE862A8697C501009385654E338513
:10FDC0009700EF80C1564810EF80E15B5C1003C6DE
:10FDD00041F797C501009385254E3E95EF8021554B
:10FDE0004810EF80415A5C1097C501009385C54DBE
:10FDF0003E95EF8021581389E1F5A28497D901003F
:10FE00009389C9FF03C6740519CA481032CEEF8022
:10FE1000815772465C10CE853E95EF804151850436
:10FE2000E39224FF4810EF8001565C1097C5010053
:10FE30009385054A3E95EF80E15397D40100938462
:10FE4000E4FB0346940319CA481032CEEF80A15355
:10FE500072465C10A6853E95EF80614D0504E31265
:10FE600024FF4C102545EFA0B04A8320C11603247F
:10FE7000811683244116032901168329C115756152
:10FE80008280411122C406C626C2830755012A84F6
:10FE9000B9C7A946938707FDB387D7020347650112
:10FEA000130707FDBA97A381F1F403077501834790
:10FEB0008501130707FD3307D702938707FD3E9798
:10FEC0002382E1F4830795010347A501938707FD8A
:10FED000B387D702130707FDBA97A382F1F483070C
:10FEE000940281CB130710046391E71485472383A1
:10FEF000F1F48307D403938401F499C71305D40361
:10FF0000EF70216E88C4CCC40306140509CA884466
:10FF1000CC442388C1F6EFF0BFA388C4CCC48307C8
:10FF2000540699C713055406EF70A16B88C8CCC856
:10FF30000306940709CA8848CC48A388C1F6EFF0A5
:10FF4000FFAC88C8CCC88307D40899CF1305D40860
:10FF5000EF70216997C701009387472E9043D443E0
:10FF6000EF50714188CCCCCC8307140A99C7130594
:10FF7000140AEF7061672390A1F68307540BB9C789
:10FF8000A946938707FDB387D7020347640B13077E
:10FF900007FDBA972381F1F40307740B8347840BA1
:10FFA000130707FD3307D702938707FD3E97A3800A
:10FFB000E1F48307940B0347A40B938707FDB387F2
:10FFC000D702130707FDBA972380F1F48385340025
:10FFD000856703C641F4938707E11307C00333071E
:10FFE000E60283C651F4B387F502BA97B69723A603
:10FFF000F1F61757FF1F130727B0835707003A84FE
:020000021000EC
:1000000013F5870039E1038564000547631FE502A6
:1000100003C721F411EF8844CC4401468146EF50D8
:10002000B11805E9238301F4B9A0238301F4D1B504
:10003000FDD175D2EDD293E78700138501F41757F0
:10004000FF1F231BF7AAEFF01FC083876400E1F7AF
:10005000D1BF8848CC4801468146EF50F11479D190
:1000600083C721F4E1D313068007938501F4138538
:1000700081ECEF70215A03C581B79D4705053365B3
:10008000F50213068007938501F4238CA1B693072C
:1000900080073305F502938701B83E95EF708157CD
:1000A000EFF0DFC21C5C2244B24092441757FF1F9E
:1000B0002324F7A8130680078145138501F4410125
:1000C0006FE06F920171232C811E232A911E13066B
:1000D000101E2A84AE8468008145232E111E232819
:1000E000211FEFE04F90814581470147014651486C
:1000F000CD485D436340960899C12306F10013067D
:10010000A002A6852285EFA070458347C100514714
:100110003386A440B387E7029305150078007D1667
:10012000A29585073305F700EF70C14E1306A002B4
:10013000A685228503491400EFA05042894763C376
:10014000A7080345C100D1473305F5027C0005052A
:100150003E95EFF04FCA631CA904194697C50100EC
:100160009385C50B1305D100EFA0D04C25C56800C1
:10017000093B35A8B306C40003C50600930665FD18
:1001800093F6D60F91EA850793F7F70F6361F302B1
:10019000854501470506B9BFB3860703130E011F46
:1001A000F296BA96A38EA6E00507E3D5E8FE832073
:1001B000C11F0324811F8324411F0329011F130131
:1001C000012082803307F400034707008507334985
:1001D000E900B5B7194697C5010093856504130575
:1001E000D100EFA030450DED194697C5010093856C
:1001F00065031305D100EFA0F04319ED194697C52B
:100200000100938565021305D100EFA0B04245D1EE
:100210006800EFF08FCF61BF6800EFF0AFEE41BF35
:100220006800EFF0EFCA61B7757122C526C34AC1F5
:10023000CEDED2DCD6DADAD806C7AA892E89814486
:1002400001448147130A4002854A354B1397040144
:100250004183636C2701BA402A449A440A49F659FB
:10026000665AD65A465B49618280338799000347B4
:10027000070063004703639C5701631D67019C18D7
:10028000A297A2856800238E07F82D3D814785043B
:1002900075BF01449C18A29705041374F40F238EB4
:1002A000E7F893373406E5B7411106C6138581B7E1
:1002B00083470500130780078145B387E7021306CC
:1002C0008007A1073E95EFD01FF2B240814511454E
:1002D00041016FB0203D138581B7834705001307A7
:1002E0008007B387E702A1073E958280138581ECE2
:1002F00082809757FF1F83C7B78081CF9747FF1F23
:1003000083D727C2FD17C207C1831307A0036375F4
:10031000F70023A40182828031714ED793898182B4
:1003200083A7090056D3938A81B7850722DD26DB90
:1003300052D55AD15ECF62CD66CB6AC906DF4AD9A3
:100340006EC723A4F18283C481B7014A130C8007CE
:10035000568497CC0100938C6CE0054D9D4B154B5A
:100360003389840356998307E900E1CF03A60C0083
:1003700083A64C000325090283254902EF504174EE
:100380006341050C83470904638DA70B93171A007B
:100390001808BA97035789022390E7003C00D297C8
:1003A00023809700050A9904B3E47403E31A6AFBF7
:1003B0000357810183570101998F13D7F741B98FF3
:1003C000998F939407011307400BC1806358F7007E
:1003D00093078016B3849740C204C180268697C5D0
:1003E00001009385A5DA6808EF7071746C082545E3
:1003F000EFA00072938714FFC207C1837947636E31
:10040000F70803499100130A800785450145330920
:100410004903210922994A86EF90E0018344B10003
:1004200085450145B3844403A104A2942686EF9038
:100430008000CA850D45EF308027A6850D45EF3039
:10044000002783A709001747FF1F035787AD63E7FE
:10045000E70203C581B79304800733059502B30D06
:10046000A4008387ED0099CB83C741FD138981FBED
:100470006397070E21052295EFF06F94FA506A54A6
:10048000DA544A59BA592A5A9A5A0A5BFA4B6A4CB0
:10049000DA4C4A4DBA4D296182809307D002E3F2CB
:1004A00097FA834B8100930A80078545B38B5B03E2
:1004B0000145138C8B00229C6286EF80D077034B22
:1004C000910085450145330B5B03A29B210B229BC9
:1004D0005A86EF805076034AA10085450145330ACC
:1004E0005A03210A229A5286EF80F0740349B10020
:1004F0008545014533095903210922994A86EF8030
:1005000090738344C10085450145B3845403A1041D
:10051000A2942686EF803072E2850D45EF302019D7
:10052000DA850D45EF30A018D2850D45EF30201843
:10053000CA850D45EF30A017A6850D45EF30201771
:1005400083C781B7B38A570303A74B03A29A83A734
:100550004A03E318F7EE85472380FA04DDB517CD8B
:100560000100130D2DC003260D0083264D0003A5A9
:100570000D0183A54D0197C90100938929BFEF5053
:10058000815F03A6090083A64900EF40B1662A8B6C
:10059000AE8B03260D0083264D000325890083259D
:1005A000C900EF50415D03A6090083A64900EF4052
:1005B00071642A8AAE8A2A86AE865A85DE85EF5015
:1005C000112797C701009387E7BA9043D443EF50B0
:1005D000815AEFE020212A8CAE8C5A85DE85EFE02F
:1005E00040172A8BAE8B5285D685EFE08016032606
:1005F0000901832649012A8AAE8A03A58D0183A5B4
:10060000CD01EF50D12203260D0083264D00EF507F
:10061000815603A6090083A64900EF40B15D97C744
:100620000100938727B59043D443EF50C154EFE0C6
:10063000601B2A89AE895286D6865A85DE85EF50A0
:1006400081534A86CE86EF5001534A86CE86EF50BC
:1006500081522A89AE896286E6866285E685EF50F8
:1006600081512A86AE864A85CE85EF40A165EFE0AE
:10067000E05EEFE060202A86AE86EF40A16497C777
:1006800001009387A7AF9043D443EF50C14E97C763
:100690000100938727AF9043D443EF50C14D2A8682
:1006A000AE862A89AE89680897C50100938505AF93
:1006B000EF70F1476C082545EFA080451735FF1F07
:1006C00003450570EF60811A2A86AE864A85CE857D
:1006D000EF502134E354A0DA03C681B73306960203
:1006E0008545014521062296EF80F05483C581B7E8
:1006F000B38595020D45A105A295EF20507B03C55A
:1007000081B73305950221052295EFE05FEB23A425
:100710000182ADB30111254697B5010093854522AD
:10072000480006CEEF60116F4C0025461735FF1FBD
:100730001305C5C7EF60D04F97C501009385C5A7C6
:100740002545EFA0E03CF24005618280797122D41A
:100750002D4697B50100938525202A84280006D6CA
:10076000EF60516B2D4697B501009385A51F480892
:10077000EF60516A2D461DC02C001735FF1F130571
:10078000E5C2EF60F04A97C50100938565A4254551
:10079000EFA00038B2502254456182804C081735D2
:1007A000FF1F1305A5C0EF60B04897C501009385F2
:1007B00025A3F1BF317186064ED7AA8913D516003D
:1007C00006DF22DD26DB4AD9B2CE2E89EF60513317
:1007D00097C701009387079076468C432A84328519
:1007E000EF601109EF60D131AA8455468145280197
:1007F000EFD07F9F85472308F10693D789402309CF
:10080000F10693D70941A309F10693578940230BB9
:10081000F10693570941A30BF10693D78400230DEA
:10082000F10693D70401A30DF10693578400230F1B
:10083000F10693570401A30FF106B7E70B10938756
:10084000179FA3083107A30A210793D98941135998
:100850008941A30C9106A30E8106E18061803EC30D
:100860005801C547230081082304F108230A3107F2
:10087000230C2107230E9106FC103A849306D1071E
:1008800003C6470085070507A302C700E39AD7FE02
:10089000034881080147814793055800894693F72B
:1008A000F70F1377F70F63DCD50AA30DF108BEC26B
:1008B0008347A109230EE108BAC4BEC0834791094A
:1008C00097C501009385458125453EDE8347810913
:1008D0003EDC834771093EDA834761093ED883478E
:1008E00051093ED6834741093ED4834731093ED260
:1008F000834721093ED0834711093ECE8347010932
:100900003ECC8347F1083ECA8347E1083EC883478F
:10091000D1083EC68347C108834891080347610850
:100920003EC48347B10883465108034641083EC28E
:100930008347A1083EC083477108EFA0A033A2857A
:100940001735FF1F130585A66546EF60702EFA5018
:100950006A54DA544A59BA590145296182803306EA
:10096000D400034606008506B29713F6F70F3297B8
:10097000931786016207E187618715B7854763DBB7
:10098000B70A797126D24AD052CC5AC85EC662C420
:1009900066C206D622D44ECE56CA2A8A0149930B85
:1009A000100F130C900D973CFF1F938C2CA017BBBE
:1009B0000100130B2B719384F5FFB3092A0103C7C0
:1009C000090093071900631577053307FA000347F9
:1009D0000700631F870303C4590083C74900CE85FE
:1009E00022045D8C930A8400C20A93DA0A015686B7
:1009F0006685EF60F0235686CE855A85EFA0E078B5
:100A00000D459700FF1FE78000FE93078900A2971E
:100A100063E09702B250225492540259F249624A5A
:100A2000D24A424BB24B224C924C014545618280E6
:100A30003E8961B77D558280914763E3C70A17C736
:100A400001001307A7890A063A961C42411122C4E5
:100A500006C6BA972A84828797D501009385C5BDBB
:100A60001145EFA0E00AA2851145EFA0600A2244DB
:100A7000B24097D501009385E5BD114541016FA0B6
:100A80002009B9CA9737FF1F83C7074D81C7904216
:100A9000EF50C0032244B2400146975500009385B1
:100AA00065093D4541016F30004B9DC62244C8C2D7
:100AB000B24003C5A6002394B60036869545410191
:100AC0006F8070172244B24041016FD0103F224422
:100AD000B24041016F308008B2402244410182801F
:100AE0008280411106C6EF90E03DB24041016F9017
:100AF00060045571581093063102130621029305C4
:100B00001102930751021305610286C7EF70601C42
:100B10009747FF1F938747FE83D70700BD9B174763
:100B2000FF1F231BF7FCEFF00FFB030305039305E7
:100B3000E004835661020347110283472102034800
:100B4000310283484102034E510217D601001306B9
:100B5000E63C6316B30017D601001306E62C830E9D
:100B6000150313035004032F8500832FC50097D569
:100B700001009385652B63866E0097D501009385F0
:100B8000E53903230501832345017AC41ACC1ECE1F
:100B90007EC672C02EC832C297C501009385C505B6
:100BA0001736FF1F130686FF2810EF704178EF807D
:100BB000702A2810EF70217D9387C182904393158E
:100BC0000501938681FD2810C181BD35BE40696154
:100BD0008280411106C623A6B18201C61C4223AC05
:100BE000F1FC9737FF1F83C717149DEB0545EFB046
:100BF000403297B501009385257B2545EF905071D4
:100C00009747FF1F83D747EF93E707011747FF1F5A
:100C10002314F7EEEF805023B24041016F40405B58
:100C200005470545639CE700EFB0A02E0545EFA002
:100C3000B02E97B5010093856578C1B7EFB0602DF0
:100C40000545EFB040350545EFA0102D97B50100E3
:100C5000938545785DB7411122C42A848307D40364
:100C600006C626C22E8589C71307F0036398E702DC
:100C70001737FF1F130797119736FF1F9386F60D3F
:100C80001736FF1F1306560A97B501009385C57FD7
:100C90002244B240924441016F7061699737FF1F4F
:100CA000A38407089737FF1FA389070A9737FF1FF9
:100CB000A38E070C034704008547AE8463FAE70060
:100CC0009305D4031735FF1F13051506EF70816ACE
:100CD0008307940791CF03470400894763FAE7002D
:100CE000930594071735FF1F13053507EF708168CB
:100CF0008307540B91CF034704008D4763FAE70045
:100D00009305540B1735FF1F13055508EF708166C7
:100D1000014697450000938505021305C012EF3088
:100D20008023EF5050481737FF1F130737069736B9
:100D3000FF1F938696021736FF1F1306F6FE97B520
:100D400001009385A5762685A1B7411126C206C666
:100D500022C4034705008947AE8463F7E702930581
:100D6000D5032A84130620031735FF1F1305C5F486
:100D7000EF70416513059407EF6011079737FF1F68
:100D8000239EA7F8EF50B03CEF5070409736FF1FFE
:100D900083D6C6F81736FF1F130606F297C5010063
:100DA000938585DC2685EF70815885479735FF1F31
:100DB0009385C5DE1735FF1F1305C5EE1737FF1FD7
:100DC000A306F7E4EF70015B9735FF1F9385D5F518
:100DD0001735FF1F1305A5E3EF70C1599735FF1FA6
:100DE0009385B5F71735FF1F130585E5EF7081581B
:100DF0009735FF1F938595F91735FF1F130565E795
:100E0000EF70415797B50100938505D31735FF1F44
:100E10001305A5EDEF700156EF507033014697456D
:100E200000009385E5F07945EF30E0122244B240AE
:100E300092440146976500009385657E1305600422
:100E400041016F304011411122C426C24AC006C67A
:100E50008307D503AE8417C901001309A99F17445E
:100E6000FF1F130464C989C71307F0036391E704E4
:100E70001735FF1F0345B5F4EF50511F0326090036
:100E800083264900EF400157EF60A15728C8EF6063
:100E9000814CAE862A8697C501009385259C224405
:100EA000B24002492685924441016F7041481305C2
:100EB000D503EF6061739737FF1FA382A7F0137507
:100EC000F50FEF50B11A0326090083264900EF40C1
:100ED0006152EF60015328C8EF50F02C2848EF60B2
:100EE0008147AE862A8697C501009385259945BF1F
:100EF000AA870387D7032E8509C79306F0036315D6
:100F0000D7029737FF1F83C7F7E117C60100130603
:100F1000A69189E717C601001306869197C50100BF
:100F2000938585926F70A14041111385D70306C642
:100F300022C42E84EF60416B9737FF1FA384A7DE86
:100F4000EF5070269737FF1F83C7D7DD97C5010085
:100F50009385858E89E797C501009385658E2285E7
:100F60002244B24041016F70E140411126C206C6E1
:100F7000AA8422C48387D4032E8589C71307F0036C
:100F80006396E7049737FF1F83C7F7D90547638543
:100F9000E70289CB09476386E702B24022449244C4
:100FA0004101828097C50100938585912244B2401A
:100FB000924441016F70013C97C501009385C59231
:100FC000F5B797C501009385E594CDB79384D40315
:100FD0002E84268597C501009385C596EF70C14084
:100FE0001DC189471737FF1FA30FF7D297C501000F
:100FF000938585992285EF70E1372244B24092446F
:1010000041016F50501A2685EF60015E1375F50F90
:101010009737FF1FA389A7D0854797C50100938500
:10102000A594E309F5FC97C501009385259279D134
:101030008947E30DF5FA1737FF1FA306F7CE97C5CB
:1010400001009385A5967DB741112E8597C50100B6
:101050009385459906C6EF70E1310146974500003A
:10106000938505CD7945EF20106FB2400146976515
:1010700000009385C55A1305600941016F20B06DCA
:10108000411122C426C206C68307D503AE84173495
:10109000FF1F1304E4C889C71307F003639BE7022B
:1010A0008306142017C60100130606B063D6060097
:1010B00017D60100130646D7268597C501009385EC
:1010C000E5AEEF70C1262244B240924441016FA0C8
:1010D00080001305D503EF6021519737FF1FA381CF
:1010E000A7E4EF90507F0306142097C50100938575
:1010F000A5AD2545EF901038834714206147B1070F
:1011000093F7F70F6377F700A1471737FF1FA3097E
:10111000F7E0EF5050098306142017C601001306AC
:10112000A6A863D6060017D601001306E6CF224410
:10113000B2402685924497C50100938565A9410177
:101140006F70E11E797122D49307D1012E84780843
:101150009306B1011306A101930591011305E10165
:1011600006D626D24AD0EF60D0368348D101034854
:10117000C1018347B1010347A10183469101035691
:10118000E10197B501009385E5552285EF70211A9D
:101190002285EF70411F9744FF1F9384E4958C5C78
:1011A00003A804040566130606E133F3C50293069B
:1011B000C0032295B378C802B377D80233F7D502BB
:1011C0003EC0DC58B3D8D8023358C802B356D30255
:1011D00033D6C50297B5010093850553EF702115ED
:1011E0002285EF70411A3309A400EF90A04B17B687
:1011F00001001306E64E09C517B601001306064E98
:1012000097B50100938545544A85EF7041122285B8
:10121000EF706117944022951748FF1F0348088E0E
:1012200093D726008582858B1747FF1F0347F78CCE
:10123000858A1746FF1F0346E69197B501009385FF
:10124000A551EF70C10EB25022549254025945611B
:101250008280AA870387D7032E8509C79306F003E8
:101260006311D7029737FF1F83C707AC97B50100FB
:101270009385051889E797B501009385651A6F7006
:10128000610F41111385D70322C406C62E84EF6077
:10129000A1351375F50F9737FF1F2387A7A81737B9
:1012A000FF1F0347F7A789476316F7000DE91145AC
:1012B000EFA080469737FF1F83C707A797B50100A8
:1012C0009385851789E797B501009385251A2285AF
:1012D000EF70410A2244B24041016F50C06C114589
:1012E000EFA06046C1BFAA870387D7032E8509C731
:1012F0009306F003631ED7029737FF1F83C7A7A289
:101300000547638DE70089C70947638EE700828040
:1013100097B501009385451C6F70C10597B5010015
:101320009385C51FD5BF97B501009385E524EDB71B
:1013300041111385D70322C406C62E84EF60C12A4B
:101340001375F50F9737FF1F238FA79C854797B518
:1013500001009385A51C6306F50297B501009385EE
:10136000A51705C1894797B501009385E520630A54
:10137000F5001737FF1F2308F79A97B501009385EB
:1013800065252285EF60117F2244B24041016F50F4
:101390008061AA870387D7032E8509C79306F003C8
:1013A000631CD7001736FF1F034686A197B50100BF
:1013B000938505426F60B17741111385D70306C647
:1013C00022C42E84EF60C1229737FF1F238AA79E75
:1013D000EF50605D22852244B2401736FF1F03465E
:1013E000269E97B501009385E5404101E1B7411183
:1013F00022C4130550042E84814506C6EF30E07DDB
:10140000EF50604F2A8622852244B24097B50100F2
:101410009385C54041016F609171411122C413054C
:10142000D5032E8497B501009385853506C6EF90C8
:10143000B01411CD0145EF50806197B5010093853F
:10144000E53422852244B24041016F60B172054506
:10145000EF50E05F97B5010093850535DDB7411189
:1014600022C42A848307D40306C626C22E8589C7D0
:101470001307F003639CE7029737FF1F9387B79D1D
:101480001737FF1F1307179A9736FF1F83D686AAB1
:101490001736FF1F1306F69597B501009385C556BD
:1014A0002244B240924441016F607168AE841735A6
:1014B000FF1F130515949305D403EF60B16B173527
:1014C000FF1F13051593EF60116C93150501C18182
:1014D0001735FF1F1305F591EF90304183079407EF
:1014E00089CB13059407EF6021109737FF1F2393D3
:1014F000A7A48307540B85CB9305540B1735FF1F07
:1015000013055592EF6011671735FF1F130595916D
:10151000EF60716793150501C1811735FF1F130532
:101520007590EF90903C8307140F85CB9305140FB3
:101530001735FF1F13053592EF60D1631735FF1F75
:1015400013057591EF60316493150501C18117355D
:10155000FF1F13055590EF905039EF50C044973757
:10156000FF1F9387578F1737FF1F1307B78B9736C8
:10157000FF1F83D6269C1736FF1F1306968797B545
:1015800001009385A549268521BFAA870387D70334
:101590002E8509C79306F003631CD7001736FF1F7B
:1015A0000356269897B50100938585596F60315889
:1015B00041111385D70306C622C42E84EF60C102F1
:1015C000131605019737FF1F239DA794418297B5F6
:1015D0000100938525582285EF6071559727FF1FDD
:1015E00083C7177409476388E700ED1793F7F70F70
:1015F0000547636AF7009737FF1F83D7879289EB08
:101600000945EFA040142244B24041016F50A03977
:10161000EFA0600175D51737FF1F03578790930719
:10162000B003E3EFE7FC0945EFA0000FE9BFAA878D
:101630000387D7032E8509C79306F0036313D706E4
:101640009737FF1F83C7979005476389E70289CFC4
:101650000947638EE7020D476380E70497B50100F1
:10166000938505476F60115117B601001306063DBB
:1016700097B501009385053E6F60714B17B6010069
:101680001306063E97B501009385853EF5B717B65C
:10169000010013066640FDB717B6010013060641A8
:1016A000D5B741111385D70322C426C206C62E849E
:1016B000EF5091731375F50F9737FF1FA388A78815
:1016C0008544630295041DC18947630AF5048D476B
:1016D000630CF50497B50100938585432285EF607F
:1016E00071499737FF1FA383978601A897B501001B
:1016F0009385853E2285EF60F1472244B2409244B3
:1017000041016F50402A17B601001306663597B5A0
:1017100001009385A53D2285EF607141F9BF17B6A1
:10172000010013066637E5B717B601001306063841
:10173000F9BF011106CE2EC6EF90506C85471737C2
:10174000FF1FA30BF780EF5000263245F24097B5FC
:101750000100938565F205616F60D141011106CEEC
:101760002EC6EF90106B9727FF1FA387077EEF50C1
:1017700080233245F24097B501009385A5F50561B8
:101780006F60513F011122CC4AC806CE26CA4EC610
:101790008307D5032E891724FF1F1304645889C7B4
:1017A0001307F0036395E70203250422EF50B13AD3
:1017B000AE862A8697B50100938545E86244F240DB
:1017C000D244B2494A85424905616F605136AA84C4
:1017D0001305D503EF50F160EF50B142AA8913858C
:1017E0009407EF5071601375F50F1DE53145EF60FB
:1017F000207BAA854E85EF50A14B2320A422EF50D9
:10180000801A03250422EF501135AE862A8697B53B
:1018100001009385E5E35DB723203423CDB7AA8784
:101820000387D7032E8509C79306F0036315D702F4
:101830009727FF1F83C7677217B60100130646E498
:1018400089E717B601001306A6E497B50100938552
:10185000E5E46F60D12D41111385D70322C406C67C
:101860002E84EF5071581375F50F9727FF1F2386AD
:10187000A76E17B601001306A6E009E517B601002A
:10188000130606E1228597B501009385A5E2EF6076
:10189000112A2244B24041016F50E010130101BAF5
:1018A00023225145B28A2E86AA856818232E114418
:1018B000232C8144232A9144232821452326314582
:1018C0002320614523244145368B232E7143232C4D
:1018D0008143232A91432328A1432326B143EF9038
:1018E00040701305D103EF60112A93150501C181E2
:1018F0001305D10397B4010093848435EF90E07A07
:101900000144268993098002C8409305D103EF90D2
:10191000A03E0DC90E044A948317040013970701D3
:101920002300012241839306700263F4E6006F10E6
:10193000A02B17B701001307A79B8A07BA979C43F0
:10194000BA9782870504A104E31034FDFD57F9B767
:101950001727FF1F03475753A1476312F70C194678
:101960004C081725FF1F1305A524EF9000560814F7
:10197000230001020014EF6011219727FF1F83D776
:10198000875B1727FF1F130777539726FF1F938641
:10199000E620500897B501009385C5432295EF6076
:1019A00011190814EF60311E1C141726FF1F1306AF
:1019B000B6373E9597B5010093858544EF603117A2
:1019C0000814EF60511C1C143E959727FF1F938746
:1019D00027358386172017B601001306E61C63D649
:1019E000060017C601001306264497B5010093852B
:1019F000A541EF60D1131724FF1F034474329307EE
:101A0000F4FF93F7F70F15476363F71017B701005B
:101A1000130707988A07BA979C43BA9782870814D6
:101A2000EF6071161C141727FF1F035707519726E5
:101A3000FF1F9386F6381726FF1F1306261697B545
:101A400001009385E53A3E95EF60710E99BF081449
:101A5000EF6071131C143E95854797B5010093857F
:101A6000653B6306F40097B501009385253BC1648F
:101A7000EF6051101724FF1F1304842A172AFF1F39
:101A8000130AAA2AFD149309C00397BB0100938B84
:101A90006B3903594420630E99000814EF60B10EAE
:101AA000B37639031C14DE853E9533563903EF6057
:101AB00011080904E31F8AFC0814EF60D10C1726F3
:101AC000FF1F0346162697B50100938565361C1443
:101AD0003E95BDA81726FF1F0356A6449726FF1F55
