:04C000006F2000139A
:10C004000000000000000000900000208E090020C5
:10C01400A9BDF9F594000020000000000000000014
:10C02400960000209800002000000000000000009E
:10C034009A000020000000009C0000200000000086
:10C044009E00002026030020AA030020A400002054
:10C05400A6000020A8000020AA000020AC000020B8
:10C06400AE000020B0000020C60000205E010020C9
:10C074000A0A0020B8000020BA000020BC000020FA
:10C08400BE000020F60100208E020020C400002023
:10C0940001A001A001A001A001A001A001A001A094
:10C0A40001A001A001A001A001A001A001A001A084
:10C0B40001A001A001A001A001A001A001A001A074
:10C0C40001A001A001A037370040834747009946EB
:10C0D4004111BD8B638ED70231476386E706114752
:10C0E4006390E704A3030100174600000346062FEC
:10C0F40037370040834771006317F6022C00173569
:10C1040000001305E526977001E0E780809209A8F6
:10C114008347570093F7F70F2304F1008347810007
:10C1240041017300203083477100834687000C0867
:10C13400AE97238CD7FE83477100850793F7F70FDB
:10C14400A303F10045BF280097E001E0E780009DCC
:10C154001375F50FA303A1000346710045B73737E4
:10C1640000408347474099464111BD8B638ED702F7
:10C1740031476386E70611476390E704A303010090
:10C18400174600000346A625373700408347710051
:10C194006317F6022C00173500001305A51E9770CF
:10C1A40001E0E780008909A88347574093F7F70F18
:10C1B4002304F10083478100410173002030834749
:10C1C4007100834687400C08AE97238CD7FE8347C3
:10C1D4007100850793F7F70FA303F10045BF28000B
:10C1E40097E001E0E78040A51375F50FA303A100D4
:10C1F4000346710045B73747004083474780994657
:10C204004111BD8B638ED70231476386E706114720
:10C214006390E704A3030100174600000346161CBD
:10C2240037470040834771006317F6022C00173527
:10C23400000013056516976001E0E780807F09A878
:10C244008347578093F7F70F2304F1008347810056
:10C2540041017300203083477100834687800C08B6
:10C26400AE97238CD7FE83477100850793F7F70FAA
:10C27400A303F10045BF280097E001E0E78080AD0B
:10C284001375F50FA303A1000346710045B73747A3
:10C294000040834747C099464111BD8B638ED70246
:10C2A40031476386E70611476390E704A30301005F
:10C2B4001746000003466673374700408347710002
:10C2C4006317F6022C00173500001305250E97603E
:10C2D40001E0E780007609A8834757C093F7F70F7A
:10C2E4002304F10083478100410173002030834718
:10C2F4007100834687C00C08AE97238CD7FE834712
:10C304007100850793F7F70FA303F10045BF2800D9
:10C3140097E001E0E780C0B51375F50FA303A10012
:10C324000346710045B7411126C4B714004022C624
:10C3340003D4C409420441809317240163DB07003A
:10C34400A145014597C001E0E780A08B8967239E42
:10C35400F4081374042015CC9747000083C7D77ED4
:10C3640093E7170017470000A300F77EB7170040B4
:10C3740003A7470A1377072015C303A7C70A136740
:10C38400072023A6E70AB717004013070020239EBF
:10C39400E7083244A24441017300203003A7870A0E
:10C3A4001367072023A4E70AF9BFB717004003D790
:10C3B400E70903D7E7099316370163D4060417473F
:10C3C40000000347277A050797460000238CE67888
:10C3D400174700000357477213670740974600004A
:10C3E400239CE6700567239FE70803A7470C85662F
:10C3F400131637016359060003A7C70C558F23A6EC
:10C40400E70C7300203003A7870C558F23A4E70C97
:10C41400CDBF411122C406C69747000083C7679069
:10C42400174400001304446D95CB83471405858B92
:10C4340095C78357040013974701634107028D454D
:10C44400094597B001E0E780C07B9145174500009E
:10C454000345A56C971002E0E7808004974700002D
:10C4640083D7876913F7074005CF139747016341C3
:10C4740007028D45094597B001E0E7808078914532
:10C484001745000003456569971002E0E780400105
:10C494008357040093F7F7BF17470000231EF76480
:10C4A400B2402244410182804111814601468145C6
:10C4B400114506C6EF00A077B72700401147238334
:10C4C400E780B7F700E003A707D16D9B23A8E7D067
:10C4D40003A707D15D9B23A8E7D073005010010088
:10C4E4000100B240410182804111814681450146EB
:10C4F400114506C62D2FB727004011472383E78037
:10C50400B717004003C7E70283C5E70483D787034F
:10C5140091661377F70F93E5350063E5D700719BB8
:10C5240013671700B7170040130670052380C7046C
:10C53400930680FA2380D7040100010023820702B6
:10C544002380C7042380D704010001002387E70266
:10C554002387B7042380C7042380D7040100010084
:10C5640003C7B70413670702A385E70423800704FE
:10C5740037F700E0832507D193E545002328B7D09A
:10C58400832507D1DD992328B7D07300501001000B
:10C5940001002380C7042380D7040100010003C7DE
:10C5A400B7041377F70DA385E70423800704B2408B
:10C5B400410182800111B7F5070022CC8146E105D3
:10C5C4002A840A86194506CE26CA02C0231201000F
:10C5D400B92DB717004003C7E70283C5E70483D723
:10C5E400870391661377F70F93E5350063E5D7006A
:10C5F400719B13671700B71700401306700523805B
:10C60400C704930680FA2380D70401000100238223
:10C6140007022380C7042380D70401000100238775
:10C62400E7022387B70423800704B7F500E003A7D4
:10C6340005D11367470023A8E5D003D50702657722
:10C64400110713750560418D598D42054181010023
:10C654002380C7042380D7040100010003C7F70027
:10C6640037F40700B7F400E013670704A387E70073
:10C6740003C7B704610413670702A385E704239083
:10C68400A70283A704D1DD9B23A8F4D07300501024
:10C694000100010013056004352E81463000A28597
:10C6A400194502C423160100592322478247E31A7D
:10C6B400F7FCB7170040130770052380E70413073E
:10C6C40080FA2380E7040100010003C7B70413774D
:10C6D400F70DA385E70423800704F2406244D244A3
:10C6E4000561828001114EC681460146AA898145B1
:10C6F400114506CE22CC26CA4AC8152BB7160040CF
:10C7040083C7E60203C7E60483D68603116693F75C
:10C71400F70F1367370063E5C600F19B93E7170033
:10C72400371400401309700523002405930480FA8C
:10C7340023009404010001002302040223002405C1
:10C7440023009404010001002307F4022307E404F6
:10C7540023000404130550025920B7F700E003A78F
:10C7640007D11367470023A8E7D02300240523003B
:10C774009404010001000347F40013670704A307AE
:10C78400E40023002405230094040100010025672C
:10C79400B3E9E9002310340303A707D15D9B23A861
:10C7A400E7D0730050100100010081460146814525
:10C7B4001145B52923002405230094040100010038
:10C7C4008347640493E717002303F4042300040459
:10C7D400F2406244D2444249B24905618280B717AB
:10C7E4000040930670052380D704130780FA238042
:10C7F400E7040100010003C6B7041376F60DA38510
:10C80400C70423800704137605024DC203C6A7009C
:10C81400118A1DE22380D7042380E704010001006C
:10C8240003C7A700136747002385E7009307004B5E
:10C8340001000100FD17EDFFB717004093067005D6
:10C844002380D704130780FA2380E7040100010042
:10C854007D892394A70001000100010001002380C9
:10C8640007042380D7042380E704010001000100AA
:10C8740001003727004093061005A303D7802380C7
:10C884000704B7170040130770052380E704130754
:10C8940080FA2380E7040100010003C7B70413678B
:10C8A4000708A385E7042380070482801376050420
:10C8B40041C603C6A700418A1DE22380D704238012
:10C8C400E7040100010003C7A700136707012385DC
:10C8D400E7009307007D01000100FD17EDFFB71786
:10C8E4000040930670052380D704130780FA238041
:10C8F400E704010001001376F5011366060423948E
:10C90400C700010001000100010023800704238007
:10C91400D704130660042380E7046318C5000100EC
:10C92400010037270040894689BF010001003727ED
:10C9340000409306200591B72380D7042380E704A1
:10C944000100010003D787001367070C2394E70055
:10C954000DBF4111814601468145114506C6C12CD2
:10C96400B7170040130770052380E704130780FA04
:10C974002380E7040100010003C76704136717005D
:10C984002383E70423800704B24041018280814667
:10C99400014681451145612CB71700409306700587
:10C9A4002380D704130780FA2380E70401000100E1
:10C9B4007D562396C7022380D7042380E704010011
:10C9C400010003C76704136717002383E704238068
:10C9D400070401A0BD473305F50201007D1575FD6F
:10C9E4008280411122C426C206C6AA840144631768
:10C9F4009400B2402244924441018280050413050C
:10CA0400803E4204C13F4180DDB7B71700401307A1
:10CA140000032388E7028547174700002320F718FF
:10CA240073002030397122DC4ED656D237140040C0
:10CA3400E57AB7F9070026DA52D45AD05ECE06DE7C
:10CA44004AD862CC2A8B916B93040404130A7005B0
:10CA5400910AE1098347E4020347E404835684030B
:10CA640093F7F70F1367370063E57601F19B93E7BC
:10CA7400170023804401130980FA23802401010054
:10CA840001002302040223804401238024010100C5
:10CA940001002307F4022307E4042380040037F78A
:10CAA40000E0832707D193E747002328F7D0835773
:10CAB400040293F70760B3E76701B3E75701C207BE
:10CAC400C18301002380440123802401010001006B
:10CAD4008346F400130CB40493E60604A307D400BD
:10CAE4008346B40493E60602A305D4042310F40297
:10CAF400832707D1DD9B2328F7D073005010010052
:10CB0400010013056004F9353000CE8581461945CE
:10CB140002C423160100212A11469745000093857B
:10CB24006508280011231DD5930770052380F400A0
:10CB3400238024010100010083470C0093F7F70DC3
:10CB44002300FC0023800400F2506254D254425962
:10CB5400B259225A925A025BF24B624C2161828092
:10CB6400411106C6AD2D7530977001E0E780A02213
:10CB7400D5BF2303048015472303E4800100230267
:10CB8400A480828083076480E3CE07FE23030480AD
:10CB9400828083076480E3CE07FE0345448082805D
:10CBA40083076480E3CE07FE2302A48082804111C0
:10CBB40026C44AC24EC006C61377F50BAD47AA89F0
:10CBC4002E8995446306F70019456537653F8D4402
:10CBD4004E854537FD59FD1463983401B240A24493
:10CBE4001249824941018280135509011375F50FD9
:10CBF400453F2209CDB7011126CC06CEB704080063
:10CC040051371545BD37713769372AC6A53F3245B7
:10CC14009377150089EB136515001375F50FF24032
:10CC2400E24405618280FD14E9FC0145CDBF397100
:10CC340026DC4ADA4ED852D656D45AD25ED006DE14
:10CC440062CE66CCB7E700E07D5783AA070022C610
:10CC540003AA470023A0E71823A2E718B717004048
:10CC6400130770052380E704130780FA2380E70481
:10CC740083C74704930B75FFB684E20793FBFB0F4E
:10CC84008546AA892E8B328937240040E1870157D3
:10CC940063FA76016308D50089461307000263131B
:10CCA400D5000157D98F93F7F70FB71C00402382A3
:10CCB400FC0411472303E4801305F00F5D3D094C88
:10CCC400D135636D7C11B7050700DA953787070006
:10CCD400795563F2E504B3879500636EF702370B69
:10CCE4000800A94733EB65016399F90689E4814497
:10CCF400513D26850DA0DA850945553D05090345B5
:10CD0400F9FFFD14050B693D81C49377FB0FFDF713
:10CD1400DD3569FD7D55B717004013077005238085
:10CD2400E704130780FA2380E70403C74704418B11
:10CD34002382E704F250B7E700E023A0571123A2AF
:10CD44004711E25432445259C259325AA25A125B20
:10CD5400825B724CE24C21618280A5476395F9069F
:10CD640085691309F00FB3069900B3742B01B694C7
:10CD74001349F9FFB3749900856B33796901416BE9
:10CD84009387F9FFB3F7270199E363FC340193D93F
:10CD94004900C147E3E637FF99BF0569C1697D19B9
:10CDA400D9B71305800D63886901130500026384F4
:10CDB400790113051008CA85DD3B353D21DD4E9907
:10CDC400B3843441D9B7DA852D45D533CA94E30009
:10CDD40099F205097D3BA30FA9FED5BF9387F9FFFF
:10CDE40093F7F70F6361FC0C83C71C041307300827
:10CDF400631FF70437070800636BEB04B3079B005A
:10CE0400B706100063F5D704334BEB0089476393EF
:10CE1400F9068980D549E38C04ECDA850945413B60
:10CE240011090327C9FF91472320E4800307648085
:10CE3400E34E07FE23033481FD17EDFBFD14110BB4
:10CE440081C49377FB0FE9FF7D3371F5E1B5B71723
:10CE5400004003C75704B70708001377070219E314
:10CE6400B78707007955E378FBEA33079B00E3FFB4
:10CE7400E7F855B58547E382F9F2DA852D45053B98
:10CE84009389F4FFE38504E6293393F7390091EBA2
:10CE9400832604800327090093074900E39AE6E404
:10CEA4003E89CE84F1BFB5476396F9001305900B14
:10CEB400C93135BDB1471305B00AE38BF9FE994773
:10CEC4006391F904B7050800B365BB002D45C5316E
:10CED40081448D4BA149753963967401832704807D
:10CEE4002320F9008504E39834FF83270480131773
:10CEF4002B01635507002312F900D5BB2322F90047
:10CF0400FDB39D476399F90281451305B00445318A
:10CF1400BD442320090023220900FD599D3993F7BC
:10CF24007400CA9703C70700FD14398D2380A70036
:10CF3400E39634FF6DBBA1476392F9046D398144D4
:10CF4400630D0B008D479304C0036308FB00930437
:10CF5400000563048B01930440041375C507E308BB
:10CF640095D81945393139390545213126850D3989
:10CF740009453D314931E31C05D669BB91476399A5
:10CF8400F90013056006F536F53E130590090DB753
:10CF9400E38F09D4F154A9BB19CD91CD09CE8147B2
:10CFA4003387F500834607003307F5008507230020
:10CFB400D700E317F6FE828019C991C909CA910501
:10CFC40083A7C5FF11057D16232EF5FEC5BF8280FC
:10CFD40001C919C62A960505A30FB5FEE31DA6FED1
:10CFE400828081473307F5000307070019E33E8574
:10CFF40082808507C5BF01112E8626CAAA8413150F
:10D0040006019305F004418122CC06CE32C6EF001E
:10D0140010762A8401C53246A685BD3F2285F2409A
:10D024006244D24405618280854715C18DC105C221
:10D034008147B306F5003387F50083C6060003472E
:10D0440007006398E6008507E315F6FE85473E85ED
:10D0540082808147EDBF9307F6FFBE952A9663133E
:10D06400C5008280FD1583C715000505A30FF5FED5
:10D07400FDB7AA87014581CF09CE3E96850703C730
:10D08400F7FF6317B700E39BC7FE054582808280E4
:10D09400014582807971975700009387E73822D43D
:10D0A400804306D626D24AD04ECE52CC56CA5AC84F
:10D0B4005EC662C45DCC37C9C901814B175A0000F2
:10D0C400130A0A3B97540000938444361309F93732
:10D0D400975A0000938A0A30B709C0A8370B405703
:10D0E4008357240095E35C44639D0B0017570000AD
:10D0F400232CF732032CC4002285EF007074628461
:10D1040099A823A6FB00FDB783270A00829783868C
:10D1140064011C4463DB06063307F5406367E908D2
:10D124009757000023A0072C8355240003450400CF
:10D13400970002E0E780C0365C405844A9CF14440D
:10D14400B6978386640163C5060063E33701DA9703
:10D154001CC4A28B3A8449F497570000938787270D
:10D164009C4B09476378F706F91717570000232BE0
:10D17400F726B250225492540259F249624AD24AD2
:10D18400424BB24B224C45618280E377F5F83387FA
:10D19400F9402A9761B763970B009757000023A5BE
:10D1A400E72889BF23A6EB00B1B7D85009CF63DFC6
:10D1B40006003385A74083A70A016376F5009757D5
:10D1C400000023A1A722A28B404471B7E3F3A7FE7A
:10D1D400CE97C5B79757000023A6072059BF411122
:10D1E40022C4175400001304E4211C4006C626C2BE
:10D1F4004AC091C782979757000023A507205C4037
:10D2040091C382971C406390071C9757000083C703
:10D21400373A858B95C797570000A38B0738175764
:10D22400000003471739954763FCE700352B9757F0
:10D23400000083C71738F5178A07A2979C43829783
:10D24400175900001309893A8347C900918B99C380
:10D25400EF0050451C4491C3829797540000938477
:10D26400641C9840175600000346D61697570000D2
:10D2740083C7471693961700BA9683D60600D5CA75
:10D284009757000083C7071563EFC70A9757000035
:10D29400238207141C40639807129757000083C722
:10D2A400773191CF9757000083C7B73089EB9757F1
:10D2B4000000A3810730972002E0E780809597570C
:10D2C40000009387E71A9C43638F070EB707C0A833
:10D2D400175700002328F710753B975700009387D2
:10D2E400E714DC53EDC3175700001307A70E184BC0
:10D2F4009757000083C7D7146367F70C17570000CC
:10D304000347372B954763E0E70C8347C900918BAC
:10D31400DDEB90409756000083C6D60B63CBD70A4B
:10D324002244B240924402494101170302E06700DB
:10D334000304850793F7F70F97560000238CF6082C
:10D34400E3E6C7F235BF86073E97835507002310EF
:10D354000700975700002395070C97570000938701
:10D36400270A9C43175500000345C50613172500DB
:10D37400BA979C4382979757000083D7670A175739
:10D3840000000347270593C7F7FF7D8D9317170008
:10D3940098403E97835707005D8D2310A700975749
:10D3A400000083C7270391C785071757000023038D
:10D3B400F702175700000347E7019757000083C798
:10D3C4007701E375F7ECB2402244924402494101EB
:10D3D4008280139717003297035707006DF785076C
:10D3E40035BFAD6737C70040BD072326F7200F10B0
:10D3F4000000975700009387E7FDC84F83278726CF
:10D40400BD66BD0693C7F7FF99836A052326D72017
:10D414005D8D82804111B7170040985F3AC6945FD2
:10D424003247E39CE6FE324541018280828001114D
:10D4340022CC175400001304241918402AC62EC401
:10D4440032C206CE3C4B93F7F7F73CCB971002E081
:10D45400E780E078184097560000938626143C4BEA
:10D4640093E707083CCB9C423245A24523A0070022
:10D474000347150003482500220742084297034842
:10D4840005004297034835006208429798D703473E
:10D4940055000348650022074208429703484500A7
:10D4A40042970348750062084297D8D7034795000E
:10D4B4000348A50022074208429703488500429783
:10D4C4000348B5006208429798DB0347D500034838
:10D4D400E5002207420842970348C5000345F500CA
:10D4E400429762052A97D8DB03C7150003C52500B8
:10D4F400220742052A9703C505002A9703C535006C
:10D5040062052A9798CF03C7550003C56500220713
:10D5140042052A9703C545002A9703C5750062058D
:10D524002A97D8CF03C7950003C5A5002207420553
:10D534002A9703C585002A9703C5B50062052A9773
:10D5440098D303C7D50003C5E500220742052A97EF
:10D5540003C5C50083C5F5002A97E2052E97D8D3E5
:10D56400D843759BD8C3D84313671700D8C39843CF
:10D574001367170098C3124698425C43858BD1E722
:10D584001C4F01452300F6009C429C4FA183A3003D
:10D59400F6009C429C4FC1832301F6009C429C4FA1
:10D5A400E183A301F6009C42D84F2302E600D84F42
:10D5B4002183A302E600D84F41832303E600D84F1A
:10D5C4006183A303E60098532304E6009853218360
:10D5D400A304E600985341832305E600985361832E
:10D5E400A305E600D8532306E600D8532183A306F7
:10D5F400E600D85341832307E600DC53E183A30705
:10D60400F600F2406244056182800100B5B7175705
:10D6140000001307E7F81443411122C49C5E4AC07A
:10D6240006C6998326C2858B3A84175900001309CC
:10D63400E9F6D1CB9C5E97540000938424F793F7CA
:10D64400F7F99CDE175700000347A7F69307000875
:10D65400631BF700832709009C4393F707041757BC
:10D6640000002308F7F483C7040093F707049DC35D
:10D67400975700009387C7DF9C4382979757000012
:10D6840023AEA7F283C7040093F7F70B17570000E4
:10D69400230EF7F083C7440093F707048DE785470B
:10D6A40017570000A306F7F0975700009387C7F1B8
:10D6B4009C43096798C7130700FC97560000238909
:10D6C400E6EED844F8D31C40985F1183058B09CB50
:10D6D400985F3D9B98DF054797560000238AE6EC48
:10D6E400985F1D83058B11CB985F1377F7F798DF4D
:10D6F400854717570000230DF7EA83270900D8430D
:10D704000583058B19C7D843759BD8C3D843799B28
:10D71400D8C3B24022449244024941018280397103
:10D7240006DE16DC1ADA1ED82AD62ED432D236D029
:10D734003ACE3ECC42CA46C872C676C47AC27EC0CD
:10D74400F935F250E2525253C2533255A255125691
:10D7540082567247E2475248C248324EA24E124F96
:10D76400824F216173002030975700009387C7E5EB
:10D77400944397570000938767E303C70700058B1B
:10D7840011CB97570000238507E297570000A38128
:10D7940007E2828003C71700058B65F7F85271FF13
:10D7A40083C75700DDB717580000130868DF032745
:10D7B40008001C5F9583858BD1E709C61C5BBD837C
:10D7C4002300F60085CA83270800985B4607935711
:10D7D40067016356070093E707C0C207C183039735
:10D7E4000600C207C18709C7BA970947B3C7E7024A
:10D7F4002390F60085CD834715008DCB9756000006
:10D8040083C626DB93F606041387970089478DCADF
:10D814003A9503470500854699471376F706631141
:10D82400D60262076187B947634C07008327080063
:10D834009C5FED838D8B17570000A30EF7D68147AD
:10D844003E8582808547EDBF411122C406C6175428
:10D854000000130464D7184049E9AE877453FDFEF1
:10D864003E85B28597570000238307D4971002E0C2
:10D87400E780401297570000938787D29C43B706EE
:10D8840080009843558F98C3D857719BD8D7975722
:10D894000000A38F07D097570000A38907D01C402E
:10D8A400094798C3B7F700E003A707D16D9B23A8E6
:10D8B400E7D003A707D15D9B23A8E7D073005010DE
:10D8C400144017570000130767CE83472700858B42
:10D8D40089EB83473700858BD9C797570000238985
:10D8E40007CCB2402244410182808D476310F50287
:10D8F400975700009387C7CA9C43B7068000984394
:10D90400558F98C3D857719BD8D75DBF8547E31906
:10D91400F5FAB567BD075CC70F1000001C40096726
:10D92400094698C7130700F8975600002382E6C8F3
:10D93400175700001307C7C61443984231830D8B51
:10D944006319C7001307E043F8D33D673D07D8C701
:10D9540085BF984231830D8B01E713076019EDB73A
:10D964001307E01BD5B7FC52ADF3A5BF5D7152DCC4
:10D97400175A0000130ACAC203270A0086C6A2C4A3
:10D98400A6C2CAC04EDE1C4397590000938989C8B9
:10D9940017590000130949C393F7F7E793E70708FA
:10D9A4001CC383A609003707CEFF7D179C461306C8
:10D9B40080022A84F98F9CC6832709001307000874
:10D9C4002800B8CBAE8493051008EFF06FE09710F1
:10D9D40002E0E780C020971002E0E780C02D832793
:10D9E4000A009376F41F370FFCFF23A40700984B1B
:10D9F4004E88CA881367F70398CBF84F130510F8BD
:10DA0400D285137707E0558FF8CF9843F576FD1646
:10DA1400758F98C39843B7063300B7020400137791
:10DA2400F7E798C398439303401F7D1F1377F7E7E5
:10DA34001367071098C303A70900930F8002854951
:10DA44001C47D58F1CC7832709001307900D34008A
:10DA5400B8CB11490147135337002693834703007A
:10DA640013767700B3D7C740858BDDCF9C41832ED7
:10DA74000800239C07042390070603AECE02137EFE
:10DA8400DEFF23A6CE0383AE0700137EF70793FEC3
:10DA94000EF833EECE0123A0C70103AE4702336E66
:10DAA4005E0023A2C70383AE0800014E23A27E06B4
:10DAB40003DA070663074E0303AE0703038A06006F
:10DAC400135EFE00620E135E8E416358CA0103AEFC
:10DAD4000703135EFE002380C60103DE0706137EE0
:10DAE400FE0F03AA4E0663060A0003DA8705E37FE6
:10DAF40049FB03AE4702337EEE0123A2C7038387AB
:10DB04000600635CF400034E03003396C900134619
:10DB1400F6FF3376C6012300C3003E8663D3A70015
:10DB24002A8613158601618505071377F70F850685
:10DB3400E313F7F3B640264496440649F259625A71
:10DB44006161828097560000938606A89C42D8475C
:10DB540013161701635506029847131617016350ED
:10DB640006027D57B8D7175700001307A786584FEA
:10DB7400050717560000232DE686116798C79847B6
:10DB84000D83058B1DC317570000034747A2136776
:10DB9400170017560000230CE6A0130700F81756C9
:10DBA40000002307E6A0214798C79847058B09CFB3
:10DBB400175700000347979F136717001756000075
:10DBC400A306E69E054798C798470983058B09E78E
:10DBD40098470583058B31CF9847175600001306E5
:10DBE400E69C175500001305A59B0983058B630369
:10DBF40007101841184331830D8B75EBAC4B184E4D
:10DC040093F5050203471700CDCD79EF130770068E
:10DC1400D8CF0347060013671700175600002307E1
:10DC2400E698114798C718415C57F19B93E7170092
:10DC34005CD79C4298479316370163D606029756E1
:10DC4400000083C6E6A5C18A175700001307079E84
:10DC5400C5CE034747071367070297560000238181
:10DC6400E6A4056798C798479316270163D106026F
:10DC7400175700000347C79362076187635707007C
:10DC84000547975600002385E692096798C7984789
:10DC94009316070163D606029756000083C656A062
:10DCA400858A1757000013076798ADCE03475707B7
:10DCB4001367270097560000A384E69E216798C740
:10DCC400828029D785456315B7001307B00689B745
:10DCD40089456315B7001307F0061DBF8D4563150D
:10DCE400B700130730072DB71307500715B71307ED
:10DCF400600739BF03473600136717001756000043
:10DD0400A307E68A094739BF834647070946BD8A00
:10DD14006388C600034747078D463D8BE313D7F45A
:10DD2400114725BF83465707918AC9DA0347570726
:10DD34001367870041B7397106DE16DC1ADA1ED87C
:10DD44002AD62ED432D236D03ACE3ECC42CA46C897
:10DD540072C676C47AC27EC0F533F250E252525390
:10DD6400C2533255A255125682567247E247524860
:10DD7400C248324EA24E124F824F216173002030AE
:10DD840017570000130787848346B701975700008D
:10DD940083C797864C4BB697FD8B33D7F5009756C0
:10DDA4000000A385F68297560000A387F684058BAE
:10DDB40015EF1757000003477784B3F7E70281464E
:10DDC40001471305000233D6E500058A1378F70FDF
:10DDD40019CA6397D70097470000A389077F8280F9
:10DDE400850693F6F60F0507E31FA7FC8280974785
:10DDF40000009387E7679C43011122CC4EC606CEF0
:10DE040026CA4AC852C456C28297974700009387CD
:10DE1400E77D804781496305A406BE8497470000D7
:10DE24009387C760038767013E8963550706018DA1
:10DE3400135455009747000083C7E77A9379F50197
:10DE4400636DF402370AC0A8B70A4057153F9C44D3
:10DE54009746000083C62679139756003E9783079A
:10DE64006901158C63C5070063634701569797479B
:10DE7400000023A1E778E37BD4FC1604B3693401E2
:10DE8400F24062444E85D2444249B249224A924AFF
:10DE940005618280E37D85F8B707C0A83384874095
:10DEA400229579B7974700009387875C9C4341117B
:10DEB40022C406C626C28297974700009387077339
:10DEC40080476309A406BE849747000093870756DA
:10DED4008387670163D80704018D1354550097475E
:10DEE400000083C747706367F404593D984497471B
:10DEF400000083C7476F9396570036971D8C97464B
:10DF0400000023A9E66EE372F4FE2244B240924478
:10DF1400174500000345956B81454101171302E045
:10DF24006700E3F4E37A85FAB707C0A8338487402F
:10DF3400229565B7B24022449244410182809747BA
:10DF440000009387276D9843B75702009387079F74
:10DF5400832607091396560063580600832607098B
:10DF64001396660063440600FD17FDF3828071C5B5
:10DF7400AA870145E9C58D07C207C183F19BC20782
:10DF8400C18313074003636FF702174700001307A9
:10DF940067690843174700001307476814436398E9
:10DFA400A6021747000013076748185B014541CBD9
:10DFB4004111C20706C60545DD8D0297B2400145F1
:10DFC400410182801747000013078765D9B70357BB
:10DFD400650035E303574500636FF704B306F74064
:10DFE4002146637CD60203280500938687001D8F93
:10DFF400AA966117174600000356263E2392E600B0
:10E0040023A006012393060014C12312F50013076D
:10E0140086FF974600002392E63C2313B5009745FC
:10E02400000083D5853BB387F540174700002316CE
:10E03400F73A2105828008419DB70145828082809C
:10E044000DC1974700009387E75D03A30700974737
:10E0540000009387A75C83A8070081469A8763E33F
:10E064001701828003A80700636DF50A636BA80A91
:10E0740013878700E367E5FE03D66700216705077A
:10E084006317E60003C7F18B0507A38FE18A974561
:10E0940000009385253403D6470003D765002393F6
:10E0A4000700329742074183174500002317E532E2
:10E0B400638A670217450000130585560841630308
:10E0C400F50203D5660019ED83D7460023A00601A7
:10E0D40021073E9621062392C60097470000239EFF
:10E0E400E72EB6879843E30E17F79746000093860A
:10E0F40026539442E307D7F683566700BDF283D6CE
:10E104004700035647001843A106B2962392D7004E
:10E1140098C383D76500A10717470000231FF72A78
:08E124008280BE86C28725BF80
:10E130009751FF1F938101A217A1FF1F130181ECCB
:10E1400017E5FFFF130545EC9725FF1F938585EB2A
:10E150001746FF1F130686FD63FAC50083220500DC
:10E1600023A0550011059105E3EAC5FE172502001D
:10E17000130585AB9745FF1F938545FB13860182E9
:10E1800063FAC5008322050023A0550011059105FF
:10E19000E3EAC5FE138501829785FF1F9385C55A63
:10E1A0006377B500232005001105E36DB5FEFD4240
:10E1B000739002BC8D4273904280B722000093821C
:10E1C000828873A002309722FF1F9382A2E393E21A
:10E1D000320073905230970201009382E20E7390E6
:10E1E0001234730020303D432A876373C302937750
:10E1F000F700BDEFADE5937606FF3D8ABA960CC3F6
:10E200004CC30CC74CC74107E36BD7FE11E28280B9
:10E21000B306C3408A069702000096966780A60060
:10E220002307B700A306B7002306B700A305B7006E
:10E230002305B700A304B7002304B700A303B70066
:10E240002303B700A302B7002302B700A301B7005E
:10E250002301B700A300B7002300B700828093F525
:10E26000F50F93968500D58D93960501D58D61B7F1
:10E27000939627009702000096968682E78086FA9A
:10E280009680C1171D8F3E96E374C3F8A5B7336718
:10E29000B500FD530D8B79E7B7877F7F9387F7F73D
:10E2A00010419441B372F6003363F600BE92B3E2BC
:10E2B00062006397720C6318D6065041D441B37262
:10E2C000F6003363F600BE92B3E262006398720A0E
:10E2D000631BD60410459445B372F6003363F60011
:10E2E000BE92B3E262006391720A631ED602504589
:10E2F000D445B372F6003363F600BE92B3E2620017
:10E30000639A72086311D60210499449B372F600F9
:10E310003363F600BE92B3E2620063937208510564
:10E32000D105E30FD6F61317060193970601631C78
:10E33000F7001357060193D706013305F74093758D
:10E34000F50F91E982804183C1833305F7409375CE
:10E35000F50F91E182801377F70F93F7F70F3305ED
:10E36000F74082800346050083C605000505850544
:10E370006313D60065FA3305D640828011059105F6
:10E38000E312D6FE014582802105A105E31CD6FCDF
:10E39000014582803105B105E316D6FC0145828036
:10E3A0004105C105E310D6FC0145828001471146B5
:10E3B0004148B386E5008147B308F50083C80800EB
:10E3C0008507C10623A816FFE398C7FE11071105AC
:10E3D000E31107FF8280935785019CC19357054144
:10E3E00093F7F70FDCC19357854093F7F70F137539
:10E3F000F50F9CC5C8C582801C414111130705015A
:10E400003EC05C413EC21C453EC45C453EC693973F
:10E4100025001408B69783A707FF85051105232E4D
:10E42000F5FE8D89E315E5FE41018280397122DC1C
:10E4300041661384018D06DE26DA4AD84ED652D4C0
:10E4400056D25AD05ECE93050501A2863708FF004A
:10E450007D1683070500034735001105E207D98FB4
:10E460000307D5FF9106420733770701D98F0307CA
:10E47000E5FF2207718FD98F23AEF6FEE39BA5FC43
:10E4800081499144930A010117DB0100130B0B141E
:10E4900097DB0100938B0B11130AC00293F7340032
:10E4A000032904004844BDE78A85353785450A8538
:10E4B000A1370A871C43110793F6F70093F7070F5C
:10E4C000DA97B69783C70700232EF7FEE394EAFE98
:10E4D000024592476205C2075D8DB2475D8DA24736
:10E4E000A2075D8D93972900DE979C4385093D8D9A
:10E4F0003345250108C885041104E39144FBF2501B
:10E500006254D2544259B259225A925A025BF24B87
:10E51000216182803345A90008C8F1BF797122D4F6
:10E5200026D24AD04ECE52CC56CA06D62A8A9399C3
:10E5300045000144938A018D13090101C144B307C9
:10E540003401D69788438A85793533078A008A87CC
:10E550001443904391074107B18E2328D7FEE399D6
:10E5600027FF1104E31D94FCB25022549254025927
:10E57000F249624AD24A45618280397122DC130431
:10E58000050106DE22878147C1460C433306F100B0
:10E5900011070CC24C4710083E960CC24C4F10108D
:10E5A0003E960CC29107E392D7FE85450A85A935B0
:10E5B0008945080891358D4508103D3D8147414703
:10E5C000B306F10094421104232ED4FE1408BE9623
:10E5D000944254C41410BE969442910754CCE391D3
:10E5E000E7FEF250625421618280060593770510A0
:10E5F00089C71375F50F1345B5018280411106C611
:10E60000ED37B2404101D5B781471148C148338643
:10E61000F500B306F500014703AE06003303E6003C
:10E6200005072300C301C106E31807FF9107E39024
:10E6300017FF82809306050117D60100130606F91D
:10E6400013050505138706FF1C43110793F5F70013
:10E6500093F7070FB297AE9783C70700232EF7FEF5
:10E66000E394E6FEC106E31FD5FC8280411122C47B
:10E6700006C626C285472E846301F50289476318C2
:10E68000F5002244B24092442E854101B9BF8D4726
:10E69000631BF5002E85913F298C2285B2402244D0
:10E6A000924441018280A5476315F5002E85B93754
:10E6B000DDB7AD47631AF5002E8589373D37AA844B
:10E6C00022852537258DC9BFB5476316F5002E85F0
:10E6D0003537AA84FDB7B947E311F5FC2E85393FDC
:10E6E000AA842137A98C228509373344950075B750
:10E6F0006382051493F7F500639E07121571D6C364
:10E70000AA8A3285A2CDA6CB86CFCAC9CEC7D2C52A
:10E71000DAC15EDF62DD66DB6AD96ED73284AE8431
:10E72000EF90D109C147631EF500228501330149ED
:10E73000130A010697DB0100938B4BFD294C6341C3
:10E740009902FE406E44DE444E49BE492E4A9E4A1E
:10E750000E4BFA5B6A5CDA5C4A5DBA5D2D618280C1
:10E76000338B2A010C105A859131814508107D3375
:10E7700085490810C135081009351C10D2863E871E
:10E7800010434107C10623A8C6FE032647FF23AA5C
:10E79000C6FE032687FF23ACC6FE0326C7FF23AEB3
:10E7A000C6FEE31FEAFC17D70100130727F2032870
:10E7B0000700832D4700032D8700832CC700528458
:10E7C000138607010C4042853ECE3ACC32CA42C87D
:10E7D000713D0C482AC66E85513DB2460C5011045D
:10E7E000A98E6A8536C65935B2464C54A98E6685BF
:10E7F00036C6AD3DB246F2475246358D88C39107C5
:10E8000042486247E310F6FC4107B287E391EBFA16
:10E81000CE85081085091933E39D89F50810193D47
:10E820000810A13BA9450810D539DA850810E93B45
:10E83000410931B782809307F00F6384F60A2D7186
:10E84000232A911023282111B28423263111130683
:10E8500000102E89AA89930530020A85232E1110F3
:10E86000232C811036844132A2852685EFB0D069F1
:10E8700013178500935785003365F7002310A10017
:10E88000A6852286130531009304340023018100FC
:10E8900093F4F40FEF80711B93F6F40089C64D04D6
:10E8A000158C9374F40F1C02A697A6850A8517D6BB
:10E8B00001001306A6E5238007F01D3D26868A8504
:10E8C0004E85EF809118230099008320C111032405
:10E8D000811183244111032901118329C11015617C
:10E8E00082808280411106C6EF703044B240AA8611
:10E8F00017D70100130787E71756FF1F1306062ACD
:10E9000097D501009385C5E7114541016FB0D079D6
:10E91000130101DB23248124232021252326112414
:10E9200023229124232E3123232C4123232A5123D4
:10E930002328612303470500930710042A892E84A6
:10E940006315F7680347150093074005631FF766D3
:10E95000034725009307E0056319F7662E86AA850D
:10E960002545EFB050691306D003A2854A85EFC054
:10E970002002AA84635A05003546A2854A85EFC065
:10E980002001AA84634405089389D4FF93071003E8
:10E9900063CE37074E86930539002808EF90E1656E
:10E9A0001C1CBE9917DA0100130ACA0B238409DE66
:10E9B000D28A81494D4B83254A002808EFB0107751
:10E9C0000DC18E09D69983D709004947636FF700B7
:10E9D00017D701001307C7D48A07BA979C43BA9781
:10E9E00082878509210AE39869FD97D501009385FF
:10E9F000A506DDA89305F4FF858D13851400C205D7
:10EA000081460146C1814A95EF2010638320C124CD
:10EA10000324812483244124032901248329C1233D
:10EA2000032A8123832A4123032B01231301012578
:10EA300082807D1493871400B3049440C2043E99ED
:10EA4000C1802686CA85E800EFC0E01C1305D1040A
:10EA5000EF90C15693150501C1811305D104EFC094
:10EA6000002897D501009385E5D21305D104EFB0B6
:10EA7000F06B19CD97D50100938545D20545EFB0D0
:10EA8000704C1765FF1F0345F507EF50206ABDBFA7
:10EA900097D501009385C5D11305D104EFB0106956
:10EAA00019CD97D50100938525D10545EFB0904943
:10EAB0001765FF1F03451505EF50006A81BF97D505
:10EAC0000100938565D01305D104EFB0306619CDF0
:10EAD000371700408327C70A856697D501009385BD
:10EAE00025CFD58F2326F70A254501A697D5010006
:10EAF0009385C5CE1305D104EFB0506311CD371700
:10EB000000408327870A856697D50100938585CDC8
:10EB1000D58F2324F70AC9BF97D50100938505CD6A
:10EB20001305D104EFB0906011CD37170040832753
:10EB3000C70AA16697D50100938505CCD58F2326FA
:10EB4000F70A5DB797D50100938505CC1305D1046D
:10EB5000EFB0D05D11CD371700408327870AA1663B
:10EB600097D50100938505CBD58F2324F70AADBF38
:10EB700097D50100938505CB1305D104EFB0105B49
:10EB800005C1B716004083A7860A056713070780EB
:10EB9000D98F23A4F60A97D50100938565C9A9B733
:10EBA00097D50100938585C91305D104EFB010589E
:10EBB00005C1B716004083A7C60A0567130707807B
:10EBC000D98F23A6F60A97D501009385E5C729BFFB
:10EBD00097D50100938505C81305D104EFB01055F2
:10EBE00011C59767FF1F23A107F40DB597D5010045
:10EBF000938505C71305D104EFB0505301C5EF60ED
:10EC0000A01329B597D50100938545C61305D104F6
:10EC1000EFB0D05101C5EF600019CDBB97D5010011
:10EC2000938585C51305D104EFB0505001C5EF5051
:10EC3000D02FE9BB97D501009385C5C41305D10436
:10EC4000EFB0D04E01C5EF902013C9B397D50100A6
:10EC50009385C5C31305D104EFB0504D09C50545D3
:10EC6000EF80301265B397D501009385A5C21305D7
:10EC7000D104EFB0B04B19C10145DDB797D5010004
:10EC80009385C5C11305D104EFB0504A11C9371798
:10EC900000408327C70A9166D58F2326F70ABDB3A4
:10ECA00097D50100938505C01305D104EFB0104836
:10ECB00011C9371700408327870A9166D58F23240F
:10ECC000F70AA9B397D50100938545BE1305D10472
:10ECD000EFB0D04511C5A6854A85EF60001E3DB353
:10ECE0000346D104A547130606FD1376F60FE3EF9E
:10ECF000C7D09767FF1FA38FC7E097D50100938503
:10ED000065BBEFB0703A19B31306F4FF058E138597
:10ED100014004206418297D50100938525754A95D6
:10ED2000EFB090541764FF1F130404DD1DC50545A3
:10ED3000EF10901B97D50100938505B91145EFB0F1
:10ED4000702083570400414593E717001767FF1FA2
:10ED50002314F7DAEFC0205F55B997D501009385EA
:10ED600065B71145EFB0101E7D55EFC0A060835709
:10ED70000400F99B1767FF1F2310F7D841B99D3690
:10ED800071B11306F4FF058E13851400420641820B
:10ED900097D501009385856D4A95EFB0F04C1764C7
:10EDA000FF1F130464D529C58357040097D50100BC
:10EDB000938505B3E80093E717001767FF1F231D2E
:10EDC000F7D2EF90811EE800EF90411F1316050166
:10EDD000EC0041821745FF1F1305455DEF80E028D9
:10EDE00097D50100938585B11145EFB0B01539B9BC
:10EDF00097D50100938545B1E800EF90011BE8002D
:10EE0000EF90C11B13160501EC0041821745FF1F4F
:10EE10001305C559EF8060258357040097D501007D
:10EE2000938545B0F99B1767FF1F2317F7CC6DBF7C
:10EE3000EF70402E9767FF1F938707CCA847EF809E
:10EE4000E114AE862A8697D50100938565AE1145FB
:10EE5000EFB0902565BEEF5000434DBE17D60100C0
:10EE60001306466197D50100938545AD114551BD07
:10EE7000EF70007097D50100938505AD35F597D5F6
:10EE80000100938565AD8DB73145EF80B054AA84FC
:10EE9000EF80C10F2A86AE86254597D50100938560
:10EEA000E5ACEFB0702097D701009387678E884359
:10EEB000A6851754FF1F1304A4E6EF70D122232068
:10EEC000A422EF70E07103250422EF80210CAE86AE
:10EED0002A8697D50100938525AA95BF81450D45C2
:10EEE000EF505054EF70A0632A8697D501009385A8
:10EEF00065ABADBF81452D45EF50D052814513051F
:10EF00005004EF50305297D501009385A5AA3145A2
:10EF1000EF505051EF7000612AC6EF706061B24649
:10EF20002A871756FF1F130666C797D501009385DA
:10EF3000A5A81145EFB05017D1BC1757FF1F0357B5
:10EF4000C7FF9756FF1F9386B6E71756FF1F130696
:10EF5000E6C497D50100938565A8E1BF854717579B
:10EF6000FF1F2305F7FEEF70A06797D5010093857B
:10EF700025A89DBD1757FF1F034747FD854797D518
:10EF80000100938565A7E311F7E6C5B79767FF1FF3
:10EF9000938787B6E843EF70717FAE862A8697D550
:10EFA00001009385E5A565B5B717004083A7470A1B
:10EFB00097D50100938505A693F70720E39607E20E
:10EFC00097D50100938505A705B50146A2854A8519
:10EFD000EF50102825BC411122C421649305048000
:10EFE00099460146254506C69720FF1FE78060C465
:10EFF000930504802244B240994613860182294534
:10F0000041011723FF1F6700C3C299E101458280B8
:10F0100075DD011152C403DA418226CA93548A0075
:10F020008504A204C204C18056C2B38A4441C20A04
:10F0300022CC4AC82E862E842A8997D50100938532
:10F0400025C6254593DA0A014EC606CE938901826C
:10F05000EFB0900563ED8A0883D5418293F7F50FF1
:10F06000B1CF8D6783D5418293870780A2864A8678
:10F07000BE9529459720FF1FE780A0BB1375F50FAC
:10F0800029ED83D749001566A2972392F18203D711
:10F09000418283D721826309F70063F3E700B297C7
:10F0A000998F139607014182254597D501009385D5
:10F0B000A5C0EFB0607F1375F40F0DA08D67938727
:10F0C0000780930600100146BE9525459720FF1F37
:10F0D000E78020B61375F50F49D50145F24062442B
:10F0E000D2444249B249224A924A05618280B3071A
:10F0F0009440D297C207C183A18303C74900850703
:10F1000093F7F70F9396870011EB9386170093748C
:10F110000AF0A206C204C206C180C18283D721823E
:10F1200063F6F40033879600E3C9E7FA0D6A130A21
:10F130000A800146B385440125459720FF1FE780DB
:10F1400040AF1375F50F51F983D54182A2864A86E7
:10F15000D29505B7411122C41384018222858145CD
:10F16000194606C69720FF1FE780C0E69307B0FA4E
:10F170002300F4008D352244B24097D501009385D9
:10F18000A5AA254541016FB0E05BA16541119946F3
:10F1900013860182938505802D4506C69720FF1FA3
:10F1A000E78020A903C701829307B00A6303F70031
:10F1B0005537B24083D6418203D6218297D50100CC
:10F1C000938545A7254541016FB0006E83D701980F
:10F1D0000145638C071003D521986366F50023A0D1
:10F1E0000198014582803385A740D1473355F50208
:10F1F0001375F50F01E5239001988280130101BD7D
:10F200002324814223261142232291422320214399
:10F21000232E3141232C4141232A51419547137418
:10F22000F50F63F3A7001544228697D50100938557
:10F2300065AA2545EFB0406701498144938941980B
:10F24000514AA14A9377F90F03D521981757FF1F09
:10F25000034797C363E98704D1473304F4022A9430
:10F2600023918198A147631CF706A6850808EF4003
:10F27000001C03D7219883D7019805456364F700E4
:10F2800023A001988320C142032481428324414268
:10F29000032901428329C141032A8141832A414133
:10F2A000130101438280B30749031408AA97CE973C
:10F2B00033859600631E5701BE85EF40C036231785
:10F2C000A1008357E1000509BE94C204C1809DBF1F
:10F2D000AA851306E1003E85EF90500ADDB7268629
:10F2E0000C080145EF60E03469B78280011106CE59
:10F2F00022CC26CA4AC84EC691E901442285F24072
:10F300006244D2444249B24905618280AA8975D5D6
:10F3100083D7418203D621822E849564638AC700F5
:10F320006374F60015673A961D8E93140601C1802A
:10F33000268697D501009385258C2545EFB0C056CC
:10F34000938714F06356F4009307F00F63EA970075
:10F3500097D501009385C58B2545EFB0E05471BF6B
:10F3600083D4418233878400956763C7E700A28511
:10F370004E8561398D3159B7156933099940420974
:10F3800013590901CA854E85493125D9ED75A695D0
:10F39000A295C20523920182C18133852901D1BF83
:10F3A00083D6019881EA97D501009385E58C2545A0
:10F3B0006FB0403903D621984111918E97D5010045
:10F3C0009385858C254506C6EFB0004E13870198BE
:10F3D0008355070083D72198138541989D8DC205D9
:10F3E0003E95C1812137B24023A00198410182801E
:10F3F000411183D7019822C426C206C6AE971307CF
:10F40000401FAA842E84635AF700593F97D5010004
:10F41000938545842545EFB0E03283D70198138565
:10F4200041982286A6853E95EF70316203D60198F9
:10F43000229642062244B240924441822390C198CF
:10F4400097D5010093858582254541016FB0C04560
:10F45000011126CA06CE22CC4AC84EC652C456C294
:10F46000814459C1D1C183D7218203D44182638DA4
:10F47000870663F587081D8C42044180AE892A897E
:10F48000228697C501009385A5730145EFB0C04161
:10F49000A28463F38900CE84C2040D6A83D72182DB
:10F4A00003D74182C180938A0182130A0A8063FADA
:10F4B000E704A6864A86B38547012D459710FF1FAE
:10F4C000E780207783D72A00A6972391F182EFF077
:10F4D0009FB083D6418203D6218297C501009385D0
:10F4E000656F2545EFB0403CF240624426854249B5
:10F4F000D244B249224A924A0561828015673A9401
:10F500009DBF15671D8FB385470163D5E400A686AF
:10F510004A8665B79569B389F9406D743E94C2090E
:10F5200093D909012694CE864A8642042D45971028
:10F53000FF1FE78000704180A28633063901D28523
:10F540002D45239101829710FF1FE780806E83D79E
:10F550002A003E94239181829DBF1841938781FBAD
:10F56000104598C303574500544590C72392E700C0
:10F5700058551049D4C7544998CF97D50100938561
:10F58000258A0547254590CBD4CB238EE7006FB065
:10F59000601B397126DA4AD84ED652D456D25AD088
:10F5A00006DE22DC62CE66CC2A89EF80312193749C
:10F5B000F50F8149254BE54A17CA0100130A0A7362
:10F5C00091ECF25062544E85D2544259B259225AAB
:10F5D000925A025B724CE24C21618280034709001F
:10F5E000930707FD93F7F70F637CFB009307F7F989
:10F5F00093F7F70F63E2FA06930797FA93F7F70F7B
:10F60000139487016184FD14230089002685EF602F
:10F6100051692A86AE8603250A0083254A0093F4A1
:10F62000F40F0509EFE090742AC422852EC6EF601E
:10F6300051672246B246EF6061172A8C4E85AE8C28
:10F64000EF60516D2A86AE866285E685EF50E12A2D
:10F65000EF60715FAA89ADB79306F7FB93F6F60FDB
:10F660008147E3EFDAF8930797FC49BF411122C4C1
:10F6700006C6830795022A8499C713059502EF7081
:10F68000113A2389A1F68307D41291CB1305D41222
:10F69000EF709138EF70511A938701F4C8D3B240DC
:10F6A000224441018280011126CA9304150022CC14
:10F6B00097C501009385857A2A84268506CE4AC897
:10F6C0004EC6EFB0A02E631E051097C501009385AE
:10F6D00025792685EFB0802D6302050E85448307CA
:10F6E000D4036386070C13059402EF7051338549E8
:10F6F0001379F50F1305D4036387340F8947638C9F
:10F70000F418EF70D131A38AA1F6631A3901794652
:10F710008145138571F923830182EFE0DFAC830714
:10F72000D40885C31305D408EF70712F03C7618215
:10F73000930717002383F182938701F4BA97A38B71
:10F74000A7048307D40D85C31305D40DEF70312DA5
:10F7500003C76182930717002383F182938701F423
:10F76000BA97A38BA7048307D41285C31305D412B9
:10F77000EF70F12A03C76182930717002383F18298
:10F78000938701F4BA97A38BA7048307D41785C383
:10F790001305D417EF70B12803C7618293071700D0
:10F7A0002383F182938701F4BA97A38BA704F240D5
:10F7B0006244D2444249B2490561828097C5010042
:10F7C0009385456A2685EFB0601EE31905F026850E
:10F7D00097C5010093854569EFB0401D8944E3104A
:10F7E00005F08144EDBDEF709123238BA1F6631AE0
:10F7F000990079468145138591F723830182EFE0D3
:10F800009F9E8307D40885C31305D408EF70312168
:10F8100003C76182930717002383F182938701F462
:10F82000BA97A38CA7028307D40D85C31305D40D03
:10F83000EF70F11E03C76182930717002383F182E3
:10F84000938701F4BA97A38CA7028307D41285C3C8
:10F850001305D412EF70B11C03C761829307170020
:10F860002383F182938701F4BA97A38CA7028307BD
:10F87000D417E38E07F21305D417EF70511A03C79C
:10F880006182930717002383F182938701F4BA976B
:10F89000A38CA70229BFEF709118A38BA1F601BF1B
:10F8A000411122C406C6830795072A8499C7130508
:10F8B0009507EF70D116A389A1F68307D40899C7DD
:10F8C0001305D408EF70B115238AA1F68307540BF2
:10F8D00091CB1305540BEF703114EF70E1759387E2
:10F8E00001F488D7B240224441018280011126CA26
:10F8F0008146B284014652C456C206CE22CC4AC8C2
:10F900004EC62A8AAE8AEF50914D41CD9307E0044E
:10F910006386F400930730056395F40897C90100E6
:10F920009389C95103A6090083A649005285D6854B
:10F93000EF50D16737949800EF60F13013040468FA
:10F940002A8933758502EF60F13C03A6090083A67E
:10F950004900EF50816D97C701009387A74E9043F0
:10F96000D443EF50816C2A8A33558902AE8AEF6006
:10F97000713A2A86AE865285D685EF4011781307F4
:10F980003005AE876395E400B7070080AD8FF24085
:10F990006244D2444249B249224A924ABE85056134
:10F9A000828001458147E5B7011126CA8146B284AC
:10F9B000014652C456C206CE22CC4AC84EC62A8A36
:10F9C000AE8AEF50D14141CD930750046386F400D5
:10F9D000930770056395F40897C901009389094658
:10F9E00003A6090083A649005285D685EF50115C15
:10F9F00037949800EF603125130404682A89337521
:10FA00008502EF60313103A6090083A64900EF505B
:10FA1000C16197C701009387E7429043D443EF50F9
:10FA2000C1602A8A33558902AE8AEF60B12E2A86D8
:10FA3000AE865285D685EF40516C13077005AE87B0
:10FA40006395E400B7070080AD8FF2406244D24472
:10FA50004249B249224A924ABE85056182800145E7
:10FA60008147E5B7135785009357050113D88500E3
:10FA70009376F50F01111377F70F93F7F70F618561
:10FA800093F5F50F1378F80F99C211C3B9E3230C5E
:10FA9000D100A30CE100230DF100A30DA10003454B
:10FAA0009101834781010347A1012205A30E0101B2
:10FAB0004207C98F230EB1000345B101D98F034717
:10FAC000D1018345C101620522075D8DD98D056194
:10FAD000828032951375F50F1313850113538341FB
:10FAE0005D466357660861463363C3028507137634
:10FAF000D70F114593F7F70F6305A6002545631A45
:10FB0000A6007946637FF60205071377F70F85474E
:10FB10000DA809466312C7041386067D93084006A4
:10FB2000B36816036385080013F5360011C5130585
:10FB300000193366A60219EE75466374F600854710
:10FB40000D47230CD100A30CE100230DF100A30D00
:10FB50006100B1B77146D5B77D46E374F6FEB14793
:10FB6000E314F7FA850693F6F60F85470547D1BFEC
:10FB7000E35903FC6105FD171313850193F7F70F94
:10FB800013538341DDFF7D171377F70F1146F947B4
:10FB9000E309C7FA1946E306C7FA2546E303C7FA9D
:10FBA0002D46E300C7FA89476316F7021386067DE0
:10FBB00093074006B367F60291C793F83600F547FE
:10FBC000E38108F893070019B367F60293B71700AB
:10FBD000F10785BFFD4735F7FD1693F6F60F314760
:10FBE0008DB783471500034705000111A2075D8FFC
:10FBF000834725008346350083454500C207D98FDA
:10FC00000347550022CC1744FF1F13046411030659
:10FC10001420E206220733E5F600D98D06CE993589
:10FC2000135885001356050193D7850013F7F50F78
:10FC300093F7F70F935685011376F60F9375F80F28
:10FC40001375F50FEF70305283471400054793F793
:10FC5000B70F6397E7006244F24005616F70306050
:10FC6000F240624405618280497123248116138425
:10FC700001F48307340083C851F403C841F403C777
:10FC800021F483C611F403C601F497C501009385DE
:10FC9000651F4810232611162322911623202117B1
:10FCA000232E3115EF80012C4810EF8021311848A8
:10FCB0005C48030604033AC03EC2030814035C44D4
:10FCC0001844541097C501009385C51D3695EF80E3
:10FCD00061294810EF80812E5C103E9583076400F7
:10FCE00017C601001306861989C717C60100130637
:10FCF000661897D501009385E5D3EF80A1264810BB
:10FD0000EF80C12B544C104C5C1097C501009385BB
:10FD1000651A3E95EF8001254810EF80212A0306E1
:10FD200034035C103E9597C5010093856519EF80FB
:10FD300061234810EF80812803072403AA844850D8
:10FD40003ACE138401F4EF70612472475C10AE86E2
:10FD50002A8697C501009385A51733859700EF8004
:10FD600061204810EF8081255C1003C641F797C5DC
:10FD70000100938565173E95EF80C11E4810EF8006
:10FD8000E1235C1097C50100938505173E95EF8030
:10FD9000C1211389E1F5A28497D90100938909C98A
:10FDA00003C6740519CA481032CEEF80212172466D
:10FDB0005C10CE853E95EF80E11A8504E39224FF26
:10FDC0004810EF80A11F5C1097C501009385451373
:10FDD0003E95EF80811D97D40100938424C503468E
:10FDE000940319CA481032CEEF80411D72465C1050
:10FDF000A6853E95EF8001170504E31224FF4C1001
:10FE00002545EFA030148320C116032481168324D6
:10FE10004116032901168329C1157561828041119C
:10FE200022C406C626C2830755012A84B9C7A9463B
:10FE3000938707FDB387D70203476501130707FDC3
:10FE4000BA97A381F1F4030775018347850113076E
:10FE500007FD3307D702938707FD3E972382E1F41E
:10FE6000830795010347A501938707FDB387D70251
:10FE7000130707FDBA97A382F1F48307940281CB9D
:10FE8000130710046391E71485472383F1F4830774
:10FE9000D403938401F499C71305D403EF70C137D9
:10FEA00088C4CCC40306140509CA8844CC442388FA
:10FEB000C1F6EFF0BFA388C4CCC48307540699C72A
:10FEC00013055406EF70413588C8CCC80306940763
:10FED00009CA8848CC48A388C1F6EFF0FFAC88C8AF
:10FEE000CCC88307D40899CF1305D408EF70C1326A
:10FEF00097C70100938787F79043D443EF50110BC6
:10FF000088CCCCCC8307140A99C71305140AEF7068
:10FF100001312390A1F68307540BB9C7A9469387F3
:10FF200007FDB387D7020347640B130707FDBA9792
:10FF30002381F1F40307740B8347840B130707FD38
:10FF40003307D702938707FD3E97A380E1F4830729
:10FF5000940B0347A40B938707FDB387D7021307BE
:10FF600007FDBA972380F1F483853400856703C6C3
:10FF700041F4938707E11307C0033307E60283C602
:10FF800051F4B387F502BA97B69723A6F1F617573F
:10FF9000FF1F130767B6835707003A8413F58700DE
:10FFA00039E1038564000547631FE50203C721F4B7
:10FFB00011EF8844CC4401468146EF50416205E987
:10FFC000238301F4B9A0238301F4D1B5FDD175D207
:10FFD000EDD293E78700138501F41757FF1F231D08
:10FFE000F7B0EFF01FC083876400E1F7D1BF884806
:10FFF000CC4801468146EF50815E79D183C721F418
:020000021000EC
:10000000E1D313068007938501F4138581ECEF702B
:10001000C12303C581B79D4705053365F502130666
:100020008007938501F4238CA1B6930780073305DD
:10003000F502938701B83E95EF702121EFF0DFC202
:100040005C582244B24092441757FF1F2324F7AE56
:10005000130680078145138501F441016FE0AF98D5
:100060000171232C811E232A911E1306101E2A843F
:10007000AE8468008145232E111E2328211FEFE046
:100080008F9681458147014701465148CD485D43E0
:100090006340960899C12306F1001306A002A685C5
:1000A0002285EFA0F00E8347C10051473386A4405C
:1000B000B387E7029305150078007D16A2958507A2
:1000C0003305F700EF7061181306A002A68522859C
:1000D00003491400EFA0D00B894763C3A708034569
:1000E000C100D1473305F5027C0005053E95EFF0D0
:1000F0004FCA631CA904194697C50100938505D50D
:100100001305D100EFA0501625C56800093B35A89E
:10011000B306C40003C50600930665FD93F6D60F2B
:1001200091EA850793F7F70F6361F302854501476D
:100130000506B9BFB3860703130E011FF296BA96E0
:10014000A38EA6E00507E3D5E8FE8320C11F0324A4
:10015000811F8324411F0329011F13010120828075
:100160003307F4000347070085073349E900B5B7B3
:10017000194697C501009385A5CD1305D100EFA0C1
:10018000B00E0DED194697C501009385A5CC13055A
:10019000D100EFA0700D19ED194697C501009385A8
:1001A000A5CB1305D100EFA0300C45D16800EFF0CE
:1001B0008FCF61BF6800EFF0AFEE41BF6800EFF096
:1001C000EFCA61B7757122C526C34AC1CEDED2DC43
:1001D000D6DADAD806C7AA892E8981440144814734
:1001E000130A4002854A354B139704014183636C1F
:1001F0002701BA402A449A440A49F659665AD65AFF
:10020000465B49618280338799000347070063009A
:100210004703639C5701631D67019C18A297A28541
:100220006800238E07F82D3D8147850475BF014482
:100230009C18A29705041374F40F238EE7F89337E4
:100240003406E5B7411106C6138581B7834705001B
:10025000130780078145B387E70213068007A107CC
:100260003E95EFD05FF8B2408145114541016FB036
:100270004006138581B78347050013078007B387BE
:10028000E702A1073E958280138581EC8280975713
:10029000FF1F83C7F78681CF9747FF1F83D767C8A4
:1002A000FD17C207C1831307A0036375F70023A4DA
:1002B0000182828031714ED79389818283A70900A0
:1002C00056D3938A81B7850722DD26DB52D55AD1D2
:1002D0005ECF62CD66CB6AC906DF4AD96EC723A45A
:1002E000F18283C481B7014A130C8007568497CCEE
:1002F0000100938CACA9054D9D4B154B33898403AC
:1003000056998307E900E1CF03A60C0083A64C00B1
:100310000325090283254902EF50E13D6341050CA5
:1003200083470904638DA70B93171A001808BA971F
:10033000035789022390E7003C00D297238097005F
:10034000050A9904B3E47403E31A6AFB03578101B5
:1003500083570101998F13D7F741B98F998F9394E0
:1003600007011307400BC1806358F70093078016FD
:10037000B3849740C204C180268697C50100938547
:10038000E5A36808EF70113E6C082545EFA0803B9F
:10039000938714FFC207C1837947636EF708034947
:1003A0009100130A80078545014533094903210956
:1003B00022994A86EF80704B8344B1008545014500
:1003C000B3844403A104A2942686EF80104ACA8510
:1003D0000D45EF308027A6850D45EF30002783A718
:1003E00009001747FF1F0357C7B363E7E70203C5B9
:1003F00081B79304800733059502B30DA40083876A
:10040000ED0099CB83C741FD138981FB6397070EEC
:1004100021052295EFF06F94FA506A54DA544A5944
:10042000BA592A5A9A5A0A5BFA4B6A4CDA4C4A4D24
:10043000BA4D296182809307D002E3F297FA834B89
:100440008100930A80078545B38B5B030145138CBC
:100450008B00229C6286EF805041034B91008545C2
:100460000145330B5B03A29B210B229B5A86EF8035
:10047000D03F034AA10085450145330A5A03210AAA
:10048000229A5286EF80703E0349B10085450145AE
:1004900033095903210922994A86EF80103D83448C
:1004A000C10085450145B3845403A104A294268666
:1004B000EF80B03BE2850D45EF302019DA850D4520
:1004C000EF30A018D2850D45EF302018CA850D45B4
:1004D000EF30A017A6850D45EF30201783C781B7F1
:1004E000B38A570303A74B03A29A83A74A03E318CF
:1004F000F7EE85472380FA04DDB517CD0100130D13
:100500006D8903260D0083264D0003A50D0183A5EB
:100510004D0197C9010093896988EF50212903A6ED
:10052000090083A64900EF4051302A8BAE8B032689
:100530000D0083264D00032589008325C900EF5057
:10054000E12603A6090083A64900EF40112E2A8A5E
:10055000AE8A2A86AE865A85DE85EF50A17097C78F
:100560000100938727849043D443EF502124EFD098
:10057000D06A2A8CAE8C5A85DE85EFD0F0602A8B4B
:10058000AE8B5285D685EFD03060032609018326D5
:1005900049012A8AAE8A03A58D0183A5CD01EF50BA
:1005A000616C03260D0083264D00EF50212003A629
:1005B000090083A64900EF40512797B701009387B0
:1005C000677E9043D443EF50611EEFD010652A89B7
:1005D000AE895286D6865A85DE85EF50211D4A8621
:1005E000CE86EF50A11C4A86CE86EF50211C2A8968
:1005F000AE896286E6866285E685EF50211B2A86F3
:10060000AE864A85CE85EF40412FEFE08028EFD0BF
:10061000106A2A86AE86EF40412E97B70100938775
:10062000E7789043D443EF50611897B70100938760
:1006300067789043D443EF5061172A86AE862A89A3
:10064000AE89680897B5010093854578EF709111E0
:100650006C082545EFA0000F1735FF1F03454576B1
:10066000EF5031642A86AE864A85CE85EF40D17D33
:10067000E354A0DA03C681B73306960285450145E7
:1006800021062296EF80701E83C581B7B38595023F
:100690000D45A105A295EF20507B03C581B7330519
:1006A000950221052295EFE05FEB23A40182ADB313
:1006B0000111254697B501009385C5EB480006CE8C
:1006C000EF60B1384C0025461735FF1F130505CEE6
:1006D000EF60B01997B50100938505712545EFA02E
:1006E0006006F24005618280797122D42D4697B56B
:1006F00001009385A5E92A84280006D6EF60F1342D
:100700002D4697B50100938525E94808EF60F13340
:100710002D461DC02C001735FF1F130525C9EF609E
:10072000D01497B501009385A56D2545EFA08001F4
:10073000B2502254456182804C081735FF1F1305C3
:10074000E5C6EF60901297B501009385656CF1BF27
:10075000317186064ED7AA8913D5160006DF22DD31
:1007600026DB4AD9B2CE2E89EF60E17C97B7010033
:100770009387475976468C432A843285EF60A1528D
:10078000EF60617BAA84554681452801EFD0BFA563
:1007900085472308F10693D789402309F10693D7AB
:1007A0000941A309F10693578940230BF10693579A
:1007B0000941A30BF10693D78400230DF10693D7CB
:1007C0000401A30DF10693578400230FF1069357FC
:1007D0000401A30FF106B7E70B109387179FA30837
:1007E0003107A30A210793D9894113598941A30CE1
:1007F0009106A30E8106E18061803EC35801C54782
:10080000230081082304F108230A3107230C210760
:10081000230E9106FC103A849306D10703C64700C5
:1008200085070507A302C700E39AD7FE034881089E
:100830000147814793055800894693F7F70F1377CF
:10084000F70F63DCD50AA30DF108BEC28347A109E7
:10085000230EE108BAC4BEC08347910997B50100D1
:100860009385854A25453EDE834781093EDC8347E3
:1008700071093EDA834761093ED8834751093ED664
:10088000834741093ED4834731093ED2834721093A
:100890003ED0834711093ECE834701093ECC8347B2
:1008A000F1083ECA8347E1083EC88347D1083EC6E7
:1008B0008347C10883489108034761083EC48347C2
:1008C000B10883465108034641083EC28347A10848
:1008D0003EC083477108EF90307DA2851735FF1F1A
:1008E0001305C5AC6546EF604078FA506A54DA5497
:1008F0004A59BA590145296182803306D40003461A
:1009000006008506B29713F6F70F32979317860104
:100910006207E187618715B7854763DBB70A79719D
:1009200026D24AD052CC5AC85EC662C466C206D627
:1009300022D44ECE56CA2A8A0149930B100F130CAB
:10094000900D973CFF1F938C6CA617BB0100130BF7
:100950006B3A9384F5FFB3092A0103C70900930793
:100960001900631577053307FA0003470700631F73
:10097000870303C4590083C74900CE8522045D8CD8
:10098000930A8400C20A93DA0A0156866685EF60EC
:10099000C06D5686CE855A85EFA060420D45970002
:1009A000FF1FE780400493078900A29763E0970246
:1009B000B250225492540259F249624AD24A424BEE
:1009C000B24B224C924C0145456182803E8961B711
:1009D0007D558280914763E3C70A17B7010013076B
:1009E000E7520A063A961C42411122C406C6BA973B
:1009F0002A84828797D50100938505871145EF905A
:100A00007054A2851145EF90F0532244B24097D51F
:100A1000010093852587114541016F90B052B9CAF5
:100A20009737FF1F83C7475381C79042EF40B04DB0
:100A30002244B240014697550000938545D33D4579
:100A400041016F30004B9DC62244C8C2B24003C56D
:100A5000A6002394B6003686954541016F80E0607C
:100A60002244B24041016FD0B0082244B24041015B
:100A70006F308008B240224441018280828041115F
:100A800006C6EF906007B24041016F80F04D55718E
:100A900058109306310213062102930511029307A1
:100AA00051021305610286C7EF60D0659747FF1FAB
:100AB0009387870483D70700BD9B1747FF1F231D1C
:100AC000F702EFF00FFB030305039305E0048356E1
:100AD0006102034711028347210203483102834820
:100AE0004102034E510217D601001306A6066316F3
:100AF000B30017D601001306A6F3830E15031303E4
:100B00005004032F8500832FC50097D501009385DE
:100B100025F263866E0097D501009385A503032314
:100B20000501832345017AC41ACC1ECE7EC672C04D
:100B30002EC832C297C50100938505CF1736FF1F17
:100B40001306C6052810EF70E141EF80E07328100E
:100B5000EF70C1469387C182904393150501938638
:100B600081FD2810C181BD35BE406961828041117F
:100B700006C623A6B18201C61C4223ACF1FC9737FE
:100B8000FF1F83C7571A9DEB0545EFA0107897B557
:100B90000100938565442545EF90D03A9747FF1FA4
:100BA00083D787F593E707011747FF1F2316F7F44D
:100BB000EF80C06CB24041016F40402905470545B8
:100BC000639CE700EFA070740545EFA0C07797B570
:100BD00001009385A541C1B7EFA030730545EFA093
:100BE000107B0545EFA0207697B5010093858541E0
:100BF0005DB7411122C42A848307D40306C626C2E6
:100C00002E8589C71307F0036398E7021737FF1F84
:100C10001307D7179736FF1F938636141736FF1F13
:100C20001306961097B50100938505492244B240FA
:100C3000924441016F7001339737FF1FA386070E5F
:100C40009737FF1FA38B07109737FF1FA380071449
:100C5000034704008547AE8463FAE7009305D40395
:100C60001735FF1F1305550CEF70213483079407C8
:100C700091CF03470400894763FAE700930594077F
:100C80001735FF1F1305750DEF7021328307540BC5
:100C900091CF034704008D4763FAE7009305540B97
:100CA0001735FF1F1305950EEF702130014697454C
:100CB00000009385850F1305C012EF308023EF509D
:100CC00030121737FF1F1307770C9736FF1F9386D5
:100CD000D6081736FF1F1306360597B50100938512
:100CE000E53F2685A1B7411126C206C622C40347A7
:100CF00005008947AE8463F7E7029305D5032A848C
:100D0000130620031735FF1F130505FBEF70E12EB7
:100D100013059407EF60A1509737FF1F2390A7009A
:100D2000EF509006EF50500A9736FF1F83D606FF0C
:100D30001736FF1F130646F897C501009385C5A512
:100D40002685EF70212285479735FF1F938505E59E
:100D50001735FF1F130505F51737FF1FA308F7EA1F
:100D6000EF70A1249735FF1F938515FC1735FF1FE2
:100D70001305E5E9EF7061239735FF1F9385F5FDB6
:100D80001735FF1F1305C5EBEF7021229735FF1FA5
:100D90009385D5FF1735FF1F1305A5EDEF70E120F3
:100DA00097B501009385859C1735FF1F1305E5F363
:100DB000EF70A11FEF50407D0146974500009385DD
:100DC000E5F77945EF30E0122244B2409244014603
:100DD00097650000938545481305600441016F3015
:100DE0004011411122C426C24AC006C68307D5035A
:100DF000AE8417B901001309E9681744FF1F1304F3
:100E0000A4CF89C71307F0036391E7041735FF1FC9
:100E10000345F5FAEF50E1680326090083264900EF
:100E2000EF40A120EF60412168C4EF602116AE863B
:100E30002A8697B50100938565652244B240024930
:100E40002685924441016F70E1111305D503EF60CF
:100E5000013D9737FF1FA384A7F61375F50FEF50D9
:100E600041640326090083264900EF40011CEF601E
:100E7000A11C68C4EF50C0766844EF602111AE86B3
:100E80002A8697B501009385656245BFAA870387C7
:100E9000D7032E8509C79306F0036315D70297374A
:100EA000FF1F83C737E817B601001306E65A89E724
:100EB00017B601001306C65A97B501009385C55BA6
:100EC0006F70410A41111385D70306C622C42E84D0
:100ED000EF60E1349737FF1FA386A7E4EF5040701F
:100EE0009737FF1F83C717E497B501009385C55750
:100EF00089E797B501009385A55722852244B24022
:100F000041016F70810A411126C206C6AA8422C41B
:100F10008387D4032E8589C71307F0036396E704FC
:100F20009737FF1F83C737E005476385E70289CB03
:100F300009476386E702B24022449244410182801D
:100F400097B501009385C55A2244B24092444101AD
:100F50006F70A10597B501009385055CF5B797B54E
:100F600001009385255ECDB79384D4032E84268516
:100F700097B5010093850560EF70610A1DC189472F
:100F80001737FF1FA301F7DA97B501009385C562F4
:100F90002285EF7081012244B240924441016F509A
:100FA00020642685EF60A1271375F50F9737FF1F83
:100FB000A38BA7D6854797B501009385E55DE30927
:100FC000F5FC97B501009385655B79D18947E30D01
:100FD000F5FA1737FF1FA308F7D497B501009385DB
:100FE000E55F7DB741112E8597B501009385856238
:100FF00006C6EF60917B014697450000938505D4B6
:101000007945EF20106FB240014697650000938547
:10101000A5241305600941016F20B06D411122C460
:1010200026C206C68307D503AE841734FF1F1304F8
:1010300024CF89C71307F003639BE70283061420BC
:1010400017B601001306467963D6060017D60100CD
:101050001306069E268597B5010093852578EF60D7
:1010600071702244B240924441016F90104A1305BE
:10107000D503EF60C11A9737FF1FA383A7EAEF904C
:10108000D0480306142097B501009385E5762545E1
:10109000EF909001834714206147B10793F7F70F52
:1010A0006377F700A1471737FF1FA30BF7E6EF5051
:1010B00020538306142017B601001306E67163D689
:1010C000060017D601001306A6962244B2402685D4
:1010D000924497B501009385A57241016F609168B4
:1010E000797122D49307D1012E8478089306B10137
:1010F0001306A101930591011305E10106D626D23D
:101100004AD0EF6030008348D1010348C1018347D2
:10111000B1010347A101834691010356E10197B54F
:1011200001009385251F2285EF60D1632285EF6042
:10113000F1689744FF1F9384249CCC5803A8C403F0
:101140000566130606E133F3C5029306C003229534
:10115000B378C802B377D80233F7D5023EC09C58A3
:10116000B3D8D8023358C802B356D30233D6C50217
:1011700097B501009385451CEF60D15E2285EF6035
:10118000F1633309A400EF90201517B60100130690
:10119000261809C517B601001306461797B50100B2
:1011A0009385851D4A85EF60F15B2285EF601161B3
:1011B000944022951748FF1F0348489493D7260070
:1011C0008582858B1747FF1F03473793858A17460C
:1011D000FF1F0346E69797B501009385E51AEF6078
:1011E0007158B25022549254025945618280AA87A4
:1011F0000387D7032E8509C79306F0036311D7022F
:101200009737FF1F83C747B297B50100938545E124
:1012100089E797B501009385A5E36F6011594111E6
:101220001385D70322C406C62E84EF50517F137551
:10123000F50F9737FF1F2389A7AE1737FF1F034707
:1012400037AE89476316F7000DE91145EFA0A00FEF
:101250009737FF1F83C747AD97B501009385C5E05A
:1012600089E797B50100938565E32285EF60F15327
:101270002244B24041016F50A0361145EFA0800FCB
:10128000C1BFAA870387D7032E8509C79306F0033A
:10129000631ED7029737FF1F83C7E7A80547638DF3
:1012A000E70089C70947638EE700828097B5010090
:1012B000938585E56F60714F97B50100938505E9CA
:1012C000D5BF97B50100938525EEEDB74111138584
:1012D000D70322C406C62E84EF5071741375F50F20
:1012E0009737FF1F2381A7A4854797B501009385F2
:1012F000E5E56306F50297B501009385E5E005C1D4
:10130000894797B50100938525EA630AF5001737E9
:10131000FF1F230AF7A097B501009385A5EE22854C
:10132000EF60B1482244B24041016F50602BAA8760
:101330000387D7032E8509C79306F003631CD700E4
:101340001736FF1F0346C6A797B501009385450BC7
:101350006F60514141111385D70306C622C42E8404
:10136000EF50716C9737FF1F238CA7A4EF504027D5
:1013700022852244B2401736FF1F034666A497B564
:1013800001009385250A4101E1B7411122C41305EB
:1013900050042E84814506C6EF30D008EF50401926
:1013A0002A8622852244B24097B501009385050A1A
:1013B00041016F60313B411122C41305D5032E84D6
:1013C00097B501009385C5FE06C6EF90205E11CD4E
:1013D0000145EF50602B97B50100938525FE2285CE
:1013E0002244B24041016F60513C0545EF50C02995
:1013F00097B50100938545FEDDB7411122C42A84CB
:101400008307D40306C626C22E8589C71307F003B7
:10141000639CE7029737FF1F9387F7A31737FF1FD8
:10142000130757A09736FF1F83D6C6B01736FF1F86
:101430001306369C97B50100938505202244B240DF
:10144000924441016F601132AE841735FF1F1305BE
:10145000559A9305D403EF6051351735FF1F1305D7
:101460005599EF60B13593150501C1811735FF1FFF
:1014700013053598EF90B00A8307940789CB1305BD
:101480009407EF50D1599737FF1F2395A7AA8307D9
:10149000540B85CB9305540B1735FF1F13059598F7
:1014A000EF60B1301735FF1F1305D597EF6011318D
:1014B00093150501C1811735FF1F1305B596EF90F0
:1014C00010068307140F85CB9305140F1735FF1FE4
:1014D00013057598EF60712D1735FF1F1305B5972C
:1014E000EF60D12D93150501C1811735FF1F13053D
:1014F0009596EF90D002EF50A00E9737FF1F93877D
:1015000097951737FF1F1307F7919736FF1F83D65D
:1015100066A21736FF1F1306D68D97B50100938577
:10152000E512268521BFAA870387D7032E8509C721
:101530009306F003631CD7001736FF1F0356669E01
:1015400097B501009385C5226F60D12141111385A4
:10155000D70306C622C42E84EF50714C1316050122
:101560009737FF1F239FA79A418297B50100938564
:1015700065212285EF60111F9727FF1F83C7577AC8
:1015800009476388E700ED1793F7F70F0547636A8C
:10159000F7009737FF1F83D7C79889EB0945EF906E
:1015A000705D2244B24041016F508003EF90904A39
:1015B00075D51737FF1F0357C7969307B003E3EF9F
:1015C000E7FC0945EF903058E9BFAA870387D703A6
:1015D0002E8509C79306F0036313D7069737FF1FBD
:1015E00083C7D79605476389E70289CF0947638E8A
:1015F000E7020D476380E70497B501009385451026
:101600006F60B11A17B601001306460697B50100C0
:10161000938545076F60111517B60100130646073D
:1016200097B501009385C507F5B717B601001306F6
:10163000A609FDB717B601001306460AD5B7411132
:101640001385D70322C426C206C62E84EF50313D2F
:101650001375F50F9737FF1FA38AA78E8544630282
:1016600095041DC18947630AF5048D47630CF50491
:1016700097B501009385C50C2285EF60111397374C
:10168000FF1FA385978C01A897B501009385C50717
:101690002285EF6091112244B240924441016F4093
:1016A000307417B601001306A6FE97B501009385A6
:1016B000E5062285EF60110BF9BF17B6010013068E
:1016C000A600E5B717B6010013064601F9BF0111E0
:1016D00006CE2EC6EF90703585471737FF1FA30D36
:1016E000F786EF40F06F3245F24097B501009385E1
:1016F000A5BB05616F60710B011106CE2EC6EF9080
:1017000030349737FF1FA3890784EF40706D32454F
:10171000F24097B501009385E5BE05616F60F10861
:10172000011122CC4AC806CE26CA4EC68307D5036D
:101730002E891724FF1F1304A45E89C71307F00323
:101740006395E70203250422EF505104AE862A86F2
:1017500097B50100938585B16244F240D244B24905
:101760004A85424905616F60E17FAA841305D5036C
:10177000EF50912AEF50510CAA8913859407EF502E
:10178000112A1375F50F1DE53145EF60A044AA85B8
:101790004E85EF5041152320A422EF4070640325AD
:1017A0000422EF50A17EAE862A8697B5010093856C
:1017B00025AD5DB723203423CDB7AA870387D70390
:1017C0002E8509C79306F0036315D7029727FF1FDD
:1017D00083C7A77817B60100130686AD89E717B649
:1017E00001001306E6AD97B50100938525AE6F6045
:1017F000617741111385D70322C406C62E84EF50AA
:1018000011221375F50F9727FF1F2388A77417B6AA
:1018100001001306E6A909E517B60100130646AA5A
:10182000228597B501009385E5ABEF60A173224453
:10183000B24041016F40D05A130101BA23225145F1
:10184000B28A2E86AA856818232E1144232C81443F
:10185000232A91442328214523263145232061450D
:1018600023244145368B232E7143232C8143232A85
:1018700091432328A1432326B143EF90C039130598
:10188000D103EF60A17393150501C1811305D10345
:1018900097B401009384C4FEEF906044014426890C
:1018A00093098002C8409305D103EF9020080DC929
:1018B0000E044A94831704001397070123000122A2
:1018C00041839306700263F4E6006F10A02B17A704
:1018D00001001307E7648A07BA979C43BA97828787
:1018E0000504A104E31034FDFD57F9B71727FF1FC6
:1018F00003479759A1476312F70C19464C0817255F
:10190000FF1F1305E52AEF90801F08142300010232
:101910000014EF60A16A9727FF1F83D7C7611727BD
:10192000FF1F1307B7599726FF1F938626275008D6
:1019300097B501009385050D2295EF60A16208140B
:10194000EF60C1671C141726FF1F1306F63D3E9576
:1019500097B501009385C50DEF60C1600814EF6075
:10196000E1651C143E959727FF1F9387673B83868D
:10197000172017B60100130626E663D6060017C621
:1019800001001306E60A97B501009385E50AEF60AA
:10199000615D1724FF1F0344B4389307F4FF93F7E6
:1019A000F70F15476363F71017A701001307476187
:1019B0008A07BA979C43BA9782870814EF60016040
:1019C0001C141727FF1F035747579726FF1F93869F
:1019D000363F1726FF1F1306661C97B50100938537
:1019E00025043E95EF60015899BF0814EF60015D32
:1019F0001C143E95854797B501009385A5046306A1
:101A0000F40097B5010093856504C164EF60E15966
:101A10001724FF1F1304C430172AFF1F130AEA30CC
:101A2000FD149309C00397BB0100938BAB020359CC
:101A30004420630E99000814EF604158B3763903CF
:101A40001C14DE853E9533563903EF60A15109041D
:101A5000E31F8AFC0814EF6061561726FF1F034638
:101A6000562C97B501009385A5FF1C143E95BDA883
:101A70001726FF1F0356E64A9726FF1F83D6264BDD
:101A8000081432C636C4EF60615332461C143E95CA
:101A9000A24621C297B50100938585FDA1CA97B5DD
:101AA00001009385A5FDEF60E14B0814EF60015143
:101AB0001C149726FF1F83D666131726FF1F035695
:101AC000061397B501009385E5043E95EF608149C3
:101AD000D1A481EA97B50100938545FBEF60E14C05
