:040000006F2000135A
:100004000000000000000000900000208E09002085
:10001400A9BDF9F5940000200000000000000000D4
:10002400960000209800002000000000000000005E
:100034009A000020000000009C0000200000000046
:100044009E00002026030020AA030020A400002014
:10005400A6000020A8000020AA000020AC00002078
:10006400AE000020B0000020C60000205E01002089
:100074000A0A0020B8000020BA000020BC000020BA
:10008400BE000020F60100208E020020C4000020E3
:1000940001A001A001A001A001A001A001A001A054
:1000A40001A001A001A001A001A001A001A001A044
:1000B40001A001A001A001A001A001A001A001A034
:1000C40001A001A001A037370040834747009946AB
:1000D4004111BD8B638ED70231476386E706114712
:1000E4006390E704A3030100174600000346062FAC
:1000F40037370040834771006317F6022C00173529
:1001040000001305E52697B000E0E78080CA09A83F
:100114008347570093F7F70F2304F10083478100C7
:1001240041017300203083477100834687000C0827
:10013400AE97238CD7FE83477100850793F7F70F9B
:10014400A303F10045BF2800972001E0E78020D4F5
:100154001375F50FA303A1000346710045B73737A4
:1001640000408347474099464111BD8B638ED702B7
:1001740031476386E70611476390E704A303010050
:10018400174600000346A625373700408347710011
:100194006317F6022C00173500001305A51E97B04F
:1001A40000E0E78000C109A88347574093F7F70FA1
:1001B4002304F10083478100410173002030834709
:1001C4007100834687400C08AE97238CD7FE834783
:1001D4007100850793F7F70FA303F10045BF2800CB
:1001E400972001E0E78060DC1375F50FA303A100FD
:1001F4000346710045B73747004083474780994617
:100204004111BD8B638ED70231476386E7061147E0
:100214006390E704A3030100174600000346161C7D
:1002240037470040834771006317F6022C001735E7
:1002340000001305651697B000E0E78080B709A8B1
:100244008347578093F7F70F2304F1008347810016
:1002540041017300203083477100834687800C0876
:10026400AE97238CD7FE83477100850793F7F70F6A
:10027400A303F10045BF2800972001E0E780A0E434
:100284001375F50FA303A1000346710045B7374763
:100294000040834747C099464111BD8B638ED70206
:1002A40031476386E70611476390E704A30301001F
:1002B40017460000034666733747004083477100C2
:1002C4006317F6022C00173500001305250E97B0AE
:1002D40000E0E78000AE09A8834757C093F7F70F03
:1002E4002304F100834781004101730020308347D8
:1002F4007100834687C00C08AE97238CD7FE8347D2
:100304007100850793F7F70FA303F10045BF280099
:10031400972001E0E780E0EC1375F50FA303A1003B
:100324000346710045B7411126C4B714004022C6E4
:1003340003D4C409420441809317240163DB0700FA
:10034400A1450145970001E0E78080C38967239EAA
:10035400F4081374042015CC9747000083C7177F53
:1003640093E7170017470000A302F77EB717004072
:1003740003A7470A1377072015C303A7C70A136700
:10038400072023A6E70AB717004013070020239E7F
:10039400E7083244A24441017300203003A7870ACE
:1003A4001367072023A4E70AF9BFB717004003D750
:1003B400E70903D7E7099316370163D406041747FF
:1003C40000000347677A050797460000238EE67806
:1003D400174700000357477213670740974600000A
:1003E400239CE6700567239FE70803A7470C8566EF
:1003F400131637016359060003A7C70C558F23A6AC
:10040400E70C7300203003A7870C558F23A4E70C57
:10041400CDBF411122C406C69747000083C7679029
:10042400174400001304446D95CB83475405858B12
:1004340095C78357040013974701634107028D450D
:100444000945970001E0E780A0B3914517450000F6
:100454000345E56C975001E0E780A03B9747000017
:1004640083D7876913F7074005CF13974701634183
:1004740007028D450945970001E0E78060B091458A
:10048400174500000345A569975001E0E7806038EF
:100494008357040093F7F7BF17470000231EF76440
:1004A400B240224441018280411181460146814586
:1004B400114506C6EF00A077B727004011472383F4
:1004C400E780B7F700E003A707D16D9B23A8E7D027
:1004D40003A707D15D9B23A8E7D073005010010048
:1004E4000100B240410182804111814681450146AB
:1004F400114506C62D2FB727004011472383E780F7
:10050400B717004003C7E70283C5E70483D787030F
:1005140091661377F70F93E5350063E5D700719B78
:1005240013671700B7170040130670052380C7042C
:10053400930680FA2380D704010001002382070276
:100544002380C7042380D704010001002387E70226
:100554002387B7042380C7042380D7040100010044
:1005640003C7B70413670702A385E70423800704BE
:1005740037F700E0832507D193E545002328B7D05A
:10058400832507D1DD992328B7D0730050100100CB
:1005940001002380C7042380D7040100010003C79E
:1005A400B7041377F70DA385E70423800704B2404B
:1005B400410182800111B7F5070022CC8146E10593
:1005C4002A840A86194506CE26CA02C023120100CF
:1005D400B92DB717004003C7E70283C5E70483D7E3
:1005E400870391661377F70F93E5350063E5D7002A
:1005F400719B13671700B71700401306700523801B
:10060400C704930680FA2380D704010001002382E3
:1006140007022380C7042380D70401000100238735
:10062400E7022387B70423800704B7F500E003A794
:1006340005D11367470023A8E5D003D507026577E2
:10064400110713750560418D598D420541810100E3
:100654002380C7042380D7040100010003C7F700E7
:1006640037F40700B7F400E013670704A387E70033
:1006740003C7B704610413670702A385E704239043
:10068400A70283A704D1DD9B23A8F4D073005010E4
:100694000100010013056004352E81463000A28557
:1006A400194502C423160100592322478247E31A3D
:1006B400F7FCB7170040130770052380E7041307FE
:1006C40080FA2380E7040100010003C7B70413770D
:1006D400F70DA385E70423800704F2406244D24463
:1006E4000561828001114EC681460146AA89814571
:1006F400114506CE22CC26CA4AC8152BB71600408F
:1007040083C7E60203C7E60483D68603116693F71C
:10071400F70F1367370063E5C600F19B93E71700F3
:10072400371400401309700523002405930480FA4C
:100734002300940401000100230204022300240581
:1007440023009404010001002307F4022307E404B6
:1007540023000404130550025920B7F700E003A74F
:1007640007D11367470023A8E7D0230024052300FB
:100774009404010001000347F40013670704A3076E
:10078400E4002300240523009404010001002567EC
:10079400B3E9E9002310340303A707D15D9B23A821
:1007A400E7D07300501001000100814601468145E5
:1007B4001145B529230024052300940401000100F8
:1007C4008347640493E717002303F4042300040419
:1007D400F2406244D2444249B24905618280B7176B
:1007E4000040930670052380D704130780FA238002
:1007F400E7040100010003C6B7041376F60DA385D0
:10080400C70423800704137605024DC203C6A7005C
:10081400118A1DE22380D7042380E704010001002C
:1008240003C7A700136747002385E7009307004B1E
:1008340001000100FD17EDFFB71700409306700596
:100844002380D704130780FA2380E7040100010002
:100854007D892394A7000100010001000100238089
:1008640007042380D7042380E7040100010001006A
:1008740001003727004093061005A303D780238087
:100884000704B7170040130770052380E704130714
:1008940080FA2380E7040100010003C7B70413674B
:1008A4000708A385E70423800704828013760504E0
:1008B40041C603C6A700418A1DE22380D7042380D2
:1008C400E7040100010003C7A7001367070123859C
:1008D400E7009307007D01000100FD17EDFFB71746
:1008E4000040930670052380D704130780FA238001
:1008F400E704010001001376F5011366060423944E
:10090400C7000100010001000100238007042380C7
:10091400D704130660042380E7046318C5000100AC
:10092400010037270040894689BF010001003727AD
:1009340000409306200591B72380D7042380E70461
:100944000100010003D787001367070C2394E70015
:100954000DBF4111814601468145114506C6C12C92
:10096400B7170040130770052380E704130780FAC4
:100974002380E7040100010003C76704136717001D
:100984002383E70423800704B24041018280814627
:10099400014681451145612CB71700409306700547
:1009A4002380D704130780FA2380E70401000100A1
:1009B4007D562396C7022380D7042380E7040100D1
:1009C400010003C76704136717002383E704238028
:1009D400070401A0BD473305F50201007D1575FD2F
:1009E4008280411122C426C206C6AA840144631728
:1009F4009400B240224492444101828005041305CC
:100A0400803E4204C13F4180DDB7B7170040130761
:100A140000032388E7028547174700002322F718BD
:100A240073002030397122DC4ED656D23714004080
:100A3400E57AB7F9070026DA52D45AD05ECE06DE3C
:100A44004AD862CC2A8B916B93040404130A700570
:100A5400910AE1098347E4020347E40483568403CB
:100A640093F7F70F1367370063E57601F19B93E77C
:100A7400170023804401130980FA23802401010014
:100A84000100230204022380440123802401010085
:100A940001002307F4022307E4042380040037F74A
:100AA40000E0832707D193E747002328F7D0835733
:100AB400040293F70760B3E76701B3E75701C2077E
:100AC400C18301002380440123802401010001002B
:100AD4008346F400130CB40493E60604A307D4007D
:100AE4008346B40493E60602A305D4042310F40257
:100AF400832707D1DD9B2328F7D073005010010012
:100B0400010013056004F9353000CE85814619458E
:100B140002C423160100212A11469745000093853B
:100B2400A508280011231DD5930770052380F40020
:100B3400238024010100010083470C0093F7F70D83
:100B44002300FC0023800400F2506254D254425922
:100B5400B259225A925A025BF24B624C2161828052
:100B6400411106C6AD2D753097B000E0E780805A7C
:100B7400D5BF2303048015472303E4800100230227
:100B8400A480828083076480E3CE07FE230304806D
:100B9400828083076480E3CE07FE0345448082801D
:100BA40083076480E3CE07FE2302A4808280411180
:100BB40026C44AC24EC006C61377F50BAD47AA89B0
:100BC4002E8995446306F70019456537653F8D44C2
:100BD4004E854537FD59FD1463983401B240A24453
:100BE4001249824941018280135509011375F50F99
:100BF400453F2209CDB7011126CC06CEB704080023
:100C040051371545BD37713769372AC6A53F324577
:100C14009377150089EB136515001375F50FF240F2
:100C2400E24405618280FD14E9FC0145CDBF3971C0
:100C340026DC4ADA4ED852D656D45AD25ED006DED4
:100C440062CE66CCB7E700E07D5783AA070022C6D0
:100C540003AA470023A0E71823A2E718B717004008
:100C6400130770052380E704130780FA2380E70441
:100C740083C74704930B75FFB684E20793FBFB0F0E
:100C84008546AA892E8B328937240040E187015793
:100C940063FA76016308D5008946130700026313DB
:100CA400D5000157D98F93F7F70FB71C0040238263
:100CB400FC0411472303E4801305F00F5D3D094C48
:100CC400D135636D7C11B7050700DA9537870700C6
:100CD400795563F2E504B3879500636EF702370B29
:100CE4000800A94733EB65016399F90689E4814457
:100CF400513D26850DA0DA850945553D0509034575
:100D0400F9FFFD14050B693D81C49377FB0FFDF7D3
:100D1400DD3569FD7D55B717004013077005238045
:100D2400E704130780FA2380E70403C74704418BD1
:100D34002382E704F250B7E700E023A0571123A26F
:100D44004711E25432445259C259325AA25A125BE0
:100D5400825B724CE24C21618280A5476395F9065F
:100D640085691309F00FB3069900B3742B01B69487
:100D74001349F9FFB3749900856B33796901416BA9
:100D84009387F9FFB3F7270199E363FC340193D9FF
:100D94004900C147E3E637FF99BF0569C1697D1979
:100DA400D9B71305800D63886901130500026384B4
:100DB400790113051008CA85DD3B353D21DD4E99C7
:100DC400B3843441D9B7DA852D45D533CA94E300C9
:100DD40099F205097D3BA30FA9FED5BF9387F9FFBF
:100DE40093F7F70F6361FC0C83C71C0413073008E7
:100DF400631FF70437070800636BEB04B3079B001A
:100E0400B706100063F5D704334BEB0089476393AF
:100E1400F9068980D549E38C04ECDA850945413B20
:100E240011090327C9FF91472320E4800307648045
:100E3400E34E07FE23033481FD17EDFBFD14110B74
:100E440081C49377FB0FE9FF7D3371F5E1B5B717E3
:100E5400004003C75704B70708001377070219E3D4
:100E6400B78707007955E378FBEA33079B00E3FF74
:100E7400E7F855B58547E382F9F2DA852D45053B58
:100E84009389F4FFE38504E6293393F7390091EB62
:100E9400832604800327090093074900E39AE6E4C4
:100EA4003E89CE84F1BFB5476396F9001305900BD4
:100EB400C93135BDB1471305B00AE38BF9FE994733
:100EC4006391F904B7050800B365BB002D45C5312E
:100ED40081448D4BA149753963967401832704803D
:100EE4002320F9008504E39834FF83270480131733
:100EF4002B01635507002312F900D5BB2322F90007
:100F0400FDB39D476399F90281451305B00445314A
:100F1400BD442320090023220900FD599D3993F77C
:100F24007400CA9703C70700FD14398D2380A700F6
:100F3400E39634FF6DBBA1476392F9046D39814494
:100F4400630D0B008D479304C0036308FB009304F7
:100F5400000563048B01930440041375C507E3087B
:100F640095D81945393139390545213126850D3949
:100F740009453D314931E31C05D669BB9147639965
:100F8400F90013056006F536F53E130590090DB713
:100F9400E38F09D4F154A9BB19CD91CD09CE814772
:100FA4003387F500834607003307F50085072300E0
:100FB400D700E317F6FE828019C991C909CA9105C1
:100FC40083A7C5FF11057D16232EF5FEC5BF8280BC
:100FD40001C919C62A960505A30FB5FEE31DA6FE91
:100FE400828081473307F5000307070019E33E8534
:100FF40082808507C5BF01112E8626CAAA841315CF
:1010040006019305F004418122CC06CE32C6EF00DE
:1010140010762A8401C53246A685BD3F2285F2405A
:101024006244D24405618280854715C18DC105C2E1
:101034008147B306F5003387F50083C606000347EE
:1010440007006398E6008507E315F6FE85473E85AD
:1010540082808147EDBF9307F6FFBE952A966313FE
:10106400C5008280FD1583C715000505A30FF5FE95
:10107400FDB7AA87014581CF09CE3E96850703C7F0
:10108400F7FF6317B700E39BC7FE054582808280A4
:10109400014582807971975700009387273922D4BC
:1010A400804306D626D24AD04ECE52CC56CA5AC80F
:1010B4005EC662C45DCC37C9C901814B175A0000B2
:1010C400130A4A3B97540000938484361309F93772
:1010D400975A0000938A4A30B709C0A8370B405783
:1010E4008357240095E35C44639D0B00175700006D
:1010F400232EF732032CC4002285EF00707462841F
:1011040099A823A6FB00FDB783270A00829783864C
:1011140064011C4463DB06063307F5406367E90892
:101124009757000023A2072C83552400034504008D
:10113400974001E0E780E06D5C405844A9CF144437
:10114400B6978386640163C5060063E33701DA97C3
:101154001CC4A28B3A8449F4975700009387C7278D
:101164009C4B09476378F706F91717570000232D9E
:10117400F726B250225492540259F249624AD24A92
:10118400424BB24B224C45618280E377F5F83387BA
:10119400F9402A9761B763970B009757000023A77C
:1011A400E72889BF23A6EB00B1B7D85009CF63DF86
:1011B40006003385A74083A70A016376F500975795
:1011C400000023A3A722A28B404471B7E3F3A7FE38
:1011D400CE97C5B79757000023A8072059BF4111E0
:1011E40022C417540000130424221C4006C626C23D
:1011F4004AC091C782979757000023A707205C40F5
:1012040091C382971C406390071C9757000083C7C3
:10121400773A858B95C797570000A38D07381757E2
:10122400000003475739954763FCE700352B975770
:10123400000083C75738F5178A07A2979C43829703
:10124400175900001309C93A8347C900918B99C300
:10125400EF0050451C4491C3829797540000938437
:10126400A41C984017560000034616179757000011
:1012740083C7871693961700BA9683D60600D5CAF5
:101284009757000083C7471563EFC70A97570000B5
:10129400238407141C40639807129757000083C7E0
:1012A400B73191CF9757000083C7F73089EB975731
:1012B4000000A3830730976001E0E780A0CC975734
:1012C40000009387271B9C43638F070EB707C0A8B2
:1012D40017570000232AF710753B97570000938790
:1012E4002715DC53EDC3175700001307E70E184BFF
:1012F4009757000083C717156367F70C175700004B
:101304000347772B954763E0E70C8347C900918B2C
:10131400DDEB90409756000083C6160C63CBD70ACA
:101324002244B240924402494101174301E067005C
:10133400233B850793F7F70F97560000238EF60893
:10134400E3E6C7F235BF86073E97835507002310AF
:101354000700975700002397070C975700009387BF
:10136400670A9C431755000003450507131725001A
:10137400BA979C4382979757000083D7A70A1757B9
:1013840000000347670593C7F7FF7D8D9317170088
:1013940098403E97835707005D8D2310A700975709
:1013A400000083C7670391C785071757000023050B
:1013B400F70217570000034727029757000083C717
:1013C400B701E375F7ECB24022449244024941016B
:1013D4008280139717003297035707006DF785072C
:1013E40035BFAD6737C70040BD072326F7200F1070
:1013F400000097570000938727FEC84F832787264E
:10140400BD66BD0693C7F7FF99836A052326D720D7
:101414005D8D82804111B7170040985F3AC6945F92
:101424003247E39CE6FE324541018280828001110D
:1014340022CC175400001304641918402AC62EC481
:1014440032C206CE3C4B93F7F7F73CCB976001E0F2
:10145400E78000B0184097560000938666143C4B12
:1014640093E707083CCB9C423245A24523A00700E2
:101474000347150003482500220742084297034802
:1014840005004297034835006208429798D70347FE
:101494005500034865002207420842970348450067
:1014A40042970348750062084297D8D703479500CE
:1014B4000348A50022074208429703488500429743
:1014C4000348B5006208429798DB0347D5000348F8
:1014D400E5002207420842970348C5000345F5008A
:1014E400429762052A97D8DB03C7150003C5250078
:1014F400220742052A9703C505002A9703C535002C
:1015040062052A9798CF03C7550003C565002207D3
:1015140042052A9703C545002A9703C5750062054D
:101524002A97D8CF03C7950003C5A5002207420513
:101534002A9703C585002A9703C5B50062052A9733
:1015440098D303C7D50003C5E500220742052A97AF
:1015540003C5C50083C5F5002A97E2052E97D8D3A5
:10156400D843759BD8C3D84313671700D8C398438F
:101574001367170098C3124698425C43858BD1E7E2
:101584001C4F01452300F6009C429C4FA183A300FD
:10159400F6009C429C4FC1832301F6009C429C4F61
:1015A400E183A301F6009C42D84F2302E600D84F02
:1015B4002183A302E600D84F41832303E600D84FDA
:1015C4006183A303E60098532304E6009853218320
:1015D400A304E600985341832305E60098536183EE
:1015E400A305E600D8532306E600D8532183A306B7
:1015F400E600D85341832307E600DC53E183A307C5
:10160400F600F2406244056182800100B5B71757C5
:101614000000130727F91443411122C49C5E4AC0F9
:1016240006C6998326C2858B3A841759000013098C
:1016340029F7D1CB9C5E97540000938464F793F709
:10164400F7F99CDE175700000347E7F693070008F5
:10165400631BF700832709009C4393F7070417577C
:101664000000230AF7F483C7040093F707049DC31B
:1016740097570000938707E09C4382979757000091
:1016840023A0A7F483C7040093F7F70B17570000B0
:101694002300F7F283C7440093F707048DE78547D7
:1016A40017570000A308F7F097570000938707F235
:1016B4009C43096798C7130700FC97560000238BC7
:1016C400E6EED844F8D31C40985F1183058B09CB10
:1016D400985F3D9B98DF054797560000238CE6EC06
:1016E400985F1D83058B11CB985F1377F7F798DF0D
:1016F400854717570000230FF7EA83270900D843CB
:101704000583058B19C7D843759BD8C3D843799BE8
:10171400D8C3B240224492440249410182803971C3
:1017240006DE16DC1ADA1ED82AD62ED432D236D0E9
:101734003ACE3ECC42CA46C872C676C47AC27EC08D
:10174400F935F250E2525253C2533255A255125651
:1017540082567247E2475248C248324EA24E124F56
:10176400824F21617300203097570000938707E66A
:101774009443975700009387A7E303C70700058B9B
:1017840011CB97570000238707E297570000A383E4
:1017940007E2828003C71700058B65F7F85271FFD3
:1017A40083C75700DDB7175800001308A8DF0327C5
:1017B40008001C5F9583858BD1E709C61C5BBD833C
:1017C4002300F60085CA83270800985B46079357D1
:1017D40067016356070093E707C0C207C1830397F5
:1017E4000600C207C18709C7BA970947B3C7E7020A
:1017F4002390F60085CD834715008DCB97560000C6
:1018040083C666DB93F606041387970089478DCA5F
:101814003A9503470500854699471376F706631101
:10182400D60262076187B947634C07008327080023
:101834009C5FED838D8B17570000A300F7D8814779
:101844003E8582808547EDBF411122C406C61754E8
:1018540000001304A4D7184049E9AE877453FDFE71
:101864003E85B28597570000238507D4975001E041
:10187400E7806049975700009387C7D29C43B70617
:1018840080009843558F98C3D857719BD8D79757E2
:101894000000A38107D297570000A38B07D01C40F8
:1018A400094798C3B7F700E003A707D16D9B23A8A6
:1018B400E7D003A707D15D9B23A8E7D0730050109E
:1018C4001440175700001307A7CE83472700858BC2
:1018D40089EB83473700858BD9C797570000238B43
:1018E40007CCB2402244410182808D476310F50247
:1018F40097570000938707CB9C43B7068000984313
:10190400558F98C3D857719BD8D75DBF8547E319C6
:10191400F5FAB567BD075CC70F1000001C400967E6
:10192400094698C7130700F8975600002384E6C8B1
:1019340017570000130707C71443984231830D8BD0
:101944006319C7001307E043F8D33D673D07D8C7C1
:1019540085BF984231830D8B01E713076019EDB7FA
:101964001307E01BD5B7FC52ADF3A5BF5D7152DC84
:10197400175A0000130A0AC303270A0086C6A2C422
:10198400A6C2CAC04EDE1C43975900009389C9C839
:1019940017590000130989C393F7F7E793E707087A
:1019A4001CC383A609003707CEFF7D179C46130688
:1019B40080022A84F98F9CC6832709001307000834
:1019C4002800B8CBAE8493051008EFF06FE0975071
:1019D40001E0E780E057975001E0E780E064832767
:1019E4000A009376F41F370FFCFF23A40700984BDB
:1019F4004E88CA881367F70398CBF84F130510F87D
:101A0400D285137707E0558FF8CF9843F576FD1606
:101A1400758F98C39843B7063300B7020400137751
:101A2400F7E798C398439303401F7D1F1377F7E7A5
:101A34001367071098C303A70900930F8002854911
:101A44001C47D58F1CC7832709001307900D34004A
:101A5400B8CB11490147135337002693834703003A
:101A640013767700B3D7C740858BDDCF9C41832E97
:101A74000800239C07042390070603AECE02137EBE
:101A8400DEFF23A6CE0383AE0700137EF70793FE83
:101A94000EF833EECE0123A0C70103AE4702336E26
:101AA4005E0023A2C70383AE0800014E23A27E0674
:101AB40003DA070663074E0303AE0703038A06002F
:101AC400135EFE00620E135E8E416358CA0103AEBC
:101AD4000703135EFE002380C60103DE0706137EA0
:101AE400FE0F03AA4E0663060A0003DA8705E37FA6
:101AF40049FB03AE4702337EEE0123A2C70383876B
:101B04000600635CF400034E03003396C9001346D9
:101B1400F6FF3376C6012300C3003E8663D3A700D5
:101B24002A8613158601618505071377F70F850645
:101B3400E313F7F3B640264496440649F259625A31
:101B44006161828097560000938646A89C42D847DC
:101B540013161701635506029847131617016350AD
:101B640006027D57B8D7175700001307E786584F6A
:101B7400050717560000232FE686116798C7984774
:101B84000D83058B1DC317570000034787A21367F6
:101B9400170017560000230EE6A0130700F8175687
:101BA40000002309E6A0214798C79847058B09CF71
:101BB400175700000347D79F1367170017560000F5
:101BC400A308E69E054798C798470983058B09E74C
:101BD40098470583058B31CF9847175600001306A5
:101BE400269D175500001305E59B0983058B6303A8
:101BF40007101841184331830D8B75EBAC4B184E0D
:101C040093F5050203471700CDCD79EF130770064E
:101C1400D8CF03470600136717001756000023099F
:101C2400E698114798C718415C57F19B93E7170052
:101C34005CD79C4298479316370163D606029756A1
:101C4400000083C6E6A5C18A175700001307079E44
:101C5400C5CE034747071367070297560000238141
:101C6400E6A4056798C798479316270163D106022F
:101C740017570000034707946207618763570700FB
:101C84000547975600002387E692096798C7984747
:101C94009316070163D606029756000083C656A022
:101CA400858A1757000013076798ADCE0347570777
:101CB4001367270097560000A384E69E216798C700
:101CC400828029D785456315B7001307B00689B705
:101CD40089456315B7001307F0061DBF8D456315CD
:101CE400B700130730072DB71307500715B71307AD
:101CF400600739BF03473600136717001756000003
:101D0400A309E68A094739BF834647070946BD8ABE
:101D14006388C600034747078D463D8BE313D7F41A
:101D2400114725BF83465707918AC9DA03475707E6
:101D34001367870041B7397106DE16DC1ADA1ED83C
:101D44002AD62ED432D236D03ACE3ECC42CA46C857
:101D540072C676C47AC27EC0F533F250E252525350
:101D6400C2533255A255125682567247E247524820
:101D7400C248324EA24E124F824F2161730020306E
:101D8400175700001307C7848346B701975700000D
:101D940083C7D7864C4BB697FD8B33D7F500975640
:101DA4000000A387F68297560000A389F684058B6A
:101DB40015EF175700000347B784B3F7E7028146CE
:101DC40001471305000233D6E500058A1378F70F9F
:101DD40019CA6397D70097470000A38B077F8280B7
:101DE400850693F6F60F0507E31FA7FC8280974745
:101DF4000000938727689C43011122CC4EC606CE6F
:101E040026CA4AC852C456C282979747000093878D
:101E1400277E804781496305A406BE849747000056
:101E240093870761038767013E8963550706018D20
:101E3400135455009747000083C7277B9379F50116
:101E4400636DF402370AC0A8B70A4057153F9C4493
:101E54009746000083C66679139756003E9783071A
:101E64006901158C63C5070063634701569797475B
:101E7400000023A3E778E37BD4FC1604B3693401A0
:101E8400F24062444E85D2444249B249224A924ABF
:101E940005618280E37D85F8B707C0A83384874055
:101EA400229579B7974700009387C75C9C434111FB
:101EB40022C406C626C282979747000093874773B9
:101EC40080476309A406BE8497470000938747565A
:101ED4008387670163D80704018D1354550097471E
:101EE400000083C787706367F404593D984497479B
:101EF400000083C7876F9396570036971D8C9746CB
:101F0400000023ABE66EE372F4FE2244B240924436
:101F1400174500000345D56B81454101175301E086
:101F24006700032CE37A85FAB707C0A83384874097
:101F3400229565B7B240224492444101828097477A
:101F440000009387676D9843B75702009387079FF4
:101F5400832607091396560063580600832607094B
:101F64001396660063440600FD17FDF3828071C575
:101F7400AA870145E9C58D07C207C183F19BC20742
:101F8400C18313074003636FF70217470000130769
:101F9400A769084317470000130787681443639829
:101FA400A602174700001307A748185B014541CB59
:101FB4004111C20706C60545DD8D0297B2400145B1
:101FC40041018280174700001307C765D9B703573B
:101FD400650035E303574500636FF704B306F74024
:101FE4002146637CD60203280500938687001D8F53
:101FF400AA966117174600000356663E2392E60030
:1020040023A006012393060014C12312F50013072D
:1020140086FF974600002394E63C2313B5009745BA
:10202400000083D5C53BB387F5401747000023184C
:10203400F73A2105828008419DB70145828082805C
:102044000DC1974700009387275E03A307009747B6
:1020540000009387E75C83A8070081469A8763E3BF
:102064001701828003A80700636DF50A636BA80A51
:1020740013878700E367E5FE03D66700216705073A
:102084006317E60003C7F18B0507A38FE18A974521
:1020940000009385653403D6470003D76500239376
:1020A4000700329742074183174500002319E532A0
:1020B400638A6702174500001305C5560841630388
:1020C400F50203D5660019ED83D7460023A0060167
:1020D40021073E9621062392C600974700002390CD
:1020E400E730B6879843E30E17F7974600009386C8
:1020F40066539442E307D7F683566700BDF283D64E
:102104004700035647001843A106B2962392D7000E
:1021140098C383D76500A107174700002311F72C44
:082124008280BE86C28725BF40
:1021300097110020938101A217610020130181EC07
:102140001305400097E5FF1F9385C5EB1706002098
:102150001306C6FD63FAC5008322050023A05500BF
:1021600011059105E3EAC5FE17250200130545F0A8
:1021700097050020938585FB1386018263FAC500CD
:102180008322050023A0550011059105E3EAC5FE51
:1021900013850182974500209385055B6377B50021
:1021A000232005001105E36DB5FEFD42739002BCCE
:1021B0008D4273904280B72200009382828873A080
:1021C000023097E2FF1F9382E2E393E232007390C2
:1021D000523097020100938242467390123473008A
:1021E00020303D432A876373C3029377F700BDEF26
:1021F000ADE5937606FF3D8ABA960CC34CC30CC777
:102200004CC74107E36BD7FE11E28280B306C3409F
:102210008A069702000096966780A6002307B700FB
:10222000A306B7002306B700A305B7002305B70030
:10223000A304B7002304B700A303B7002303B70028
:10224000A302B7002302B700A301B7002301B70020
:10225000A300B7002300B700828093F5F50F939693
:102260008500D58D93960501D58D61B7939627008E
:102270009702000096968682E78086FA9680C117BC
:102280001D8F3E96E374C3F8A5B73367B500FD53C1
:102290000D8B79E7B7877F7F9387F7F710419441DC
:1022A000B372F6003363F600BE92B3E26200639746
:1022B000720C6318D6065041D441B372F6003363F2
:1022C000F600BE92B3E262006398720A631BD60402
:1022D00010459445B372F6003363F600BE92B3E244
:1022E00062006391720A631ED6025045D445B372F0
:1022F000F6003363F600BE92B3E26200639A72089E
:102300006311D60210499449B372F6003363F600A4
:10231000BE92B3E26200639372085105D105E30FE8
:10232000D6F61317060193970601631CF70013579F
:10233000060193D706013305F7409375F50F91E930
:1023400082804183C1833305F7409375F50F91E196
:1023500082801377F70F93F7F70F3305F7408280EA
:102360000346050083C60500050585056313D600F1
:1023700065FA3305D640828011059105E312D6FE39
:10238000014582802105A105E31CD6FC0145828020
:102390003105B105E316D6FC014582804105C10532
:1023A000E310D6FC01458280014711464148B386BF
:1023B000E5008147B308F50083C808008507C1061A
:1023C00023A816FFE398C7FE11071105E31107FFC5
:1023D0008280935785019CC19357054193F7F70F6E
:1023E000DCC19357854093F7F70F1375F50F9CC524
:1023F000C8C582801C414111130705013EC05C41E4
:102400003EC21C453EC45C453EC693972500140859
:10241000B69783A707FF85051105232EF5FE8D8945
:10242000E315E5FE41018280397122DC41661384A7
:10243000018D06DE26DA4AD84ED652D456D25AD06C
:102440005ECE93050501A2863708FF007D1683073F
:102450000500034735001105E207D98F0307D5FFB3
:102460009106420733770701D98F0307E5FF22075B
:10247000718FD98F23AEF6FEE39BA5FC8149914471
:10248000930A010117DB0100130B8B4B97DB010053
:10249000938B8B48130AC00293F73400032904007E
:1024A0004844BDE78A85353785450A85A1370A87BF
:1024B0001C43110793F6F70093F7070FDA97B697C7
:1024C00083C70700232EF7FEE394EAFE02459247F6
:1024D0006205C2075D8DB2475D8DA247A2075D8D83
:1024E00093972900DE979C4385093D8D334525014F
:1024F00008C885041104E39144FBF2506254D2549D
:102500004259B259225A925A025BF24B216182809F
:102510003345A90008C8F1BF797122D426D24AD028
:102520004ECE52CC56CA06D62A8A9399450001440B
:10253000938A018D13090101C144B3073401D69771
:1025400088438A85793533078A008A871443904304
:1025500091074107B18E2328D7FEE39927FF110485
:10256000E31D94FCB250225492540259F249624A3B
:10257000D24A45618280397122DC1304050106DEEE
:1025800022878147C1460C433306F10011070CC274
:102590004C4710083E960CC24C4F10103E960CC291
:1025A0009107E392D7FE85450A85A9358945080834
:1025B00091358D4508103D3D81474147B306F100F7
:1025C00094421104232ED4FE1408BE96944254C49F
:1025D0001410BE969442910754CCE391E7FEF2505A
:1025E00062542161828006059377051089C71375AF
:1025F000F50F1345B5018280411106C6ED37B24093
:102600004101D5B781471148C1483386F500B3066B
:10261000F500014703AE06003303E600050723007B
:10262000C301C106E31807FF9107E39017FF8280FB
:102630009306050117D6010013068630130505051C
:10264000138706FF1C43110793F5F70093F7070F55
:10265000B297AE9783C70700232EF7FEE394E6FEFA
:10266000C106E31FD5FC8280411122C406C626C2E2
:1026700085472E846301F50289476318F5002244DB
:10268000B24092442E854101B9BF8D47631BF500CE
:102690002E85913F298C2285B240224492444101EB
:1026A0008280A5476315F5002E85B937DDB7AD47A4
:1026B000631AF5002E8589373D37AA842285253790
:1026C000258DC9BFB5476316F5002E853537AA8419
:1026D000FDB7B947E311F5FC2E85393FAA842137B0
:1026E000A98C228509373344950075B76382051498
:1026F00093F7F500639E07121571D6C3AA8A328537
:10270000A2CDA6CB86CFCAC9CEC7D2C5DAC15EDFFD
:1027100062DD66DB6AD96ED73284AE84EF903141D8
:10272000C147631EF500228501330149130A0106E2
:1027300097DB0100938BCB34294C63419902FE4017
:102740006E44DE444E49BE492E4A9E4A0E4BFA5B09
:102750006A5CDA5C4A5DBA5D2D618280338B2A0146
:102760000C105A859131814508107D338549081038
:10277000C135081009351C10D2863E871043410729
:10278000C10623A8C6FE032647FF23AAC6FE0326CA
:1027900087FF23ACC6FE0326C7FF23AEC6FEE31F9A
:1027A000EAFC17D701001307A72903280700832D88
:1027B0004700032D8700832CC7005284138607012E
:1027C0000C4042853ECE3ACC32CA42C8713D0C48DC
:1027D0002AC66E85513DB2460C501104A98E6A85F9
:1027E00036C65935B2464C54A98E668536C6AD3DBF
:1027F000B246F2475246358D88C391074248624738
:10280000E310F6FC4107B287E391EBFACE8508109E
:1028100085091933E39D89F50810193D0810A13B7E
:10282000A9450810D539DA850810E93B410931B7C7
:1028300082809307F00F6384F60A2D71232A91108A
:1028400023282111B28423263111130600102E896A
:10285000AA89930530020A85232E1110232C81109A
:1028600036844132A2852685EFC0E021131785000A
:10287000935785003365F7002310A100A6852286B3
:1028800013053100930434002301810093F4F40F05
:10289000EF80D15293F6F40089C64D04158C9374E1
:1028A000F40F1C02A697A6850A8517D60100130609
:1028B000261D238007F01D3D26868A854E85EF80E4
:1028C000F14F230099008320C11103248111832437
:1028D0004111032901118329C11015618280828071
:1028E000411106C6EF70707CB240AA8617D701006E
:1028F0001307071F171600201306462A97D5010055
:102900009385451F114541016FC0E031130101DB83
:1029100023248124232021252326112423229124CA
:10292000232E3123232C4123232A512323286123BF
:1029300003470500930710042A892E846317F76E56
:1029400003471500930740056311F76E0347250001
:102950009307E005631BF76C2E86AA852545EFC01B
:1029600060211306D003A2854A85EFC0403AAA84AD
:10297000635A05003546A2854A85EFC04039AA84CE
:10298000634405089389D4FF9307100363CE370788
:102990004E86930539002808EF90511D1C1CBE99E6
:1029A00017DA0100130ACA43238409DED28A814957
:1029B0004D4B83254A002808EFC0202F0DC18E09FA
:1029C000D69983D709004947636FF70017D70100ED
:1029D0001307470C8A07BA979C43BA9782878509E1
:1029E000210AE39869FD97D501009385A53ECDA8FE
:1029F0009305F4FF858D13851400C20581460146B9
:102A0000C1814A95EF2050698320C1240324812489
:102A100083244124032901248329C123032A8123F8
:102A2000832A4123032B01231301012582801306EE
:102A3000F4FF058E9385140042064182CA95E80092
:102A4000EFC040551305D104EF90710E93150501A9
:102A5000C1811305D104EFC0606097D50100938553
:102A6000A50A1305D104EFC0402419CD97D5010064
:102A70009385050A0545EFC0C004172500200345CE
:102A8000B508EF50A07049B797D501009385850927
:102A90001305D104EFC0602119CD97D501009385AE
:102AA000E5080545EFC0E001172500200345D505E1
:102AB000EF50807091BF97D50100938525081305CD
:102AC000D104EFC0801E19CD371700408327C70AF5
:102AD000856697D501009385E506D58F2326F70AED
:102AE0002545A5A697D50100938585061305D10434
:102AF000EFC0A01B11CD371700408327870A8566DA
:102B000097D5010093854505D58F2324F70AC9BFC2
:102B100097D501009385C5041305D104EFC0E018D3
:102B200011CD371700408327C70AA16697D501004A
:102B30009385C503D58F2326F70A5DB797D5010086
:102B40009385C5031305D104EFC0201611CD3717A7
:102B500000408327870AA16697D501009385C502A7
:102B6000D58F2324F70AADBF97D501009385C50201
:102B70001305D104EFC0601305C1B716004083A749
:102B8000860A056713070780D98F23A4F60A97D50D
:102B9000010093852501A9B797D5010093854501CB
:102BA0001305D104EFC0601005C1B716004083A71C
:102BB000C60A056713070780D98F23A6F60A97D59B
:102BC00001009385A5FF29BF97D501009385C5FF17
:102BD0001305D104EFC0600D01C5EF60F0662DB59F
:102BE00097D50100938585FE1305D104EFC0E00B56
:102BF00011C59727002023AB07F239B597D50100FF
:102C0000938585FD1305D104EFC0200A01C5EF604F
:102C1000A011DDBB97D501009385C5FC1305D10438
:102C2000EFC0A00801C5EF608010F9BB97D5010087
:102C3000938505FC1305D104EFC0200701C5EF60A3
:102C4000400ED9B397D50100938545FB1305D104F8
:102C5000EFC0A00501C5EF90004A7DB397D50100F4
:102C6000938545FA1305D104EFC0200409C5054535
:102C7000EF80304951BB97D50100938525F91305A5
:102C8000D104EFC0800219C10145DDB797D501001D
:102C9000938545F81305D104EFC0200111C93717FA
:102CA00000408327C70A9166D58F2326F70AA9BB60
:102CB00097D50100938585F61305D104EFB0F07E1A
:102CC00011C9371700408327870A9166D58F2324BF
:102CD000F70A1DBB97D501009385C5F41305D104F0
:102CE000EFB0B07C09CD396697760000938686F305
:102CF0001306061085450145EF80203131B397D585
:102D00000100938565F21305D104EFB0107A19C55F
:102D100039668146130606108145F1BF97D501003B
:102D20009385C5F01305D104EFB0307811C91305B0
:102D30009108EF80F1051375F50FEF50107DE9B1A3
:102D40000346D104A547130606FD1376F60FE3EDFF
:102D5000C7CA97270020A381C7DC97D501009385B8
:102D600025EDEFB0506C4DB11306F4FF058E1385C1
:102D700014004206418297E501009385A5A64A9575
:102D8000EFC0600617240020130404D71DC50545B5
:102D9000EF10901B97D501009385C5EA1145EFB060
:102DA000505283570400414593E71700172700202E
:102DB0002314F7D4EFC0101181B997D50100938582
:102DC00025E91145EFB0F04F7D55EFC090128357C4
:102DD0000400F99B172700202310F7D235B10936DC
:102DE00025B11306F4FF058E1385140042064182B7
:102DF00097E501009385059F4A95EFB0D07E172493
:102E00000020130464CF29C58357040097D501001F
:102E10009385C5E4E80093E7170017270020231DDA
:102E2000F7CCEF90A14FE800EF9061501316050129
:102E3000EC0041821705002013054557EF80E05A4A
:102E400097D50100938545E31145EFB090476DBEDE
:102E500097D50100938505E3E800EF90214CE80049
:102E6000EF90E14C13160501EC004182170500209C
:102E70001305C553EF8060578357040097D50100B1
:102E8000938505E2F99B172700202317F7C66DBF2E
:102E9000EF70406097270020938707C6E847EF80D0
:102EA0000146AE862A8697D50100938525E0114517
:102EB000EFB0705791BEEF500043B9B617E601006E
:102EC0001306C69297D50100938505DF114551BDC4
:102ED000EF70102297D501009385C5DE35F597D5A3
:102EE0000100938525DF8DB73145EF908006AA84D8
:102EF000EF80E1402A86AE86254597D5010093856F
:102F0000A5DEEFB0505297D701009387A7BF884343
:102F1000A685171400201304A4E0EF70F1532320BA
:102F2000A422EF70F02303250422EF80413DAE86FA
:102F30002A8697D501009385E5DB95BF81450D4530
:102F4000EF507049EF70B0152A8697D50100938530
:102F500025DDADBF81452D45EF50F0478145130577
:102F60005004EF50504797D50100938565DC3145FB
:102F7000EF507046EF7010132AC6EF707013B24610
:102F80002A8717160020130666C197D5010093857E
:102F900065DA1145EFB0304985BC1717002003579B
:102FA000C7F9971600209386B6E11716002013067E
:102FB000E6BE97D50100938525DAE1BF854717174F
:102FC00000202305F7F8EF70B01997D5010093851D
:102FD000E5D99DBD17170020034747F7854797D5CB
:102FE0000100938525D9E311F7E6C5B7972700209F
:102FF000938787B0A847EF808130AE862A8697D521
:1030000001009385A5D765B5B717004083A7470A88
:1030100097D501009385C5D793F70720E39607E27C
:1030200097D501009385C5D805B50146A2854A8587
:10303000EF50501AD1BA411122C421649305048083
:1030400099460146254506C697E0FF1FE78060BE0A
:10305000930504802244B240994613860182294593
:10306000410117E3FF1F6700C3BC99E1014582805E
:1030700075DD011152C403DA418226CA93548A00D5
:103080008504A204C204C18056C2B38A4441C20A64
:1030900022CC4AC82E862E842A8997D50100938592
:1030A000E5F7254593DA0A014EC606CE93890182DB
:1030B000EFB0703763ED8A0883D5418293F7F50F3F
:1030C000B1CF8D6783D5418293870780A2864A86D8
:1030D000BE95294597E0FF1FE780A0B51375F50F52
:1030E00029ED83D749001566A2972392F18203D771
:1030F000418283D721826309F70063F3E700B29727
:10310000998F139607014182254597D50100938534
:1031100065F2EFB050311375F40F0DA08D679387F2
:103120000780930600100146BE95254597E0FF1FD6
:10313000E78020B01375F50F49D50145F240624490
:10314000D2444249B249224A924A05618280B30779
:103150009440D297C207C183A18303C74900850762
:1031600093F7F70F9396870011EB938617009374EC
:103170000AF0A206C204C206C180C18283D721829E
:1031800063F6F40033879600E3C9E7FA0D6A130A81
:103190000A800146B3854401254597E0FF1FE7807B
:1031A00040A91375F50F51F983D54182A2864A864D
:1031B000D29505B7411122C413840182228581452D
:1031C000194606C697E0FF1FE780C0E09307B0FAF4
:1031D0002300F4008D352244B24097D50100938539
:1031E00065DC254541016FB0D00DA16541119946BF
:1031F00013860182938505802D4506C697E0FF1F43
:10320000E78020A303C701829307B00A6303F70096
:103210005537B24083D6418203D6218297D501002B
:10322000938505D9254541016FB0F01F83D70198DB
:103230000145638C071003D521986366F50023A030
:103240000198014582803385A740D1473355F50267
:103250001375F50F01E5239001988280130101BDDC
:1032600023248142232611422322914223202143F9
:10327000232E3141232C4141232A51419547137478
:10328000F50F63F3A7001544228697D501009385B7
:1032900025DC2545EFB030190149814493894198D7
:1032A000514AA14A9377F90F03D5219817170020A7
:1032B000034797BD63E98704D1473304F4022A9496
:1032C00023918198A147631CF706A6850808EF4063
:1032D000001C03D7219883D7019805456364F70044
:1032E00023A001988320C1420324814283244142C8
:1032F000032901428329C141032A8141832A414193
:10330000130101438280B30749031408AA97CE979B
:1033100033859600631E5701BE85EF40C0362317E4
:10332000A1008357E1000509BE94C204C1809DBF7E
:10333000AA851306E1003E85EF90303CDDB7268676
:103340000C080145EF60E06669B78280011106CE86
:1033500022CC26CA4AC84EC691E901442285F240D1
:103360006244D2444249B24905618280AA8975D536
:1033700083D7418203D621822E849564638AC70055
:103380006374F60015673A961D8E93140601C1808A
:10339000268697D501009385E5BD2545EFB0B00899
:1033A000938714F06356F4009307F00F63EA9700D5
:1033B00097D50100938585BD2545EFB0D00671BF37
:1033C00083D4418233878400956763C7E700A28571
:1033D0004E8561398D3159B71569330999404209D4
:1033E00013590901CA854E85493125D9ED75A69530
:1033F000A295C20523920182C18133852901D1BFE3
:1034000083D6019881EA97D501009385A5BE25450D
:103410006FB0206B03D621984111918E97D5010092
:10342000938545BE254506C6EFB0E07F138701981A
:103430008355070083D72198138541989D8DC20538
:103440003E95C1812137B24023A00198410182807D
:10345000411183D7019822C426C206C6AE9713072E
:10346000401FAA842E84635AF700593F97D5010064
:10347000938505B62545EFB0C06483D701981385C1
:1034800041982286A6853E95EF80411303D6019888
:10349000229642062244B240924441822390C1982F
:1034A00097D50100938545B4254541016FB0A077BC
:1034B000011126CA06CE22CC4AC84EC652C456C2F4
:1034C000814459C1D1C183D7218203D44182638D04
:1034D000870663F587081D8C42044180AE892A89DE
:1034E000228697D50100938565A50145EFB0A073AD
:1034F000A28463F38900CE84C2040D6A83D721823B
:1035000003D74182C180938A0182130A0A8063FA39
:10351000E704A6864A86B38547012D4597D0FF1F4D
:10352000E780207183D72A00A6972391F182EFF0DC
:103530009FB083D6418203D6218297D5010093851F
:1035400025A12545EFB0206EF24062442685424910
:10355000D244B249224A924A0561828015673A9460
:103560009DBF15671D8FB385470163D5E400A6860F
:103570004A8665B79569B389F9406D743E94C2096E
:1035800093D909012694CE864A8642042D4597D0C8
:10359000FF1FE780006A4180A28633063901D28589
:1035A0002D452391018297D0FF1FE780806883D744
:1035B0002A003E94239181829DBF1841938781FB0D
:1035C000104598C303574500544590C72392E70020
:1035D00058551049D4C7544998CF97D501009385C1
:1035E000A5BB0547254590CBD4CB238EE7006FB014
:1035F000404D397126DA4AD84ED652D456D25AD0D6
:1036000006DE22DC62CE66CC2A89EF8051529374AA
:10361000F50F8149254BE54A17DA0100130A8AA400
:1036200091ECF25062544E85D2544259B259225A0A
:10363000925A025B724CE24C21618280034709007E
:10364000930707FD93F7F70F637CFB009307F7F9E8
:1036500093F7F70F63E2FA06930797FA93F7F70FDA
:10366000139487016184FD14230089002685EF707F
:10367000611A2A86AE8603250A0083254A0093F440
:10368000F40F0509EFF0A0252AC422852EC6EF709D
:1036900061182246B246EF6081482A8C4E85AE8C76
:1036A000EF70611E2A86AE866285E685EF50015C6A
:1036B000EF708110AA89ADB79306F7FB93F6F60F6A
:1036C0008147E3EFDAF8930797FC49BF411122C421
:1036D00006C6830795022A8499C713059502EF70E1
:1036E000316B2389A1F68307D41291CB1305D41231
:1036F000EF70B169EF70714B938701F4C8D3B2409A
:10370000224441018280011126CA9304150022CC73
:1037100097D50100938505AC2A84268506CE4AC834
:103720004EC6EFB08060631E051097D501009385EB
:10373000A5AA2685EFB0605F6302050E8544830766
:10374000D4036386070C13059402EF7071648549F6
:103750001379F50F1305D4036387340F8947638CFE
:10376000F418EF70F162A38AA1F6631A3901794661
:103770008145138571F923830182EFE09FA68307BA
:10378000D40885C31305D408EF70916003C7618224
:10379000930717002383F182938701F4BA97A38BD1
:1037A000A7048307D40D85C31305D40DEF70515EB4
:1037B00003C76182930717002383F182938701F483
:1037C000BA97A38BA7048307D41285C31305D41219
:1037D000EF70115C03C76182930717002383F182A6
:1037E000938701F4BA97A38BA7048307D41785C3E3
:1037F0001305D417EF70D15903C7618293071700DF
:103800002383F182938701F4BA97A38BA704F24034
:103810006244D2444249B2490561828097D5010091
:103820009385C59B2685EFB04050E31905F02685AA
:1038300097D501009385C59AEFB0204F8944E310D6
:1038400005F08144EDBDEF70B154238BA1F6631AEE
:10385000990079468145138591F723830182EFE032
:103860005F988307D40885C31305D408EF705152BD
:1038700003C76182930717002383F182938701F4C2
:10388000BA97A38CA7028307D40D85C31305D40D63
:10389000EF70115003C76182930717002383F182F1
:1038A000938701F4BA97A38CA7028307D41285C328
:1038B0001305D412EF70D14D03C76182930717002F
:1038C0002383F182938701F4BA97A38CA70283071D
:1038D000D417E38E07F21305D417EF70714B03C7AB
:1038E0006182930717002383F182938701F4BA97CB
:1038F000A38CA70229BFEF70B149A38BA1F601BF2A
:10390000411122C406C6830795072A8499C7130567
:103910009507EF70F147A389A1F68307D40899C7EB
:103920001305D408EF70D146238AA1F68307540B00
:1039300091CB1305540BEF705145EF70112793870E
:1039400001F488D7B240224441018280011126CA85
:103950008146B284014652C456C206CE22CC4AC821
:103960004EC62A8AAE8AEF50B17E41CD9307E0045D
:103970006386F400930730056395F40897D9010036
:103980009389498303A6090083A649005285D685F9
:10399000EF60E11837949800EF6011621304046837
:1039A0002A8933758502EF60116E03A6090083A68C
:1039B0004900EF50B11E97D70100938727809043AD
:1039C000D443EF50B11D2A8A33558902AE8AEF6085
:1039D000916B2A86AE865285D685EF502129130732
:1039E0003005AE876395E400B7070080AD8FF240E5
:1039F0006244D2444249B249224A924ABE85056194
:103A0000828001458147E5B7011126CA8146B2840B
:103A1000014652C456C206CE22CC4AC84EC62A8A95
:103A2000AE8AEF50F17241CD930750046386F400E3
:103A3000930770056395F40897C901009389897706
:103A400003A6090083A649005285D685EF60210DA3
:103A500037949800EF605156130404682A8933752F
:103A60008502EF60516203A6090083A64900EF506A
:103A7000F11297C70100938767749043D443EF50C6
:103A8000F1112A8A33558902AE8AEF60D15F2A8606
:103A9000AE865285D685EF50611D13077005AE873F
:103AA0006395E400B7070080AD8FF2406244D244D2
:103AB0004249B249224A924ABE8505618280014547
:103AC0008147E5B7135785009357050113D8850043
:103AD0009376F50F01111377F70F93F7F70F6185C1
:103AE00093F5F50F1378F80F99C211C3B9E3230CBE
:103AF000D100A30CE100230DF100A30DA1000345AB
:103B00009101834781010347A1012205A30E010111
:103B10004207C98F230EB1000345B101D98F034776
:103B2000D1018345C101620522075D8DD98D0561F3
:103B3000828032951375F50F13138501135383415A
:103B40005D466357660861463363C3028507137693
:103B5000D70F114593F7F70F6305A6002545631AA4
:103B6000A6007946637FF60205071377F70F8547AE
:103B70000DA809466312C7041386067D9308400604
:103B8000B36816036385080013F5360011C51305E5
:103B900000193366A60219EE75466374F600854770
:103BA0000D47230CD100A30CE100230DF100A30D60
:103BB0006100B1B77146D5B77D46E374F6FEB147F3
:103BC000E314F7FA850693F6F60F85470547D1BF4C
:103BD000E35903FC6105FD171313850193F7F70FF4
:103BE00013538341DDFF7D171377F70F1146F94714
:103BF000E309C7FA1946E306C7FA2546E303C7FAFD
:103C00002D46E300C7FA89476316F7021386067D3F
:103C100093074006B367F60291C793F83600F5475D
:103C2000E38108F893070019B367F60293B717000A
:103C3000F10785BFFD4735F7FD1693F6F60F3147BF
:103C40008DB783471500034705000111A2075D8F5B
:103C5000834725008346350083454500C207D98F39
:103C60000347550022CC170400201304640B0306FD
:103C70001420E206220733E5F600D98D06CE9935E9
:103C8000135885001356050193D7850013F7F50FD8
:103C900093F7F70F935685011376F60F9375F80F88
:103CA0001375F50FEF80000483471400054793F761
:103CB000B70F6397E7006244F24005616F8000121E
:103CC000F240624405618280497123248116138485
:103CD00001F48307340083C851F403C841F403C7D7
:103CE00021F483C611F403C601F497C5010093853E
:103CF000E550481023261116232291162320211760
:103D0000232E3115EF80215D4810EF804162184865
:103D10005C48030604033AC03EC2030814035C4433
:103D20001844541097C501009385454F3695EF8090
:103D3000815A4810EF80A15F5C103E9583076400B4
:103D400017C601001306064B89C717C601001306E4
:103D5000E64997D5010093856505EF80C157481066
:103D6000EF80E15C544C104C5C1097C501009385CA
:103D7000E54B3E95EF8021564810EF80415B0306EE
:103D800034035C103E9597C501009385E54AEF80AA
:103D900081544810EF80A15903072403AA84485096
:103DA0003ACE138401F4EF70815572475C10AE86F1
:103DB0002A8697C501009385254933859700EF80B2
:103DC00081514810EF80A1565C1003C641F797C59A
:103DD00001009385E5483E95EF80E14F4810EF8064
:103DE00001555C1097C50100938585483E95EF808D
:103DF000E1521389E1F5A28497D90100938989FAE8
:103E000003C6740519CA481032CEEF80415272467B
:103E10005C10CE853E95EF80014C8504E39224FF33
:103E20004810EF80C1505C1097C501009385C544D0
:103E30003E95EF80A14E97D401009384A4F60346EB
:103E4000940319CA481032CEEF80614E72465C105E
:103E5000A6853E95EF8021480504E31224FF4C100F
:103E60002545EFA010468320C11603248116832424
:103E70004116032901168329C115756182804111FC
:103E800022C406C626C2830755012A84B9C7A9469B
:103E9000938707FDB387D70203476501130707FD23
:103EA000BA97A381F1F403077501834785011307CE
:103EB00007FD3307D702938707FD3E972382E1F47E
:103EC000830795010347A501938707FDB387D702B1
:103ED000130707FDBA97A382F1F48307940281CBFD
:103EE000130710046391E71485472383F1F48307D4
:103EF000D403938401F499C71305D403EF70E168E8
:103F000088C4CCC40306140509CA8844CC44238859
:103F1000C1F6EFF0BFA388C4CCC48307540699C789
:103F200013055406EF70616688C8CCC80306940771
:103F300009CA8848CC48A388C1F6EFF0FFAC88C80E
:103F4000CCC88307D40899CF1305D408EF70E16378
:103F500097C70100938707299043D443EF50313C22
:103F600088CCCCCC8307140A99C71305140AEF70C8
:103F700021622390A1F68307540BB9C7A946938702
:103F800007FDB387D7020347640B130707FDBA97F2
:103F90002381F1F40307740B8347840B130707FD98
:103FA0003307D702938707FD3E97A380E1F4830789
:103FB000940B0347A40B938707FDB387D70213071E
:103FC00007FDBA972380F1F483853400856703C623
:103FD00041F4938707E11307C0033307E60283C662
:103FE00051F4B387F502BA97B69723A6F1F61717DF
:103FF0000020130767B0835707003A8413F5870042
:1040000039E1038564000547631FE50203C721F416
:1040100011EF8844CC4401468146EF50711305E905
:10402000238301F4B9A0238301F4D1B5FDD175D266
:10403000EDD293E78700138501F417170020231DA5
:10404000F7AAEFF01FC083876400E1F7D1BF88486B
:10405000CC4801468146EF50B10F79D183C721F496
:10406000E1D313068007938501F4138581ECEF708B
:10407000E15403C581B79D4705053365F502130675
:104080008007938501F4238CA1B69307800733053D
:10409000F502938701B83E95EF704152EFF0DFC211
:1040A0001C5C2244B2409244171700202326F7A834
:1040B000130680078145138501F441016FE06F927B
:1040C0000171232C811E232A911E1306101E2A849F
:1040D000AE8468008145232E111E2328211FEFE0A6
:1040E0004F9081458147014701465148CD485D4386
:1040F0006340960899C12306F1001306A002A68525
:104100002285EFA0D0408347C10051473386A440A9
:10411000B387E7029305150078007D16A295850701
:104120003305F700EF7081491306A002A6852285AA
:1041300003491400EFA0B03D894763C3A7080345B6
:10414000C100D1473305F5027C0005053E95EFF02F
:104150004FCA631CA904194697C5010093858506BB
:104160001305D100EFA0304825C56800093B35A8EC
:10417000B306C40003C50600930665FD93F6D60F8B
:1041800091EA850793F7F70F6361F30285450147CD
:104190000506B9BFB3860703130E011FF296BA9640
:1041A000A38EA6E00507E3D5E8FE8320C11F032404
:1041B000811F8324411F0329011F130101208280D5
:1041C0003307F4000347070085073349E900B5B713
:1041D000194697C50100938525FF1305D100EFA06F
:1041E00090400DED194697C50100938525FE1305F6
:1041F000D100EFA0503F19ED194697C501009385F6
:1042000025FD1305D100EFA0103E45D16800EFF069
:104210008FCF61BF6800EFF0AFEE41BF6800EFF0F5
:10422000EFCA61B7757122C526C34AC1CEDED2DCA2
:10423000D6DADAD806C7AA892E8981440144814793
:10424000130A4002854A354B139704014183636C7E
:104250002701BA402A449A440A49F659665AD65A5E
:10426000465B4961828033879900034707006300FA
:104270004703639C5701631D67019C18A297A285A1
:104280006800238E07F82D3D8147850475BF0144E2
:104290009C18A29705041374F40F238EE7F8933744
:1042A0003406E5B7411106C6138581B7834705007B
:1042B000130780078145B387E70213068007A1072C
:1042C0003E95EFD01FF2B2408145114541016FB0DC
:1042D0002038138581B78347050013078007B3870C
:1042E000E702A1073E958280138581EC82809717B3
:1042F000002083C7F78081CF9707002083D767C24C
:10430000FD17C207C1831307A0036375F70023A439
:104310000182828031714ED79389818283A70900FF
:1043200056D3938A81B7850722DD26DB52D55AD131
:104330005ECF62CD66CB6AC906DF4AD96EC723A4B9
:10434000F18283C481B7014A130C8007568497CC4D
:104350000100938C2CDB054D9D4B154B3389840359
:1043600056998307E900E1CF03A60C0083A64C0011
:104370000325090283254902EF50016F6341050CB3
:1043800083470904638DA70B93171A001808BA977F
:10439000035789022390E7003C00D29723809700BF
:1043A000050A9904B3E47403E31A6AFB0357810115
:1043B00083570101998F13D7F741B98F998F939440
:1043C00007011307400BC1806358F700930780165D
:1043D000B3849740C204C180268697C501009385A7
:1043E00065D56808EF70316F6C082545EFA0606DEA
:1043F000938714FFC207C1837947636EF7080349A7
:104400009100130A800785450145330949032109B5
:1044100022994A86EF80507D8344B100854501454D
:10442000B3844403A104A2942686EF80F07BCA855E
:104430000D45EF308027A6850D45EF30002783A777
:104440000900170700200357C7AD63E7E70203C55C
:1044500081B79304800733059502B30DA4008387C9
:10446000ED0099CB83C741FD138981FB6397070E4C
:1044700021052295EFF06F94FA506A54DA544A59A4
:10448000BA592A5A9A5A0A5BFA4B6A4CDA4C4A4D84
:10449000BA4D296182809307D002E3F297FA834BE9
:1044A0008100930A80078545B38B5B030145138C1C
:1044B0008B00229C6286EF803073034B9100854510
:1044C0000145330B5B03A29B210B229B5A86EF8095
:1044D000B071034AA10085450145330A5A03210AF8
:1044E000229A5286EF8050700349B10085450145FC
:1044F00033095903210922994A86EF80F06E8344DB
:10450000C10085450145B3845403A104A2942686C5
:10451000EF80906DE2850D45EF302019DA850D456D
:10452000EF30A018D2850D45EF302018CA850D4513
:10453000EF30A017A6850D45EF30201783C781B750
:10454000B38A570303A74B03A29A83A74A03E3182E
:10455000F7EE85472380FA04DDB517CD0100130D72
:10456000EDBA03260D0083264D0003A50D0183A59A
:104570004D0197C901009389E9B9EF50415A03A64B
:10458000090083A64900EF4071612A8BAE8B032698
:104590000D0083264D00032589008325C900EF50B7
:1045A000015803A6090083A64900EF40315F2A8A1B
:1045B000AE8A2A86AE865A85DE85EF50D12197C70E
:1045C00001009387A7B59043D443EF504155EFE0E6
:1045D000E01B2A8CAE8C5A85DE85EFE000122A8B18
:1045E000AE8B5285D685EFE0401103260901832664
:1045F00049012A8AAE8A03A58D0183A5CD01EF501A
:10460000911D03260D0083264D00EF50415103A656
:10461000090083A64900EF40715897C701009387AE
:10462000E7AF9043D443EF50814FEFE020162A8943
:10463000AE895286D6865A85DE85EF50414E4A862F
:10464000CE86EF50C14D4A86CE86EF50414D2A8925
:10465000AE896286E6866285E685EF50414C2A8601
:10466000AE864A85CE85EF406160EFE0A059EFE06D
:10467000201B2A86AE86EF40615F97C701009387B3
:1046800067AA9043D443EF50814997C701009387AD
:10469000E7A99043D443EF5081482A86AE862A8901
:1046A000AE89680897C501009385C5A9EF70B1422E
:1046B0006C082545EFA0E04017F5FF1F0345457046
:1046C000EF6041152A86AE864A85CE85EF50E12EF1
:1046D000E354A0DA03C681B7330696028545014547
:1046E00021062296EF80505083C581B7B38595028D
:1046F0000D45A105A295EF20507B03C581B7330579
:10470000950221052295EFE05FEB23A40182ADB372
:104710000111254697B501009385051D480006CE79
:10472000EF60D1694C00254617F5FF1F130505C83A
:10473000EF60B04B97C50100938585A22545EFA09A
:104740004038F24005618280797122D42D4697B5B8
:1047500001009385E51A2A84280006D6EF601166C9
:104760002D4697B501009385651A4808EF601165DD
:104770002D461DC02C0017F5FF1F130525C3EF6044
:10478000D04697C501009385259F2545EFA060334E
:10479000B2502254456182804C0817F5FF1F130563
:1047A000E5C0EF60904497C501009385E59DF1BF9A
:1047B000317186064ED7AA8913D5160006DF22DD91
:1047C00026DB4AD9B2CE2E89EF60112E97C70100A1
:1047D0009387C78A76468C432A843285EF60D1035B
:1047E000EF60912CAA84554681452801EFD07F9F28
:1047F00085472308F10693D789402309F10693D70B
:104800000941A309F10693578940230BF1069357F9
:104810000941A30BF10693D78400230DF10693D72A
:104820000401A30DF10693578400230FF10693575B
:104830000401A30FF106B7E70B109387179FA30896
:104840003107A30A210793D9894113598941A30C40
:104850009106A30E8106E18061803EC35801C547E1
:10486000230081082304F108230A3107230C2107C0
:10487000230E9106FC103A849306D10703C6470025
:1048800085070507A302C700E39AD7FE03488108FE
:104890000147814793055800894693F7F70F13772F
:1048A000F70F63DCD50AA30DF108BEC28347A10947
:1048B000230EE108BAC4BEC08347910997B5010031
:1048C0009385057C25453EDE834781093EDC834791
:1048D00071093EDA834761093ED8834751093ED6C4
:1048E000834741093ED4834731093ED2834721099A
:1048F0003ED0834711093ECE834701093ECC834712
:10490000F1083ECA8347E1083EC88347D1083EC646
:104910008347C10883489108034761083EC4834721
:10492000B10883465108034641083EC28347A108A7
:104930003EC083477108EFA0002FA28517F5FF1F27
:104940001305C5A66546EF60502AFA506A54DA543A
:104950004A59BA590145296182803306D400034679
:1049600006008506B29713F6F70F32979317860164
:104970006207E187618715B7854763DBB70A7971FD
:1049800026D24AD052CC5AC85EC662C466C206D687
:1049900022D44ECE56CA2A8A0149930B100F130C0B
:1049A000900D97FCFF1F938C6CA017BB0100130B9D
:1049B000EB6B9384F5FFB3092A0103C70900930742
:1049C0001900631577053307FA0003470700631FD3
:1049D000870303C4590083C74900CE8522045D8C38
:1049E000930A8400C20A93DA0A0156866685EF604C
:1049F000D01F5686CE855A85EFA040740D4597C0CE
:104A0000FF1FE78040FE93078900A29763E09702AB
:104A1000B250225492540259F249624AD24A424B4D
:104A2000B24B224C924C0145456182803E8961B770
:104A30007D558280914763E3C70A17C701001307BA
:104A400067840A063A961C42411122C406C6BA97E8
:104A50002A84828797D50100938585B81145EFA0F8
:104A60004006A2851145EFA0C0052244B24097D56B
:104A700001009385A5B8114541016FA08004B9CA12
:104A800097F7FF1F83C7474D81C79042EF40B07F24
:104A90002244B240014697550000938545053D45A7
:104AA00041016F30004B9DC62244C8C2B24003C5CD
:104AB000A6002394B6003686954541016F80D0123A
:104AC0002244B24041016FD0D0392244B24041016A
:104AD0006F308008B24022444101828082804111BF
:104AE00006C6EF904039B24041016F80D07F5571CA
:104AF0005810930631021306210293051102930701
:104B000051021305610286C7EF70A01797070020B6
:104B1000938787FE83D70700BD9B17070020231DBF
:104B2000F7FCEFF00FFB030305039305E004835646
:104B3000610203471102834721020348310283487F
:104B40004102034E510217D601001306A637631621
:104B5000B30017D601001306A627830E150313030F
:104B60005004032F8500832FC50097D5010093853E
:104B7000252663866E0097D501009385A53403230F
:104B80000501832345017AC41ACC1ECE7EC672C0AD
:104B90002EC832C297C501009385850017F6FF1F06
:104BA0001306C6FF2810EF700173EF80D025281080
:104BB000EF70E1779387C182904393150501938647
:104BC00081FD2810C181BD35BE40696182804111DF
:104BD00006C623A6B18201C61C4223ACF1FC97F79E
:104BE000FF1F83C757149DEB0545EFB0E02997B52C
:104BF00001009385E5752545EF90B06C970700207F
:104C000083D787EF93E70701170700202316F7EEF6
:104C1000EF80B01EB24041016F40405B0547054543
:104C2000639CE700EFB040260545EFA0B02997B59B
:104C3000010093852573C1B7EFB000250545EFB09E
:104C4000E02C0545EFA0102897B50100938505736A
:104C50005DB7411122C42A848307D40306C626C245
:104C60002E8589C71307F0036398E70217F7FF1F24
:104C70001307D71197F6FF1F9386360E17F6FF1FFF
:104C80001306960A97B501009385857A2244B240AF
:104C9000924441016F70216497F7FF1FA3860708B4
:104CA00097F7FF1FA38B070A97F7FF1FA380070E35
:104CB000034704008547AE8463FAE7009305D403F5
:104CC00017F5FF1F13055506EF704165830794071D
:104CD00091CF03470400894763FAE70093059407DF
:104CE00017F5FF1F13057507EF7041638307540B1A
:104CF00091CF034704008D4763FAE7009305540BF7
:104D000017F5FF1F13059508EF70416101469745A0
:104D10000000938505021305C012EF308023EF5089
:104D2000304417F7FF1F1307770697F6FF1F938688
:104D3000D60217F6FF1F130636FF97B501009385BD
:104D400065712685A1B7411126C206C622C4034754
:104D500005008947AE8463F7E7029305D5032A84EB
:104D60001306200317F5FF1F130505F5EF7001600B
:104D700013059407EF60D10197F7FF1F2390A7FA5F
:104D8000EF509038EF50503C97F6FF1F83D606F94E
:104D900017F6FF1F130646F297C50100938545D706
:104DA0002685EF704153854797F5FF1F938505DFF3
:104DB00017F5FF1F130505EF17F7FF1FA308F7E40B
:104DC000EF70C15597F5FF1F938515F617F5FF1F77
:104DD0001305E5E3EF70815497F5FF1F9385F5F711
:104DE00017F5FF1F1305C5E5EF70415397F5FF1F3A
:104DF0009385D5F917F5FF1F1305A5E7EF7001524D
:104E000097B501009385C5CD17F5FF1F1305E5ED97
:104E1000EF70C150EF50502F014697450000938529
:104E2000E5F07945EF30E0122244B2409244014669
:104E3000976500009385457A1305600441016F3042
:104E40004011411122C426C24AC006C68307D503B9
:104E5000AE8417C901001309699A170400201304CE
:104E6000A4C989C71307F0036391E70417F5FF1F6F
:104E70000345F5F4EF50111A032609008326490073
:104E8000EF40C151EF60615228C8EF604147AE86E4
:104E90002A8697C501009385E5962244B2400249CF
:104EA0002685924441016F7001431305D503EF60DD
:104EB000216E97F7FF1FA384A7F01375F50FEF502E
:104EC00071150326090083264900EF40214DEF604C
:104ED000C14D28C8EF50D0282848EF604142AE8627
:104EE0002A8697C501009385E59345BFAA87038766
:104EF000D7032E8509C79306F0036315D70297F7EA
:104F0000FF1F83C737E217C601001306668C89E7C7
:104F100017C601001306468C97C501009385458D81
:104F20006F70613B41111385D70306C622C42E84DE
:104F3000EF60016697F7FF1FA386A7DEEF505022B0
:104F400097F7FF1F83C717DE97C501009385458933
:104F500089E797C501009385258922852244B240BF
:104F600041016F70A13B411126C206C6AA8422C42A
:104F70008387D4032E8589C71307F0036396E7045C
:104F800097F7FF1F83C737DA05476385E70289CBA9
:104F900009476386E702B24022449244410182807D
:104FA00097C501009385458C2244B240924441014B
:104FB0006F70C13697C501009385858DF5B797C58C
:104FC00001009385A58FCDB79384D4032E842685C5
:104FD00097C5010093858591EF70813B1DC189477D
:104FE00017F7FF1FA301F7D497C5010093854594D8
:104FF0002285EF70A1322244B240924441016F50A9
:1050000030162685EF60C1581375F50F97F7FF1F0F
:10501000A38BA7D0854797C501009385658FE309CA
:10502000F5FC97C501009385E58C79D18947E30D9F
:10503000F5FA17F7FF1FA308F7CE97C50100938570
:1050400065917DB741112E8597C501009385059423
:1050500006C6EF70A12C014697450000938505CD4B
:105060007945EF20106FB2400146976500009385A7
:10507000A5561305600941016F20B06D411122C48E
:1050800026C206C68307D503AE8417F4FF1F130498
:1050900024C989C71307F003639BE7028306142022
:1050A00017C601001306C6AA63D6060017D601006C
:1050B000130606D2268597C501009385A5A9EF7032
:1050C00081212244B240924441016F90F07B13054C
:1050D000D503EF60E14B97F7FF1FA383A7E4EF90A1
:1050E000B07A0306142097C50100938565A825456D
:1050F000EF907033834714206147B10793F7F70FA0
:105100006377F700A14717F7FF1FA30BF7E0EF50F6
:1051100030058306142017C60100130666A363D664
:10512000060017D601001306A6CA2244B2402685FF
:10513000924497C50100938525A441016F70A11980
:10514000797122D49307D1012E8478089306B10196
:105150001306A101930591011305E10106D626D29C
:105160004AD0EF6010328348D1010348C101834720
:10517000B1010347A101834691010356E10197B5AF
:1051800001009385A5502285EF70E1142285EF7010
:10519000011A97040020938424968C5C03A80404CD
:1051A0000566130606E133F3C5029306C003229594
:1051B000B378C802B377D80233F7D5023EC0DC58C3
:1051C000B3D8D8023358C802B356D30233D6C50277
:1051D00097B501009385C54DEF70E10F2285EF7003
:1051E00001153309A400EF90004717B6010013061C
:1051F000A64909C517B601001306C64897B50100B0
:105200009385054F4A85EF70010D2285EF702112BD
:1052100094402295170800200348488E93D7260013
:105220008582858B170700200347378D858A1706EF
:1052300000200346269297B501009385654CEF70D8
:105240008109B25022549254025945618280AA8742
:105250000387D7032E8509C79306F0036311D7028E
:1052600097F7FF1F83C747AC97B501009385C51219
:1052700089E797B50100938525156F70210A4111C3
:105280001385D70322C406C62E84EF6061301375E0
:10529000F50F97F7FF1F2389A7A817F7FF1F0347ED
:1052A00037A889476316F7000DE91145EFA0804143
:1052B00097F7FF1F83C747A797B50100938545124E
:1052C00089E797B501009385E5142285EF70010504
:1052D0002244B24041016F50A0681145EFA06041E7
:1052E000C1BFAA870387D7032E8509C79306F0039A
:1052F000631ED70297F7FF1F83C7E7A20547638D99
:10530000E70089C70947638EE700828097B50100EF
:10531000938505176F70810097B501009385851AF5
:10532000D5BF97B501009385A51FEDB74111138532
:10533000D70322C406C62E84EF6081251375F50FAE
:1053400097F7FF1F2381A79E854797B50100938597
:1053500065176306F50297B501009385651205C1CF
:10536000894797B501009385A51B630AF50017F7D8
:10537000FF1F230AF79A97B5010093852520228500
:10538000EF60D1792244B24041016F50605DAA873D
:105390000387D7032E8509C79306F003631CD70044
:1053A00017F6FF1F0346C6A197B501009385C53CBC
:1053B0006F60717241111385D70306C622C42E8413
:1053C000EF60811D97F7FF1F238CA79EEF50405978
:1053D00022852244B24017F6FF1F0346669E97B50A
:1053E00001009385A53B4101E1B7411122C413059A
:1053F00050042E84814506C6EF30E07DEF50404BCF
:105400002A8622852244B24097B501009385853BC8
:1054100041016F60516C411122C41305D5032E84E4
:1054200097B501009385453006C6EF90101011CD59
:105430000145EF50605D97B501009385A52F22854A
:105440002244B24041016F60716D0545EF50C05B71
:1054500097B501009385C52FDDB7411122C42A8479
:105460008307D40306C626C22E8589C71307F00317
:10547000639CE70297F7FF1F9387F79D17F7FF1FBE
:105480001307579A97F6FF1F83D6C6AA17F6FF1F72
:105490001306369697B50100938585512244B24094
:1054A000924441016F603163AE8417F5FF1F13050D
:1054B00055949305D403EF60716617F5FF1F13052C
:1054C0005593EF60D16693150501C18117F5FF1F54
:1054D00013053592EF90903C8307940789CB130511
:1054E0009407EF60E10A97F7FF1F2395A7A48307AE
:1054F000540B85CB9305540B17F5FF1F130595929D
:10550000EF60D16117F5FF1F1305D591EF60316290
:1055100093150501C18117F5FF1F1305B590EF9095
:10552000F0378307140F85CB9305140F17F5FF1F72
:1055300013057592EF60915E17F5FF1F1305B59186
:10554000EF60F15E93150501C18117F5FF1F13058B
:105550009590EF90B034EF50A04097F7FF1F9387DE
:10556000978F17F7FF1F1307F78B97F6FF1F83D649
:10557000669C17F6FF1F1306D68797B50100938523
:105580006544268521BFAA870387D7032E8509C7CF
:105590009306F003631CD70017F6FF1F03566698A7
:1055A00097B50100938545546F60F1524111138501
:1055B000D70306C622C42E84EF50917D1316050131
:1055C00097F7FF1F239FA794418297B5010093850A
:1055D000E5522285EF60315097E7FF1F83C757746C
:1055E00009476388E700ED1793F7F70F0547636AEC
:1055F000F70097F7FF1F83D7C79289EB0945EFA004
:10560000400F2244B24041016F508035EF90707CD2
:1056100075D517F7FF1F0357C7909307B003E3EF44
:10562000E7FC0945EFA0000AE9BFAA870387D70373
:105630002E8509C79306F0036313D70697F7FF1F5C
:1056400083C7D79005476389E70289CF0947638EEF
:10565000E7020D476380E70497B501009385C541D4
:105660006F60D14B17B601001306C63797B501001E
:105670009385C5386F60314617B601001306C638EA
:1056800097B5010093854539F5B717B601001306A4
:10569000263BFDB717B601001306C63BD5B741112F
:1056A0001385D70322C426C206C62E84EF50516E3E
:1056B0001375F50F97F7FF1FA38AA7888544630228
:1056C00095041DC18947630AF5048D47630CF504F1
:1056D00097B501009385453E2285EF60314497F7E9
:1056E000FF1FA385978601A897B5010093854539CB
:1056F0002285EF60B1422244B240924441016F5092
:10570000202617B601001306263097B501009385B1
:1057100065382285EF60313CF9BF17B601001306EA
:105720002632E5B717B601001306C632F9BF0111DC
:1057300006CE2EC6EF905067854717F7FF1FA30DC3
:10574000F780EF50E0213245F24097B50100938594
:1057500025ED05616F60913C011106CE2EC6EF90DC
:10576000106697E7FF1FA389077EEF50601F324541
:10577000F24097B50100938565F005616F60113ABD
:10578000011122CC4AC806CE26CA4EC68307D503CD
:105790002E8917E4FF1F1304A45889C71307F003C9
:1057A0006395E70203250422EF507135AE862A8601
:1057B00097B50100938505E36244F240D244B249B3
:1057C0004A85424905616F601131AA841305D503EA
:1057D000EF50B15BEF50713DAA8913859407EF50EC
:1057E000315B1375F50F1DE53145EF608076AA85B5
:1057F0004E85EF5061462320A422EF50601603250A
:105800000422EF50D12FAE862A8697B501009385EA
:10581000A5DE5DB723203423CDB7AA870387D7033E
:105820002E8509C79306F0036315D70297E7FF1F7C
:1058300083C7A77217B60100130606DF89E717B6FC
:105840000100130666DF97B501009385A5DF6F6041
:10585000912841111385D70322C406C62E84EF5028
:1058600031531375F50F97E7FF1F2388A76E17B6FF
:105870000100130666DB09E517B601001306C6DB57
:10588000228597B50100938565DDEF60D124224420
:10589000B24041016F50C00C130101BA232251459F
:1058A000B28A2E86AA856818232E1144232C81449F
:1058B000232A91442328214523263145232061456D
:1058C00023244145368B232E7143232C8143232AE5
:1058D00091432328A1432326B143EF90A06B1305E6
:1058E000D103EF60D12493150501C1811305D103C4
:1058F00097B4010093844430EF90407601442689A8
:1059000093098002C8409305D103EF90003A0DC976
:105910000E044A9483170400139707012300012201
:1059200041839306700263F4E6006F10A02B17B753
:105930000100130767968A07BA979C43BA97828734
:105940000504A104E31034FDFD57F9B717E7FF1F65
:1059500003479753A1476312F70C19464C0817E504
:10596000FF1F1305E524EF90605108142300010286
:105970000014EF60D11B97E7FF1F83D7C75B17E7C2
:10598000FF1F1307B75397E6FF1F93862621500882
:1059900097B501009385853E2295EF60D1130814D9
:1059A000EF60F1181C1417E6FF1F1306F6373E953B
:1059B00097B501009385453FEF60F1110814EF6042
:1059C00011171C143E9597E7FF1F93876735838651
:1059D000172017B601001306A61763D6060017C6D0
:1059E00001001306E63E97B501009385653CEF6024
:1059F000910E17E4FF1F0344B4329307F4FF93F7AB
:105A0000F70F15476363F71017B701001307C79225
:105A10008A07BA979C43BA9782870814EF603111BE
:105A20001C1417E7FF1F0357475197E6FF1F938684
:105A3000363917E6FF1F1306661697B501009385E2
:105A4000A5353E95EF60310999BF0814EF60310E1E
:105A50001C143E95854797B501009385253663064E
:105A6000F40097B501009385E535C164EF60110B33
:105A700017E4FF1F1304C42A17EAFF1F130AEA2AB8
:105A8000FD149309C00397BB0100938B2B3403597A
:105A90004420630E99000814EF607109B37639034E
:105AA0001C14DE853E9533563903EF60D10209049C
:105AB000E31F8AFC0814EF60910717E6FF1F0346F7
:105AC000562697B50100938525311C143E95BDA837
:105AD00017E6FF1F0356E64497E6FF1F83D62645C9
