:04C000006F2000139A
:10C004000000000000000000900000208E090020C5
:10C01400A9BDF9F594000020000000000000000014
:10C02400960000209800002000000000000000009E
:10C034009A000020000000009C0000200000000086
:10C044009E00002026030020AA030020A400002054
:10C05400A6000020A8000020AA000020AC000020B8
:10C06400AE000020B0000020C60000205E010020C9
:10C074000A0A0020B8000020BA000020BC000020FA
:10C08400BE000020F60100208E020020C400002023
:10C0940001A001A001A001A001A001A001A001A094
:10C0A40001A001A001A001A001A001A001A001A084
:10C0B40001A001A001A001A001A001A001A001A074
:10C0C40001A001A001A037370040834747009946EB
:10C0D4004111BD8B638ED70231476386E706114752
:10C0E4006390E704A3030100174600000346861685
:10C0F40037370040834771006317F6022C00173569
:10C10400000013056526976001E0E780407809A8E0
:10C114008347570093F7F70F2304F1008347810007
:10C1240041017300203083477100834687000C0867
:10C13400AE97238CD7FE83477100850793F7F70FDB
:10C14400A303F10045BF280097D001E0E780002653
:10C154001375F50FA303A1000346710045B73737E4
:10C1640000408347474099464111BD8B638ED702F7
:10C1740031476386E70611476390E704A303010090
:10C18400174600000346260D3737004083477100E9
:10C194006317F6022C00173500001305251E97605F
:10C1A40001E0E780C06E09A88347574093F7F70F73
:10C1B4002304F10083478100410173002030834749
:10C1C4007100834687400C08AE97238CD7FE8347C3
:10C1D4007100850793F7F70FA303F10045BF28000B
:10C1E40097D001E0E780402E1375F50FA303A1005B
:10C1F4000346710045B73747004083474780994657
:10C204004111BD8B638ED70231476386E706114720
:10C214006390E704A3030100174600000346960356
:10C2240037470040834771006317F6022C00173527
:10C2340000001305E515976001E0E780406509A853
:10C244008347578093F7F70F2304F1008347810056
:10C2540041017300203083477100834687800C08B6
:10C26400AE97238CD7FE83477100850793F7F70FAA
:10C27400A303F10045BF280097D001E0E780803692
:10C284001375F50FA303A1000346710045B73747A3
:10C294000040834747C099464111BD8B638ED70246
:10C2A40031476386E70611476390E704A30301005F
:10C2B400174600000346E65A37470040834771009B
:10C2C4006317F6022C00173500001305A50D9760BF
:10C2D40001E0E780C05B09A8834757C093F7F70FD5
:10C2E4002304F10083478100410173002030834718
:10C2F4007100834687C00C08AE97238CD7FE834712
:10C304007100850793F7F70FA303F10045BF2800D9
:10C3140097D001E0E780C03E1375F50FA303A10099
:10C324000346710045B7411126C4B714004022C624
:10C3340003D4C409420441809317240163DB07003A
:10C34400A145014597B001E0E780E03F8967239E5E
:10C35400F4081374042015CC9747000083C71766AC
:10C3640093E7170017470000A30AF764B7170040C4
:10C3740003A7470A1377072015C303A7C70A136740
:10C38400072023A6E70AB717004013070020239EBF
:10C39400E7083244A24441017300203003A7870A0E
:10C3A4001367072023A4E70AF9BFB717004003D790
:10C3B400E70903D7E7099316370163D4060417473F
:10C3C4000000034727610507974600002384E660C1
:10C3D400174700000357C7591367074097460000E3
:10C3E4002398E6580567239FE70803A7470C85664B
:10C3F400131637016359060003A7C70C558F23A6EC
:10C40400E70C7300203003A7870C558F23A4E70C97
:10C41400CDBF411122C406C69737000083C7E77712
:10C42400174400001304C45495CB8347D404858B6C
:10C4340095C78357040013974701634107028D454D
:10C44400094597B001E0E7800030914517450000A9
:10C4540003452554971002E0E780808D974700003C
:10C4640083D7075113F7074005CF1397470163415B
:10C4740007028D45094597B001E0E780C02C91453E
:10C48400174500000345E550971002E0E780408A15
:10C494008357040093F7F7BF17470000231AF74C9C
:10C4A400B2402244410182804111814601468145C6
:10C4B400114506C6EF00A077B72700401147238334
:10C4C400E780B7F700E003A707D16D9B23A8E7D067
:10C4D40003A707D15D9B23A8E7D073005010010088
:10C4E4000100B240410182804111814681450146EB
:10C4F400114506C62D2FB727004011472383E78037
:10C50400B717004003C7E70283C5E70483D787034F
:10C5140091661377F70F93E5350063E5D700719BB8
:10C5240013671700B7170040130670052380C7046C
:10C53400930680FA2380D7040100010023820702B6
:10C544002380C7042380D704010001002387E70266
:10C554002387B7042380C7042380D7040100010084
:10C5640003C7B70413670702A385E70423800704FE
:10C5740037F700E0832507D193E545002328B7D09A
:10C58400832507D1DD992328B7D07300501001000B
:10C5940001002380C7042380D7040100010003C7DE
:10C5A400B7041377F70DA385E70423800704B2408B
:10C5B400410182800111B7F5070022CC8146E105D3
:10C5C4002A840A86194506CE26CA02C0231201000F
:10C5D400B92DB717004003C7E70283C5E70483D723
:10C5E400870391661377F70F93E5350063E5D7006A
:10C5F400719B13671700B71700401306700523805B
:10C60400C704930680FA2380D70401000100238223
:10C6140007022380C7042380D70401000100238775
:10C62400E7022387B70423800704B7F500E003A7D4
:10C6340005D11367470023A8E5D003D50702657722
:10C64400110713750560418D598D42054181010023
:10C654002380C7042380D7040100010003C7F70027
:10C6640037F40700B7F400E013670704A387E70073
:10C6740003C7B704610413670702A385E704239083
:10C68400A70283A704D1DD9B23A8F4D07300501024
:10C694000100010013056004352E81463000A28597
:10C6A400194502C423160100592322478247E31A7D
:10C6B400F7FCB7170040130770052380E70413073E
:10C6C40080FA2380E7040100010003C7B70413774D
:10C6D400F70DA385E70423800704F2406244D244A3
:10C6E4000561828001114EC681460146AA898145B1
:10C6F400114506CE22CC26CA4AC8152BB7160040CF
:10C7040083C7E60203C7E60483D68603116693F75C
:10C71400F70F1367370063E5C600F19B93E7170033
:10C72400371400401309700523002405930480FA8C
:10C7340023009404010001002302040223002405C1
:10C7440023009404010001002307F4022307E404F6
:10C7540023000404130550025920B7F700E003A78F
:10C7640007D11367470023A8E7D02300240523003B
:10C774009404010001000347F40013670704A307AE
:10C78400E40023002405230094040100010025672C
:10C79400B3E9E9002310340303A707D15D9B23A861
:10C7A400E7D0730050100100010081460146814525
:10C7B4001145B52923002405230094040100010038
:10C7C4008347640493E717002303F4042300040459
:10C7D400F2406244D2444249B24905618280B717AB
:10C7E4000040930670052380D704130780FA238042
:10C7F400E7040100010003C6B7041376F60DA38510
:10C80400C70423800704137605024DC203C6A7009C
:10C81400118A1DE22380D7042380E704010001006C
:10C8240003C7A700136747002385E7009307004B5E
:10C8340001000100FD17EDFFB717004093067005D6
:10C844002380D704130780FA2380E7040100010042
:10C854007D892394A70001000100010001002380C9
:10C8640007042380D7042380E704010001000100AA
:10C8740001003727004093061005A303D7802380C7
:10C884000704B7170040130770052380E704130754
:10C8940080FA2380E7040100010003C7B70413678B
:10C8A4000708A385E7042380070482801376050420
:10C8B40041C603C6A700418A1DE22380D704238012
:10C8C400E7040100010003C7A700136707012385DC
:10C8D400E7009307007D01000100FD17EDFFB71786
:10C8E4000040930670052380D704130780FA238041
:10C8F400E704010001001376F5011366060423948E
:10C90400C700010001000100010023800704238007
:10C91400D704130660042380E7046318C5000100EC
:10C92400010037270040894689BF010001003727ED
:10C9340000409306200591B72380D7042380E704A1
:10C944000100010003D787001367070C2394E70055
:10C954000DBF4111814601468145114506C6C12CD2
:10C96400B7170040130770052380E704130780FA04
:10C974002380E7040100010003C76704136717005D
:10C984002383E70423800704B24041018280814667
:10C99400014681451145612CB71700409306700587
:10C9A4002380D704130780FA2380E70401000100E1
:10C9B4007D562396C7022380D7042380E704010011
:10C9C400010003C76704136717002383E704238068
:10C9D400070401A0BD473305F50201007D1575FD6F
:10C9E4008280411122C426C206C6AA840144631768
:10C9F4009400B2402244924441018280050413050C
:10CA0400803E4204C13F4180DDB7B71700401307A1
:10CA140000032388E7028547174700002328F7FE11
:10CA240073002030397122DC4ED656D237140040C0
:10CA3400E57AB7F9070026DA52D45AD05ECE06DE7C
:10CA44004AD862CC2A8B916B93040404130A7005B0
:10CA5400910AE1098347E4020347E404835684030B
:10CA640093F7F70F1367370063E57601F19B93E7BC
:10CA7400170023804401130980FA23802401010054
:10CA840001002302040223804401238024010100C5
:10CA940001002307F4022307E4042380040037F78A
:10CAA40000E0832707D193E747002328F7D0835773
:10CAB400040293F70760B3E76701B3E75701C207BE
:10CAC400C18301002380440123802401010001006B
:10CAD4008346F400130CB40493E60604A307D400BD
:10CAE4008346B40493E60602A305D4042310F40297
:10CAF400832707D1DD9B2328F7D073005010010052
:10CB0400010013056004F9353000CE8581461945CE
:10CB140002C423160100212A11469745000093857B
:10CB240065EF280011231DD5930770052380F400B9
:10CB3400238024010100010083470C0093F7F70DC3
:10CB44002300FC0023800400F2506254D254425962
:10CB5400B259225A925A025BF24B624C2161828092
:10CB6400411106C6AD2D7530977001E0E780A0072E
:10CB7400D5BF2303048015472303E4800100230267
:10CB8400A480828083076480E3CE07FE23030480AD
:10CB9400828083076480E3CE07FE0345448082805D
:10CBA40083076480E3CE07FE2302A48082804111C0
:10CBB40026C44AC24EC006C61377F50BAD47AA89F0
:10CBC4002E8995446306F70019456537653F8D4402
:10CBD4004E854537FD59FD1463983401B240A24493
:10CBE4001249824941018280135509011375F50FD9
:10CBF400453F2209CDB7011126CC06CEB704080063
:10CC040051371545BD37713769372AC6A53F3245B7
:10CC14009377150089EB136515001375F50FF24032
:10CC2400E24405618280FD14E9FC0145CDBF397100
:10CC340026DC4ADA4ED852D656D45AD25ED006DE14
:10CC440062CE66CCB7E700E07D5783AA070022C610
:10CC540003AA470023A0E71823A2E718B717004048
:10CC6400130770052380E704130780FA2380E70481
:10CC740083C74704930B75FFB684E20793FBFB0F4E
:10CC84008546AA892E8B328937240040E1870157D3
:10CC940063FA76016308D50089461307000263131B
:10CCA400D5000157D98F93F7F70FB71C00402382A3
:10CCB400FC0411472303E4801305F00F5D3D094C88
:10CCC400D135636D7C11B7050700DA953787070006
:10CCD400795563F2E504B3879500636EF702370B69
:10CCE4000800A94733EB65016399F90689E4814497
:10CCF400513D26850DA0DA850945553D05090345B5
:10CD0400F9FFFD14050B693D81C49377FB0FFDF713
:10CD1400DD3569FD7D55B717004013077005238085
:10CD2400E704130780FA2380E70403C74704418B11
:10CD34002382E704F250B7E700E023A0571123A2AF
:10CD44004711E25432445259C259325AA25A125B20
:10CD5400825B724CE24C21618280A5476395F9069F
:10CD640085691309F00FB3069900B3742B01B694C7
:10CD74001349F9FFB3749900856B33796901416BE9
:10CD84009387F9FFB3F7270199E363FC340193D93F
:10CD94004900C147E3E637FF99BF0569C1697D19B9
:10CDA400D9B71305800D63886901130500026384F4
:10CDB400790113051008CA85DD3B353D21DD4E9907
:10CDC400B3843441D9B7DA852D45D533CA94E30009
:10CDD40099F205097D3BA30FA9FED5BF9387F9FFFF
:10CDE40093F7F70F6361FC0C83C71C041307300827
:10CDF400631FF70437070800636BEB04B3079B005A
:10CE0400B706100063F5D704334BEB0089476393EF
:10CE1400F9068980D549E38C04ECDA850945413B60
:10CE240011090327C9FF91472320E4800307648085
:10CE3400E34E07FE23033481FD17EDFBFD14110BB4
:10CE440081C49377FB0FE9FF7D3371F5E1B5B71723
:10CE5400004003C75704B70708001377070219E314
:10CE6400B78707007955E378FBEA33079B00E3FFB4
:10CE7400E7F855B58547E382F9F2DA852D45053B98
:10CE84009389F4FFE38504E6293393F7390091EBA2
:10CE9400832604800327090093074900E39AE6E404
:10CEA4003E89CE84F1BFB5476396F9001305900B14
:10CEB400C93135BDB1471305B00AE38BF9FE994773
:10CEC4006391F904B7050800B365BB002D45C5316E
:10CED40081448D4BA149753963967401832704807D
:10CEE4002320F9008504E39834FF83270480131773
:10CEF4002B01635507002312F900D5BB2322F90047
:10CF0400FDB39D476399F90281451305B00445318A
:10CF1400BD442320090023220900FD599D3993F7BC
:10CF24007400CA9703C70700FD14398D2380A70036
:10CF3400E39634FF6DBBA1476392F9046D398144D4
:10CF4400630D0B008D479304C0036308FB00930437
:10CF5400000563048B01930440041375C507E308BB
:10CF640095D81945393139390545213126850D3989
:10CF740009453D314931E31C05D669BB91476399A5
:10CF8400F90013056006F536F53E130590090DB753
:10CF9400E38F09D4F154A9BB19CD91CD09CE8147B2
:10CFA4003387F500834607003307F5008507230020
:10CFB400D700E317F6FE828019C991C909CA910501
:10CFC40083A7C5FF11057D16232EF5FEC5BF8280FC
:10CFD40001C919C62A960505A30FB5FEE31DA6FED1
:10CFE400828081473307F5000307070019E33E8574
:10CFF40082808507C5BF01112E8626CAAA8413150F
:10D0040006019305F004418122CC06CE32C6EF001E
:10D0140010762A8401C53246A685BD3F2285F2409A
:10D024006244D24405618280854715C18DC105C221
:10D034008147B306F5003387F50083C6060003472E
:10D0440007006398E6008507E315F6FE85473E85ED
:10D0540082808147EDBF9307F6FFBE952A9663133E
:10D06400C5008280FD1583C715000505A30FF5FED5
:10D07400FDB7AA87014581CF09CE3E96850703C730
:10D08400F7FF6317B700E39BC7FE054582808280E4
:10D09400014582807971975700009387E71F22D456
:10D0A400804306D626D24AD04ECE52CC56CA5AC84F
:10D0B4005EC662C45DCC37C9C901814B175A0000F2
:10D0C400130A0A22975400009384441D1309F93764
:10D0D400975A0000938A0A17B709C0A8370B40571C
:10D0E4008357240095E35C44639D0B0017570000AD
:10D0F4002324F71A032CC4002285EF007074628481
:10D1040099A823A6FB00FDB783270A00829783868C
:10D1140064011C4463DB06063307F5406367E908D2
:10D124009757000023A807128355240003450400E1
:10D13400970002E0E780C0BF5C405844A9CF144484
:10D14400B6978386640163C5060063E33701DA9703
:10D154001CC4A28B3A8449F4975700009387870E26
:10D164009C4B09476378F706F917175700002323E8
:10D17400F70EB250225492540259F249624AD24AEA
:10D18400424BB24B224C45618280E377F5F83387FA
:10D19400F9402A9761B763970B009757000023ADB6
:10D1A400E70E89BF23A6EB00B1B7D85009CF63DFE0
:10D1B40006003385A74083A70A016376F5009757D5
:10D1C400000023A9A708A28B404471B7E3F3A7FE8C
:10D1D400CE97C5B79757000023AE070659BF411134
:10D1E40022C4175400001304E4081C4006C626C2D7
:10D1F4004AC091C782979757000023AD07065C4049
:10D2040091C382971C406390071C9757000083C703
:10D214003721858B95C797570000A383072017579D
:10D22400000003471720954763FCE700352B975709
:10D23400000083C7171FF5178A07A2979C4382979C
:10D2440017590000130989218347C900918B99C399
:10D25400EF0050451C4491C3829797540000938477
:10D2640064039840175600000346D6FD9757000004
:10D2740083C747FD93961700BA9683D60600D5CA8E
:10D284009757000083C707FC63EFC70A975700004E
:10D29400238A07FA1C40639807129757000083C734
:10D2A400771891CF9757000083C7B71789EB975723
:10D2B4000000A3890716971002E0E780801E9757A5
:10D2C40000009387E7019C43638F070EB707C0A84C
:10D2D400175700002320F7F8753B975700009387F2
:10D2E400E7FBDC53EDC3175700001307A7F5184BF2
:10D2F4009757000083C7D7FB6367F70C17570000E5
:10D3040003473712954763E0E70C8347C900918BC5
:10D31400DDEB90409756000083C6D6F263CBD70A64
:10D324002244B240924402494101170302E06700DB
:10D33400038D850793F7F70F975600002384F6F0C3
:10D34400E3E6C7F235BF86073E97835507002310EF
:10D35400070097570000239D07F297570000938713
:10D3640027F19C43175500000345C5ED131725000D
:10D37400BA979C4382979757000083D767F1175752
:10D384000000034727EC93C7F7FF7D8D9317170021
:10D3940098403E97835707005D8D2310A700975749
:10D3A400000083C727EA91C7850717570000230B9E
:10D3B400F7E8175700000347E7E89757000083C7CB
:10D3C40077E8E375F7ECB240224492440249410104
:10D3D4008280139717003297035707006DF785076C
:10D3E40035BFAD6737C70040BD072326F7200F10B0
:10D3F4000000975700009387E7E4C84F83278726E8
:10D40400BD66BD0693C7F7FF99836A052326D72017
:10D414005D8D82804111B7170040985F3AC6945FD2
:10D424003247E39CE6FE324541018280828001114D
:10D4340022CC175400001304240018402AC62EC41A
:10D4440032C206CE3C4B93F7F7F73CCB971002E081
:10D45400E780E001184097560000938626FB3C4B7A
:10D4640093E707083CCB9C423245A24523A0070022
:10D474000347150003482500220742084297034842
:10D4840005004297034835006208429798D703473E
:10D4940055000348650022074208429703484500A7
:10D4A40042970348750062084297D8D7034795000E
:10D4B4000348A50022074208429703488500429783
:10D4C4000348B5006208429798DB0347D500034838
:10D4D400E5002207420842970348C5000345F500CA
:10D4E400429762052A97D8DB03C7150003C52500B8
:10D4F400220742052A9703C505002A9703C535006C
:10D5040062052A9798CF03C7550003C56500220713
:10D5140042052A9703C545002A9703C5750062058D
:10D524002A97D8CF03C7950003C5A5002207420553
:10D534002A9703C585002A9703C5B50062052A9773
:10D5440098D303C7D50003C5E500220742052A97EF
:10D5540003C5C50083C5F5002A97E2052E97D8D3E5
:10D56400D843759BD8C3D84313671700D8C39843CF
:10D574001367170098C3124698425C43858BD1E722
:10D584001C4F01452300F6009C429C4FA183A3003D
:10D59400F6009C429C4FC1832301F6009C429C4FA1
:10D5A400E183A301F6009C42D84F2302E600D84F42
:10D5B4002183A302E600D84F41832303E600D84F1A
:10D5C4006183A303E60098532304E6009853218360
:10D5D400A304E600985341832305E600985361832E
:10D5E400A305E600D8532306E600D8532183A306F7
:10D5F400E600D85341832307E600DC53E183A30705
:10D60400F600F2406244056182800100B5B7175705
:10D6140000001307E7DF1443411122C49C5E4AC093
:10D6240006C6998326C2858B3A84175900001309CC
:10D63400E9DDD1CB9C5E97540000938424DE93F7FC
:10D64400F7F99CDE175700000347A7DD930700088E
:10D65400631BF700832709009C4393F707041757BC
:10D6640000002300F7DC83C7040093F707049DC37D
:10D67400975700009387C7C69C438297975700002B
:10D6840023A6A7DA83C7040093F7F70B1757000004
:10D694002306F7D883C7440093F707048DE785472B
:10D6A40017570000A30EF7D6975700009387C7D8E3
:10D6B4009C43096798C7130700FC97560000238111
:10D6C400E6D6D844F8D31C40985F1183058B09CB68
:10D6D400985F3D9B98DF0547975600002382E6D468
:10D6E400985F1D83058B11CB985F1377F7F798DF4D
:10D6F4008547175700002305F7D283270900D8432D
:10D704000583058B19C7D843759BD8C3D843799B28
:10D71400D8C3B24022449244024941018280397103
:10D7240006DE16DC1ADA1ED82AD62ED432D236D029
:10D734003ACE3ECC42CA46C872C676C47AC27EC0CD
:10D74400F935F250E2525253C2533255A255125691
:10D7540082567247E2475248C248324EA24E124F96
:10D76400824F216173002030975700009387C7CC04
:10D77400944397570000938767CA03C70700058B34
:10D7840011CB97570000238D07C897570000A38932
:10D7940007C8828003C71700058B65F7F85271FF2D
:10D7A40083C75700DDB717580000130868C603275E
:10D7B40008001C5F9583858BD1E709C61C5BBD837C
:10D7C4002300F60085CA83270800985B4607935711
:10D7D40067016356070093E707C0C207C183039735
:10D7E4000600C207C18709C7BA970947B3C7E7024A
:10D7F4002390F60085CD834715008DCB9756000006
:10D8040083C626C293F606041387970089478DCAF8
:10D814003A9503470500854699471376F706631141
:10D82400D60262076187B947634C07008327080063
:10D834009C5FED838D8B17570000A306F7BE8147CD
:10D844003E8582808547EDBF411122C406C6175428
:10D854000000130464BE184049E9AE877453FDFE0A
:10D864003E85B28597570000238B07BA971002E0D4
:10D87400E780409B97570000938787B99C43B7067E
:10D8840080009843558F98C3D857719BD8D7975722
:10D894000000A38707B897570000A38107B81C406E
:10D8A400094798C3B7F700E003A707D16D9B23A8E6
:10D8B400E7D003A707D15D9B23A8E7D073005010DE
:10D8C400144017570000130767B583472700858B5B
:10D8D40089EB83473700858BD9C79757000023818D
:10D8E40007B4B2402244410182808D476310F5029F
:10D8F400975700009387C7B19C43B70680009843AD
:10D90400558F98C3D857719BD8D75DBF8547E31906
:10D91400F5FAB567BD075CC70F1000001C40096726
:10D92400094698C7130700F897560000238AE6AE05
:10D93400175700001307C7AD1443984231830D8B6A
:10D944006319C7001307E043F8D33D673D07D8C701
:10D9540085BF984231830D8B01E713076019EDB73A
:10D964001307E01BD5B7FC52ADF3A5BF5D7152DCC4
:10D97400175A0000130ACAA903270A0086C6A2C4BC
:10D98400A6C2CAC04EDE1C4397590000938989AFD2
:10D9940017590000130949AA93F7F7E793E7070813
:10D9A4001CC383A609003707CEFF7D179C461306C8
:10D9B40080022A84F98F9CC6832709001307000874
:10D9C4002800B8CBAE8493051008EFF06FE09710F1
:10D9D40002E0E780C0A9971002E0E780C0B6832781
:10D9E4000A009376F41F370FFCFF23A40700984B1B
:10D9F4004E88CA881367F70398CBF84F130510F8BD
:10DA0400D285137707E0558FF8CF9843F576FD1646
:10DA1400758F98C39843B7063300B7020400137791
:10DA2400F7E798C398439303401F7D1F1377F7E7E5
:10DA34001367071098C303A70900930F8002854951
:10DA44001C47D58F1CC7832709001307900D34008A
:10DA5400B8CB11490147135337002693834703007A
:10DA640013767700B3D7C740858BDDCF9C41832ED7
:10DA74000800239C07042390070603AECE02137EFE
:10DA8400DEFF23A6CE0383AE0700137EF70793FEC3
:10DA94000EF833EECE0123A0C70103AE4702336E66
:10DAA4005E0023A2C70383AE0800014E23A27E06B4
:10DAB40003DA070663074E0303AE0703038A06006F
:10DAC400135EFE00620E135E8E416358CA0103AEFC
:10DAD4000703135EFE002380C60103DE0706137EE0
:10DAE400FE0F03AA4E0663060A0003DA8705E37FE6
:10DAF40049FB03AE4702337EEE0123A2C7038387AB
:10DB04000600635CF400034E03003396C900134619
:10DB1400F6FF3376C6012300C3003E8663D3A70015
:10DB24002A8613158601618505071377F70F850685
:10DB3400E313F7F3B640264496440649F259625A71
:10DB440061618280975600009386068F9C42D84775
:10DB540013161701635506029847131617016350ED
:10DB640006027D57B8D7174700001307A76D584F13
:10DB74000507174600002325E66E116798C79847E6
:10DB84000D83058B1DC3175700000347478913678F
:10DB94001700175600002304E688130700F81756E9
:10DBA4000000230FE686214798C79847058B09CFC5
:10DBB400175700000347978613671700175600008E
:10DBC400A30EE684054798C798470983058B09E7A0
:10DBD40098470583058B31CF9847175600001306E5
:10DBE400E683175500001305A5820983058B63039B
:10DBF40007101841184331830D8B75EBAC4B184E4D
:10DC040093F5050203471700CDCD79EF130770068E
:10DC1400D8CF034706001367170017460000230FE9
:10DC2400E67E114798C718415C57F19B93E71700AC
:10DC34005CD79C4298479316370163D606029756E1
:10DC4400000083C6E68CC18A1757000013070785B6
:10DC5400C5CE034747071367070297560000238979
:10DC6400E68A056798C798479316270163D1060289
:10DC7400174700000347C77A6207618763570700A5
:10DC8400054797460000238DE678096798C79847AB
:10DC94009316070163D606029756000083C656877B
:10DCA400858A174700001307677FADCE03475707E0
:10DCB4001367270097560000A38CE684216798C752
:10DCC400828029D785456315B7001307B00689B745
:10DCD40089456315B7001307F0061DBF8D4563150D
:10DCE400B700130730072DB71307500715B71307ED
:10DCF400600739BF03473600136717001746000053
:10DD0400A30FE670094739BF834647070946BD8A12
:10DD14006388C600034747078D463D8BE313D7F45A
:10DD2400114725BF83465707918AC9DA0347570726
:10DD34001367870041B7397106DE16DC1ADA1ED87C
:10DD44002AD62ED432D236D03ACE3ECC42CA46C897
:10DD540072C676C47AC27EC0F533F250E252525390
:10DD6400C2533255A255125682567247E247524860
:10DD7400C248324EA24E124F824F216173002030AE
:10DD8400174700001307876B8346B70197470000C6
:10DD940083C7976D4C4BB697FD8B33D7F5009746E9
:10DDA4000000A38DF66897460000A38FF66A058BE2
:10DDB40015EF174700000347776BB3F7E702814677
:10DDC40001471305000233D6E500058A1378F70FDF
:10DDD40019CA6397D70097470000A3810767828019
:10DDE400850693F6F60F0507E31FA7FC8280974785
:10DDF40000009387E74E9C43011122CC4EC606CE09
:10DE040026CA4AC852C456C28297974700009387CD
:10DE1400E764804781496305A406BE8497470000F0
:10DE24009387C747038767013E8963550706018DBA
:10DE3400135455009747000083C7E7619379F501B0
:10DE4400636DF402370AC0A8B70A4057153F9C44D3
:10DE54009746000083C62660139756003E978307B3
:10DE64006901158C63C5070063634701569797479B
:10DE7400000023A9E75EE37BD4FC1604B3693401F4
:10DE8400F24062444E85D2444249B249224A924AFF
:10DE940005618280E37D85F8B707C0A83384874095
:10DEA400229579B797470000938787439C43411194
:10DEB40022C406C626C28297974700009387075A52
:10DEC40080476309A406BE84974700009387073DF3
:10DED4008387670163D80704018D1354550097475E
:10DEE400000083C747576367F404593D9844974734
:10DEF400000083C747569396570036971D8C974664
:10DF0400000023A1E656E372F4FE2244B240924498
:10DF1400174500000345955281454101170302E06E
:10DF24006700E37DE37A85FAB707C0A833848740A6
:10DF3400229565B7B24022449244410182809747BA
:10DF44000000938727549843B75702009387079F8D
:10DF5400832607091396560063580600832607098B
:10DF64001396660063440600FD17FDF3828071C5B5
:10DF7400AA870145E9C58D07C207C183F19BC20782
:10DF8400C18313074003636FF702174700001307A9
:10DF940067500843174700001307474F144363981B
:10DFA400A602174700001307672F185B014541CBF2
:10DFB4004111C20706C60545DD8D0297B2400145F1
:10DFC40041018280174700001307874CD9B70357D4
:10DFD400650035E303574500636FF704B306F74064
:10DFE4002146637CD60203280500938687001D8F93
:10DFF400AA96611717460000035626252392E600C9
:10E0040023A006012393060014C12312F50013076D
:10E0140086FF97460000239AE6222313B50097450E
:10E02400000083D58522B387F54017470000231EDF
:10E03400F7202105828008419DB7014582808280B6
:10E044000DC1974700009387E74403A30700974750
:10E0540000009387A74383A8070081469A8763E358
:10E064001701828003A80700636DF50A636BA80A91
:10E0740013878700E367E5FE03D66700216705077A
:10E084006317E60003C7318B0507A389E18A974527
:10E0940000009385251B03D6470003D7650023930F
:10E0A400070032974207418317450000231FE518F4
:10E0B400638A6702174500001305853D0841630321
:10E0C400F50203D5660019ED83D7460023A00601A7
:10E0D40021073E9621062392C60097470000239607
:10E0E400E716B6879843E30E17F797460000938622
:10E0F400263A9442E307D7F683566700BDF283D6E7
:10E104004700035647001843A106B2962392D7004E
:10E1140098C383D76500A107174700002317F71298
:08E124008280BE86C28725BF80
:10E130009751FF1F938101A217A1FF1F130181ECCB
:10E1400017E5FFFF130545EC9725FF1F938585EB2A
:10E150001746FF1F130686FD63FAC50083220500DC
:10E1600023A0550011059105E3EAC5FE171502002D
:10E17000130505109745FF1F938545FB1386018204
:10E1800063FAC5008322050023A0550011059105FF
:10E19000E3EAC5FE138501829785FF1F9385C5417C
:10E1A0006377B500232005001105E36DB5FEFD4240
:10E1B000739002BC8D4273904280B722000093821C
:10E1C000828873A002309722FF1F9382A2E393E21A
:10E1D000320073905230970201009382E29773905D
:10E1E0001234730020303D432A876373C302937750
:10E1F000F700BDEFADE5937606FF3D8ABA960CC3F6
:10E200004CC30CC74CC74107E36BD7FE11E28280B9
:10E21000B306C3408A069702000096966780A60060
:10E220002307B700A306B7002306B700A305B7006E
:10E230002305B700A304B7002304B700A303B70066
:10E240002303B700A302B7002302B700A301B7005E
:10E250002301B700A300B7002300B700828093F525
:10E26000F50F93968500D58D93960501D58D61B7F1
:10E27000939627009702000096968682E78086FA9A
:10E280009680C1171D8F3E96E374C3F8A5B7336718
:10E29000B500FD530D8B79E7B7877F7F9387F7F73D
:10E2A00010419441B372F6003363F600BE92B3E2BC
:10E2B00062006397720C6318D6065041D441B37262
:10E2C000F6003363F600BE92B3E262006398720A0E
:10E2D000631BD60410459445B372F6003363F60011
:10E2E000BE92B3E262006391720A631ED602504589
:10E2F000D445B372F6003363F600BE92B3E2620017
:10E30000639A72086311D60210499449B372F600F9
:10E310003363F600BE92B3E2620063937208510564
:10E32000D105E30FD6F61317060193970601631C78
:10E33000F7001357060193D706013305F74093758D
:10E34000F50F91E982804183C1833305F7409375CE
:10E35000F50F91E182801377F70F93F7F70F3305ED
:10E36000F74082800346050083C605000505850544
:10E370006313D60065FA3305D640828011059105F6
:10E38000E312D6FE014582802105A105E31CD6FCDF
:10E39000014582803105B105E316D6FC0145828036
:10E3A0004105C105E310D6FC0145828001471146B5
:10E3B0004148B386E5008147B308F50083C80800EB
:10E3C0008507C10623A816FFE398C7FE11071105AC
:10E3D000E31107FF8280935785019CC19357054144
:10E3E00093F7F70FDCC19357854093F7F70F137539
:10E3F000F50F9CC5C8C582801C414111130705015A
:10E400003EC05C413EC21C453EC45C453EC693973F
:10E4100025001408B69783A707FF85051105232E4D
:10E42000F5FE8D89E315E5FE41018280397122DC1C
:10E4300041661384418C06DE26DA4AD84ED652D481
:10E4400056D25AD05ECE93050501A2863708FF004A
:10E450007D1683070500034735001105E207D98FB4
:10E460000307D5FF9106420733770701D98F0307CA
:10E47000E5FF2207718FD98F23AEF6FEE39BA5FC43
:10E4800081499144930A010117DB0100130B0B9D95
:10E4900097DB0100938B0B9A130AC00293F73400A9
:10E4A000032904004844BDE78A85353785450A8538
:10E4B000A1370A871C43110793F6F70093F7070F5C
:10E4C000DA97B69783C70700232EF7FEE394EAFE98
:10E4D000024592476205C2075D8DB2475D8DA24736
:10E4E000A2075D8D93972900DE979C4385093D8D9A
:10E4F0003345250108C885041104E39144FBF2501B
:10E500006254D2544259B259225A925A025BF24B87
:10E51000216182803345A90008C8F1BF797122D4F6
:10E5200026D24AD04ECE52CC56CA06D62A8A9399C3
:10E5300045000144938A418C13090101C144B3078A
:10E540003401D69788438A85793533078A008A87CC
:10E550001443904391074107B18E2328D7FEE399D6
:10E5600027FF1104E31D94FCB25022549254025927
:10E57000F249624AD24A45618280397122DC130431
:10E58000050106DE22878147C1460C433306F100B0
:10E5900011070CC24C4710083E960CC24C4F10108D
:10E5A0003E960CC29107E392D7FE85450A85A935B0
:10E5B0008945080891358D4508103D3D8147414703
:10E5C000B306F10094421104232ED4FE1408BE9623
:10E5D000944254C41410BE969442910754CCE391D3
:10E5E000E7FEF250625421618280060593770510A0
:10E5F00089C71375F50F1345B5018280411106C611
:10E60000ED37B2404101D5B781471148C148338643
:10E61000F500B306F500014703AE06003303E6003C
:10E6200005072300C301C106E31807FF9107E39024
:10E6300017FF82809306050117D601001306068294
:10E6400013050505138706FF1C43110793F5F70013
:10E6500093F7070FB297AE9783C70700232EF7FEF5
:10E66000E394E6FEC106E31FD5FC8280411122C47B
:10E6700006C626C285472E846301F50289476318C2
:10E68000F5002244B24092442E854101B9BF8D4726
:10E69000631BF5002E85913F298C2285B2402244D0
:10E6A000924441018280A5476315F5002E85B93754
:10E6B000DDB7AD47631AF5002E8589373D37AA844B
:10E6C00022852537258DC9BFB5476316F5002E85F0
:10E6D0003537AA84FDB7B947E311F5FC2E85393FDC
:10E6E000AA842137A98C228509373344950075B750
:10E6F0006382051493F7F500639E07121571D6C364
:10E70000AA8A3285A2CDA6CB86CFCAC9CEC7D2C52A
:10E71000DAC15EDF62DD66DB6AD96ED73284AE8431
:10E72000EF90C112C147631EF500228501330149F4
:10E73000130A010697DB0100938B4B86294C63413A
:10E740009902FE406E44DE444E49BE492E4A9E4A1E
:10E750000E4BFA5B6A5CDA5C4A5DBA5D2D618280C1
:10E76000338B2A010C105A859131814508107D3375
:10E7700085490810C135081009351C10D2863E871E
:10E7800010434107C10623A8C6FE032647FF23AA5C
:10E79000C6FE032687FF23ACC6FE0326C7FF23AEB3
:10E7A000C6FEE31FEAFC17C701001307277B0328F7
:10E7B0000700832D4700032D8700832CC700528458
:10E7C000138607010C4042853ECE3ACC32CA42C87D
:10E7D000713D0C482AC66E85513DB2460C5011045D
:10E7E000A98E6A8536C65935B2464C54A98E6685BF
:10E7F00036C6AD3DB246F2475246358D88C39107C5
:10E8000042486247E310F6FC4107B287E391EBFA16
:10E81000CE85081085091933E39D89F50810193D47
:10E820000810A13BA9450810D539DA850810E93B45
:10E83000410931B782809307F00F6384F60A2D7186
:10E84000232A911023282111B28423263111130683
:10E8500000102E89AA89930530020A85232E1110F3
:10E86000232C811036844132A2852685EFB0D02931
:10E8700013178500935785003365F7002310A10017
:10E88000A6852286130531009304340023018100FC
:10E8900093F4F40FEF80612493F6F40089C64D04DD
:10E8A000158C9374F40F1C02A697A6850A8517C6CB
:10E8B00001001306A66E238007F01D3D26868A857B
:10E8C0004E85EF808121230099008320C11103240C
:10E8D000811183244111032901118329C11015617C
:10E8E00082808280411106C6EF703026B240AA862F
:10E8F00017C70100130787701756FF1F13068611ED
:10E9000097C501009385C570114541016FB0D0399D
:10E91000130101DB23248124232021252326112414
:10E9200023229124232E3123232C4123232A5123D4
:10E930002328612303470500930710042A892E84A6
:10E940006315F7680347150093074005631FF766D3
:10E95000034725009307E0056319F7662E86AA850D
:10E960002545EFB050291306D003A2854A85EFB0A4
:10E970003042AA84635A05003546A2854A85EFB025
:10E980003041AA84634405089389D4FF9307100398
:10E9900063CE37074E86930539002808EF80F16E65
:10E9A0001C1CBE9917DA0100130ACA94238409DEDD
:10E9B000D28A81494D4B83254A002808EFB0103791
:10E9C0000DC18E09D69983D709004947636FF700B7
:10E9D00017C701001307C75D8A07BA979C43BA9708
:10E9E00082878509210AE39869FD97D501009385FF
:10E9F000A58FDDA89305F4FF858D13851400C2054E
:10EA000081460146C1814A95EF20104F8320C124E1
:10EA10000324812483244124032901248329C1233D
:10EA2000032A8123832A4123032B01231301012578
:10EA300082807D1493871400B3049440C2043E99ED
:10EA4000C1802686CA85E800EFB0F05C1305D104CA
:10EA5000EF80D15F93150501C1811305D104EFB09B
:10EA6000106897C501009385E55B1305D104EFB0ED
:10EA7000F02B19CD97C501009385455B0545EFB097
:10EA8000700C1765FF1F034575EFEF504045BDBF84
:10EA900097C501009385C55A1305D104EFB010291D
:10EAA00019CD97C501009385255A0545EFB090090A
:10EAB0001765FF1F034595ECEF50204581BF97C5B3
:10EAC0000100938565591305D104EFB0302619CDA7
:10EAD000371700408327C70A856697C501009385CD
:10EAE0002558D58F2326F70A254501A697C501008D
:10EAF0009385C5571305D104EFB0502311CD3717B7
:10EB000000408327870A856697C50100938585564F
:10EB1000D58F2324F70AC9BF97C5010093850556F1
:10EB20001305D104EFB0902011CD37170040832793
:10EB3000C70AA16697C5010093850555D58F232681
:10EB4000F70A5DB797C50100938505551305D104F4
:10EB5000EFB0D01D11CD371700408327870AA1667B
:10EB600097C5010093850554D58F2324F70AADBFBF
:10EB700097C50100938505541305D104EFB0101B10
:10EB800005C1B716004083A7860A056713070780EB
:10EB9000D98F23A4F60A97C5010093856552A9B7BA
:10EBA00097C50100938585521305D104EFB0101865
:10EBB00005C1B716004083A7C60A0567130707807B
:10EBC000D98F23A6F60A97C501009385E55029BF82
:10EBD00097C50100938505511305D104EFB01015B9
:10EBE00011C59767FF1F23AB07DA0DB597C5010065
:10EBF000938505501305D104EFB0501301C5EF50B4
:10EC0000301329B597C501009385454F1305D104ED
:10EC1000EFB0D01101C5EF606001CDBB97C5010019
:10EC20009385854E1305D104EFB0501001C5EF5008
:10EC3000901AE9BB97C501009385C54D1305D10412
:10EC4000EFB0D00E01C5EF803078C9B397C5010091
:10EC50009385C54C1305D104EFB0500D09C505458A
:10EC6000EF80E07765B397C501009385A54B130549
:10EC7000D104EFB0B00B19C10145DDB797C5010054
:10EC80009385C54A1305D104EFB0500A11C937174F
:10EC900000408327C70A9166D58F2326F70ABDB3A4
:10ECA00097C50100938505491305D104EFB01008FD
:10ECB00011C9371700408327870A9166D58F23240F
:10ECC000F70AA9B397C50100938545471305D104F9
:10ECD000EFB0D00511C5A6854A85EF6080023DB32F
:10ECE0000346D104A547130606FD1376F60FE3EF9E
:10ECF000C7D09767FF1FA38BC7C897C5010093852F
:10ED00006544EFB0607A19B31306F4FF058E1385DE
:10ED100014004206418297D501009385E5F14A959A
:10ED2000EFB090141764FF1F130484C41DC505457C
:10ED3000EF10901B97C50100938505421145EFB078
:10ED4000606083570400414593E717001767FF1F72
:10ED50002310F7C2EFC0401F55B997C50100938536
:10ED600065401145EFB0005E7D55EFC0C020835770
:10ED70000400F99B1767FF1F231CF7BE41B99D369E
:10ED800071B11306F4FF058E13851400420641820B
:10ED900097D50100938545EA4A95EFB0F00C1764CA
:10EDA000FF1F1304E4BC29C58357040097C5010065
:10EDB0009385053CE80093E717001767FF1F2319A9
:10EDC000F7BAEF809127E800EF805128131605016C
:10EDD000EC0041821745FF1F1305C55CEF80A00EB4
:10EDE00097C501009385853A1145EFB0A05539B913
:10EDF00097C501009385453AE800EF801124E800AB
:10EE0000EF80D12413160501EC0041821745FF1F46
:10EE100013054559EF80200B8357040097C5010067
:10EE200093854539F99B1767FF1F2313F7B46DBF0F
:10EE3000EF7040109767FF1F938787B3E843EF7029
:10EE4000F11DAE862A8697C5010093856537114569
:10EE5000EFB0806565BEEF5020204DBE17D6010093
:10EE6000130606DE97C5010093854536114551BD51
:10EE7000EF70C05197C501009385053635F597C5EC
:10EE80000100938565368DB73145EF80B039AA848E
:10EE9000EF70D1182A86AE86254597C50100938567
:10EEA000E535EFB0606097C7010093876717884327
:10EEB000A6851754FF1F130424CEEF70C12B232007
:10EEC000A422EF70A05303250422EF703115AE8603
:10EED0002A8697C501009385253395BF81450D4549
:10EEE000EF509043EF70A0452A8697C501009385A7
:10EEF0006534ADBF81452D45EF5010428145130566
:10EF00005004EF50704197C501009385A5333145FA
:10EF1000EF509040EF7000432AC6EF706043B24656
:10EF20002A871756FF1F1306E6AE97C50100938583
:10EF3000A5311145EFB04057D1BC1757FF1F0357FC
:10EF400047E79756FF1F938636CF1756FF1F1306C6
:10EF500066AC97C5010093856531E1BF85471757BA
:10EF6000FF1F2301F7E6EF70604997C50100938505
:10EF700025319DBD1757FF1F0347C7E4854797C538
:10EF8000010093856530E311F7E6C5B79767FF1F6A
:10EF90009387079EA843EF707108AE862A8697C5AF
:10EFA00001009385E52E65B5B717004083A7470A92
:10EFB00097C501009385052F93F70720E39607E295
:10EFC00097C501009385053005B50146A2854A85A0
:10EFD000EF50D01525BC411122C421649305048053
:10EFE00099460146254506C69720FF1FE78060C465
:10EFF000930504802244B240994613860182294534
:10F0000041011723FF1F6700C3C299E101458280B8
:10F0100075DD011152C403DA418226CA93548A0075
:10F020008504A204C204C18056C2B38A4441C20A04
:10F0300022CC4AC82E862E842A8997C50100938542
:10F04000254F254593DA0A014EC606CE93890182E3
:10F05000EFB0804563ED8A0883D5418293F7F50FC1
:10F06000B1CF8D6783D5418293870780A2864A8678
:10F07000BE9529459720FF1FE780A0BB1375F50FAC
:10F0800029ED83D749001566A2972392F18203D711
:10F09000418283D721826309F70063F3E700B297C7
:10F0A000998F139607014182254597C501009385E5
:10F0B000A549EFB0603F1375F40F0DA08D679387DE
:10F0C0000780930600100146BE9525459720FF1F37
:10F0D000E78020B61375F50F49D50145F24062442B
:10F0E000D2444249B249224A924A05618280B3071A
:10F0F0009440D297C207C183A18303C74900850703
:10F1000093F7F70F9396870011EB9386170093748C
:10F110000AF0A206C204C206C180C18283D721823E
:10F1200063F6F40033879600E3C9E7FA0D6A130A21
:10F130000A800146B385440125459720FF1FE780DB
:10F1400040AF1375F50F51F983D54182A2864A86E7
:10F15000D29505B7411122C41384018222858145CD
:10F16000194606C69720FF1FE780C0E69307B0FA4E
:10F170002300F4008D352244B24097C501009385E9
:10F18000A533254541016FB0E01BA16541119946AA
:10F1900013860182938505802D4506C69720FF1FA3
:10F1A000E78020A903C701829307B00A6303F70031
:10F1B0005537B24083D6418203D6218297C50100DC
:10F1C00093854530254541016FB0002E83D7419787
:10F1D0000145638C071003D561976366F50023AA88
:10F1E0000196014582803385A740D1473355F5020A
:10F1F0001375F50F01E5239A01968280130101BD75
:10F200002324814223261142232291422320214399
:10F21000232E3141232C4141232A51419547137418
:10F22000F50F63F3A7001544228697C50100938567
:10F2300065332545EFB04027014981449389819783
:10F24000514AA14A9377F90F03D561971757FF1FCA
:10F25000034717AB63E98704D1473304F4022A94C8
:10F26000239B8196A147631CF706A6850808EF300B
:10F27000707703D7619783D7419705456364F7009B
:10F2800023AA01968320C142032481428324414260
:10F29000032901428329C141032A8141832A414133
:10F2A000130101438280B30749031408AA97CE973C
:10F2B00033859600631E5701BE85EF402012231749
:10F2C000A1008357E1000509BE94C204C1809DBF1F
:10F2D000AA851306E1003E85EF90A04BDDB7268698
:10F2E0000C080145EF60A01869B78280011106CEB5
:10F2F00022CC26CA4AC84EC691E901442285F24072
:10F300006244D2444249B24905618280AA8975D5D6
:10F3100083D7418203D621822E849564638AC700F5
:10F320006374F60015673A961D8E93140601C1802A
:10F33000268697C50100938525152545EFB0C01693
:10F34000938714F06356F4009307F00F63EA970075
:10F3500097C501009385C5142545EFB0E01471BF32
:10F3600083D4418233878400956763C7E700A28511
:10F370004E8561398D3159B7156933099940420974
:10F3800013590901CA854E85493125D9ED75A695D0
:10F39000A295C20523920182C18133852901D1BF83
:10F3A00083D6419781EA97C501009385E5152545E8
:10F3B0006FA0507903D661974111918E97C50100D6
:10F3C00093858515254506C6EFB0000E1387419736
:10F3D0008355070083D76197138581979D8DC2055B
:10F3E0003E95C1812137B24023AA01964101828016
:10F3F000411183D7419722C426C206C6AE97130790
:10F40000401FAA842E84635AF700593F97C5010014
:10F410009385450D2545EFA0F07283D7419713855D
:10F4200081972286A6853E95EF70216B03D6419782
:10F43000229642062244B24092444182239AC196C7
:10F4400097C501009385850B254541016FB0C00527
:10F45000011126CA06CE22CC4AC84EC652C456C294
:10F46000814459C1D1C183D7218203D44182638DA4
:10F47000870663F587081D8C42044180AE892A897E
:10F48000228697C501009385A5FC0145EFB0C00118
:10F49000A28463F38900CE84C2040D6A83D72182DB
:10F4A00003D74182C180938A0182130A0A8063FADA
:10F4B000E704A6864A86B38547012D459710FF1FAE
:10F4C000E780207783D72A00A6972391F182EFF077
:10F4D0009FB083D6418203D6218297C501009385D0
:10F4E00065F82545EFA0507CF240624426854249EC
:10F4F000D244B249224A924A0561828015673A9401
:10F500009DBF15671D8FB385470163D5E400A686AF
:10F510004A8665B79569B389F9406D743E94C2090E
:10F5200093D909012694CE864A8642042D45971028
:10F53000FF1FE78000704180A28633063901D28523
:10F540002D45239101829710FF1FE780806E83D79E
:10F550002A003E94239181829DBF1841938701FB2D
:10F56000104598C303574500544590C72392E700C0
:10F5700058551049D4C7544998CF97C50100938571
:10F5800025130547254590CBD4CB238EE7006FA0EC
:10F59000705B397126DA4AD84ED652D456D25AD038
:10F5A00006DE22DC62CE66CC2A89EF80212A9374A3
:10F5B000F50F8149254BE54A17CA0100130A0AFCD9
:10F5C00091ECF25062544E85D2544259B259225AAB
:10F5D000925A025B724CE24C21618280034709001F
:10F5E000930707FD93F7F70F637CFB009307F7F989
:10F5F00093F7F70F63E2FA06930797FA93F7F70F7B
:10F60000139487016184FD14230089002685EF602F
:10F6100041722A86AE8603250A0083254A0093F4A8
:10F62000F40F0509EFE0807D2AC422852EC6EF6025
:10F6300041702246B246EF5071202A8C4E85AE8C26
:10F64000EF6041762A86AE866285E685EF40F1332B
:10F65000EF606168AA89ADB79306F7FB93F6F60FE2
:10F660008147E3EFDAF8930797FC49BF411122C4C1
:10F6700006C6830795022A8499C713059502EF7081
:10F6800001432385A1F68307D41291CB1305D4122D
:10F69000EF708141EF704123938781F3C8D3B2406B
:10F6A000224441018280011126CA9304150022CC14
:10F6B00097C50100938585032A84268506CE4AC80E
:10F6C0004EC6EFA0B06E631E051097C5010093856E
:10F6D00025022685EFA0906D6302050E8544830701
:10F6E000D4036386070C13059402EF70413C8549EF
:10F6F0001379F50F1305D4036387340F8947638C9F
:10F70000F418EF70C13AA386A1F6631A390179465D
:10F7100081451385F1F823830182EFE0DFAC830795
:10F72000D40885C31305D408EF70613803C761821C
:10F73000930717002383F182938781F3BA97A38BF2
:10F74000A7048307D40D85C31305D40DEF702136AC
:10F7500003C76182930717002383F182938781F3A4
:10F76000BA97A38BA7048307D41285C31305D412B9
:10F77000EF70E13303C76182930717002383F1829F
:10F78000938781F3BA97A38BA7048307D41785C304
:10F790001305D417EF70A13103C7618293071700D7
:10F7A0002383F182938781F3BA97A38BA704F24056
:10F7B0006244D2444249B2490561828097C5010042
:10F7C000938545F32685EFA0705EE31905F0268545
:10F7D00097C50100938545F2EFA0505D8944E31081
:10F7E00005F08144EDBDEF70812C2387A1F6631AEB
:10F7F000990079468145138511F723830182EFE053
:10F800009F9E8307D40885C31305D408EF70212A6F
:10F8100003C76182930717002383F182938781F3E3
:10F82000BA97A38CA7028307D40D85C31305D40D03
:10F83000EF70E12703C76182930717002383F182EA
:10F84000938781F3BA97A38CA7028307D41285C349
:10F850001305D412EF70A12503C761829307170027
:10F860002383F182938781F3BA97A38CA70283073E
:10F87000D417E38E07F21305D417EF70412303C7A3
:10F880006182930717002383F182938781F3BA97EC
:10F89000A38CA70229BFEF708121A387A1F601BF26
:10F8A000411122C406C6830795072A8499C7130508
:10F8B0009507EF70C11FA385A1F68307D40899C7E8
:10F8C0001305D408EF70A11E2386A1F68307540BFD
:10F8D00091CB1305540BEF70211DEF60F17E9387E0
:10F8E00081F388D7B240224441018280011126CAA7
:10F8F0008146B284014652C456C206CE22CC4AC8C2
:10F900004EC62A8AAE8AEF50815641CD9307E00455
:10F910006386F400930730056395F40897C90100E6
:10F920009389C9DA03A6090083A649005285D685C2
:10F93000EF50C17037949800EF60E1391304046808
:10F940002A8933758502EF60E14503A6090083A685
:10F950004900EF40917697C701009387A7D790435E
:10F96000D443EF4091752A8A33558902AE8AEF60FD
:10F9700061432A86AE865285D685EF401101130772
:10F980003005AE876395E400B7070080AD8FF24085
:10F990006244D2444249B249224A924ABE85056134
:10F9A000828001458147E5B7011126CA8146B284AC
:10F9B000014652C456C206CE22CC4AC84EC62A8A36
:10F9C000AE8AEF50C14A41CD930750046386F400DC
:10F9D000930770056395F40897C90100938909CFCF
:10F9E00003A6090083A649005285D685EF5001651C
:10F9F00037949800EF60212E130404682A89337528
:10FA00008502EF60213A03A6090083A64900EF4072
:10FA1000D16A97C701009387E7CB9043D443EF4067
:10FA2000D1692A8A33558902AE8AEF60A1372A86C6
:10FA3000AE865285D685EF40417513077005AE87B7
:10FA40006395E400B7070080AD8FF2406244D24472
:10FA50004249B249224A924ABE85056182800145E7
:10FA60008147E5B7135785009357050113D88500E3
:10FA70009376F50F01111377F70F93F7F70F618561
:10FA800093F5F50F1378F80F99C211C3B9E3230C5E
:10FA9000D100A30CE100230DF100A30DA10003454B
:10FAA0009101834781010347A1012205A30E0101B2
:10FAB0004207C98F230EB1000345B101D98F034717
:10FAC000D1018345C101620522075D8DD98D056194
:10FAD000828032951375F50F1313850113538341FB
:10FAE0005D466357660861463363C3028507137634
:10FAF000D70F114593F7F70F6305A6002545631A45
:10FB0000A6007946637FF60205071377F70F85474E
:10FB10000DA809466312C7041386067D93084006A4
:10FB2000B36816036385080013F5360011C5130585
:10FB300000193366A60219EE75466374F600854710
:10FB40000D47230CD100A30CE100230DF100A30D00
:10FB50006100B1B77146D5B77D46E374F6FEB14793
:10FB6000E314F7FA850693F6F60F85470547D1BFEC
:10FB7000E35903FC6105FD171313850193F7F70F94
:10FB800013538341DDFF7D171377F70F1146F947B4
:10FB9000E309C7FA1946E306C7FA2546E303C7FA9D
:10FBA0002D46E300C7FA89476316F7021386067DE0
:10FBB00093074006B367F60291C793F83600F547FE
:10FBC000E38108F893070019B367F60293B71700AB
:10FBD000F10785BFFD4735F7FD1693F6F60F314760
:10FBE0008DB783471500034705000111A2075D8FFC
:10FBF000834725008346350083454500C207D98FDA
:10FC00000347550022CC1744FF1F1304E4F80306F2
:10FC10001420E206220733E5F600D98D06CE993589
:10FC2000135885001356050193D7850013F7F50F78
:10FC300093F7F70F935685011376F60F9375F80F28
:10FC40001375F50FEF70303783471400054793F7AE
:10FC5000B70F6397E7006244F24005616F7030456B
:10FC6000F240624405618280497123248116138425
:10FC700081F38307340083C8D1F303C8C1F303C7FA
:10FC8000A1F383C691F303C681F397C50100938561
:10FC900065A8481023261116232291162320211728
:10FCA000232E3115EF7011354810EF70313A184896
:10FCB0005C48030604033AC03EC2030814035C44D4
:10FCC0001844541097C501009385C5A63695EF706A
:10FCD00071324810EF7091375C103E9583076400D5
:10FCE00017C60100130686A289C717C601001306AE
:10FCF00066A197C501009385654FEF70B12F48103D
:10FD0000EF70D134544C104C5C1097C501009385B2
:10FD100065A33E95EF70112E4810EF703133030646
:10FD200034035C103E9597C50100938565A2EF7082
:10FD3000712C4810EF70913103072403AA844850B6
:10FD40003ACE138481F3EF60712D72475C10AE865A
:10FD50002A8697C501009385A5A033859700EF708B
:10FD600071294810EF70912E5C1003C6C1F697C53B
:10FD70000100938565A03E95EF70D1274810EF7084
:10FD8000F12C5C1097C50100938505A03E95EF709E
:10FD9000D12A138961F5A28497C901009389894406
:10FDA00003C6740519CA481032CEEF70312A724664
:10FDB0005C10CE853E95EF70F1238504E39224FF1D
:10FDC0004810EF70B1285C1097C501009385459CE1
:10FDD0003E95EF70912697C401009384A44003469A
:10FDE000940319CA481032CEEF70512672465C1047
:10FDF000A6853E95EF7011200504E31224FF4C10F8
:10FE00002545EFA020548320C116032481168324A6
:10FE10004116032901168329C1157561828041119C
:10FE200022C406C626C2830755012A84B9C7A9463B
:10FE3000938707FDB387D70203476501130707FDC3
:10FE4000BA97A38DF1F20307750183478501130764
:10FE500007FD3307D702938707FD3E97238EE1F214
:10FE6000830795010347A501938707FDB387D70251
:10FE7000130707FDBA97A38EF1F28307940281CB93
:10FE8000130710046391E7148547238FF1F283076A
:10FE9000D403938481F399C71305D403EF60D14051
:10FEA00088C4CCC40306140509CA8844CC442384FE
:10FEB000C1F6EFF0BFA388C4CCC48307540699C72A
:10FEC00013055406EF60513E88C8CCC8030694075A
:10FED00009CA8848CC48A384C1F6EFF0FFAC88C8B3
:10FEE000CCC88307D40899CF1305D408EF60D13B61
:10FEF00097C70100938787809043D443EF50011444
:10FF000088CCCCCC8307140A99C71305140AEF6078
:10FF1000113A239CA1F48307540BB9C7A9469387D0
:10FF200007FDB387D7020347640B130707FDBA9792
:10FF3000238DF1F20307740B8347840B130707FD2E
:10FF40003307D702938707FD3E97A38CE1F283071F
:10FF5000940B0347A40B938707FDB387D7021307BE
:10FF600007FDBA97238CF1F283853400856703C6B9
:10FF7000C1F3938707E11307C0033307E60283C683
:10FF8000D1F3B387F502BA97B69723A2F1F61757C4
:10FF9000FF1F1307E79D835707003A8413F5870077
:10FFA00039E1038564000547631FE50203C7A1F338
:10FFB00011EF8844CC4401468146EF40516B05E97E
:10FFC000238F01F2B9A0238F01F2D1B5FDD175D2F3
:10FFD000EDD293E78700138581F31757FF1F23198D
:10FFE000F798EFF01FC083876400E1F7D1BF88481E
:10FFF000CC4801468146EF40916779D183C7A1F390
:020000021000EC
:10000000E1D313068007938581F3138501ECEF603C
:10001000D12C03C501B79D4705053365F5021306CD
:100020008007938581F32388A1B693078007330562
:10003000F502938781B73E95EF60312AEFF0DFC27A
:100040001C582244B24092441757FF1F232EF794A6
:10005000130680078145138581F341016FE0AF9856
:100060000171232C811E232A911E1306101E2A843F
:10007000AE8468008145232E111E2328211FEFE046
:100080008F9681458147014701465148CD485D43E0
:100090006340960899C12306F1001306A002A685C5
:1000A0002285EFA0E04E8347C10051473386A4402C
:1000B000B387E7029305150078007D16A2958507A2
:1000C0003305F700EF6071211306A002A685228593
:1000D00003491400EFA0C04B894763C3A708034539
:1000E000C100D1473305F5027C0005053E95EFF0D0
:1000F0004FCA631CA904194697B501009385055E94
:100100001305D100EFA0405625C56800093B35A86E
:10011000B306C40003C50600930665FD93F6D60F2B
:1001200091EA850793F7F70F6361F302854501476D
:100130000506B9BFB3860703130E011FF296BA96E0
:10014000A38EA6E00507E3D5E8FE8320C11F0324A4
:10015000811F8324411F0329011F13010120828075
:100160003307F4000347070085073349E900B5B7B3
:10017000194697B501009385A5561305D100EFA048
:10018000A04E0DED194697B501009385A5551305B1
:10019000D100EFA0604D19ED194697B50100938588
:1001A000A5541305D100EFA0204C45D16800EFF015
:1001B0008FCF61BF6800EFF0AFEE41BF6800EFF096
:1001C000EFCA61B7757122C526C34AC1CEDED2DC43
:1001D000D6DADAD806C7AA892E8981440144814734
:1001E000130A4002854A354B139704014183636C1F
:1001F0002701BA402A449A440A49F659665AD65AFF
:10020000465B49618280338799000347070063009A
:100210004703639C5701631D67019C18A297A28541
:100220006800238E07F82D3D8147850475BF014482
:100230009C18A29705041374F40F238EE7F89337E4
:100240003406E5B7411106C6138501B7834705009B
:10025000130780078145B387E70213068007A107CC
:100260003E95EFD05FF8B2408145114541016FA046
:100270007046138501B78347050013078007B387CE
:10028000E702A1073E958280138501EC82809747A3
:10029000FF1F83C7776E81CF9747FF1F83D7E7AFD5
:1002A000FD17C207C1831307A0036375F70023A4DA
:1002B0000182828031714ED79389818283A70900A0
:1002C00056D3938A01B7850722DD26DB52D55AD152
:1002D0005ECF62CD66CB6AC906DF4AD96EC723A45A
:1002E000F18283C401B7014A130C8007568497BC7E
:1002F0000100938CAC32054D9D4B154B3389840323
:1003000056998307E900E1CF03A60C0083A64C00B1
:100310000325090283254902EF40F1466341050C9C
:1003200083470904638DA70B93171A001808BA971F
:10033000035789022390E7003C00D297238097005F
:10034000050A9904B3E47403E31A6AFB03578101B5
:1003500083570101998F13D7F741B98F998F9394E0
:1003600007011307400BC1806358F70093078016FD
:10037000B3849740C204C180268697B50100938557
:10038000E52C6808EF7001476C082545EF90907BDD
:10039000938714FFC207C1837947636EF708034947
:1003A0009100130A80078545014533094903210956
:1003B00022994A86EF80D00C8344B10085450145DF
:1003C000B3844403A104A2942686EF80700BCA85EF
:1003D0000D45EF30E002A6850D45EF30600283A7A2
:1003E00009001747FF1F0357479B63E7E70203C551
:1003F00001B79304800733059502B30DA4008387EA
:10040000ED0099CB83C7C1FC138901FB6397070EED
:1004100021052295EFF06F94FA506A54DA544A5944
:10042000BA592A5A9A5A0A5BFA4B6A4CDA4C4A4D24
:10043000BA4D296182809307D002E3F297FA834B89
:100440008100930A80078545B38B5B030145138CBC
:100450008B00229C6286EF80B002034B91008545A1
:100460000145330B5B03A29B210B229B5A86EF8035
:100470003001034AA10085450145330A5A03210A88
:10048000229A5286EF80C07F0349B100854501451D
:1004900033095903210922994A86EF80607E8344FB
:1004A000C10085450145B3845403A104A294268666
:1004B000EF80007DE2850D45EF209074DA850D45D3
:1004C000EF201074D2850D45EF209073CA850D453D
:1004D000EF201073A6850D45EF20907283C701B7FA
:1004E000B38A570303A74B03A29A83A74A03E318CF
:1004F000F7EE85472380FA04DDB517BD0100130D23
:100500006D1203260D0083264D0003A50D0183A562
:100510004D0197B9010093896911EF40313203A66B
:10052000090083A64900EF4041392A8BAE8B032690
:100530000D0083264D00032589008325C900EF4067
:10054000F12F03A6090083A64900EF4001372A8A4C
:10055000AE8A2A86AE865A85DE85EF40B17997B796
:1005600001009387270D9043D443EF40312DEFD006
:10057000C0732A8CAE8C5A85DE85EFD0E0692A8B59
:10058000AE8B5285D685EFD02069032609018326DC
:1005900049012A8AAE8A03A58D0183A5CD01EF40CA
:1005A000717503260D0083264D00EF40312903A607
:1005B000090083A64900EF40413097B701009387B7
:1005C00067079043D443EF407127EFD0006E2A892C
:1005D000AE895286D6865A85DE85EF4031264A8618
:1005E000CE86EF40B1254A86CE86EF4031252A8956
:1005F000AE896286E6866285E685EF4031242A86EA
:10060000AE864A85CE85EF305138EFD09031EFD0AD
:1006100000732A86AE86EF30513797B70100938773
:10062000E7019043D443EF40712197B701009387CE
:1006300067019043D443EF4071202A86AE862A8911
:10064000AE89680897B5010093854501EF70811A5E
:100650006C082545EF90104F1735FF1F0345C55D0A
:10066000EF50216D2A86AE864A85CE85EF40D106B1
:10067000E354A0DA03C601B7330696028545014567
:1006800021062296EF80C05F83C501B7B38595022E
:100690000D45A105A295EF20B05603C501B733055E
:1006A000950221052295EFE05FEB23A40182ADB313
:1006B0000111254697A501009385C574480006CE13
:1006C000EF60A1414C0025461735FF1F130585CD6E
:1006D000EF60607F97B50100938505FA2545EF909F
:1006E0007046F24005618280797122D42D4697A52B
:1006F00001009385A5722A84280006D6EF60E13DAB
:100700002D4697A50100938525724808EF60E13CCE
:100710002D461DC02C001735FF1F1305A5C8EF601F
:10072000807A97B501009385A5F62545EF90904115
:10073000B2502254456182804C081735FF1F1305C3
:1007400065C6EF60407897B50100938565F5F1BF08
:10075000317186064ED7AA8913D5160006DF22DD31
:1007600026DB4AD9B2CE2E89EF60E10597B70100AA
:10077000938747E276468C432A843285EF50B15BFB
:10078000EF606104AA84554681452801EFD0BFA5DA
:1007900085472308F10693D789402309F10693D7AB
:1007A0000941A309F10693578940230BF10693579A
:1007B0000941A30BF10693D78400230DF10693D7CB
:1007C0000401A30DF10693578400230FF1069357FC
:1007D0000401A30FF106B7E70B109387179FA30837
:1007E0003107A30A210793D9894113598941A30CE1
:1007F0009106A30E8106E18061803EC35801C54782
:10080000230081082304F108230A3107230C210760
:10081000230E9106FC103A849306D10703C64700C5
:1008200085070507A302C700E39AD7FE034881089E
:100830000147814793055800894693F7F70F1377CF
:10084000F70F63DCD50AA30DF108BEC28347A109E7
:10085000230EE108BAC4BEC08347910997B50100D1
:10086000938585D325453EDE834781093EDC83475A
:1008700071093EDA834761093ED8834751093ED664
:10088000834741093ED4834731093ED2834721093A
:100890003ED0834711093ECE834701093ECC8347B2
:1008A000F1083ECA8347E1083EC88347D1083EC6E7
:1008B0008347C10883489108034761083EC48347C2
:1008C000B10883465108034641083EC28347A10848
:1008D0003EC083477108EF90303DA2851735FF1F5A
:1008E000130545AC6546EF60005EFA506A54DA5471
:1008F0004A59BA590145296182803306D40003461A
:1009000006008506B29713F6F70F32979317860104
:100910006207E187618715B7854763DBB70A79719D
:1009200026D24AD052CC5AC85EC662C466C206D627
:1009300022D44ECE56CA2A8A0149930B100F130CAB
:10094000900D973CFF1F938CECA517BB0100130B78
:100950006BC39384F5FFB3092A0103C7090093070A
:100960001900631577053307FA0003470700631F73
:10097000870303C4590083C74900CE8522045D8CD8
:10098000930A8400C20A93DA0A0156866685EF60EC
:1009900080535686CE855A85EFA060020D4597009C
:1009A000FF1FE780400493078900A29763E0970246
:1009B000B250225492540259F249624AD24A424BEE
:1009C000B24B224C924C0145456182803E8961B711
:1009D0007D558280914763E3C70A17B7010013076B
:1009E000E7DB0A063A961C42411122C406C6BA97B2
:1009F0002A84828797C50100938505FF1145EF90F2
:100A00007014A2851145EF90F0132244B24097C5AF
:100A10000100938525FF114541016F90B012B9CABD
:100A20009737FF1F83C7C73A81C79042EF407031A5
:100A30002244B240014697550000938505B73D45D5
:100A400041016F3020269DC62244C8C2B24003C572
:100A5000A6002394B6003686954541016F8040225A
:100A60002244B24041016FD0A0112244B240410162
:100A70006F20F063B24022444101828082804111A4
:100A800006C6EF807047B24041016F80B00D5571CE
:100A900058109306310213062102930511029307A1
:100AA00051021305610286C7EF60D04A9747FF1FC6
:100AB000938707EC83D70700BD9B1747FF1F2319B8
:100AC000F7EAEFF00FFB030305039305E0048356F9
:100AD0006102034711028347210203483102834820
:100AE0004102034E510217C601001306A67F63168A
:100AF000B30017C601001306A668830E150313037F
:100B00005004032F8500832FC50097C501009385EE
:100B1000256763866E0097C501009385A57C032336
:100B20000501832345017AC41ACC1ECE7EC672C04D
:100B30002EC832C297B501009385054C1736FF1FAA
:100B4000130646ED2810EF60F14AEF80403528107B
:100B5000EF60D14F9387C18290439315050193862F
:100B600001FD2810C181BD35BE40696182804111FF
:100B700006C623A6B18201C61C4223A8F1FC973702
:100B8000FF1F83C7D7019DEB0545EFA0502D97B5FB
:100B900001009385A5CC2545EF90C07A9747FF1FAC
:100BA00083D707DD93E707011747FF1F2312F7DC01
:100BB000EF80202EB24041016F40C011054705452E
:100BC000639CE700EFA0B0290545EFA0E03797B59B
:100BD00001009385E5C9C1B7EFA070280545EFA0D6
:100BE00010300545EFA0403697B501009385C5C983
:100BF0005DB7411122C42A848307D40306C626C2E6
:100C00002E8589C71307F0036398E7021737FF1F84
:100C1000130757FF9736FF1F9386B6FB1736FF1F44
:100C2000130616F897B50100938545D12244B240CA
:100C3000924441016F60113C9737FF1FA38207F672
:100C40009737FF1FA38707F89737FF1FA38C07FA73
:100C5000034704008547AE8463FAE7009305D40395
:100C60001735FF1F1305D5F3EF60313D8307940758
:100C700091CF03470400894763FAE700930594077F
:100C80001735FF1F1305F5F4EF60313B8307540B55
:100C900091CF034704008D4763FAE7009305540B97
:100CA0001735FF1F130515F6EF60313901469745DB
:100CB00000009385E5F71305C012EF20B07EEF50DA
:100CC000E0731737FF1F1307F7F39736FF1F93865D
:100CD00056F01736FF1F1306B6EC97B50100938543
:100CE00025C82685A1B7411126C206C622C40347DE
:100CF00005008947AE8463F7E7029305D5032A848C
:100D0000130620031735FF1F130585E2EF60F13747
:100D100013059407EF50B1599737FF1F239CA7E69F
:100D2000EF504068EF50006C9736FF1F83D686E681
:100D30001736FF1F1306C6DF97B501009385C5223E
:100D40002685EF60312B85479735FF1F938585CC2E
:100D50001735FF1F130585DC1737FF1FA304F7D2D4
:100D6000EF60B12D9735FF1F938595E31735FF1F72
:100D7000130565D1EF60712C9735FF1F938575E5DD
:100D80001735FF1F130545D3EF60312B9735FF1F34
:100D9000938555E71735FF1F130525D5EF60F1291A
:100DA00097A50100938585251735FF1F130565DB82
:100DB000EF60B128EF50005F014697350000938542
:100DC00065777945EF20106E2244B2409244014687
:100DD000976500009385052E1305600941016F207A
:100DE000706C411122C426C24AC006C68307D503CF
:100DF000AE8417B901001309E9E51744FF1F130476
:100E000024B789C71307F0036391E7041735FF1F61
:100E1000034575E2EF40F17103260900832649007E
:100E2000EF30B129EF50512A28C4EF50311FAE8660
:100E30002A8697B50100938565E22244B2400249B3
:100E40002685924441016F60F11A1305D503EF50D6
:100E500011469737FF1FA380A7DE1375F50FEF40EC
:100E6000516D0326090083264900EF301125EF500C
:100E7000B12528C4EF5080582844EF50311AAE866F
:100E80002A8697B50100938565DF45BFAA8703874A
:100E9000D7032E8509C79306F0036315D70297374A
:100EA000FF1F83C7B7CF17B601001306A6D789E780
:100EB00017B60100130686D797B50100938585D82C
:100EC0006F60511341111385D70306C622C42E84C7
:100ED000EF50F13D9737FF1FA382A7CCEF50005290
:100EE0009737FF1F83C797CB97B50100938585D4AC
:100EF00089E797B50100938565D422852244B240E5
:100F000041016F609113411126C206C6AA8422C412
:100F10008387D4032E8589C71307F0036396E704FC
:100F20009737FF1F83C7B7C705476385E70289CB9C
:100F300009476386E702B24022449244410182801D
:100F400097B501009385C5D72244B2409244410130
:100F50006F60B10E97B50100938505D9F5B797B5C8
:100F60000100938525DBCDB79384D4032E84268599
:100F700097B50100938505DDEF6071131DC18947A9
:100F80001737FF1FA30DF7C097B501009385C5DF85
:100F90002285EF60910A2244B240924441016F5091
:100FA000E0452685EF50B1301375F50F9737FF1FD9
:100FB000A387A7BE854797B501009385E5DAE309C6
:100FC000F5FC97B50100938565D879D18947E30D84
:100FD000F5FA1737FF1FA304F7BC97B501009385F7
:100FE000E5DC7DB741112E8597B50100938585DF3E
:100FF00006C6EF609104014697350000938585533E
:101000007945EF20304AB24001469765000093854C
:10101000650A1305600941016F20D048411122C4BF
:1010200026C206C68307D503AE841734FF1F1304F8
:10103000A4B689C71307F003639BE7028306142055
:1010400017B60100130646F663D6060017C6010060
:1010500013060613268597B50100938525F5EF60E5
:1010600061792244B240924441016F90100A130505
:10107000D503EF50D1239737FF1FA38FA7D0EF9051
:10108000D0080306142097B501009385E5F32545A4
:10109000EF908041834714206147B10793F7F70F22
:1010A0006377F700A1471737FF1FA307F7CEEF506D
:1010B000E0348306142017B601001306E6EE63D66B
:1010C000060017C601001306A60B2244B24026856F
:1010D000924497B501009385A5EF41016F6081713E
:1010E000797122D49307D1012E8478089306B10137
:1010F0001306A101930591011305E10106D6EF60E6
:1011000060658348D1010348C1018347B1010347AA
:10111000A101834691010356E10197B50100938532
:10112000A59E2285EF60016D2285EF6021729747B1
:10113000FF1F9387E7838C5B03A88703056613066D
:1011400006E19306C00333F3C50222953377D80234
:10115000B378C8023AC0DC5733F7D502B3D8D80207
:101160003358C802B356D30233D6C50297B501002F
:101170009385C59BEF6001682285EF60216D2A94FD
:10118000EF80905517B601001306C69709C517B62C
:1011900001001306E69697B501009385259D2285EB
:1011A000EF60416595471737FF1F2301F7C21737D7
:1011B000FF1F230CF78AEF506024EF502029B25014
:1011C000225445618280AA870387D7032E8509C7E9
:1011D0009306F0036311D7029737FF1F83C7479C1D
:1011E00097A501009385056C89E797A50100938574
:1011F000656E6F60816441111385D70322C406C6F2
:101200002E84EF50D10A1375F50F9737FF1F2389EE
:10121000A7981737FF1F0347379889476316F700CA
:101220000DE91145EF9050529737FF1F83C747973D
:1012300097A501009385856B89E797A501009385A4
:10124000256E2285EF60615F2244B24041016F50FC
:10125000E01A1145EF903052C1BFAA870387D70328
:101260002E8509C79306F003631ED7029737FF1F29
:1012700083C7E7920547638DE70089C70947638EF7
:10128000E700828097A50100938545706F60E15A61
:1012900097A501009385C573D5BF97A501009385D8
:1012A000E578EDB741111385D70322C406C62E8415
:1012B000EF50E17F1375F50F9737FF1F2381A78E3E
:1012C000854797A501009385A5706306F50297A54C
:1012D00001009385A56B05C1894797A501009385FA
:1012E000E574630AF5001737FF1F230AF78A97A5ED
:1012F0000100938565792285EF6021542244B24034
:1013000041016F50A00FAA870387D7032E8509C715
:101310009306F003631CD7001736FF1F0346C691E0
:1013200097B501009385858A6F60C14C4111138583
:10133000D70306C622C42E84EF50E1779737FF1FEC
:10134000238CA78EEF50800B22852244B2401736A3
:10135000FF1F0346668E97B501009385658941019D
:10136000E1B7411122C4130550042E84814506C6FD
:10137000EF30807AEF40D07D2A8622852244B24029
:1013800097B501009385458941016F60A1464111E0
:1013900022C41305D5032E8497A501009385057EED
:1013A00006C6EF90A02011CD0145EF50A00F97A5E4
:1013B00001009385657D22852244B24041016F6022
:1013C000C1470545EF50000E97A501009385857D27
:1013D000DDB7411122C42A848307D40306C626C27E
:1013E0002E8589C71307F003639CE7029737FF1F19
:1013F0009387F78D1737FF1F1307578A9736FF1FFD
:1014000083D6C69A1736FF1F1306368697B5010096
:101410009385859F2244B240924441016F60813D93
:10142000AE841735FF1F130555849305D403EF6071
:10143000C1401735FF1F13055583EF6021419315F8
:101440000501C1811735FF1F13053582EF90204D2F
:101450008307940789CB13059407EF5041659737AD
:10146000FF1F2395A7948307540B85CB9305540B3B
:101470001735FF1F13059582EF60213C1735FF1FBD
:101480001305D581EF60813C93150501C1811735A6
:10149000FF1F1305B580EF9080488307140F85CB9D
:1014A0009305140F1735FF1F13057582EF60E138A0
:1014B0001735FF1F1305B581EF60413993150501FD
:1014C000C1811735FF1F13059580EF904045EF4010
:1014D000F0729727FF1F9387977F1727FF1F130728
:1014E000F77B9736FF1F83D6668C1726FF1F1306E0
:1014F000D67797B5010093856592268521BFAA8787
:101500000387D7032E8509C79306F003631CD70012
:101510001736FF1F0356668897B50100938545A2CD
:101520006F60412D41111385D70306C622C42E8456
:10153000EF50E157131605019737FF1F239FA7842C
:10154000418297B501009385E5A02285EF60812A4D
:101550009727FF1F83C7576409476388E700ED1784
:1015600093F7F70F0547636AF7009737FF1F83D795
:10157000C78289EB0945EF9010202244B240410117
:101580006F40D067EF90300D75D51737FF1F0357A9
:10159000C7809307B003E3EFE7FC0945EF90D01A4B
:1015A000E9BFAA870387D7032E8509C79306F003EF
:1015B0006313D7069737FF1F83C7D7800547638913
:1015C000E70289CF0947638EE7020D476380E7048E
:1015D00097B501009385C58F6F60212617B601006E
:1015E0001306C68597B501009385C5866F60812077
:1015F00017B601001306C68697B501009385458787
:10160000F5B717B6010013062689FDB717B6010016
:101610001306C689D5B741111385D70322C426C244
:1016200006C62E84EF50A1481375F50F9727FF1FAC
:10163000A38AA7788544630295041DC18947630A7C
:10164000F5048D47630CF50497B501009385458C2F
:101650002285EF60811E9727FF1FA385977601A83B
:1016600097B50100938545872285EF60011D2244CF
:10167000B240924441016F40705817A60100130612
:10168000267E97B50100938565862285EF608116D9
:10169000F9BF17B6010013062680E5B717B601009B
:1016A0001306C680F9BF011106CE2EC6EF90007852
:1016B00085471727FF1FA30DF770EF4030543245C1
:1016C000F24097A501009385A54205616F60E11680
:1016D000011106CE2EC6EF90C0769727FF1FA38973
:1016E000076EEF40B0513245F24097A50100938557
:1016F000A54005616F606114130101BA23225145B1
:10170000B28A2E86AA856818232E1144232C814480
:10171000232A91442328214523263145232061454E
:1017200023244145368B232E7143232C8143232AC6
:1017300091432328A1432326B143EF90C00D130505
:10174000D103EF60A11093150501C1811305D103E9
:1017500097B401009384C48FEF90601801442689E8
:1017600093095002C8409305D103EF80305C0DC946
:101770000E044A94831704001397070123000122E3
:1017800041839306400263F4E6006F10201B17A705
:1017900001001307E7018A07BA979C43BA9782872B
:1017A0000504A104E31034FDFD57F9B71727FF1F07
:1017B00003471755A1476312F70C19464C08172524
:1017C000FF1F13056526EF809073081423000102A4
:1017D0000014EF60A1079727FF1F83D7475D1727E6
:1017E000FF1F130737559726FF1F9386A622500821
:1017F00097B501009385859C2295EF50B17F081421
:10180000EF60C1041C141726FF1F130676393E959E
:1018100097B501009385459DEF50D17D0814EF6089
:10182000E1021C143E959727FF1F9387E7368386B6
:10183000172017A601001306267763D6060017C6E1
:1018400001001306E69397B501009385659AEF5062
:10185000717A1724FF1F034434349307F4FF93F77E
:10186000F70F15476363F71017A70100130787FDEC
:101870008A07BA979C43BA9782870814EF50117D64
:101880001C141727FF1F0357C7529726FF1F938665
:10189000B63A1726FF1F1306E61797B50100938582
:1018A000A5933E95EF50117599BF0814EF50117A2A
:1018B0001C143E95854797B50100938525946306D2
:1018C000F40097B501009385E593C164EF50F1767C
:1018D0001724FF1F1304442C172AFF1F130A6A2C16
:1018E000FD149309C00397BB0100938B2B920359FE
:1018F0004420630E99000814EF505175B3763903F4
:101900001C14DE853E9533563903EF50B16E090441
:10191000E31F8AFC0814EF5071731726FF1F03465C
:10192000D62797B501009385258F1C143E95BDA839
:101930001726FF1F035666469726FF1F83D6A64627
:10194000081432C636C4EF50717032461C143E95EE
:10195000A24621C297B501009385058DA1CA97B50E
:1019600001009385258DEF50F1680814EF50116E3A
:101970001C149726FF1F83D6E60E1726FF1F03565B
:10198000860E97B50100938565943E95EF5091665C
:10199000D1A481EA97B501009385C58AEF50F1691A
:1019A000E9B7368697B501009385C58AEF509164F3
:1019B0006DBF0814EF5091691726FF1F0356A63E0E
:1019C00097B501009385C5898DB70814EF5011684C
:1019D0001726FF1F0356263D97B50100938585897D
:1019E000A9B70814EF5091661C143E95C1671724DF
:1019F000FF1F0354C43DFD176303F4021307C00324
:101A0000B356E402E147114697B501009385C587B7
:101A10003377E402B3F6F602EF50D15DB9B7114661
:101A200097B501009385858851B7EF30302D9737F2
:101A3000FF1F9387E7F3A843EF40515E2A86AE86E7
:101A4000081497B501009385E589EF50B15A97378F
:101A5000FF1F83C777F263860710EFE09F812A8418
:101A60000814EF50B15E1C143E958307640017A65E
:101A700001001306667089E717A60100130606C960
:101A800097B5010093850587EF50D1560814EF50A4
:101A9000F15BAA844850EF4071581C142A86AE8628
:101AA0003385970097B5010093854585EF50915494
:101AB0000814EF50B1591C143384A700EF90A039DB
:101AC00017A601001306C66B09E517A60100130649
:101AD000666B97B501009385E5832285EF509151A0
