:04C000006F2000129B
:10C004000000000000000000900000207E090020D5
:10C01400A9BDF9F594000020000000000000000014
:10C02400960000209800002000000000000000009E
:10C034009A000020000000009C0000200000000086
:10C044009E000020160300209A030020A400002074
:10C05400A6000020A8000020AA000020AC000020B8
:10C06400AE000020B0000020C60000205A010020CD
:10C07400FA090020B8000020BA000020BC0000200B
:10C08400BE000020EE01002082020020C400002037
:10C0940001A001A001A001A001A001A001A001A094
:10C0A40001A001A001A001A001A001A001A001A084
:10C0B40001A001A001A001A001A001A001A001A074
:10C0C40001A001A001A037370040834747009946EB
:10C0D4004111BD8B638CD70231476384E706114756
:10C0E400639EE702A3030100174600000346061CF3
:10C0F40037370040834771006315F6022C0013851F
:10C10400C177977001E0E780C02D09A883475700E5
:10C1140093F7F70F2304F100834781004101730073
:10C12400203083477100834687000C08AE97238C28
:10C13400D7FE83477100850793F7F70FA303F10038
:10C1440055BF280097F001E0E780C0F21375F50FA2
:10C15400A303A1000346710055B737370040834756
:10C16400474099464111BD8B638CD70231476384A4
:10C17400E7061147639EE702A30301001746000088
:10C184000346E61237370040834771006315F60211
:10C194002C0013850179977001E0E780802409A8B9
:10C1A4008347574093F7F70F2304F1008347810037
:10C1B40041017300203083477100834687400C0897
:10C1C400AE97238CD7FE83477100850793F7F70F4B
:10C1D400A303F10055BF280097F001E0E78040FB7E
:10C1E4001375F50FA303A1000346710055B7374734
:10C1F40000408347478099464111BD8B638CD70229
:10C2040031476384E7061147639EE702A3030100F5
:10C2140017460000034696093747004083477100DC
:10C224006315F6022C001385417A977001E0E780CC
:10C23400401B09A88347578093F7F70F2304F100A5
:10C244008347810041017300203083477100834696
:10C2540087800C08AE97238CD7FE8347710085072F
:10C2640093F7F70FA303F10055BF280097F001E0FF
:10C27400E780C0031375F50FA303A1000346710003
:10C2840055B737470040834747C099464111BD8B96
:10C29400638CD70231476384E7061147639EE70244
:10C2A400A303010017460000034626413747004018
:10C2B400834771006315F6022C001385817B977008
:10C2C40001E0E780001209A8834757C093F7F70FEE
:10C2D4002304F10083478100410173002030834728
:10C2E4007100834687C00C08AE97238CD7FE834722
:10C2F4007100850793F7F70FA303F10055BF2800DA
:10C3040097F001E0E780400C1375F50FA303A1003B
:10C314000346710055B7411126C4B714004022C624
:10C3240003D4C409420441809317240163DB07004A
:10C33400A145014597C001E0E78060228967239EFB
:10C34400F4081374042015CC9747000083C7174DD5
:10C3540093E7170017470000A302F74CB7170040F4
:10C3640003A7470A1377072015C303A7C70A136750
:10C37400072023A6E70AB717004013070020239ECF
:10C38400E7083244A24441017300203003A7870A1E
:10C394001367072023A4E70AF9BFB717004003D7A0
:10C3A400E70903D7E7099316370163D4060417474F
:10C3B400000003476748050797460000238EE646BA
:10C3C400174700000357474013670740974600008C
:10C3D400239CE63E0567239FE70803A7470C856671
:10C3E400131637016359060003A7C70C558F23A6FC
:10C3F400E70C7300203003A7870C558F23A4E70CA8
:10C40400CDBF411122C406C69747000083C7E78DFC
:10C41400174400001304443B95CB83475405858B94
:10C4240095C78357040013974701634107028D455D
:10C43400094597C001E0E780801291451745000047
:10C444000345E53A972002E0E780005B9747000048
:10C4540083D7873713F7074005CF13974701634105
:10C4640007028D45094597C001E0E780400F9145DB
:10C47400174500000345A537972002E0E780C05721
:10C484008357040093F7F7BF17470000231EF732C2
:10C49400B2402244410182804111814601468145D6
:10C4A400114506C6EF00A077B72700401147238344
:10C4B400E780B7F700E003A707D16D9B23A8E7D077
:10C4C40003A707D15D9B23A8E7D073005010010098
:10C4D4000100B240410182804111814681450146FB
:10C4E400114506C62D2FB727004011472383E78047
:10C4F400B717004003C7E70283C5E70483D7870360
:10C5040091661377F70F93E5350063E5D700719BC8
:10C5140013671700B7170040130670052380C7047C
:10C52400930680FA2380D7040100010023820702C6
:10C534002380C7042380D704010001002387E70276
:10C544002387B7042380C7042380D7040100010094
:10C5540003C7B70413670702A385E704238007040E
:10C5640037F700E0832507D193E545002328B7D0AA
:10C57400832507D1DD992328B7D07300501001001B
:10C5840001002380C7042380D7040100010003C7EE
:10C59400B7041377F70DA385E70423800704B2409B
:10C5A400410182800111B7F5070022CC8146E105E3
:10C5B4002A840A86194506CE26CA02C0231201001F
:10C5C400B92DB717004003C7E70283C5E70483D733
:10C5D400870391661377F70F93E5350063E5D7007A
:10C5E400719B13671700B71700401306700523806B
:10C5F400C704930680FA2380D70401000100238234
:10C6040007022380C7042380D70401000100238785
:10C61400E7022387B70423800704B7F500E003A7E4
:10C6240005D11367470023A8E5D003D50702657732
:10C63400110713750560418D598D42054181010033
:10C644002380C7042380D7040100010003C7F70037
:10C6540037F40700B7F400E013670704A387E70083
:10C6640003C7B704610413670702A385E704239093
:10C67400A70283A704D1DD9B23A8F4D07300501034
:10C684000100010013056004352E81463000A285A7
:10C69400194502C423160100592322478247E31A8D
:10C6A400F7FCB7170040130770052380E70413074E
:10C6B40080FA2380E7040100010003C7B70413775D
:10C6C400F70DA385E70423800704F2406244D244B3
:10C6D4000561828001114EC681460146AA898145C1
:10C6E400114506CE22CC26CA4AC8152BB7160040DF
:10C6F40083C7E60203C7E60483D68603116693F76D
:10C70400F70F1367370063E5C600F19B93E7170043
:10C71400371400401309700523002405930480FA9C
:10C7240023009404010001002302040223002405D1
:10C7340023009404010001002307F4022307E40406
:10C7440023000404130550025920B7F700E003A79F
:10C7540007D11367470023A8E7D02300240523004B
:10C764009404010001000347F40013670704A307BE
:10C77400E40023002405230094040100010025673C
:10C78400B3E9E9002310340303A707D15D9B23A871
:10C79400E7D0730050100100010081460146814535
:10C7A4001145B52923002405230094040100010048
:10C7B4008347640493E717002303F4042300040469
:10C7C400F2406244D2444249B24905618280B717BB
:10C7D4000040930670052380D704130780FA238052
:10C7E400E7040100010003C6B7041376F60DA38520
:10C7F400C70423800704137605024DC203C6A700AD
:10C80400118A1DE22380D7042380E704010001007C
:10C8140003C7A700136747002385E7009307004B6E
:10C8240001000100FD17EDFFB717004093067005E6
:10C834002380D704130780FA2380E7040100010052
:10C844007D892394A70001000100010001002380D9
:10C8540007042380D7042380E704010001000100BA
:10C8640001003727004093061005A303D7802380D7
:10C874000704B7170040130770052380E704130764
:10C8840080FA2380E7040100010003C7B70413679B
:10C894000708A385E7042380070482801376050430
:10C8A40041C603C6A700418A1DE22380D704238022
:10C8B400E7040100010003C7A700136707012385EC
:10C8C400E7009307007D01000100FD17EDFFB71796
:10C8D4000040930670052380D704130780FA238051
:10C8E400E704010001001376F5011366060423949E
:10C8F400C700010001000100010023800704238018
:10C90400D704130660042380E7046318C5000100FC
:10C91400010037270040894689BF010001003727FD
:10C9240000409306200591B72380D7042380E704B1
:10C934000100010003D787001367070C2394E70065
:10C944000DBF4111814601468145114506C6C12CE2
:10C95400B7170040130770052380E704130780FA14
:10C964002380E7040100010003C76704136717006D
:10C974002383E70423800704B24041018280814677
:10C98400014681451145612CB71700409306700597
:10C994002380D704130780FA2380E70401000100F1
:10C9A4007D562396C7022380D7042380E704010021
:10C9B400010003C76704136717002383E704238078
:10C9C400070401A0BD473305F50201007D1575FD7F
:10C9D4008280411122C426C206C6AA840144631778
:10C9E4009400B2402244924441018280050413051C
:10C9F400803E4204C13F4180DDB7B71700401307B2
:10CA040000032388E7028547174700002322F7E63F
:10CA140073002030397122DC4ED656D237140040D0
:10CA2400E57AB7F9070026DA52D45AD05ECE06DE8C
:10CA34004AD862CC2A8B916B93040404130A7005C0
:10CA4400910AE1098347E4020347E404835684031B
:10CA540093F7F70F1367370063E57601F19B93E7CC
:10CA6400170023804401130980FA23802401010064
:10CA740001002302040223804401238024010100D5
:10CA840001002307F4022307E4042380040037F79A
:10CA940000E0832707D193E747002328F7D0835783
:10CAA400040293F70760B3E76701B3E75701C207CE
:10CAB400C18301002380440123802401010001007B
:10CAC4008346F400130CB40493E60604A307D400CD
:10CAD4008346B40493E60602A305D4042310F402A7
:10CAE400832707D1DD9B2328F7D073005010010062
:10CAF400010013056004F9353000CE8581461945DF
:10CB040002C423160100212A11469745000093858B
:10CB1400A5D6280011231DD5930770052380F400A2
:10CB2400238024010100010083470C0093F7F70DD3
:10CB34002300FC0023800400F2506254D254425972
:10CB4400B259225A925A025BF24B624C21618280A2
:10CB5400411106C6AD2D7530978001E0E78040B5E0
:10CB6400D5BF2303048015472303E4800100230277
:10CB7400A480828083076480E3CE07FE23030480BD
:10CB8400828083076480E3CE07FE0345448082806D
:10CB940083076480E3CE07FE2302A48082804111D0
:10CBA40026C44AC24EC006C61377F50BAD47AA8900
:10CBB4002E8995446306F70019456537653F8D4412
:10CBC4004E854537FD59FD1463983401B240A244A3
:10CBD4001249824941018280135509011375F50FE9
:10CBE400453F2209CDB7011126CC06CEB704080073
:10CBF40051371545BD37713769372AC6A53F3245C8
:10CC04009377150089EB136515001375F50FF24042
:10CC1400E24405618280FD14E9FC0145CDBF397110
:10CC240026DC4ADA4ED852D656D45AD25ED006DE24
:10CC340062CE66CCB7E700E07D5783AA070022C620
:10CC440003AA470023A0E71823A2E718B717004058
:10CC5400130770052380E704130780FA2380E70491
:10CC640083C74704930B75FFB684E20793FBFB0F5E
:10CC74008546AA892E8B328937240040E1870157E3
:10CC840063FA76016308D50089461307000263132B
:10CC9400D5000157D98F93F7F70FB71C00402382B3
:10CCA400FC0411472303E4801305F00F5D3D094C98
:10CCB400D135636D7C11B7050700DA953787070016
:10CCC400795563F2E504B3879500636EF702370B79
:10CCD4000800A94733EB65016399F90689E48144A7
:10CCE400513D26850DA0DA850945553D05090345C5
:10CCF400F9FFFD14050B693D81C49377FB0FFDF724
:10CD0400DD3569FD7D55B717004013077005238095
:10CD1400E704130780FA2380E70403C74704418B21
:10CD24002382E704F250B7E700E023A0571123A2BF
:10CD34004711E25432445259C259325AA25A125B30
:10CD4400825B724CE24C21618280A5476395F906AF
:10CD540085691309F00FB3069900B3742B01B694D7
:10CD64001349F9FFB3749900856B33796901416BF9
:10CD74009387F9FFB3F7270199E363FC340193D94F
:10CD84004900C147E3E637FF99BF0569C1697D19C9
:10CD9400D9B71305800D6388690113050002638404
:10CDA400790113051008CA85DD3B353D21DD4E9917
:10CDB400B3843441D9B7DA852D45D533CA94E30019
:10CDC40099F205097D3BA30FA9FED5BF9387F9FF0F
:10CDD40093F7F70F6361FC0C83C71C041307300837
:10CDE400631FF70437070800636BEB04B3079B006A
:10CDF400B706100063F5D704334BEB008947639300
:10CE0400F9068980D549E38C04ECDA850945413B70
:10CE140011090327C9FF91472320E4800307648095
:10CE2400E34E07FE23033481FD17EDFBFD14110BC4
:10CE340081C49377FB0FE9FF7D3371F5E1B5B71733
:10CE4400004003C75704B70708001377070219E324
:10CE5400B78707007955E378FBEA33079B00E3FFC4
:10CE6400E7F855B58547E382F9F2DA852D45053BA8
:10CE74009389F4FFE38504E6293393F7390091EBB2
:10CE8400832604800327090093074900E39AE6E414
:10CE94003E89CE84F1BFB5476396F9001305900B24
:10CEA400C93135BDB1471305B00AE38BF9FE994783
:10CEB4006391F904B7050800B365BB002D45C5317E
:10CEC40081448D4BA149753963967401832704808D
:10CED4002320F9008504E39834FF83270480131783
:10CEE4002B01635507002312F900D5BB2322F90057
:10CEF400FDB39D476399F90281451305B00445319B
:10CF0400BD442320090023220900FD599D3993F7CC
:10CF14007400CA9703C70700FD14398D2380A70046
:10CF2400E39634FF6DBBA1476392F9046D398144E4
:10CF3400630D0B008D479304C0036308FB00930447
:10CF4400000563048B01930440041375C507E308CB
:10CF540095D81945393139390545213126850D3999
:10CF640009453D314931E31C05D669BB91476399B5
:10CF7400F90013056006F536F53E130590090DB763
:10CF8400E38F09D4F154A9BB19CD91CD09CE8147C2
:10CF94003387F500834607003307F5008507230030
:10CFA400D700E317F6FE828019C991C909CA910511
:10CFB40083A7C5FF11057D16232EF5FEC5BF82800C
:10CFC40001C919C62A960505A30FB5FEE31DA6FEE1
:10CFD400828081473307F5000307070019E33E8584
:10CFE40082808507C5BF01112E8626CAAA8413151F
:10CFF40006019305F004418122CC06CE32C6EF002F
:10D0040010762A8401C53246A685BD3F2285F240AA
:10D014006244D24405618280854715C18DC105C231
:10D024008147B306F5003387F50083C6060003473E
:10D0340007006398E6008507E315F6FE85473E85FD
:10D0440082808147EDBF9307F6FFBE952A9663134E
:10D05400C5008280FD1583C715000505A30FF5FEE5
:10D06400FDB7AA87014581CF09CE3E96850703C740
:10D07400F7FF6317B700E39BC7FE054582808280F4
:10D08400014582807971975700009387270722D43E
:10D09400804306D626D24AD04ECE52CC56CA5AC85F
:10D0A4005EC662C45DCC37C9C901814B175A000002
:10D0B400130A4A0997540000938484041309F93726
:10D0C400975A0000938A4AFEB709C0A8370B405705
:10D0D4008357240095E35C44639D0B0017570000BD
:10D0E400232EF700032CC4002285EF0070746284A1
:10D0F40099A823A6FB00FDB783270A00829783869D
:10D1040064011C4463DB06063307F5406367E908E2
:10D114009757000023A207FA83552400034504000F
:10D12400972002E0E780408D5C405844A9CF144426
:10D13400B6978386640163C5060063E33701DA9713
:10D144001CC4A28B3A8449F4975700009387C7F50F
:10D154009C4B09476378F706F91717570000232DEE
:10D16400F7F4B250225492540259F249624AD24A14
:10D17400424BB24B224C45618280E377F5F833870A
:10D18400F9402A9761B763970B009757000023A7CC
:10D19400E7F689BF23A6EB00B1B7D85009CF63DF08
:10D1A40006003385A74083A70A016376F5009757E5
:10D1B400000023A3A7F0A28B404471B7E3F3A7FEBA
:10D1C400CE97C5B79757000023A807EE59BF411162
:10D1D40022C417540000130424F01C4006C626C2BF
:10D1E4004AC091C782979757000023A707EE5C4077
:10D1F40091C382971C406390071C9757000083C714
:10D204007708858B95C797570000A38D0706175796
:10D21400000003475707954763FCE700352B9757F2
:10D22400000083C75706F5178A07A2979C43829785
:10D23400175900001309C9088347C900918B99C382
:10D24400EF0050451C4491C3829797540000938487
:10D25400A4EA984017560000034616E597570000C5
:10D2640083C787E493961700BA9683D60600D5CA77
:10D274009757000083C747E363EFC70A9757000037
:10D28400238407E21C40639807129757000083C762
:10D29400B7FF91CF9757000083C7F7FE89EB9757E5
:10D2A4000000A38307FE973002E0E78000EC975765
:10D2B4000000938727E99C43638F070EB707C0A834
:10D2C40017570000232AF7DE753B97570000938712
:10D2D40027E3DC53EDC3175700001307E7DC184BB3
:10D2E4009757000083C717E36367F70C17570000CD
:10D2F400034777F9954763E0E70C8347C900918BAF
:10D30400DDEB90409756000083C616DA63CBD70A4C
:10D314002244B240924402494101171302E06700DB
:10D32400835A850793F7F70F97560000238EF6D696
:10D33400E3E6C7F235BF86073E97835507002310FF
:10D34400070097570000239707DA97570000938741
:10D3540067D89C4317550000034505D513172500CE
:10D36400BA979C4382979757000083D7A7D817573B
:10D374000000034767D393C7F7FF7D8D931717000A
:10D3840098403E97835707005D8D2310A700975759
:10D39400000083C767D191C785071757000023058D
:10D3A400F7D017570000034727D09757000083C7CB
:10D3B400B7CFE375F7ECB2402244924402494101ED
:10D3C4008280139717003297035707006DF785077C
:10D3D40035BFAD6737C70040BD072326F7200F10C0
:10D3E400000097570000938727CCC84F83278726D0
:10D3F400BD66BD0693C7F7FF99836A052326D72028
:10D404005D8D82804111B7170040985F3AC6945FE2
:10D414003247E39CE6FE324541018280828001115D
:10D4240022CC17540000130464E718402AC62EC403
:10D4340032C206CE3C4B93F7F7F73CCB973002E071
:10D44400E78060CF184097560000938666E23C4B15
:10D4540093E707083CCB9C423245A24523A0070032
:10D464000347150003482500220742084297034852
:10D4740005004297034835006208429798D703474E
:10D4840055000348650022074208429703484500B7
:10D4940042970348750062084297D8D7034795001E
:10D4A4000348A50022074208429703488500429793
:10D4B4000348B5006208429798DB0347D500034848
:10D4C400E5002207420842970348C5000345F500DA
:10D4D400429762052A97D8DB03C7150003C52500C8
:10D4E400220742052A9703C505002A9703C535007C
:10D4F40062052A9798CF03C7550003C56500220724
:10D5040042052A9703C545002A9703C5750062059D
:10D514002A97D8CF03C7950003C5A5002207420563
:10D524002A9703C585002A9703C5B50062052A9783
:10D5340098D303C7D50003C5E500220742052A97FF
:10D5440003C5C50083C5F5002A97E2052E97D8D3F5
:10D55400D843759BD8C3D84313671700D8C39843DF
:10D564001367170098C3124698425C43858BD1E732
:10D574001C4F01452300F6009C429C4FA183A3004D
:10D58400F6009C429C4FC1832301F6009C429C4FB1
:10D59400E183A301F6009C42D84F2302E600D84F52
:10D5A4002183A302E600D84F41832303E600D84F2A
:10D5B4006183A303E60098532304E6009853218370
:10D5C400A304E600985341832305E600985361833E
:10D5D400A305E600D8532306E600D8532183A30607
:10D5E400E600D85341832307E600DC53E183A30715
:10D5F400F600F2406244056182800100B5B7175716
:10D604000000130727C71443411122C49C5E4AC07B
:10D6140006C6998326C2858B3A84175900001309DC
:10D6240029C5D1CB9C5E97540000938464C593F7BD
:10D63400F7F99CDE175700000347E7C49307000877
:10D64400631BF700832709009C4393F707041757CC
:10D654000000230AF7C283C7040093F707049DC39D
:10D6640097570000938707AE9C4382979757000013
:10D6740023A0A7C283C7040093F7F70B1757000032
:10D684002300F7C083C7440093F707048DE7854759
:10D6940017570000A308F7BE97570000938707C0E9
:10D6A4009C43096798C7130700FC97560000238B17
:10D6B400E6BCD844F8D31C40985F1183058B09CB92
:10D6C400985F3D9B98DF054797560000238CE6BA88
:10D6D400985F1D83058B11CB985F1377F7F798DF5D
:10D6E400854717570000230FF7B883270900D8434D
:10D6F4000583058B19C7D843759BD8C3D843799B39
:10D70400D8C3B24022449244024941018280397113
:10D7140006DE16DC1ADA1ED82AD62ED432D236D039
:10D724003ACE3ECC42CA46C872C676C47AC27EC0DD
:10D73400F935F250E2525253C2533255A2551256A1
:10D7440082567247E2475248C248324EA24E124FA6
:10D75400824F21617300203097570000938707B4EC
:10D764009443975700009387A7B103C70700058B1D
:10D7740011CB97570000238707B097570000A38366
:10D7840007B0828003C71700058B65F7F85271FF55
:10D7940083C75700DDB7175800001308A8AD032747
:10D7A40008001C5F9583858BD1E709C61C5BBD838C
:10D7B4002300F60085CA83270800985B4607935721
:10D7C40067016356070093E707C0C207C183039745
:10D7D4000600C207C18709C7BA970947B3C7E7025A
:10D7E4002390F60085CD834715008DCB9756000016
:10D7F40083C666A993F606041387970089478DCAE2
:10D804003A9503470500854699471376F706631151
:10D81400D60262076187B947634C07008327080073
:10D824009C5FED838D8B17570000A300F7A68147FB
:10D834003E8582808547EDBF411122C406C6175438
:10D8440000001304A4A5184049E9AE877453FDFEF3
:10D854003E85B28597570000238507A2972002E0F2
:10D86400E780C068975700009387C7A09C43B7061A
:10D8740080009843558F98C3D857719BD8D7975732
:10D884000000A38107A097570000A38B079E1C40AC
:10D89400094798C3B7F700E003A707D16D9B23A8F6
:10D8A400E7D003A707D15D9B23A8E7D073005010EE
:10D8B4001440175700001307A79C83472700858B44
:10D8C40089EB83473700858BD9C797570000238B93
:10D8D400079AB2402244410182808D476310F502C9
:10D8E40097570000938707999C43B7068000984395
:10D8F400558F98C3D857719BD8D75DBF8547E31917
:10D90400F5FAB567BD075CC70F1000001C40096736
:10D91400094698C7130700F8975600002384E69633
:10D9240017570000130707951443984231830D8B52
:10D934006319C7001307E043F8D33D673D07D8C711
:10D9440085BF984231830D8B01E713076019EDB74A
:10D954001307E01BD5B7FC52ADF3A5BF5D7152DCD4
:10D96400175A0000130A0A9103270A0086C6A2C4A4
:10D97400A6C2CAC04EDE1C43975900009389C996BB
:10D98400175900001309899193F7F7E793E70708FC
:10D994001CC383A609003707CEFF7D179C461306D8
:10D9A40080022A84F98F9CC6832709001307000884
:10D9B4002800B8CBAE8493051008EFF06FE09720F1
:10D9C40002E0E7804077973002E0E78040848327D5
:10D9D4000A009376F41F370FFCFF23A40700984B2B
:10D9E4004E88CA881367F70398CBF84F130510F8CD
:10D9F400D285137707E0558FF8CF9843F576FD1657
:10DA0400758F98C39843B7063300B70204001377A1
:10DA1400F7E798C398439303401F7D1F1377F7E7F5
:10DA24001367071098C303A70900930F8002854961
:10DA34001C47D58F1CC7832709001307900D34009A
:10DA4400B8CB11490147135337002693834703008A
:10DA540013767700B3D7C740858BDDCF9C41832EE7
:10DA64000800239C07042390070603AECE02137E0E
:10DA7400DEFF23A6CE0383AE0700137EF70793FED3
:10DA84000EF833EECE0123A0C70103AE4702336E76
:10DA94005E0023A2C70383AE0800014E23A27E06C4
:10DAA40003DA070663074E0303AE0703038A06007F
:10DAB400135EFE00620E135E8E416358CA0103AE0C
:10DAC4000703135EFE002380C60103DE0706137EF0
:10DAD400FE0F03AA4E0663060A0003DA8705E37FF6
:10DAE40049FB03AE4702337EEE0123A2C7038387BB
:10DAF4000600635CF400034E03003396C90013462A
:10DB0400F6FF3376C6012300C3003E8663D3A70025
:10DB14002A8613158601618505071377F70F850695
:10DB2400E313F7F3B640264496440649F259625A81
:10DB34006161828097460000938646769C42D8476E
:10DB440013161701635506029847131617016350FD
:10DB540006027D57B8D7174700001307E754584FFC
:10DB6400050717460000232FE654116798C7984706
:10DB74000D83058B1DC31747000003478770136788
:10DB8400170017460000230EE66E130700F8174629
:10DB940000002309E66E214798C79847058B09CFF3
:10DBA400174700000347D76D136717001746000097
:10DBB400A308E66C054798C798470983058B09E7CE
:10DBC40098470583058B31CF984717460000130605
:10DBD400266B174500001305E5690983058B63036C
:10DBE40007101841184331830D8B75EBAC4B184E5D
:10DBF40093F5050203471700CDCD79EF130770069F
:10DC0400D8CF0347060013671700174600002309FF
:10DC1400E666114798C718415C57F19B93E71700D4
:10DC24005CD79C4298479316370163D60602974601
:10DC3400000083C6E673C18A174700001307076C08
:10DC4400C5CE0347470713670702974600002381A1
:10DC5400E672056798C798479316270163D10602B1
:10DC6400174700000347076262076187635707008D
:10DC74000547974600002387E660096798C79847D9
:10DC84009316070163D606029746000083C6566EB4
:10DC9400858A1747000013076766ADCE0347570709
:10DCA4001367270097460000A384E66C216798C792
:10DCB400828029D785456315B7001307B00689B755
:10DCC40089456315B7001307F0061DBF8D4563151D
:10DCD400B700130730072DB71307500715B71307FD
:10DCE400600739BF03473600136717001746000063
:10DCF400A309E658094739BF834647070946BD8A41
:10DD04006388C600034747078D463D8BE313D7F46A
:10DD1400114725BF83465707918AC9DA0347570736
:10DD24001367870041B7397106DE16DC1ADA1ED88C
:10DD34002AD62ED432D236D03ACE3ECC42CA46C8A7
:10DD440072C676C47AC27EC0F533F250E2525253A0
:10DD5400C2533255A255125682567247E247524870
:10DD6400C248324EA24E124F824F216173002030BE
:10DD7400174700001307C7528346B70197470000AF
:10DD840083C7D7544C4BB697FD8B33D7F5009746D2
:10DD94000000A387F65097460000A389F652058B2E
:10DDA40015EF174700000347B752B3F7E702814660
:10DDB40001471305000233D6E500058A1378F70FEF
:10DDC40019CA6397D70097470000A38B074D828039
:10DDD400850693F6F60F0507E31FA7FC8280974795
:10DDE4000000938727369C43011122CC4EC606CEF1
:10DDF40026CA4AC852C456C28297974700009387DE
:10DE0400274C804781496305A406BE8497470000D8
:10DE14009387072F038767013E8963550706018DA2
:10DE2400135455009747000083C727499379F50198
:10DE3400636DF402370AC0A8B70A4057153F9C44E3
:10DE44009746000083C66647139756003E9783079C
:10DE54006901158C63C507006363470156979747AB
:10DE6400000023A3E746E37BD4FC1604B369340122
:10DE7400F24062444E85D2444249B249224A924A0F
:10DE840005618280E37D85F8B707C0A833848740A5
:10DE9400229579B7974700009387C72A9C4341117D
:10DEA40022C406C626C2829797470000938747413B
:10DEB40080476309A406BE849747000093874724DC
:10DEC4008387670163D80704018D1354550097476E
:10DED400000083C7873E6367F404593D984497471D
:10DEE400000083C7873D9396570036971D8C97464D
:10DEF400000023ABE63CE372F4FE2244B2409244B9
:10DF0400174500000345D53981454101172302E037
:10DF14006700634BE37A85FAB707C0A83384874068
:10DF2400229565B7B24022449244410182809747CA
:10DF340000009387673B9843B75702009387079F76
:10DF4400832607091396560063580600832607099B
:10DF54001396660063440600FD17FDF3828071C5C5
:10DF6400AA870145E9C58D07C207C183F19BC20792
:10DF7400C18313074003636FF702174700001307B9
:10DF8400A7370843174700001307873614436398DD
:10DF9400A602174700001307A716185B014541CBDB
:10DFA4004111C20706C60545DD8D0297B240014501
:10DFB40041018280174700001307C733D9B70357BD
:10DFC400650035E303574500636FF704B306F74074
:10DFD4002146637CD60203280500938687001D8FA3
:10DFE400AA966117174600000356660C2392E600B2
:10DFF40023A006012393060014C12312F50013077E
:10E0040086FF974600002394E60A2313B50097453C
:10E01400000083D5C509B387F540174700002318CE
:10E02400F7082105828008419DB7014582808280DE
:10E034000DC1974700009387272C03A30700974738
:10E0440000009387E72A83A8070081469A8763E341
:10E054001701828003A80700636DF50A636BA80AA1
:10E0640013878700E367E5FE03D66700216705078A
:10E074006317E60003C7718C0507A383E18C9745FA
:10E0840000009385650203D6470003D765002393F8
:10E094000700329742074183174500002319E50022
:10E0A400638A6702174500001305C524084163030A
:10E0B400F50203D5660019ED83D7460023A00601B7
:10E0C40021073E9621062392C6009747000023901D
:10E0D400E7FEB6879843E30E17F79746000093864A
:10E0E40066219442E307D7F683566700BDF283D6D0
:10E0F4004700035647001843A106B2962392D7005F
:10E1040098C383D76500A107174700002311F7FAC6
:08E114008280BE86C28725BF90
:10E120009751FF1F938101A217A1FF1F130181EDDA
:10E1300017E5FFFF130545ED9725FF1F938585EC38
:10E140001746FF1F130686FD63FAC50083220500EC
:10E1500023A0550011059105E3EAC5FE173502001D
:10E16000130505569745FF1F938545FB13860182CE
:10E1700063FAC5008322050023A05500110591050F
:10E18000E3EAC5FE138501829785FF1F9385C528A5
:10E190006377B500232005001105E36DB5FEFD4250
:10E1A000739002BC8D4273904280B722000093822C
:10E1B000828873A002309722FF1F9382A2E493E229
:10E1C000320073905230971201009382626573900F
:10E1D0001234730020303D432A876373C302937760
:10E1E000F700BDEFADE5937606FF3D8ABA960CC306
:10E1F0004CC30CC74CC74107E36BD7FE11E28280CA
:10E20000B306C3408A069702000096966780A60070
:10E210002307B700A306B7002306B700A305B7007E
:10E220002305B700A304B7002304B700A303B70076
:10E230002303B700A302B7002302B700A301B7006E
:10E240002301B700A300B7002300B700828093F535
:10E25000F50F93968500D58D93960501D58D61B701
:10E26000939627009702000096968682E78086FAAA
:10E270009680C1171D8F3E96E374C3F8A5B7336728
:10E28000B500FD530D8B79E7B7877F7F9387F7F74D
:10E2900010419441B372F6003363F600BE92B3E2CC
:10E2A00062006397720C6318D6065041D441B37272
:10E2B000F6003363F600BE92B3E262006398720A1E
:10E2C000631BD60410459445B372F6003363F60021
:10E2D000BE92B3E262006391720A631ED602504599
:10E2E000D445B372F6003363F600BE92B3E2620027
:10E2F000639A72086311D60210499449B372F6000A
:10E300003363F600BE92B3E2620063937208510574
:10E31000D105E30FD6F61317060193970601631C88
:10E32000F7001357060193D706013305F74093759D
:10E33000F50F91E982804183C1833305F7409375DE
:10E34000F50F91E182801377F70F93F7F70F3305FD
:10E35000F74082800346050083C605000505850554
:10E360006313D60065FA3305D64082801105910506
:10E37000E312D6FE014582802105A105E31CD6FCEF
:10E38000014582803105B105E316D6FC0145828046
:10E390004105C105E310D6FC0145828001471146C5
:10E3A0004148B386E5008147B308F50083C80800FB
:10E3B0008507C10623A816FFE398C7FE11071105BC
:10E3C000E31107FF8280935785019CC19357054154
:10E3D00093F7F70FDCC19357854093F7F70F137549
:10E3E000F50F9CC5C8C582801C414111130705016A
:10E3F0003EC05C413EC21C453EC45C453EC6939750
:10E4000025001408B69783A707FF85051105232E5D
:10E41000F5FE8D89E315E5FE41018280397122DC2C
:10E4200041661384818D06DE26DA4AD84ED652D450
:10E4300056D25AD05ECE93050501A2863708FF005A
:10E440007D1683070500034735001105E207D98FC4
:10E450000307D5FF9106420733770701D98F0307DA
:10E46000E5FF2207718FD98F23AEF6FEE39BA5FC53
:10E4700081499144930A010117EB0100130B4B777B
:10E4800097EB0100938B4B74130AC00293F734008F
:10E49000032904004844BDE78A85353785450A8548
:10E4A000A1370A871C43110793F6F70093F7070F6C
:10E4B000DA97B69783C70700232EF7FEE394EAFEA8
:10E4C000024592476205C2075D8DB2475D8DA24746
:10E4D000A2075D8D93972900DE979C4385093D8DAA
:10E4E0003345250108C885041104E39144FBF2502B
:10E4F0006254D2544259B259225A925A025BF24B98
:10E50000216182803345A90008C8F1BF797122D406
:10E5100026D24AD04ECE52CC56CA06D62A8A9399D3
:10E5200045000144938A818D13090101C144B30759
:10E530003401D69788438A85793533078A008A87DC
:10E540001443904391074107B18E2328D7FEE399E6
:10E5500027FF1104E31D94FCB25022549254025937
:10E56000F249624AD24A45618280397122DC130441
:10E57000050106DE22878147C1460C433306F100C0
:10E5800011070CC24C4710083E960CC24C4F10109D
:10E590003E960CC29107E392D7FE85450A85A935C0
:10E5A0008945080891358D4508103D3D8147414713
:10E5B000B306F10094421104232ED4FE1408BE9633
:10E5C000944254C41410BE969442910754CCE391E3
:10E5D000E7FEF250625421618280060593770510B0
:10E5E00089C71375F50F1345B5018280411106C621
:10E5F000ED37B2404101D5B781471148C148338654
:10E60000F500B306F500014703AE06003303E6004C
:10E6100005072300C301C106E31807FF9107E39034
:10E6200017FF82809306050117E601001306465C7A
:10E6300013050505138706FF1C43110793F5F70023
:10E6400093F7070FB297AE9783C70700232EF7FE05
:10E65000E394E6FEC106E31FD5FC8280411122C48B
:10E6600006C626C285472E846301F50289476318D2
:10E67000F5002244B24092442E854101B9BF8D4736
:10E68000631BF5002E85913F298C2285B2402244E0
:10E69000924441018280A5476315F5002E85B93764
:10E6A000DDB7AD47631AF5002E8589373D37AA845B
:10E6B00022852537258DC9BFB5476316F5002E8500
:10E6C0003537AA84FDB7B947E311F5FC2E85393FEC
:10E6D000AA842137A98C228509373344950075B760
:10E6E0006382051493F7F500639E07121571D6C374
:10E6F000AA8A3285A2CDA6CB86CFCAC9CEC7D2C53B
:10E70000DAC15EDF62DD66DB6AD96ED73284AE8441
:10E71000EFA0F16CC147631EF5002285013301496A
:10E72000130A010697EB0100938B8B60294C634120
:10E730009902FE406E44DE444E49BE492E4A9E4A2E
:10E740000E4BFA5B6A5CDA5C4A5DBA5D2D618280D1
:10E75000338B2A010C105A859131814508107D3385
:10E7600085490810C135081009351C10D2863E872E
:10E7700010434107C10623A8C6FE032647FF23AA6C
:10E78000C6FE032687FF23ACC6FE0326C7FF23AEC3
:10E79000C6FEE31FEAFC17E70100130767550328CD
:10E7A0000700832D4700032D8700832CC700528468
:10E7B000138607010C4042853ECE3ACC32CA42C88D
:10E7C000713D0C482AC66E85513DB2460C5011046D
:10E7D000A98E6A8536C65935B2464C54A98E6685CF
:10E7E00036C6AD3DB246F2475246358D88C39107D5
:10E7F00042486247E310F6FC4107B287E391EBFA27
:10E80000CE85081085091933E39D89F50810193D57
:10E810000810A13BA9450810D539DA850810E93B55
:10E82000410931B782809307F00F6384F60A2D7196
:10E83000232A911023282111B28423263111130693
:10E8400000102E89AA89930530020A85232E111003
:10E85000232C811036844132A2852685EFC0207793
:10E8600013178500935785003365F7002310A10027
:10E87000A68522861305310093043400230181000C
:10E8800093F4F40FEF90917E93F6F40089C64D0453
:10E89000158C9374F40F1C02A697A6850A8517E6BB
:10E8A00001001306E648238007F01D3D26868A8571
:10E8B0004E85EF90B17B230099008320C111032482
:10E8C000811183244111032901118329C11015618C
:10E8D00082808280411106C6EF80005AB240AA862B
:10E8E00017E701001307C74A1756FF1F1306062034
:10E8F00097E501009385054B114541016FC0B005B7
:10E90000130101DB23248124232021252326112424
:10E9100023229124232E3123232C4123232A5123E4
:10E920002328612303470500930710042A892E84B6
:10E930006313F76E0347150093074005631DF76CDB
:10E94000034725009307E0056317F76C2E86AA8519
:10E950002545EFC0E0751306D003A2854A85EFC0B8
:10E96000D00DAA84635A05003546A2854A85EFC0BA
:10E97000D00CAA84634405089389D4FF930710033D
:10E9800063CE37074E86930539002808EFA011495A
:10E990001C1CBE9917EA0100130A8A6F238409DE42
:10E9A000D28A81494D4B83254A002808EFC0B00226
:10E9B0000DC18E09D69983D709004947636FF700C7
:10E9C00017E70100130707388A07BA979C43BA97DD
:10E9D00082878509210AE39869FD97E501009385FF
:10E9E000656ACDA89305F4FF858D13851400C205D3
:10E9F00081460146C1814A95EF3000438320C124FE
:10EA00000324812483244124032901248329C1234D
:10EA1000032A8123832A4123032B01231301012588
:10EA200082801306F4FF058E93851400420641820E
:10EA3000CA95E800EFC0D0281305D104EFA0313A01
:10EA400093150501C1811305D104EFC0F03397E59B
:10EA50000100938565361305D104EFC0C07719CD49
:10EA600097E501009385C5350545EFC0005A176548
:10EA7000FF1F034575D6EF50704D49B797E501006C
:10EA8000938545351305D104EFC0E07419CD97E5A2
:10EA900001009385A5340545EFC020571765FF1F7A
:10EAA000034595D3EF50504D91BF97E501009385F5
:10EAB000E5331305D104EFC0007219CD37170040BC
:10EAC0008327C70A856697E501009385A532D58F10
:10EAD0002326F70A254595A697E50100938545323B
:10EAE0001305D104EFC0206F11CD371700408327E5
:10EAF000870A856697E5010093850531D58F232424
:10EB0000F70AC9BF97E50100938585301305D10445
:10EB1000EFC0606C11CD371700408327C70AA1668C
:10EB200097E501009385852FD58F2326F70A5DB7DA
:10EB300097E501009385852F1305D104EFC0A069E7
:10EB400011CD371700408327870AA16697E501009A
:10EB50009385852ED58F2324F70AADBF97E5010055
:10EB60009385852E1305D104EFC0E06605C1B71665
:10EB7000004083A7860A056713070780D98F23A45F
:10EB8000F60A97E501009385E52CA9B797E5010002
:10EB90009385052D1305D104EFC0E06305C1B716B9
:10EBA000004083A7C60A056713070780D98F23A6ED
:10EBB000F60A97E501009385652B29BF97E50100CB
:10EBC0009385852B1305D104EFC0E06001C5EF707C
:10EBD00040462DB597E501009385452A1305D104DC
:10EBE000EFC0605F11C59767FF1F23A907C039B544
:10EBF00097E50100938545291305D104EFC0A05D79
:10EC000001C5EF60E06DDDBB97E5010093858528C8
:10EC10001305D104EFC0205C01C5EF60C06CF9BBE7
:10EC200097E501009385C5271305D104EFC0A05ACD
:10EC300001C5EF60806AD9B397E501009385052788
:10EC40001305D104EFC0205901C5EF9090247DB386
:10EC500097E50100938505261305D104EFC0A05761
:10EC600009C50545EF90202351BB97E50100938529
:10EC7000E5241305D104EFC0005619C10145DDB7E5
:10EC800097E50100938505241305D104EFC0A05436
:10EC900011C9371700408327C70A9166D58F2326ED
:10ECA000F70AA9BB97E50100938545221305D10416
:10ECB000EFC0605211C9371700408327870A916659
:10ECC000D58F2324F70A1DBB97E501009385852086
:10ECD0001305D104EFC0205009CD396697760000A6
:10ECE0009386E6521306061085450145EF80F01223
:10ECF00031B397E501009385251E1305D104EFC0BC
:10ED0000804D19C539668146130606108145F1BF4D
:10ED100097E501009385851C1305D104EFC0A04B36
:10ED200011C913059108EF90B1311375F50FEF601C
:10ED30004059E9B10346D104A547130606FD1376F1
:10ED4000F60FE3EDC7CA9767FF1FA38FC7A897E524
:10ED500001009385E518EFC000404DB11306F4FFA4
:10ED6000058E138514004206418297F501009385B4
:10ED700065F14A95EFC0E0591764FF1F1304C4A45E
:10ED80001DC50545EF10102A97E5010093858516EE
:10ED90001145EFC0802783570400414593E71700D2
:10EDA0001767FF1F2312F7A2EFC0306581B997E5FF
:10EDB00001009385E5141145EFC020257D55EFC076
:10EDC000B06683570400F99B1767FF1F231EF79E49
:10EDD00035B1093625B11306F4FF058E13851400ED
:10EDE0004206418297F501009385C5E94A95EFC037
:10EDF00040521764FF1F1304249D39C18357040038
:10EE000097E5010093858510E80093E717001767E1
:10EE1000FF1F231BF79AEFA0617BE800EFA0217C86
:10EE200013160501EC0041821385817BEF8030359C
:10EE300097E501009385450F1145EFC0001D7DBE8C
:10EE400097E501009385050FE800EFA02178E80021
:10EE5000EFA0E17813160501EC0041821385817B58
:10EE6000EF80F0318357040097E501009385450E4C
:10EE7000F99B1767FF1F2319F7947DBFEF70B03F11
:10EE80009767FF1F93874794E847EF904172AE86DC
:10EE90002A8697E501009385650C1145EFC0A02BEC
:10EEA000B1BEEF50502099BE17F60100130606DEE2
:10EEB00097E501009385450B114571BDEF70F07F1B
:10EEC00097E501009385050B25F997E501009385EA
:10EED000650B9DB73145EF908061AA84EF90216D5D
:10EEE0002A86AE86254597E501009385E50AEFC0A1
:10EEF000802697E701009387E7EB8843A6851754A0
:10EF0000FF1F130464DEEF8091732320A422EF809F
:10EF1000C00103250422EF908169AE862A8697E519
:10EF200001009385250895BF81450D45EF6020269A
:10EF3000EF70D0732A8697E5010093856509ADBF10
:10EF400081452D45EF60A024814513055004EF60F5
:10EF5000002497E501009385A5083145EF60202343
:10EF6000EF7030712AC6EF709071B2462A8717563B
:10EF7000FF1F1306A6B797E501009385A506114567
:10EF8000EFC0601DA5BC1757FF1F035787F79756A3
:10EF9000FF1F938676DF1756FF1F130626B597E5EA
:10EFA000010093856506E1BF85471757FF1F2303BF
:10EFB000F7F6EF70907797E5010093852506ADBDD4
:10EFC0001757FF1F034707F5854797E5010093850E
:10EFD0006505E313F7E6C5B79757FF1F9387C77E0D
:10EFE000A847EF90C15CAE862A8697E5010093851D
:10EFF000E50365B5B717004083A7470A97E5010009
:10F000009385050493F70720E39807E297E501004D
:10F010009385050515B50146A2854A85EF505077C1
:10F02000F1BA411122C42164930504809946014636
:10F03000254506C69720FF1FE780A0BE93050480E4
:10F040002244B24099461386018229454101172383
:10F05000FF1F670003BD99E10145828075DD011145
:10F0600052C403DA418226CA93548A008504A2045A
:10F07000C204C18056C2B38A4441C20A22CC4AC8E3
:10F080002E862E842A8997E501009385252425451F
:10F0900093DA0A014EC606CE93890182EFC0A00B17
:10F0A00063ED8A0883D5418293F7F50FB1CF8D6761
:10F0B00083D5418293870780A2864A86BE952945DB
:10F0C0009720FF1FE780E0B51375F50F29ED83D773
:10F0D00049001566A2972392F18203D7418283D714
:10F0E00021826309F70063F3E700B297998F1396C3
:10F0F00007014182254597E501009385A51EEFC0D4
:10F1000080051375F40F0DA08D6793870780930614
:10F1100000100146BE9525459720FF1FE78060B08F
:10F120001375F50F49D50145F2406244D244424976
:10F13000B249224A924A05618280B3079440D2972D
:10F14000C207C183A18303C74900850793F7F70F5F
:10F150009396870011EB9386170093740AF0A2062A
:10F16000C204C206C180C18283D7218263F6F40043
:10F1700033879600E3C9E7FA0D6A130A0A8001464D
:10F18000B385440125459720FF1FE78080A91375AB
:10F19000F50F51F983D54182A2864A86D29505B7EB
:10F1A000411122C41384018222858145194606C675
:10F1B0009720FF1FE78000E19307B0FA2300F400D7
:10F1C0008D352244B24097E501009385A508254579
:10F1D00041016FB09063A165411199461386018288
:10F1E000938505802D4506C69720FF1FE78060A305
:10F1F00003C701829307B00A6303F7005537B24093
:10F2000083D6418203D6218297E501009385450587
:10F21000254541016FB0307483D781980145638CD7
:10F22000071003D5A1986366F50023A40198014552
:10F2300082803385A740D1473355F5021375F50F0A
:10F2400001E5239401988280130101BD23248142AA
:10F25000232611422322914223202143232E314190
:10F26000232C4141232A514195471374F50F63F331
:10F27000A7001544228697E501009385650825457A
:10F28000EFB0706D014981449389C198514AA14AF8
:10F290009377F90F03D5A1981757FF1F034757BB63
:10F2A00063E98704D1473304F4022A9423958198B3
:10F2B000A147631CF706A6850808EF40407903D7ED
:10F2C000A19883D7819805456364F70023A401982A
:10F2D0008320C14203248142832441420329014205
:10F2E0008329C141032A8141832A414113010143FA
:10F2F0008280B30749031408AA97CE9733859600F6
:10F30000631E5701BE85EF4010142317A1008357D9
:10F31000E1000509BE94C204C1809DBFAA85130601
:10F32000E1003E85EFA0E012DDB726860C0801451E
:10F33000EF60104769B78280011106CE22CC26CA41
:10F340004AC84EC691E901442285F2406244D24443
:10F350004249B24905618280AA8975D583D7418225
:10F3600003D621822E849564638AC7006374F600F5
:10F3700015673A961D8E93140601C180268697E57F
:10F380000100938525EA2545EFB0F05C938714F0E2
:10F390006356F4009307F00F63EA970097E50100C6
:10F3A0009385C5E92545EFB0105B71BF83D44182D9
:10F3B00033878400956763C7E700A2854E8561396E
:10F3C0008D3159B71569330999404209135909011B
:10F3D000CA854E85493125D9ED75A695A295C205F8
:10F3E00023920182C18133852901D1BF83D68198BF
:10F3F00081EA97E501009385E5EA25456FB0F04085
:10F4000003D6A1984111918E97E50100938585EA75
:10F41000254506C6EFB03054138781988355070001
:10F4200083D7A1981385C1989D8DC2053E95C18152
:10F430002137B24023A4019841018280411183D732
:10F44000819822C426C206C6AE971307401FAA841D
:10F450002E84635AF700593F97E50100938545E2F2
:10F460002545EFB0903A83D781981385C1982286BD
:10F47000A6853E95EF90813F03D68198229642065D
:10F480002244B240924441822394C19897E50100FE
:10F49000938585E0254541016FB0F04B011126CAE7
:10F4A00006CE22CC4AC84EC652C456C2814459C167
:10F4B000D1C183D7218203D44182638D870663F54E
:10F4C00087081D8C42044180AE892A89228697E5EF
:10F4D00001009385A5D10145EFB0F047A28463F305
:10F4E0008900CE84C2040D6A83D7218203D741826A
:10F4F000C180938A0182130A0A8063FAE704A68610
:10F500004A86B38547012D459710FF1FE78060713C
:10F5100083D72A00A6972391F182EFF09FB083D67C
:10F52000418203D6218297E50100938565CD25456B
:10F53000EFB07042F240624426854249D244B2495B
:10F54000224A924A0561828015673A949DBF1567E9
:10F550001D8FB385470163D5E400A6864A8665B74B
:10F560009569B389F9406D743E94C20993D9090134
:10F570002694CE864A8642042D459710FF1FE780C9
:10F58000406A4180A28633063901D2852D452391F8
:10F5900001829710FF1FE780C06883D72A003E943E
:10F5A000239181829DBF1841938701FC104598C328
:10F5B00003574500544590C72392E700585510491A
:10F5C000D4C7544998CF97E50100938565E905476D
:10F5D000254590CBD4CB238EE7006FB01023397133
:10F5E00026DA4AD84ED652D456D25AD006DE22DC7B
:10F5F00062CE66CC2A89EF90917E9374F50F814993
:10F60000254BE54A17EA0100130ACAD091ECF250E3
:10F6100062544E85D2544259B259225A925A025BD0
:10F62000724CE24C2161828003470900930707FD79
:10F6300093F7F70F637CFB009307F7F993F7F70F46
:10F6400063E2FA06930797FA93F7F70F139487018B
:10F650006184FD14230089002685EF80013A2A8603
:10F66000AE8603250A0083254A0093F4F40F0509AA
:10F67000EF0041452AC422852EC6EF80013822467C
:10F68000B246EF7021682A8C4E85AE8CEF80013E29
:10F690002A86AE866285E685EF60A17BEF80213009
:10F6A000AA89ADB79306F7FB93F6F60F8147E3EF10
:10F6B000DAF8930797FC49BF411122C406C68307B5
:10F6C00095022A8499C713059502EF906117238D3F
:10F6D000A1F68307D41291CB1305D412EF90E11554
:10F6E000EF80B177938781F4C8D3B24022444101BF
:10F6F0008280011126CA9304150022CC97E50100EF
:10F700009385C5D92A84268506CE4AC84EC6EFB051
:10F710009034631E051097E50100938565D8268512
:10F72000EFB070336302050E85448307D40363860C
:10F73000070C13059402EF90A11085491379F50F7A
:10F740001305D4036387340F8947638CF418EF9053
:10F75000210FA38EA1F6631A3901794681451385DD
:10F76000F1F923830182EFE01FA78307D40885C343
:10F770001305D408EF90C10C03C7618293071700EB
:10F780002383F182938781F4BA97A38BA70483071D
:10F79000D40D85C31305D40DEF90810A03C7618290
:10F7A000930717002383F182938781F4BA97A38B81
:10F7B000A7048307D41285C31305D412EF90410820
:10F7C00003C76182930717002383F182938781F433
:10F7D000BA97A38BA7048307D41785C31305D4173F
:10F7E000EF90010603C76182930717002383F1821C
:10F7F000938781F4BA97A38BA704F2406244D24462
:10F800004249B2490561828097E50100938585C927
:10F810002685EFB05024E31905F0268597E5010011
:10F82000938585C8EFB030238944E31005F0814407
:10F83000EDBDEF90E100238FA1F6631A99007946A0
:10F840008145138511F823830182EFE0DF98830758
:10F85000D40885C31305D408EF80917E03C7618265
:10F86000930717002383F182938781F4BA97A38CBF
:10F87000A7028307D40D85C31305D40DEF80517CF7
:10F8800003C76182930717002383F182938781F472
:10F89000BA97A38CA7028307D41285C31305D41289
:10F8A000EF80117A03C76182930717002383F182E7
:10F8B000938781F4BA97A38CA7028307D417E38EAA
:10F8C00007F21305D417EF80B17703C7618293075E
:10F8D00017002383F182938781F4BA97A38CA70240
:10F8E00029BFEF80F175A38FA1F601BF411122C49A
:10F8F00006C6830795072A8499C713059507EF80E5
:10F900003174A38DA1F68307D40899C71305D408D1
:10F91000EF801173238EA1F68307540B91CB13054F
:10F92000540BEF809171EF805153938781F488D706
:10F93000B240224441018280011126CA8146B2842C
:10F94000014652C456C206CE22CC4AC84EC62A8AA6
:10F95000AE8AEF70411E41CD9307E0046386F40048
:10F96000930730056395F40897E90100938909B17D
:10F9700003A6090083A649005285D685EF70813819
:10F9800037949800EF80A101130404682A89337525
:10F990008502EF80A10D03A6090083A64900EF6050
:10F9A000513E97E701009387E7AD9043D443EF6062
:10F9B000513D2A8A33558902AE8AEF80210B2A866F
:10F9C000AE865285D685EF60C14813073005AE87F5
:10F9D0006395E400B7070080AD8FF2406244D244E3
:10F9E0004249B249224A924ABE8505618280014558
:10F9F0008147E5B7011126CA8146B284014652C447
:10FA000056C206CE22CC4AC84EC62A8AAE8AEF70AB
:10FA1000811241CD930750046386F400930770056B
:10FA20006395F40897E90100938949A503A60900A5
:10FA300083A649005285D685EF70C12C3794980073
:10FA4000EF70F175130404682A8933758502EF801D
:10FA5000E10103A6090083A64900EF60913297E710
:10FA60000100938727A29043D443EF6091312A8A03
:10FA700033558902AE8AEF70717F2A86AE86528531
:10FA8000D685EF60013D13077005AE876395E400EE
:10FA9000B7070080AD8FF2406244D2444249B24978
:10FAA000224A924ABE850561828001458147E5B7B9
:10FAB000135785009357050113D885009376F50FEA
:10FAC00001111377F70F93F7F70F618593F5F50F92
:10FAD0001378F80F99C211C3B9E3230CD100A30C1A
:10FAE000E100230DF100A30DA1000345910183471F
:10FAF00081010347A1012205A30E01014207C98F1D
:10FB0000230EB1000345B101D98F0347D1018345CD
:10FB1000C101620522075D8DD98D05618280329514
:10FB20001375F50F13138501135383415D46635716
:10FB3000660861463363C30285071376D70F114504
:10FB400093F7F70F6305A6002545631AA6007946CB
:10FB5000637FF60205071377F70F85470DA809465F
:10FB60006312C7041386067D93084006B368160324
:10FB70006385080013F5360011C5130500193366B7
:10FB8000A60219EE75466374F60085470D47230CEF
:10FB9000D100A30CE100230DF100A30D6100B1B76A
:10FBA0007146D5B77D46E374F6FEB147E314F7FA24
:10FBB000850693F6F60F85470547D1BFE35903FC49
:10FBC0006105FD171313850193F7F70F1353834155
:10FBD000DDFF7D171377F70F1146F947E309C7FAE1
:10FBE0001946E306C7FA2546E303C7FA2D46E300A4
:10FBF000C7FA89476316F7021386067D9307400606
:10FC0000B367F60291C793F83600F547E38108F829
:10FC100093070019B367F60293B71700F10785BF82
:10FC2000FD4735F7FD1693F6F60F31478DB783473D
:10FC30001500034705000111A2075D8F83472500CA
:10FC40008346350083454500C207D98F03475500D9
:10FC500022CC1744FF1F1304240903061420E206D4
:10FC6000220733E5F600D98D06CE99351358850065
:10FC70001356050193D7850013F7F50F93F7F70F88
:10FC8000935685011376F60F9375F80F1375F50FDC
:10FC9000EF80205F83471400054793F7B70F639702
:10FCA000E7006244F24005616F80006DF2406244FB
:10FCB00005618280497123248116138481F48307AE
:10FCC000340083C8D1F403C8C1F403C7A1F483C6C8
:10FCD00091F403C681F497E50100938525844810CB
:10FCE000232611162322911623202117232E3115A6
:10FCF000EF9071094810EF90910E18485C48030688
:10FD000004033AC03EC2030814035C441844541070
:10FD100097E50100938585823695EF90D1064810CE
:10FD2000EF90F10B5C103E958307640017D601003D
:10FD30001306467E89C717D601001306267D97E570
:10FD4000010093852559EF9011044810EF90310977
:10FD5000544C104C5C1097D501009385257F3E953F
:10FD6000EF9071024810EF909107030634035C1086
:10FD70003E9597D501009385257EEF90D1004810E0
:10FD8000EF90F10503072403AA8448503ACE138468
:10FD900081F4EF80D10172475C10AE862A8697D538
:10FDA00001009385657C33859700EF90C17D4810F5
:10FDB000EF90F1025C1003C6C1F797D5010093855F
:10FDC000257C3E95EF90217C4810EF9051015C100E
:10FDD00097D501009385C57B3E95EF90217F1389D0
:10FDE00061F6A28497E901009389494E03C6740520
:10FDF00019CA481032CEEF90817E72465C10CE85D3
:10FE00003E95EF9041788504E39224FF4810EF90EF
:10FE1000017D5C1097D50100938505783E95EF90A4
:10FE2000E17A97E401009384644A0346940319CA73
:10FE3000481032CEEF90A17A72465C10A6853E95AE
:10FE4000EF9061740504E31224FF4C102545EFB0D8
:10FE5000C01B8320C1160324811683244116032965
:10FE600001168329C11575618280397122DC06DE95
:10FE700026DA4AD84ED652D456D2830755012A8460
:10FE8000B9C7A946938707FDB387D7020347650122
:10FE9000130707FDBA97A385F1F40307750183479C
:10FEA0008501130707FD3307D702938707FD3E97A8
:10FEB0002386E1F4830795010347A501938707FD96
:10FEC000B387D702130707FDBA97A386F1F4830718
:10FED000940281CB13071004639EE71485472387A0
:10FEE000F1F48307D403938481F499C71305D403F1
:10FEF000EF80B11488C4CCC40306140509CA884431
:10FF0000CC44238CC1F6EFF03FA388C4CCC4830754
:10FF1000540699C713055406EF80311288C8CCC81F
:10FF20000306940709CA8848CC48A38CC1F6EFF0B1
:10FF30007FAC88C8CCC88307D40899CF1305D408F0
:10FF4000EF80B10F97D70100938747569043D44372
:10FF5000EF60515B88CCCCCC8307140A99C713059A
:10FF6000140AEF80F10D2394A1F68307540BB9C74F
:10FF7000A946938707FDB387D7020347640B13078E
:10FF800007FDBA972385F1F40307740B8347840BAD
:10FF9000130707FD3307D702938707FD3E97A38416
:10FFA000E1F48307940B0347A40B938707FDB38702
:10FFB000D702130707FDBA972384F1F48385340031
:10FFC000856703C6C1F4938707E11307C0033307AE
:10FFD000E60283C6D1F41744FF1F1304E47EB387FF
:10FFE000F502BA97B69723AAF1F68357040013F7E0
:10FFF00087002DE3038564000547631DE50403C7FF
:020000021000EC
:10000000A1F405EF9747FF1F83C707F20385240379
:10001000D5E3EF80614D9747FF1F9387E7CC83A51A
:10002000C723EF80E10C6352A00A97D501009385A6
:10003000E54941A8238701F46DB5E9D561D6F9D228
:1000400093E78700138581F41747FF1F231EF77678
:10005000EFF0FFBD83876400D5F7238701F403C564
:1000600001B89D4705053365F502130680079385A2
:1000700081F42380A1B8930780073305F5029387A5
:1000800081B83E95EF80817EEFF0DFC21C5C625448
:10009000F250D2544259B259225A925A1747FF1F6E
:1000A0002324F776130680078145138581F42161A7
:1000B0006FE06F928D4797D5010093852540E30A45
:1000C000F5F40D45EFB0200949BF03A9840083A9C9
:1000D000C400014681464A85CE85EF60D12535DDD5
:1000E00003AA040183AA4401014681465285D685AC
:1000F000EF6071243DD183C7A1F4A5D397D7010048
:100100009387473B9843DC435286D6864A85CE8503
:1001100002C802CA02CC02CEEF00103A15CD2C085C
:100120000808EF0090436247F24742483AC03EC297
:100130009848DC48D2489044D44497D50100938530
:1001400065392545EFB020014247D24798C4DCC449
:100150006247F24798C8DCC813068007938581F48C
:10016000138501EDEF808170DDBD0171232C811EAF
:10017000232A911E1306101E2A84AE84680081452E
:10018000232E111E2328211FEFE0EF848145814794
:10019000014701465148CD485D436341960899C1E6
:1001A0002306F1001306A002A6852285EFB0E00821
:1001B0008347C10051473386A440B387E7029305C4
:1001C000150078007D16A29585073305F700EF80AE
:1001D000E1691306A002A685228503491400EFB049
:1001E000C005894763C4A7080345C100D14733054B
:1001F000F5027C0005053E95EFF06FBE631DA90476
:10020000194697D50100938565281305D100EFB0F5
:1002100040102DC56800EFF05FC535A8B306C400D7
:1002200003C50600930665FD93F6D60F91EA850790
:1002300093F7F70F6361F302854501470506B1BFE8
:10024000B3860703130E011FF296BA96A38EA6E09B
:100250000507E3D5E8FE8320C11F0324811F832403
:10026000411F0329011F1301012082803307F4007D
:100270000347070085073349E900ADB7194697D50D
:1002800001009385E5201305D100EFB080080DED46
:10029000194697D501009385E51F1305D100EFB0EE
:1002A000400719ED194697D501009385E51E130502
:1002B000D100EFB0000645D16800EFF08FC361BFF9
:1002C0006800EFF0AFE241BF6800EFF0EFBE61B74A
:1002D000757122C526C34AC1CEDED2DCD6DADAD8A1
:1002E00006C7AA892E89814401448147130A400226
:1002F000854A354B139704014183636C2701BA404B
:100300002A449A440A49F659665AD65A465B4961C4
:100310008280338799000347070063004703639C8B
:100320005701631D67019C18A297A2856800238E60
:1003300007F8253D8147850475BF01449C18A297A5
:1003400005041374F40F238EE7F893373406E5B7EA
:10035000411106C6138501B88347050013078007BE
:100360008145B387E70213068007A1073E95EFD0CA
:100370009FE6B2408145114541016FB0D000138521
:1003800001B88347050013078007B387E702A10779
:100390003E958280138501ED82809747FF1F83C7BA
:1003A000374381CF9747FF1F83D727B4FD17C20775
:1003B000C1831307A0036375F70023A40182828021
:1003C00031714ED79389818283A7090056D3938ACE
:1003D00001B8850722DD26DB52D55AD15ECF62CD2A
:1003E00066CB6AC906DF4AD96EC723A4F18283C4EB
:1003F00001B8014A130C8007568497DC0100938CE6
:100400006CFB054D9D4B154B33898403569983072F
:10041000E900E1CF03A60C0083A64C0003250902E6
:1004200083254902EF60B1026341050C834709044B
:10043000638DA70B93171A001808BA970357890200
:100440002390E7003C00D29723809700050A990487
:10045000B3E47403E31A6AFB035781018357010174
:10046000998F13D7F741B98F998F93940701130789
:10047000400BC1806358F70093078016B384974000
:10048000C204C180268697D501009385A5F568082A
:10049000EF90610F6C082545EFA03037938714FF6C
:1004A000C207C1837947636EF70803499100130AB5
:1004B00080078545014533094903210922994A8668
:1004C000EF9000488344B10085450145B38444035F
:1004D000A104A2942686EF90A046CA850D45EF3070
:1004E000C078A6850D45EF30407883A709001747EF
:1004F000FF1F0357879F63E7E70203C501B8930413
:10050000800733059502B30DA4008387ED0099CBD6
:1005100083C7C1FD138901FC6397070E210522954E
:10052000EFF06F88FA506A54DA544A59BA592A5A85
:100530009A5A0A5BFA4B6A4CDA4C4A4DBA4D296119
:1005400082809307D002E3F297FA834B8100930AEB
:1005500080078545B38B5B030145138C8B00229C80
:100560006286EF90E03D034B910085450145330BDA
:100570005B03A29B210B229B5A86EF90603C034AAF
:10058000A10085450145330A5A03210A229A528661
:10059000EF90003B0349B1008545014533095903FC
:1005A000210922994A86EF90A0398344C1008545EC
:1005B0000145B3845403A104A2942686EF904038E9
:1005C000E2850D45EF30606ADA850D45EF30E06970
:1005D000D2850D45EF306069CA850D45EF30E06882
:1005E000A6850D45EF30606883C701B8B38A57030D
:1005F00003A74B03A29A83A74A03E318F7EE8547A4
:100600002380FA04DDB517DD0100130D2DDB032671
:100610000D0083264D0003A50D0183A54D0197D93B
:100620000100938929DAEF60E16D03A6090083A632
:100630004900EF5011752A8BAE8B03260D008326DF
:100640004D00032589008325C900EF60A16B03A637
:10065000090083A64900EF50D1722A8AAE8A2A8601
:10066000AE865A85DE85EF60713597D70100938796
:10067000E7D59043D443EF60E168EFF0802F2A8CF8
:10068000AE8C5A85DE85EFF0A0252A8BAE8B528585
:10069000D685EFF0E02403260901832649012A8A42
:1006A000AE8A03A58D0183A5CD01EF60313103260C
:1006B0000D0083264D00EF60E16403A6090083A6C8
:1006C0004900EF50116C97D70100938727D09043D2
:1006D000D443EF602163EFF0C0292A89AE895286A6
:1006E000D6865A85DE85EF60E1614A86CE86EF6068
:1006F00061614A86CE86EF60E1602A89AE896286B2
:10070000E6866285E685EF60E15F2A86AE864A85E9
:10071000CE85EF500174EFF0406DEFF0C02E2A86C9
:10072000AE86EF50017397D701009387A7CA904315
:10073000D443EF60215D97D70100938727CA904388
:10074000D443EF60215C2A86AE862A89AE89680888
:1007500097D50100938505CAEF80F1626C082545A5
:10076000EFA0B00A1735FF1F03450562EF70E128BF
:100770002A86AE864A85CE85EF608142E354A0DAB0
:1007800003C601B833069602854501452106229627
:10079000EF90001B83C501B8B38595020D45A105F7
:1007A000A295EF30804C03C501B8330595022105B1
:1007B0002295EFE05FDF23A40182ADB3011125464E
:1007C00097C501009385453D480006CEEF80010A9C
:1007D0004C0025461385817BEF70601A97D5010088
:1007E000938505C32545EFA05002F2400561828044
:1007F0000111254697C501009385C53A480006CEEC
:10080000EF80C1064C0025461385817BEF702017D1
:1008100097D50100938545C32545EFA0007FF240A1
:1008200005618280797122D42D4697C50100938598
:1008300025382A84280006D6EF8041032D4697C527
:1008400001009385A5374808EF8041022D460DC071
:100850002C001385817BEF70801297D50100938562
:10086000A5BC2545EFA0607AB25022544561828034
:100870004C081385817BEF70801097D5010093851C
:10088000A5BBC5B7317186064ED7AA8913D5160008
:1008900006DF22DD26DB4AD9B2CE2E89EF70713F0A
:1008A00097D70100938787A876468C432A843285A0
:1008B000EF703115EF70F13DAA845546814528014E
:1008C000EFD07F9185472308F10693D7894023090C
:1008D000F10693D70941A309F10693578940230BE9
:1008E000F10693570941A30BF10693D78400230D1A
:1008F000F10693D70401A30DF10693578400230F4B
:10090000F10693570401A30FF106B7E70B10938785
:10091000179FA3083107A30A210793D989411359C7
:100920008941A30C9106A30E8106E18061803EC33C
:100930005801C547230081082304F108230A310721
:10094000230C2107230E9106FC103A849306D1074D
:1009500003C6470085070507A302C700E39AD7FE31
:10096000034881080147814793055800894693F75A
:10097000F70F1377F70F63DAD50AA30DF108BEC29C
:100980008347A109230EE108BAC4BEC08347910979
:1009900097D501009385C59925453EDE834781099A
:1009A0003EDC834771093EDA834761093ED88347BD
:1009B00051093ED6834741093ED4834731093ED28F
:1009C000834721093ED0834711093ECE8347010961
:1009D0003ECC8347F1083ECA8347E1083EC88347BF
:1009E000D1083EC68347C108834891080347610880
:1009F0003EC48347B10883465108034641083EC2BE
:100A00008347A1083EC083477108EFA0C074A28548
:100A10001385817B6546EF609076FA506A54DA540C
:100A20004A59BA590145296182803306D4000346E8
:100A300006008506B29713F6F70F329793178601D3
:100A40006207E187618725B7854763D9B70A79715E
:100A500026D24AD052CC5AC85EC662C466C206D6F6
:100A600022D44ECE56CA2A8A0149930B100F130C7A
:100A7000900D938C817B17DB0100130B2B8A9384E1
:100A8000F5FFB3092A0103C709009307190063158D
:100A900077053307FA0003470700631F870303C482
:100AA000590083C74900CE8522045D8C930A8400D7
:100AB000C20A93DA0A0156866685EF60506C568644
:100AC000CE855A85EFA0503A0D459700FF1FE7806D
:100AD00080F093078900A29763E09702B2502254F6
:100AE00092540259F249624AD24A424BB24B224CCA
:100AF000924C0145456182803E8961B77D55828077
:100B000041111306001481451385010006C69700A4
:100B1000FF1FE780204B130600028145138501FE6D
:100B20009700FF1FE780004AB240238801824101FD
:100B300082809387C1829C43639707147571D2DECC
:100B4000D6DC2A8AAE8A1145894506C722C54AC322
:100B50004EC1DADADED8EFC0F06D2A844845EFD016
:100B6000802C5C4408480148944797D7010093873C
:100B7000E7A698439042DC43D44218CA5CCADCCE54
:100B800097D701009387079303A9070083A947001C
:100B900098CE81484AC84ECA4287C6874A86CE86C2
:100BA00002D002D202CC02CE02C402C602C002C2ED
:100BB000EFD0C02197D701009387C7A203AB0700EE
:100BC00083AB47004848014881484287C6875AC8D6
:100BD0005ECA5A86DE8602C402C602C002C2CAD0FB
:100BE000CED24ADC4EDE82CC82CE82C882CA82C499
:100BF00082C682C082C202D802DA02D402D602D0F1
:100C000002D202CC02CEEFD0601C5A86DE8652851C
:100C1000D685EF60210F2A86084C01488148AE86B0
:100C20002EC232C04287C687EFD0401A085C014806
:100C30008148C68742864287C68602C002C2EFD07C
:100C4000E018485CEFD0201E97D701009387079AE1
:100C50008C43D043485CEFD0E06923A681822A44CC
:100C6000BA401A498A49765AE65A565BC65B17D685
:100C700001001306269397D501009385A597254576
:100C800049616FA0404D8280411122C41384C1820A
:100C9000084006C6EFC01065232004002244B2407D
:100CA00017D601001306869197D501009385859488
:100CB000254541016FA0204A79711388C18222D451
:100CC0000324080006D626D24AD04ECE52CC56CAAD
:100CD0003DC8B68A5444328A2A89844697D6010090
:100CE0009386C68F9042D4423A85AE89BE85EF6026
:100CF00061019C4088CBCCCBDC4097C4010093843D
:100D0000E46D9040D44088CFCCCF5285D685EF504B
:100D1000717F9040D4402AC42EC64A85CE85EF50BC
:100D2000717E2247B2472A86484CAE86EFD0000A31
:100D300022852254B25092540259F249624AD24A50
:100D400045616FC0105FB250225492540259F2496B
:100D5000624AD24A0145456182809387C1829C43A1
:100D6000B9CF9C5F01114EC683A987004AC817C935
:100D700001001309A96683A7090022CC26CA2E8484
:100D8000AA84CC438843032609008326490006CE63
:100D9000EF50217F83A7490088C0CCC08843CC4353
:100DA0000326090083264900EF50A17D08C04CC0EE
:100DB000F2406244D2444249B24905618280828055
:100DC000914763E3C70A17D70100130727830A0671
:100DD0003A961C42411122C406C6BA972A848287D9
:100DE00097E50100938545D21145EFA00022A28529
:100DF0001145EFA080212244B24097E50100938580
:100E000065D2114541016FA04020B9CA9737FF1F35
:100E100083C7071181C79042EF5080252244B2401A
:100E20000146975500009385252B3D4541016F30C4
:100E3000406E9DC62244C8C2B24003C5A60023949A
:100E4000B6003686954541016F80902F2244B2400E
:100E500041016FE0701F2244B24041016F30C02B4E
:100E6000B2402244410182808280411106C6EF9047
:100E70000055B24041016F90801B55715810930688
:100E80003102130621029305110293075102130543
:100E9000610286C7EF70C0389747FF1F9387C792DC
:100EA00083D70700BD9B1747FF1F231FF790EFF065
:100EB0000FCD030305039305E00483566102034746
:100EC0001102834721020348310283484102034E45
:100ED000510217E601001306E6536316B30017E646
:100EE00001001306E643830E150313035004032F7A
:100EF0008500832FC50097E50100938565426386D1
:100F00006E0097E501009385E550032305018323D7
:100F100045017AC41ACC1ECE7EC672C02EC832C21B
:100F200097D50100938545181736FF1F130606BC99
:100F30002810EF804165EF8010422810EF80216A71
:100F400093874183904393150501938601142810DC
:100F5000C181BD35BE4069618280411106C623AAA8
:100F6000B18201C61C4223A0F1149737FF1F83C72B
:100F700017D8B1E30545EFB0004F97C50100938541
:100F8000A5752545EFA060089747FF1F83D7C78346
:100F900093E707011747FF1F2318F782EF80F03A06
:100FA0001737FF1F034757D491476311F704B24027
:100FB00041016F40207D05470545639CE700EFB088
:100FC000804A0545EFA0704397C5010093850572DF
:100FD0004DBFEFB040490545EFB020510545EFA0AA
:100FE000D04197C501009385E57161BFB2404101D1
:100FF0008280411122C42A848307D40306C626C2F4
:101000002E8589C71307F0036398E7021737FF1F80
:10101000130757D49736FF1F9386B6D01736FF1F96
:10102000130616CD97C50100938505792244B24079
:10103000924441016F8021559737FF1FA38A07CA49
:101040009737FF1FA38F07CC9737FF1FA38407D0C5
:10105000034704008547AE8463FAE7009305D40391
:101060001735FF1F1305D5C8EF8041568307940736
:1010700091CF03470400894763FAE700930594077B
:101080001735FF1F1305F5C9EF8041548307540B33
:1010900091CF034704008D4763FAE7009305540B93
:1010A0001735FF1F130515CBEF80415201469745B9
:1010B0000000938585231305C012EF308045EF5063
:1010C000D0661737FF1F1307F7C89736FF1F9386A1
:1010D00056C51736FF1F1306B6C197C50100938585
:1010E000E56F2685A1B7411126C206C622C4034773
:1010F00005008947AE8463F7E7029305D5032A8488
:10110000130620031735FF1F130585B7EF80015124
:1011100013059407EF70C1729737FF1F2394A7BC84
:10112000EF50305BEF50F05E9736FF1F83D686BBE3
:101130001736FF1F1306C6B497D501009385C5ED7A
:101140002685EF80414485479735FF1F9385059A93
:101150001735FF1F130585B11737FF1FA30CF7A61F
:10116000EF80C1469735FF1F938595B81735FF1F50
:10117000130565A6EF8081459735FF1F938575BAE6
:101180001735FF1F130545A8EF8041449735FF1F12
:10119000938555BC1735FF1F130525AAEF80014322
:1011A00097C501009385C5BE1735FF1F130565B0B0
:1011B000EF80C141EF50F051014697450000938503
:1011C00065127945EF30E0342244B2409244014642
:1011D00097750000938585991305600441016F3070
:1011E0004033411122C426C24AC006C68307D50334
:1011F000AE8417D90100130969AA1734FF1F13041D
:10120000A45C89C71307F0036391E7041735FF1F38
:10121000034575B7EF60617E032609008326490008
:10122000EF502136EF70614328C8EF704138AE8629
:101230002A8697D501009385E5A62244B24002494B
:101240002685924441016F8001341305D503EF7068
:10125000215F9737FF1FA388A7B21375F50FEF60C3
:10126000C1790326090083264900EF508131EF70D0
:10127000C13E28C8EF50704B2848EF704133AE860E
:101280002A8697D501009385E5A345BFAA870387E2
:10129000D7032E8509C79306F0036315D702973746
:1012A000FF1F83C7B7A417D601001306669C89E702
:1012B00017D601001306469C97D501009385459DDE
:1012C0006F80612C41111385D70306C622C42E847A
:1012D000EF7001579737FF1FA38AA7A0EF50F04484
:1012E0009737FF1F83C797A097D50100938545992E
:1012F00089E797D501009385259922852244B2403C
:1013000041016F80A12C411126C206C6AA8422C4C5
:101310008387D4032E8589C71307F0036396E704F8
:101320009737FF1F83C7B79C05476385E70289CBC3
:1013300009476386E702B240224492444101828019
:1013400097D501009385459C2244B24092444101C7
:101350006F80C12797D501009385859DF5B797D5F7
:1013600001009385A59FCDB79384D4032E84268551
:1013700097D50100938585A1EF80812C1DC18947F8
:101380001737FF1FA305F79697D50100938545A44E
:101390002285EF80A1232244B240924441016F5044
:1013A000D0382685EF70C1491375F50F9737FF1FA9
:1013B000A38FA792854797D501009385659FE30981
:1013C000F5FC97D501009385E59C79D18947E30D1C
:1013D000F5FA1737FF1FA30CF79097D501009385F7
:1013E00065A17DB741112E8597D50100938585A70D
:1013F00006C6EF80A11D014697450000938585EE46
:101400007945EF300011B2400146976500009385A1
:10141000E5751305600941016F30A00F411122C429
:1014200026C206C68307D503AE841734FF1F1304F4
:10143000A48B89C71307F003639BE702830614207C
:1014400017D60100130646C163D6060017E6010051
:10145000130606ED268597D50100938525C0EF80FC
:1014600081122244B240924441016FA0A01413059E
:10147000D503EF70E13C9737FF1FA387A7A6EFA026
:1014800060130306142097D501009385E5BE25451A
:10149000EF90704C834714206147B10793F7F70F23
:1014A0006377F700A1471737FF1FA30FF7A2EF508D
:1014B000D0278306142017D601001306E6B963D699
:1014C000060017E601001306A6E52244B240268571
:1014D000924497D501009385A5BA41016F80A10A76
:1014E000797122D49307D1012E8478089306B10133
:1014F0001306A101930591011305E10106D626D239
:101500004AD0EF60F0518348D1010348C1018347BD
:10151000B1010347A101834691010356E10197C53B
:1015200001009385254F2285EF80E1052285EF801C
:10153000010B9734FF1F938424298C5C03A80404B7
:101540000566130606E133F3C5029306C003229530
:10155000B378C802B377D80233F7D5023EC0DC585F
:10156000B3D8D8023358C802B356D30233D6C50213
:1015700097C501009385454CEF80E1002285EF80FF
:1015800001063309A400EF90806117C6010013061D
:10159000264809C517C601001306464797C501002E
:1015A0009385854D4A85EF70117E2285EF8021035A
:1015B000944022951738FF1F0348482193D72600EF
:1015C0008582858B1737FF1F03473720858A17369B
:1015D000FF1F0346262597C501009385E54AEF7056
:1015E000917AB25022549254025945618280AA875E
:1015F0000387D7032E8509C79306F0036311D7022B
:101600009727FF1F83C7C76E97C5010093854511B4
:1016100089E797C501009385A5136F70317B411150
:101620001385D70322C406C62E84EF70612113757B
:10163000F50F9727FF1F238DA76A1727FF1F034763
:10164000B76A89476316F7000DE91145EFA0E05A24
:101650009727FF1F83C7C76997C501009385C510EA
:1016600089E797C50100938565132285EF70117690
:101670002244B24041016F50500B1145EFA0C05AB7
:10168000C1BFAA870387D7032E8509C79306F00336
:10169000631ED7029727FF1F83C767650547638DC2
:1016A000E70089C70947638EE700828097C501007C
:1016B000938585156F70917197C501009385051904
:1016C000D5BF97C501009385251EEDB74111138540
:1016D000D70322C406C62E84EF7081161375F50F4A
:1016E0009727FF1F2385A760854797C5010093852E
:1016F000E5156306F50297C501009385E51005C160
:10170000894797C501009385251A630AF5001727B5
:10171000FF1F230EF75C97C501009385A51E228548
:10172000EF70D16A2244B24041016F501000AA8785
:101730000387D7032E8509C79306F003631CD700E0
:101740001726FF1F0346466497C501009385453B56
:101750006F70716341111385D70306C622C42E84AE
:10176000EF70810E9727FF1F2380A762EF50E07B69
:1017700022852244B2401726FF1F0346E66097C524
:1017800001009385253A4101E1B7411122C41305B7
:1017900050042E84814506C6EF30701FEF50206E36
:1017A0002A8622852244B24097C501009385854B45
:1017B00041016F70515D411122C41305D5032E8480
:1017C00097C501009385C52E06C6EF90D02811CD90
:1017D0000145EF50100097C501009385252E228505
:1017E0002244B24041016F70715E0545EF50607E4A
:1017F00097C501009385452EDDB7411122C42A8487
:101800008307D40306C626C22E8589C71307F003B3
:10181000639CE7029727FF1F938777601727FF1FB7
:101820001307D75C9726FF1F83D6466D1726FF1F29
:101830001306B65897C50100938505652244B2404A
:10184000924441016F703154AE841725FF1F130578
:10185000D5569305D403EF7071571725FF1F130555
:10186000D555EF70D15793150501C1811725FF1F7D
:101870001305B554EF9050558307940789CB130592
:101880009407EF60F17B9727FF1F2399A7668307D3
:10189000540B85CB9305540B1725FF1F13051555C6
:1018A000EF70D1521725FF1F13055554EF703153B8
:1018B00093150501C1811725FF1F13053553EF90BF
:1018C000B0508307140F85CB9305140F1725FF1F06
:1018D0001305F554EF70914F1725FF1F130535546D
:1018E000EF70F14F93150501C1811725FF1F1305F7
:1018F0001553EF90704DEF5040639727FF1F93876C
:1019000017521727FF1F1307774E9726FF1F83D6FF
:10191000E65E1726FF1F1306564A97C501009385FA
:10192000E557268521BFAA870387D7032E8509C7D8
:101930009306F003631CD7001726FF1F0356E65AD1
:1019400097C501009385C56A6F70F14341111385F6
:10195000D70306C622C42E84EF60916E13160501CC
:101960009727FF1F2393A758418297C501009385AE
:1019700065692285EF7031419727FF1F83C7D736EE
:1019800009476388E700ED1793F7F70F0547636A88
:10199000F7009727FF1F83D7475589EB0945EFA02D
:1019A000A0282244B24041016F502058EFA0C0153A
:1019B00075D51727FF1F035747539307B003E3EF6E
:1019C000E7FC0945EFA06023E9BFAA870387D70397
:1019D0002E8509C79306F0036313D7069727FF1FC9
:1019E00083C7575305476389E70289CF0947638E49
:1019F000E7020D476380E70497C5010093854555CD
:101A00006F70D13C17C601001306464B97C5010005
:101A10009385454C6F70313717C601001306464C4D
:101A200097C501009385C54CF5B717C6010013068D
:101A3000A64EFDB717C601001306464FD5B7411194
:101A40001385D70322C426C206C62E84EF60515FD9
:101A50001375F50F9727FF1FA38EA74A85446302CE
:101A600095041DC18947630AF5048D47630CF5048D
:101A700097C501009385C5512285EF7031359727B1
:101A8000FF1FA389974801A897C501009385C54CFE
:101A90002285EF70B1332244B240924441016F502D
:101AA000C04817C601001306A64397C501009385D9
:101AB000E54B2285EF70312DF9BF17C601001306E3
:101AC000A645E5B717C6010013064646F9BF011142
:101AD00006CE2EC6EFA0A00085471727FF1FA30143
