:04C000006F2000139A
:10C004000000000000000000900000208E090020C5
:10C01400A9BDF9F594000020000000000000000014
:10C02400960000209800002000000000000000009E
:10C034009A000020000000009C0000200000000086
:10C044009E00002026030020AA030020A400002054
:10C05400A6000020A8000020AA000020AC000020B8
:10C06400AE000020B0000020C60000205E010020C9
:10C074000A0A0020B8000020BA000020BC000020FA
:10C08400BE000020F60100208E020020C400002023
:10C0940001A001A001A001A001A001A001A001A094
:10C0A40001A001A001A001A001A001A001A001A084
:10C0B40001A001A001A001A001A001A001A001A074
:10C0C40001A001A001A037370040834747009946EB
:10C0D4004111BD8B638ED70231476386E706114752
:10C0E4006390E704A30301001746000003460627F4
:10C0F40037370040834771006317F6022C00173569
:10C1040000001305E526977001E0E780008D09A87B
:10C114008347570093F7F70F2304F1008347810007
:10C1240041017300203083477100834687000C0867
:10C13400AE97238CD7FE83477100850793F7F70FDB
:10C14400A303F10045BF280097D001E0E7806077A2
:10C154001375F50FA303A1000346710045B73737E4
:10C1640000408347474099464111BD8B638ED702F7
:10C1740031476386E70611476390E704A303010090
:10C18400174600000346A61D373700408347710059
:10C194006317F6022C00173500001305A51E9770CF
:10C1A40001E0E780808309A88347574093F7F70F9E
:10C1B4002304F10083478100410173002030834749
:10C1C4007100834687400C08AE97238CD7FE8347C3
:10C1D4007100850793F7F70FA303F10045BF28000B
:10C1E40097D001E0E780A07F1375F50FA303A100AA
:10C1F4000346710045B73747004083474780994657
:10C204004111BD8B638ED70231476386E706114720
:10C214006390E704A30301001746000003461614C5
:10C2240037470040834771006317F6022C00173527
:10C23400000013056516976001E0E780007A09A8FD
:10C244008347578093F7F70F2304F1008347810056
:10C2540041017300203083477100834687800C08B6
:10C26400AE97238CD7FE83477100850793F7F70FAA
:10C27400A303F10045BF280097E001E0E780E087D1
:10C284001375F50FA303A1000346710045B73747A3
:10C294000040834747C099464111BD8B638ED70246
:10C2A40031476386E70611476390E704A30301005F
:10C2B400174600000346666B37470040834771000A
:10C2C4006317F6022C00173500001305250E97603E
:10C2D40001E0E780807009A8834757C093F7F70F00
:10C2E4002304F10083478100410173002030834718
:10C2F4007100834687C00C08AE97238CD7FE834712
:10C304007100850793F7F70FA303F10045BF2800D9
:10C3140097E001E0E78020901375F50FA303A100D7
:10C324000346710045B7411126C4B714004022C624
:10C3340003D4C409420441809317240163DB07003A
:10C34400A145014597B001E0E780206C8967239EF1
:10C35400F4081374042015CC9747000083C797761C
:10C3640093E7170017470000A30EF774B7170040B0
:10C3740003A7470A1377072015C303A7C70A136740
:10C38400072023A6E70AB717004013070020239EBF
:10C39400E7083244A24441017300203003A7870A0E
:10C3A4001367072023A4E70AF9BFB717004003D790
:10C3B400E70903D7E7099316370163D4060417473F
:10C3C40000000347A7710507974600002388E6701D
:10C3D400174700000357476A136707409746000052
:10C3E400239CE6680567239FE70803A7470C856637
:10C3F400131637016359060003A7C70C558F23A6EC
:10C40400E70C7300203003A7870C558F23A4E70C97
:10C41400CDBF411122C406C69747000083C7678871
:10C42400174400001304446595CB8347D404858BDB
:10C4340095C78357040013974701634107028D454D
:10C44400094597B001E0E780405C9145174500003D
:10C454000345A564971002E0E780E0DE97470000FB
:10C4640083D7876113F7074005CF139747016341CB
:10C4740007028D45094597B001E0E78000599145D1
:10C484001745000003456561971002E0E780A0DBD3
:10C494008357040093F7F7BF17470000231EF75C88
:10C4A400B2402244410182804111814601468145C6
:10C4B400114506C6EF00A077B72700401147238334
:10C4C400E780B7F700E003A707D16D9B23A8E7D067
:10C4D40003A707D15D9B23A8E7D073005010010088
:10C4E4000100B240410182804111814681450146EB
:10C4F400114506C62D2FB727004011472383E78037
:10C50400B717004003C7E70283C5E70483D787034F
:10C5140091661377F70F93E5350063E5D700719BB8
:10C5240013671700B7170040130670052380C7046C
:10C53400930680FA2380D7040100010023820702B6
:10C544002380C7042380D704010001002387E70266
:10C554002387B7042380C7042380D7040100010084
:10C5640003C7B70413670702A385E70423800704FE
:10C5740037F700E0832507D193E545002328B7D09A
:10C58400832507D1DD992328B7D07300501001000B
:10C5940001002380C7042380D7040100010003C7DE
:10C5A400B7041377F70DA385E70423800704B2408B
:10C5B400410182800111B7F5070022CC8146E105D3
:10C5C4002A840A86194506CE26CA02C0231201000F
:10C5D400B92DB717004003C7E70283C5E70483D723
:10C5E400870391661377F70F93E5350063E5D7006A
:10C5F400719B13671700B71700401306700523805B
:10C60400C704930680FA2380D70401000100238223
:10C6140007022380C7042380D70401000100238775
:10C62400E7022387B70423800704B7F500E003A7D4
:10C6340005D11367470023A8E5D003D50702657722
:10C64400110713750560418D598D42054181010023
:10C654002380C7042380D7040100010003C7F70027
:10C6640037F40700B7F400E013670704A387E70073
:10C6740003C7B704610413670702A385E704239083
:10C68400A70283A704D1DD9B23A8F4D07300501024
:10C694000100010013056004352E81463000A28597
:10C6A400194502C423160100592322478247E31A7D
:10C6B400F7FCB7170040130770052380E70413073E
:10C6C40080FA2380E7040100010003C7B70413774D
:10C6D400F70DA385E70423800704F2406244D244A3
:10C6E4000561828001114EC681460146AA898145B1
:10C6F400114506CE22CC26CA4AC8152BB7160040CF
:10C7040083C7E60203C7E60483D68603116693F75C
:10C71400F70F1367370063E5C600F19B93E7170033
:10C72400371400401309700523002405930480FA8C
:10C7340023009404010001002302040223002405C1
:10C7440023009404010001002307F4022307E404F6
:10C7540023000404130550025920B7F700E003A78F
:10C7640007D11367470023A8E7D02300240523003B
:10C774009404010001000347F40013670704A307AE
:10C78400E40023002405230094040100010025672C
:10C79400B3E9E9002310340303A707D15D9B23A861
:10C7A400E7D0730050100100010081460146814525
:10C7B4001145B52923002405230094040100010038
:10C7C4008347640493E717002303F4042300040459
:10C7D400F2406244D2444249B24905618280B717AB
:10C7E4000040930670052380D704130780FA238042
:10C7F400E7040100010003C6B7041376F60DA38510
:10C80400C70423800704137605024DC203C6A7009C
:10C81400118A1DE22380D7042380E704010001006C
:10C8240003C7A700136747002385E7009307004B5E
:10C8340001000100FD17EDFFB717004093067005D6
:10C844002380D704130780FA2380E7040100010042
:10C854007D892394A70001000100010001002380C9
:10C8640007042380D7042380E704010001000100AA
:10C8740001003727004093061005A303D7802380C7
:10C884000704B7170040130770052380E704130754
:10C8940080FA2380E7040100010003C7B70413678B
:10C8A4000708A385E7042380070482801376050420
:10C8B40041C603C6A700418A1DE22380D704238012
:10C8C400E7040100010003C7A700136707012385DC
:10C8D400E7009307007D01000100FD17EDFFB71786
:10C8E4000040930670052380D704130780FA238041
:10C8F400E704010001001376F5011366060423948E
:10C90400C700010001000100010023800704238007
:10C91400D704130660042380E7046318C5000100EC
:10C92400010037270040894689BF010001003727ED
:10C9340000409306200591B72380D7042380E704A1
:10C944000100010003D787001367070C2394E70055
:10C954000DBF4111814601468145114506C6C12CD2
:10C96400B7170040130770052380E704130780FA04
:10C974002380E7040100010003C76704136717005D
:10C984002383E70423800704B24041018280814667
:10C99400014681451145612CB71700409306700587
:10C9A4002380D704130780FA2380E70401000100E1
:10C9B4007D562396C7022380D7042380E704010011
:10C9C400010003C76704136717002383E704238068
:10C9D400070401A0BD473305F50201007D1575FD6F
:10C9E4008280411122C426C206C6AA840144631768
:10C9F4009400B2402244924441018280050413050C
:10CA0400803E4204C13F4180DDB7B71700401307A1
:10CA140000032388E702854717470000232CF70EFD
:10CA240073002030397122DC4ED656D237140040C0
:10CA3400E57AB7F9070026DA52D45AD05ECE06DE7C
:10CA44004AD862CC2A8B916B93040404130A7005B0
:10CA5400910AE1098347E4020347E404835684030B
:10CA640093F7F70F1367370063E57601F19B93E7BC
:10CA7400170023804401130980FA23802401010054
:10CA840001002302040223804401238024010100C5
:10CA940001002307F4022307E4042380040037F78A
:10CAA40000E0832707D193E747002328F7D0835773
:10CAB400040293F70760B3E76701B3E75701C207BE
:10CAC400C18301002380440123802401010001006B
:10CAD4008346F400130CB40493E60604A307D400BD
:10CAE4008346B40493E60602A305D4042310F40297
:10CAF400832707D1DD9B2328F7D073005010010052
:10CB0400010013056004F9353000CE8581461945CE
:10CB140002C423160100212A11469745000093857B
:10CB2400E5FF280011231DD5930770052380F40029
:10CB3400238024010100010083470C0093F7F70DC3
:10CB44002300FC0023800400F2506254D254425962
:10CB5400B259225A925A025BF24B624C2161828092
:10CB6400411106C6AD2D7530977001E0E780201D98
:10CB7400D5BF2303048015472303E4800100230267
:10CB8400A480828083076480E3CE07FE23030480AD
:10CB9400828083076480E3CE07FE0345448082805D
:10CBA40083076480E3CE07FE2302A48082804111C0
:10CBB40026C44AC24EC006C61377F50BAD47AA89F0
:10CBC4002E8995446306F70019456537653F8D4402
:10CBD4004E854537FD59FD1463983401B240A24493
:10CBE4001249824941018280135509011375F50FD9
:10CBF400453F2209CDB7011126CC06CEB704080063
:10CC040051371545BD37713769372AC6A53F3245B7
:10CC14009377150089EB136515001375F50FF24032
:10CC2400E24405618280FD14E9FC0145CDBF397100
:10CC340026DC4ADA4ED852D656D45AD25ED006DE14
:10CC440062CE66CCB7E700E07D5783AA070022C610
:10CC540003AA470023A0E71823A2E718B717004048
:10CC6400130770052380E704130780FA2380E70481
:10CC740083C74704930B75FFB684E20793FBFB0F4E
:10CC84008546AA892E8B328937240040E1870157D3
:10CC940063FA76016308D50089461307000263131B
:10CCA400D5000157D98F93F7F70FB71C00402382A3
:10CCB400FC0411472303E4801305F00F5D3D094C88
:10CCC400D135636D7C11B7050700DA953787070006
:10CCD400795563F2E504B3879500636EF702370B69
:10CCE4000800A94733EB65016399F90689E4814497
:10CCF400513D26850DA0DA850945553D05090345B5
:10CD0400F9FFFD14050B693D81C49377FB0FFDF713
:10CD1400DD3569FD7D55B717004013077005238085
:10CD2400E704130780FA2380E70403C74704418B11
:10CD34002382E704F250B7E700E023A0571123A2AF
:10CD44004711E25432445259C259325AA25A125B20
:10CD5400825B724CE24C21618280A5476395F9069F
:10CD640085691309F00FB3069900B3742B01B694C7
:10CD74001349F9FFB3749900856B33796901416BE9
:10CD84009387F9FFB3F7270199E363FC340193D93F
:10CD94004900C147E3E637FF99BF0569C1697D19B9
:10CDA400D9B71305800D63886901130500026384F4
:10CDB400790113051008CA85DD3B353D21DD4E9907
:10CDC400B3843441D9B7DA852D45D533CA94E30009
:10CDD40099F205097D3BA30FA9FED5BF9387F9FFFF
:10CDE40093F7F70F6361FC0C83C71C041307300827
:10CDF400631FF70437070800636BEB04B3079B005A
:10CE0400B706100063F5D704334BEB0089476393EF
:10CE1400F9068980D549E38C04ECDA850945413B60
:10CE240011090327C9FF91472320E4800307648085
:10CE3400E34E07FE23033481FD17EDFBFD14110BB4
:10CE440081C49377FB0FE9FF7D3371F5E1B5B71723
:10CE5400004003C75704B70708001377070219E314
:10CE6400B78707007955E378FBEA33079B00E3FFB4
:10CE7400E7F855B58547E382F9F2DA852D45053B98
:10CE84009389F4FFE38504E6293393F7390091EBA2
:10CE9400832604800327090093074900E39AE6E404
:10CEA4003E89CE84F1BFB5476396F9001305900B14
:10CEB400C93135BDB1471305B00AE38BF9FE994773
:10CEC4006391F904B7050800B365BB002D45C5316E
:10CED40081448D4BA149753963967401832704807D
:10CEE4002320F9008504E39834FF83270480131773
:10CEF4002B01635507002312F900D5BB2322F90047
:10CF0400FDB39D476399F90281451305B00445318A
:10CF1400BD442320090023220900FD599D3993F7BC
:10CF24007400CA9703C70700FD14398D2380A70036
:10CF3400E39634FF6DBBA1476392F9046D398144D4
:10CF4400630D0B008D479304C0036308FB00930437
:10CF5400000563048B01930440041375C507E308BB
:10CF640095D81945393139390545213126850D3989
:10CF740009453D314931E31C05D669BB91476399A5
:10CF8400F90013056006F536F53E130590090DB753
:10CF9400E38F09D4F154A9BB19CD91CD09CE8147B2
:10CFA4003387F500834607003307F5008507230020
:10CFB400D700E317F6FE828019C991C909CA910501
:10CFC40083A7C5FF11057D16232EF5FEC5BF8280FC
:10CFD40001C919C62A960505A30FB5FEE31DA6FED1
:10CFE400828081473307F5000307070019E33E8574
:10CFF40082808507C5BF01112E8626CAAA8413150F
:10D0040006019305F004418122CC06CE32C6EF001E
:10D0140010762A8401C53246A685BD3F2285F2409A
:10D024006244D24405618280854715C18DC105C221
:10D034008147B306F5003387F50083C6060003472E
:10D0440007006398E6008507E315F6FE85473E85ED
:10D0540082808147EDBF9307F6FFBE952A9663133E
:10D06400C5008280FD1583C715000505A30FF5FED5
:10D07400FDB7AA87014581CF09CE3E96850703C730
:10D08400F7FF6317B700E39BC7FE054582808280E4
:10D09400014582807971975700009387673022D4C5
:10D0A400804306D626D24AD04ECE52CC56CA5AC84F
:10D0B4005EC662C45DCC37C9C901814B175A0000F2
:10D0C400130A8A32975400009384C42D1309F93744
:10D0D400975A0000938A8A27B709C0A8370B40578C
:10D0E4008357240095E35C44639D0B0017570000AD
:10D0F4002328F72A032CC4002285EF00707462846D
:10D1040099A823A6FB00FDB783270A00829783868C
:10D1140064011C4463DB06063307F5406367E908D2
:10D124009757000023AC07228355240003450400CD
:10D13400970002E0E78020115C405844A9CF1444D2
:10D14400B6978386640163C5060063E33701DA9703
:10D154001CC4A28B3A8449F4975700009387071F95
:10D164009C4B09476378F706F917175700002327E4
:10D17400F71EB250225492540259F249624AD24ADA
:10D18400424BB24B224C45618280E377F5F83387FA
:10D19400F9402A9761B763970B009757000023A1C2
:10D1A400E72089BF23A6EB00B1B7D85009CF63DFCE
:10D1B40006003385A74083A70A016376F5009757D5
:10D1C400000023ADA718A28B404471B7E3F3A7FE78
:10D1D400CE97C5B79757000023A2071859BF41112E
:10D1E40022C417540000130464191C4006C626C246
:10D1F4004AC091C782979757000023A107185C4043
:10D2040091C382971C406390071C9757000083C703
:10D21400B731858B95C797570000A38707301757F9
:10D22400000003479730954763FCE700352B975779
:10D23400000083C7972FF5178A07A2979C4382970C
:10D2440017590000130909328347C900918B99C308
:10D25400EF0050451C4491C3829797540000938477
:10D26400E4139840175600000346560E97570000E3
:10D2740083C7C70D93961700BA9683D60600D5CAFE
:10D284009757000083C7870C63EFC70A97570000BE
:10D29400238E070A1C40639807129757000083C720
:10D2A400F72891CF9757000083C7372889EB975702
:10D2B4000000A38D0726971002E0E780E06F9757E0
:10D2C4000000938767129C43638F070EB707C0A8BB
:10D2D400175700002324F708753B975700009387DE
:10D2E400670CDC53EDC31757000013072706184BD0
:10D2F4009757000083C7570C6367F70C1757000054
:10D304000347B722954763E0E70C8347C900918B35
:10D31400DDEB90409756000083C6560363CBD70AD3
:10D324002244B240924402494101170302E06700DB
:10D3340063DE850793F7F70F975600002388F600FE
:10D34400E3E6C7F235BF86073E97835507002310EF
:10D35400070097570000239107049757000093870D
:10D36400A7019C4317550000034545FE13172500EC
:10D37400BA979C4382979757000083D7E7011757C2
:10D3840000000347A7FC93C7F7FF7D8D9317170091
:10D3940098403E97835707005D8D2310A700975749
:10D3A400000083C7A7FA91C7850717570000230F0A
:10D3B400F7F817570000034767F99757000083C72A
:10D3C400F7F8E375F7ECB240224492440249410174
:10D3D4008280139717003297035707006DF785076C
:10D3E40035BFAD6737C70040BD072326F7200F10B0
:10D3F400000097570000938767F5C84F8327872657
:10D40400BD66BD0693C7F7FF99836A052326D72017
:10D414005D8D82804111B7170040985F3AC6945FD2
:10D424003247E39CE6FE324541018280828001114D
:10D4340022CC175400001304A41018402AC62EC48A
:10D4440032C206CE3C4B93F7F7F73CCB971002E081
:10D45400E78040531840975600009386A60B3C4B38
:10D4640093E707083CCB9C423245A24523A0070022
:10D474000347150003482500220742084297034842
:10D4840005004297034835006208429798D703473E
:10D4940055000348650022074208429703484500A7
:10D4A40042970348750062084297D8D7034795000E
:10D4B4000348A50022074208429703488500429783
:10D4C4000348B5006208429798DB0347D500034838
:10D4D400E5002207420842970348C5000345F500CA
:10D4E400429762052A97D8DB03C7150003C52500B8
:10D4F400220742052A9703C505002A9703C535006C
:10D5040062052A9798CF03C7550003C56500220713
:10D5140042052A9703C545002A9703C5750062058D
:10D524002A97D8CF03C7950003C5A5002207420553
:10D534002A9703C585002A9703C5B50062052A9773
:10D5440098D303C7D50003C5E500220742052A97EF
:10D5540003C5C50083C5F5002A97E2052E97D8D3E5
:10D56400D843759BD8C3D84313671700D8C39843CF
:10D574001367170098C3124698425C43858BD1E722
:10D584001C4F01452300F6009C429C4FA183A3003D
:10D59400F6009C429C4FC1832301F6009C429C4FA1
:10D5A400E183A301F6009C42D84F2302E600D84F42
:10D5B4002183A302E600D84F41832303E600D84F1A
:10D5C4006183A303E60098532304E6009853218360
:10D5D400A304E600985341832305E600985361832E
:10D5E400A305E600D8532306E600D8532183A306F7
:10D5F400E600D85341832307E600DC53E183A30705
:10D60400F600F2406244056182800100B5B7175705
:10D614000000130767F01443411122C49C5E4AC002
:10D6240006C6998326C2858B3A84175900001309CC
:10D6340069EED1CB9C5E975400009384A4EE93F7DB
:10D64400F7F99CDE17570000034727EE93070008FD
:10D65400631BF700832709009C4393F707041757BC
:10D6640000002304F7EC83C7040093F707049DC369
:10D6740097570000938747D79C438297975700009A
:10D6840023AAA7EA83C7040093F7F70B17570000F0
:10D69400230AF7E883C7440093F707048DE7854717
:10D6A40017570000A302F7E897570000938747E94C
:10D6B4009C43096798C7130700FC9756000023850D
:10D6C400E6E6D844F8D31C40985F1183058B09CB58
:10D6D400985F3D9B98DF0547975600002386E6E454
:10D6E400985F1D83058B11CB985F1377F7F798DF4D
:10D6F4008547175700002309F7E283270900D84319
:10D704000583058B19C7D843759BD8C3D843799B28
:10D71400D8C3B24022449244024941018280397103
:10D7240006DE16DC1ADA1ED82AD62ED432D236D029
:10D734003ACE3ECC42CA46C872C676C47AC27EC0CD
:10D74400F935F250E2525253C2533255A255125691
:10D7540082567247E2475248C248324EA24E124F96
:10D76400824F21617300203097570000938747DD73
:10D774009443975700009387E7DA03C70700058BA4
:10D7840011CB97570000238107DA97570000A38D28
:10D7940007D8828003C71700058B65F7F85271FF1D
:10D7A40083C75700DDB7175800001308E8D60327CE
:10D7B40008001C5F9583858BD1E709C61C5BBD837C
:10D7C4002300F60085CA83270800985B4607935711
:10D7D40067016356070093E707C0C207C183039735
:10D7E4000600C207C18709C7BA970947B3C7E7024A
:10D7F4002390F60085CD834715008DCB9756000006
:10D8040083C6A6D293F606041387970089478DCA68
:10D814003A9503470500854699471376F706631141
:10D82400D60262076187B947634C07008327080063
:10D834009C5FED838D8B17570000A30AF7CE8147B9
:10D844003E8582808547EDBF411122C406C6175428
:10D8540000001304E4CE184049E9AE877453FDFE7A
:10D864003E85B28597570000238F07CA971002E0C0
:10D87400E780A0EC97570000938707CA9C43B7063C
:10D8840080009843558F98C3D857719BD8D7975722
:10D894000000A38B07C897570000A38507C81C4046
:10D8A400094798C3B7F700E003A707D16D9B23A8E6
:10D8B400E7D003A707D15D9B23A8E7D073005010DE
:10D8C4001440175700001307E7C583472700858BCB
:10D8D40089EB83473700858BD9C797570000238589
:10D8E40007C4B2402244410182808D476310F5028F
:10D8F40097570000938747C29C43B706800098431C
:10D90400558F98C3D857719BD8D75DBF8547E31906
:10D91400F5FAB567BD075CC70F1000001C40096726
:10D92400094698C7130700F897560000238EE6BEF1
:10D9340017570000130747BE1443984231830D8BD9
:10D944006319C7001307E043F8D33D673D07D8C701
:10D9540085BF984231830D8B01E713076019EDB73A
:10D964001307E01BD5B7FC52ADF3A5BF5D7152DCC4
:10D97400175A0000130A4ABA03270A0086C6A2C42B
:10D98400A6C2CAC04EDE1C4397590000938909C041
:10D99400175900001309C9BA93F7F7E793E7070883
:10D9A4001CC383A609003707CEFF7D179C461306C8
:10D9B40080022A84F98F9CC6832709001307000874
:10D9C4002800B8CBAE8493051008EFF06FE09710F1
:10D9D40002E0E78020FB971002E0E780200883271D
:10D9E4000A009376F41F370FFCFF23A40700984B1B
:10D9F4004E88CA881367F70398CBF84F130510F8BD
:10DA0400D285137707E0558FF8CF9843F576FD1646
:10DA1400758F98C39843B7063300B7020400137791
:10DA2400F7E798C398439303401F7D1F1377F7E7E5
:10DA34001367071098C303A70900930F8002854951
:10DA44001C47D58F1CC7832709001307900D34008A
:10DA5400B8CB11490147135337002693834703007A
:10DA640013767700B3D7C740858BDDCF9C41832ED7
:10DA74000800239C07042390070603AECE02137EFE
:10DA8400DEFF23A6CE0383AE0700137EF70793FEC3
:10DA94000EF833EECE0123A0C70103AE4702336E66
:10DAA4005E0023A2C70383AE0800014E23A27E06B4
:10DAB40003DA070663074E0303AE0703038A06006F
:10DAC400135EFE00620E135E8E416358CA0103AEFC
:10DAD4000703135EFE002380C60103DE0706137EE0
:10DAE400FE0F03AA4E0663060A0003DA8705E37FE6
:10DAF40049FB03AE4702337EEE0123A2C7038387AB
:10DB04000600635CF400034E03003396C900134619
:10DB1400F6FF3376C6012300C3003E8663D3A70015
:10DB24002A8613158601618505071377F70F850685
:10DB3400E313F7F3B640264496440649F259625A71
:10DB440061618280975600009386869F9C42D847E5
:10DB540013161701635506029847131617016350ED
:10DB640006027D57B8D7174700001307277E584F82
:10DB74000507174600002329E67E116798C79847D2
:10DB84000D83058B1DC3175700000347C7991367FF
:10DB94001700175600002308E698130700F81756D5
:10DBA40000002303E698214798C79847058B09CFBF
:10DBB40017570000034717971367170017560000FD
:10DBC400A302E696054798C798470983058B09E79A
:10DBD40098470583058B31CF9847175600001306E5
:10DBE400669417550000130525930983058B630379
:10DBF40007101841184331830D8B75EBAC4B184E4D
:10DC040093F5050203471700CDCD79EF130770068E
:10DC1400D8CF0347060013671700175600002303E5
:10DC2400E690114798C718415C57F19B93E717009A
:10DC34005CD79C4298479316370163D606029756E1
:10DC4400000083C6669DC18A175700001307879595
:10DC5400C5CE034747071367070297560000238D75
:10DC6400E69A056798C798479316270163D1060279
:10DC7400175700000347478B620761876357070004
:10DC84000547975600002381E68A096798C7984795
:10DC94009316070163D606029756000083C6D697EB
:10DCA400858A175700001307E78FADCE0347570740
:10DCB4001367270097560000A380E696216798C74C
:10DCC400828029D785456315B7001307B00689B745
:10DCD40089456315B7001307F0061DBF8D4563150D
:10DCE400B700130730072DB71307500715B71307ED
:10DCF400600739BF03473600136717001756000043
:10DD0400A303E682094739BF834647070946BD8A0C
:10DD14006388C600034747078D463D8BE313D7F45A
:10DD2400114725BF83465707918AC9DA0347570726
:10DD34001367870041B7397106DE16DC1ADA1ED87C
:10DD44002AD62ED432D236D03ACE3ECC42CA46C897
:10DD540072C676C47AC27EC0F533F250E252525390
:10DD6400C2533255A255125682567247E247524860
:10DD7400C248324EA24E124F824F216173002030AE
:10DD8400174700001307077C8346B7019747000035
:10DD940083C7177E4C4BB697FD8B33D7F500974658
:10DDA4000000A381F67A97460000A383F67C058BD6
:10DDB40015EF174700000347F77BB3F7E7028146E7
:10DDC40001471305000233D6E500058A1378F70FDF
:10DDD40019CA6397D70097470000A3850777828005
:10DDE400850693F6F60F0507E31FA7FC8280974785
:10DDF40000009387675F9C43011122CC4EC606CE78
:10DE040026CA4AC852C456C28297974700009387CD
:10DE14006775804781496305A406BE84974700005F
:10DE240093874758038767013E8963550706018D29
:10DE3400135455009747000083C767729379F5011F
:10DE4400636DF402370AC0A8B70A4057153F9C44D3
:10DE54009746000083C6A670139756003E97830723
:10DE64006901158C63C5070063634701569797479B
:10DE7400000023ADE76EE37BD4FC1604B3693401E0
:10DE8400F24062444E85D2444249B249224A924AFF
:10DE940005618280E37D85F8B707C0A83384874095
:10DEA400229579B797470000938707549C43411103
:10DEB40022C406C626C28297974700009387876AC2
:10DEC40080476309A406BE84974700009387874D63
:10DED4008387670163D80704018D1354550097475E
:10DEE400000083C7C7676367F404593D98449747A4
:10DEF400000083C7C7669396570036971D8C9746D4
:10DF0400000023A5E666E372F4FE2244B240924484
:10DF1400174500000345156381454101171302E0CD
:10DF2400670043CFE37A85FAB707C0A833848740F4
:10DF3400229565B7B24022449244410182809747BA
:10DF440000009387A7649843B75702009387079FFD
:10DF5400832607091396560063580600832607098B
:10DF64001396660063440600FD17FDF3828071C5B5
:10DF7400AA870145E9C58D07C207C183F19BC20782
:10DF8400C18313074003636FF702174700001307A9
:10DF9400E7600843174700001307C75F14436398FB
:10DFA400A602174700001307E73F185B014541CB62
:10DFB4004111C20706C60545DD8D0297B2400145F1
:10DFC40041018280174700001307075DD9B7035743
:10DFD400650035E303574500636FF704B306F74064
:10DFE4002146637CD60203280500938687001D8F93
:10DFF400AA966117174600000356A6352392E60039
:10E0040023A006012393060014C12312F50013076D
:10E0140086FF97460000239EE6322313B5009745FA
:10E02400000083D50533B387F5401747000023125A
:10E03400F7322105828008419DB7014582808280A4
:10E044000DC1974700009387675503A307009747BF
:10E0540000009387275483A8070081469A8763E3C7
:10E064001701828003A80700636DF50A636BA80A91
:10E0740013878700E367E5FE03D66700216705077A
:10E084006317E60003C7F18B0507A38FE18A974561
:10E0940000009385A52B03D6470003D7650023937F
:10E0A4000700329742074183174500002313E52AEE
:10E0B400638A6702174500001305054E0841630390
:10E0C400F50203D5660019ED83D7460023A00601A7
:10E0D40021073E9621062392C60097470000239A03
:10E0E400E726B6879843E30E17F797460000938612
:10E0F400A64A9442E307D7F683566700BDF283D657
:10E104004700035647001843A106B2962392D7004E
:10E1140098C383D76500A10717470000231BF72284
:08E124008280BE86C28725BF80
:10E130009751FF1F938101A217A1FF1F130181ECCB
:10E1400017E5FFFF130545EC9725FF1F938585EB2A
:10E150001746FF1F130686FD63FAC50083220500DC
:10E1600023A0550011059105E3EAC5FE171502002D
:10E17000130585759745FF1F938545FB138601821F
:10E1800063FAC5008322050023A0550011059105FF
:10E19000E3EAC5FE138501829785FF1F93854552EB
:10E1A0006377B500232005001105E36DB5FEFD4240
:10E1B000739002BC8D4273904280B722000093821C
:10E1C000828873A002309722FF1F9382A2E393E21A
:10E1D00032007390523097020100938242E97390AB
:10E1E0001234730020303D432A876373C302937750
:10E1F000F700BDEFADE5937606FF3D8ABA960CC3F6
:10E200004CC30CC74CC74107E36BD7FE11E28280B9
:10E21000B306C3408A069702000096966780A60060
:10E220002307B700A306B7002306B700A305B7006E
:10E230002305B700A304B7002304B700A303B70066
:10E240002303B700A302B7002302B700A301B7005E
:10E250002301B700A300B7002300B700828093F525
:10E26000F50F93968500D58D93960501D58D61B7F1
:10E27000939627009702000096968682E78086FA9A
:10E280009680C1171D8F3E96E374C3F8A5B7336718
:10E29000B500FD530D8B79E7B7877F7F9387F7F73D
:10E2A00010419441B372F6003363F600BE92B3E2BC
:10E2B00062006397720C6318D6065041D441B37262
:10E2C000F6003363F600BE92B3E262006398720A0E
:10E2D000631BD60410459445B372F6003363F60011
:10E2E000BE92B3E262006391720A631ED602504589
:10E2F000D445B372F6003363F600BE92B3E2620017
:10E30000639A72086311D60210499449B372F600F9
:10E310003363F600BE92B3E2620063937208510564
:10E32000D105E30FD6F61317060193970601631C78
:10E33000F7001357060193D706013305F74093758D
:10E34000F50F91E982804183C1833305F7409375CE
:10E35000F50F91E182801377F70F93F7F70F3305ED
:10E36000F74082800346050083C605000505850544
:10E370006313D60065FA3305D640828011059105F6
:10E38000E312D6FE014582802105A105E31CD6FCDF
:10E39000014582803105B105E316D6FC0145828036
:10E3A0004105C105E310D6FC0145828001471146B5
:10E3B0004148B386E5008147B308F50083C80800EB
:10E3C0008507C10623A816FFE398C7FE11071105AC
:10E3D000E31107FF8280935785019CC19357054144
:10E3E00093F7F70FDCC19357854093F7F70F137539
:10E3F000F50F9CC5C8C582801C414111130705015A
:10E400003EC05C413EC21C453EC45C453EC693973F
:10E4100025001408B69783A707FF85051105232E4D
:10E42000F5FE8D89E315E5FE41018280397122DC1C
:10E4300041661384018D06DE26DA4AD84ED652D4C0
:10E4400056D25AD05ECE93050501A2863708FF004A
:10E450007D1683070500034735001105E207D98FB4
:10E460000307D5FF9106420733770701D98F0307CA
:10E47000E5FF2207718FD98F23AEF6FEE39BA5FC43
:10E4800081499144930A010117DB0100130B8BEEC4
:10E4900097DB0100938B8BEB130AC00293F73400D8
:10E4A000032904004844BDE78A85353785450A8538
:10E4B000A1370A871C43110793F6F70093F7070F5C
:10E4C000DA97B69783C70700232EF7FEE394EAFE98
:10E4D000024592476205C2075D8DB2475D8DA24736
:10E4E000A2075D8D93972900DE979C4385093D8D9A
:10E4F0003345250108C885041104E39144FBF2501B
:10E500006254D2544259B259225A925A025BF24B87
:10E51000216182803345A90008C8F1BF797122D4F6
:10E5200026D24AD04ECE52CC56CA06D62A8A9399C3
:10E5300045000144938A018D13090101C144B307C9
:10E540003401D69788438A85793533078A008A87CC
:10E550001443904391074107B18E2328D7FEE399D6
:10E5600027FF1104E31D94FCB25022549254025927
:10E57000F249624AD24A45618280397122DC130431
:10E58000050106DE22878147C1460C433306F100B0
:10E5900011070CC24C4710083E960CC24C4F10108D
:10E5A0003E960CC29107E392D7FE85450A85A935B0
:10E5B0008945080891358D4508103D3D8147414703
:10E5C000B306F10094421104232ED4FE1408BE9623
:10E5D000944254C41410BE969442910754CCE391D3
:10E5E000E7FEF250625421618280060593770510A0
:10E5F00089C71375F50F1345B5018280411106C611
:10E60000ED37B2404101D5B781471148C148338643
:10E61000F500B306F500014703AE06003303E6003C
:10E6200005072300C301C106E31807FF9107E39024
:10E6300017FF82809306050117D60100130686D3C3
:10E6400013050505138706FF1C43110793F5F70013
:10E6500093F7070FB297AE9783C70700232EF7FEF5
:10E66000E394E6FEC106E31FD5FC8280411122C47B
:10E6700006C626C285472E846301F50289476318C2
:10E68000F5002244B24092442E854101B9BF8D4726
:10E69000631BF5002E85913F298C2285B2402244D0
:10E6A000924441018280A5476315F5002E85B93754
:10E6B000DDB7AD47631AF5002E8589373D37AA844B
:10E6C00022852537258DC9BFB5476316F5002E85F0
:10E6D0003537AA84FDB7B947E311F5FC2E85393FDC
:10E6E000AA842137A98C228509373344950075B750
:10E6F0006382051493F7F500639E07121571D6C364
:10E70000AA8A3285A2CDA6CB86CFCAC9CEC7D2C52A
:10E71000DAC15EDF62DD66DB6AD96ED73284AE8431
:10E72000EF902164C147631EF50022850133014942
:10E73000130A010697DB0100938BCBD7294C634169
:10E740009902FE406E44DE444E49BE492E4A9E4A1E
:10E750000E4BFA5B6A5CDA5C4A5DBA5D2D618280C1
:10E76000338B2A010C105A859131814508107D3375
:10E7700085490810C135081009351C10D2863E871E
:10E7800010434107C10623A8C6FE032647FF23AA5C
:10E79000C6FE032687FF23ACC6FE0326C7FF23AEB3
:10E7A000C6FEE31FEAFC17D701001307A7CC032816
:10E7B0000700832D4700032D8700832CC700528458
:10E7C000138607010C4042853ECE3ACC32CA42C87D
:10E7D000713D0C482AC66E85513DB2460C5011045D
:10E7E000A98E6A8536C65935B2464C54A98E6685BF
:10E7F00036C6AD3DB246F2475246358D88C39107C5
:10E8000042486247E310F6FC4107B287E391EBFA16
:10E81000CE85081085091933E39D89F50810193D47
:10E820000810A13BA9450810D539DA850810E93B45
:10E83000410931B782809307F00F6384F60A2D7186
:10E84000232A911023282111B28423263111130683
:10E8500000102E89AA89930530020A85232E1110F3
:10E86000232C811036844132A2852685EFB0B05426
:10E8700013178500935785003365F7002310A10017
:10E88000A6852286130531009304340023018100FC
:10E8900093F4F40FEF80C17593F6F40089C64D042C
:10E8A000158C9374F40F1C02A697A6850A8517D6BB
:10E8B0000100130626C0238007F01D3D26868A85A9
:10E8C0004E85EF80E172230099008320C11103245B
:10E8D000811183244111032901118329C11015617C
:10E8E00082808280411106C6EF70703DB240AA86D8
:10E8F00017D70100130707C21756FF1F130606227A
:10E9000097D50100938545C2114541016FB0B064B0
:10E91000130101DB23248124232021252326112414
:10E9200023229124232E3123232C4123232A5123D4
:10E930002328612303470500930710042A892E84A6
:10E940006315F7680347150093074005631FF766D3
:10E95000034725009307E0056319F7662E86AA850D
:10E960002545EFB030541306D003A2854A85EFB099
:10E97000106DAA84635A05003546A2854A85EFB01A
:10E98000106CAA84634405089389D4FF930710038D
:10E9900063CE37074E86930539002808EF90414033
:10E9A0001C1CBE9917DA0100130A4AE6238409DE0B
:10E9B000D28A81494D4B83254A002808EFB0F06187
:10E9C0000DC18E09D69983D709004947636FF700B7
:10E9D00017D70100130747AF8A07BA979C43BA9726
:10E9E00082878509210AE39869FD97D501009385FF
:10E9F00025E1DDA89305F4FF858D13851400C2057C
:10EA000081460146C1814A95EF2090608320C12450
:10EA10000324812483244124032901248329C1233D
:10EA2000032A8123832A4123032B01231301012578
:10EA300082807D1493871400B3049440C2043E99ED
:10EA4000C1802686CA85E800EFC0C0071305D1043F
:10EA5000EF90213193150501C1811305D104EFC059
:10EA6000E01297D50100938565AD1305D104EFB091
:10EA7000D05619CD97D501009385C5AC0545EFB0AB
:10EA800050371765FF1F0345F5FFEF506067BDBFA7
:10EA900097D50100938545AC1305D104EFB0F05331
:10EAA00019CD97D501009385A5AB0545EFB070341E
:10EAB0001765FF1F034515FDEF50406781BF97D5D0
:10EAC00001009385E5AA1305D104EFB0105119CDCB
:10EAD000371700408327C70A856697D501009385BD
:10EAE000A5A9D58F2326F70A254501A697D50100AC
:10EAF000938545A91305D104EFB0304E11CD3717DA
:10EB000000408327870A856697D50100938505A86D
:10EB1000D58F2324F70AC9BF97D50100938585A710
:10EB20001305D104EFB0704B11CD37170040832788
:10EB3000C70AA16697D50100938585A6D58F2326A0
:10EB4000F70A5DB797D50100938585A61305D10413
:10EB5000EFB0B04811CD371700408327870AA16670
:10EB600097D50100938585A5D58F2324F70AADBFDE
:10EB700097D50100938585A51305D104EFB0F04525
:10EB800005C1B716004083A7860A056713070780EB
:10EB9000D98F23A4F60A97D501009385E5A3A9B7D9
:10EBA00097D50100938505A41305D104EFB0F04279
:10EBB00005C1B716004083A7C60A0567130707807B
:10EBC000D98F23A6F60A97D50100938565A229BFA0
:10EBD00097D50100938585A21305D104EFB0F03FCE
:10EBE00011C59767FF1F23AF07EA0DB597D5010041
:10EBF000938585A11305D104EFB0303E01C5EF60C8
:10EC0000E01029B597D501009385C5A01305D1045F
:10EC1000EFB0B03C01C5EF604016CDBB97D5010009
:10EC2000938505A01305D104EFB0303B01C5EF502B
:10EC3000102DE9BB97D501009385459F1305D1049D
:10EC4000EFB0B03901C5EF90A00DC9B397D5010061
:10EC50009385459E1305D104EFB0303809C50545AD
:10EC6000EF80B00C65B397D501009385259D130502
:10EC7000D104EFB0903619C10145DDB797D5010039
:10EC80009385459C1305D104EFB0303511C9371772
:10EC900000408327C70A9166D58F2326F70ABDB3A4
:10ECA00097D501009385859A1305D104EFB0F03212
:10ECB00011C9371700408327870A9166D58F23240F
:10ECC000F70AA9B397D501009385C5981305D10418
:10ECD000EFB0B03011C5A6854A85EF6040173DB34F
:10ECE0000346D104A547130606FD1376F60FE3EF9E
:10ECF000C7D09767FF1FA38FC7D897D5010093850B
:10ED0000E595EFB0502519B31306F4FF058E138572
:10ED100014004206418297D501009385254D4A95FE
:10ED2000EFB0703F1764FF1F130404D51DC50545E0
:10ED3000EF10901B97D50100938585931145EFB097
:10ED4000500B83570400414593E717001767FF1FD7
:10ED50002314F7D2EFC0C04955B997D50100938568
:10ED6000E5911145EFB0F0087D55EFC0404B83575A
:10ED70000400F99B1767FF1F2310F7D041B99D3698
:10ED800071B11306F4FF058E13851400420641820B
:10ED900097D50100938585454A95EFB0D037176424
:10EDA000FF1F130464CD29C58357040097D50100C4
:10EDB0009385858DE80093E717001767FF1F231DD4
:10EDC000F7CAEF80F178E800EF80B17913160501FA
:10EDD000EC0041821745FF1F1305455DEF8060235E
:10EDE00097D501009385058C1145EFB0900039B996
:10EDF00097D501009385C58BE800EF807175E80019
:10EE0000EF80317613160501EC0041821745FF1F94
:10EE10001305C559EF80E01F8357040097D5010003
:10EE20009385C58AF99B1767FF1F2317F7C46DBF2A
:10EE3000EF7080279767FF1F938707C4E843EF7041
:10EE4000516FAE862A8697D501009385E5881145D6
:10EE5000EFB0701065BEEF5040404DBE17D60100B8
:10EE60001306463997D501009385C587114551BDD5
:10EE7000EF70406997D501009385858735F597D563
:10EE800001009385E5878DB73145EF80304FAA8427
:10EE9000EF70316A2A86AE86254597D501009385A5
:10EEA0006587EFB0500B97C701009387E7688843E9
:10EEB000A6851754FF1F1304A4DEEF70217D2320C5
:10EEC000A422EF70206B03250422EF709166AE86BA
:10EED0002A8697D501009385A58495BF81450D4568
:10EEE000EF509051EF70E05C2A8697D50100938532
:10EEF000E585ADBF81452D45EF5010508145130587
:10EF00005004EF50704F97D501009385258531450A
:10EF1000EF50904EEF70405A2AC6EF70A05AB2469A
:10EF20002A871756FF1F130666BF97D501009385E2
:10EF300025831145EFB03002D1BC1757FF1F03578F
:10EF4000C7F79756FF1F9386B6DF1756FF1F1306A6
:10EF5000E6BC97D501009385E582E1BF8547175749
:10EF6000FF1F2305F7F6EF70E06097D5010093854A
:10EF7000A5829DBD1757FF1F034747F5854797D5C6
:10EF800001009385E581E311F7E6C5B79767FF1F99
:10EF9000938787AEA843EF70D159AE862A8697D55E
:10EFA00001009385658065B5B717004083A7470AC0
:10EFB00097D501009385858093F70720E39607E2B4
:10EFC00097D501009385858105B50146A2854A85BF
:10EFD000EF50502525BC411122C4216493050480C3
:10EFE00099460146254506C69720FF1FE78060C465
:10EFF000930504802244B240994613860182294534
:10F0000041011723FF1F6700C3C299E101458280B8
:10F0100075DD011152C403DA418226CA93548A0075
:10F020008504A204C204C18056C2B38A4441C20A04
:10F0300022CC4AC82E862E842A8997D50100938532
:10F04000A5A0254593DA0A014EC606CE9389018212
:10F05000EFB0607063ED8A0883D5418293F7F50FB6
:10F06000B1CF8D6783D5418293870780A2864A8678
:10F07000BE9529459720FF1FE780A0BB1375F50FAC
:10F0800029ED83D749001566A2972392F18203D711
:10F09000418283D721826309F70063F3E700B297C7
:10F0A000998F139607014182254597D501009385D5
:10F0B000259BEFB0406A1375F40F0DA08D67938701
:10F0C0000780930600100146BE9525459720FF1F37
:10F0D000E78020B61375F50F49D50145F24062442B
:10F0E000D2444249B249224A924A05618280B3071A
:10F0F0009440D297C207C183A18303C74900850703
:10F1000093F7F70F9396870011EB9386170093748C
:10F110000AF0A206C204C206C180C18283D721823E
:10F1200063F6F40033879600E3C9E7FA0D6A130A21
:10F130000A800146B385440125459720FF1FE780DB
:10F1400040AF1375F50F51F983D54182A2864A86E7
:10F15000D29505B7411122C41384018222858145CD
:10F16000194606C69720FF1FE780C0E69307B0FA4E
:10F170002300F4008D352244B24097D501009385D9
:10F180002585254541016FB0C046A16541119946CD
:10F1900013860182938505802D4506C69720FF1FA3
:10F1A000E78020A903C701829307B00A6303F70031
:10F1B0005537B24083D6418203D6218297D50100CC
:10F1C0009385C581254541016FB0E05883D70198EB
:10F1D0000145638C071003D521986366F50023A0D1
:10F1E0000198014582803385A740D1473355F50208
:10F1F0001375F50F01E5239001988280130101BD7D
:10F200002324814223261142232291422320214399
:10F21000232E3141232C4141232A51419547137418
:10F22000F50F63F3A7001544228697D50100938557
:10F23000E5842545EFB020520149814493894198E6
:10F24000514AA14A9377F90F03D521981757FF1F09
:10F25000034797BB63E98704D1473304F4022A9438
:10F2600023918198A147631CF706A6850808EF4003
:10F27000801903D7219883D7019805456364F70067
:10F2800023A001988320C142032481428324414268
:10F29000032901428329C141032A8141832A414133
:10F2A000130101438280B30749031408AA97CE973C
:10F2B00033859600631E5701BE85EF404034231707
:10F2C000A1008357E1000509BE94C204C1809DBF1F
:10F2D000AA851306E1003E85EF902075DDB72686EE
:10F2E0000C080145EF60202E69B78280011106CE1F
:10F2F00022CC26CA4AC84EC691E901442285F24072
:10F300006244D2444249B24905618280AA8975D5D6
:10F3100083D7418203D621822E849564638AC700F5
:10F320006374F60015673A961D8E93140601C1802A
:10F33000268697C501009385A5662545EFB0A041B7
:10F34000938714F06356F4009307F00F63EA970075
:10F3500097C50100938545662545EFB0C03F71BF55
:10F3600083D4418233878400956763C7E700A28511
:10F370004E8561398D3159B7156933099940420974
:10F3800013590901CA854E85493125D9ED75A695D0
:10F39000A295C20523920182C18133852901D1BF83
:10F3A00083D6019881EA97C5010093856567254555
:10F3B0006FB0202403D621984111918E97C501008A
:10F3C00093850567254506C6EFB0E0381387019899
:10F3D0008355070083D72198138541989D8DC205D9
:10F3E0003E95C1812137B24023A00198410182801E
:10F3F000411183D7019822C426C206C6AE971307CF
:10F40000401FAA842E84635AF700593F97C5010014
:10F410009385C55E2545EFB0C01D83D70198138540
:10F4200041982286A6853E95EF70913C03D60198BF
:10F43000229642062244B240924441822390C198CF
:10F4400097C501009385055D254541016FB0A0304A
:10F45000011126CA06CE22CC4AC84EC652C456C294
:10F46000814459C1D1C183D7218203D44182638DA4
:10F47000870663F587081D8C42044180AE892A897E
:10F48000228697C501009385254E0145EFB0A02C3B
:10F49000A28463F38900CE84C2040D6A83D72182DB
:10F4A00003D74182C180938A0182130A0A8063FADA
:10F4B000E704A6864A86B38547012D459710FF1FAE
:10F4C000E780207783D72A00A6972391F182EFF077
:10F4D0009FB083D6418203D6218297C501009385D0
:10F4E000E5492545EFB02027F24062442685424990
:10F4F000D244B249224A924A0561828015673A9401
:10F500009DBF15671D8FB385470163D5E400A686AF
:10F510004A8665B79569B389F9406D743E94C2090E
:10F5200093D909012694CE864A8642042D45971028
:10F53000FF1FE78000704180A28633063901D28523
:10F540002D45239101829710FF1FE780806E83D79E
:10F550002A003E94239181829DBF1841938781FBAD
:10F56000104598C303574500544590C72392E700C0
:10F5700058551049D4C7544998CF97C50100938571
:10F58000A5640547254590CBD4CB238EE7006FB00B
:10F590004006397126DA4AD84ED652D456D25AD0BD
:10F5A00006DE22DC62CE66CC2A89EF80817B9374F2
:10F5B000F50F8149254BE54A17CA0100130A8A4D08
:10F5C00091ECF25062544E85D2544259B259225AAB
:10F5D000925A025B724CE24C21618280034709001F
:10F5E000930707FD93F7F70F637CFB009307F7F989
:10F5F00093F7F70F63E2FA06930797FA93F7F70F7B
:10F60000139487016184FD14230089002685EF602F
:10F61000B1432A86AE8603250A0083254A0093F467
:10F62000F40F0509EFE0F04E2AC422852EC6EF60E4
:10F63000B1412246B246EF50D1712A8C4E85AE8C34
:10F64000EF60B1472A86AE866285E685EF504105B8
:10F65000EF60D139AA89ADB79306F7FB93F6F60FA1
:10F660008147E3EFDAF8930797FC49BF411122C4C1
:10F6700006C6830795022A8499C713059502EF7081
:10F6800071142389A1F68307D41291CB1305D412E8
:10F69000EF70F112EF70A174938701F4C8D3B240F8
:10F6A000224441018280011126CA9304150022CC14
:10F6B00097C50100938505552A84268506CE4AC83C
:10F6C0004EC6EFB08019631E051097C501009385E3
:10F6D000A5532685EFB060186302050E85448307A5
:10F6E000D4036386070C13059402EF70B10D8549AE
:10F6F0001379F50F1305D4036387340F8947638C9F
:10F70000F418EF70310CA38AA1F6631A3901794617
:10F710008145138571F923830182EFE0DFAC830714
:10F72000D40885C31305D408EF70D10903C76182DB
:10F73000930717002383F182938701F4BA97A38B71
:10F74000A7048307D40D85C31305D40DEF7091076B
:10F7500003C76182930717002383F182938701F423
:10F76000BA97A38BA7048307D41285C31305D412B9
:10F77000EF70510503C76182930717002383F1825D
:10F78000938701F4BA97A38BA7048307D41785C383
:10F790001305D417EF70110303C761829307170095
:10F7A0002383F182938701F4BA97A38BA704F240D5
:10F7B0006244D2444249B2490561828097C5010042
:10F7C0009385C5442685EFB04009E31905F02685E9
:10F7D00097C501009385C543EFB020088944E31025
:10F7E00005F08144EDBDEF70E17D238BA1F6631A36
:10F7F000990079468145138591F723830182EFE0D3
:10F800009F9E8307D40885C31305D408EF70817BBE
:10F8100003C76182930717002383F182938701F462
:10F82000BA97A38CA7028307D40D85C31305D40D03
:10F83000EF70417903C76182930717002383F18238
:10F84000938701F4BA97A38CA7028307D41285C3C8
:10F850001305D412EF70017703C761829307170075
:10F860002383F182938701F4BA97A38CA7028307BD
:10F87000D417E38E07F21305D417EF70A17403C7F2
:10F880006182930717002383F182938701F4BA976B
:10F89000A38CA70229BFEF70E172A38BA1F601BF71
:10F8A000411122C406C6830795072A8499C7130508
:10F8B0009507EF702171A389A1F68307D40899C732
:10F8C0001305D408EF700170238AA1F68307540B47
:10F8D00091CB1305540BEF70816EEF7041509387FD
:10F8E00001F488D7B240224441018280011126CA26
:10F8F0008146B284014652C456C206CE22CC4AC8C2
:10F900004EC62A8AAE8AEF50F12741CD9307E00414
:10F910006386F400930730056395F40897C90100E6
:10F920009389492C03A6090083A649005285D685F0
:10F93000EF50314237949800EF60510B1304046884
:10F940002A8933758502EF60511703A6090083A643
:10F950004900EF50E14797C701009387272990435B
:10F96000D443EF50E1462A8A33558902AE8AEF60CC
:10F97000D1142A86AE865285D685EF407152130780
:10F980003005AE876395E400B7070080AD8FF24085
:10F990006244D2444249B249224A924ABE85056134
:10F9A000828001458147E5B7011126CA8146B284AC
:10F9B000014652C456C206CE22CC4AC84EC62A8A36
:10F9C000AE8AEF50311C41CD930750046386F4009A
:10F9D000930770056395F40897C9010093898920FE
:10F9E00003A6090083A649005285D685EF507136DB
:10F9F00037949800EF60817F130404682A89337577
:10FA00008502EF60910B03A6090083A64900EF5021
:10FA1000213C97C701009387671D9043D443EF5063
:10FA2000213B2A8A33558902AE8AEF6011092A8662
:10FA3000AE865285D685EF40B14613077005AE8776
:10FA40006395E400B7070080AD8FF2406244D24472
:10FA50004249B249224A924ABE85056182800145E7
:10FA60008147E5B7135785009357050113D88500E3
:10FA70009376F50F01111377F70F93F7F70F618561
:10FA800093F5F50F1378F80F99C211C3B9E3230C5E
:10FA9000D100A30CE100230DF100A30DA10003454B
:10FAA0009101834781010347A1012205A30E0101B2
:10FAB0004207C98F230EB1000345B101D98F034717
:10FAC000D1018345C101620522075D8DD98D056194
:10FAD000828032951375F50F1313850113538341FB
:10FAE0005D466357660861463363C3028507137634
:10FAF000D70F114593F7F70F6305A6002545631A45
:10FB0000A6007946637FF60205071377F70F85474E
:10FB10000DA809466312C7041386067D93084006A4
:10FB2000B36816036385080013F5360011C5130585
:10FB300000193366A60219EE75466374F600854710
:10FB40000D47230CD100A30CE100230DF100A30D00
:10FB50006100B1B77146D5B77D46E374F6FEB14793
:10FB6000E314F7FA850693F6F60F85470547D1BFEC
:10FB7000E35903FC6105FD171313850193F7F70F94
:10FB800013538341DDFF7D171377F70F1146F947B4
:10FB9000E309C7FA1946E306C7FA2546E303C7FA9D
:10FBA0002D46E300C7FA89476316F7021386067DE0
:10FBB00093074006B367F60291C793F83600F547FE
:10FBC000E38108F893070019B367F60293B71700AB
:10FBD000F10785BFFD4735F7FD1693F6F60F314760
:10FBE0008DB783471500034705000111A2075D8FFC
:10FBF000834725008346350083454500C207D98FDA
:10FC00000347550022CC1744FF1F13046409030661
:10FC10001420E206220733E5F600D98D06CE993589
:10FC2000135885001356050193D7850013F7F50F78
:10FC300093F7F70F935685011376F60F9375F80F28
:10FC40001375F50FEF70B04C83471400054793F719
:10FC5000B70F6397E7006244F24005616F70B05AD6
:10FC6000F240624405618280497123248116138425
:10FC700001F48307340083C851F403C841F403C777
:10FC800021F483C611F403C601F497C501009385DE
:10FC9000E5F9481023261116232291162320211757
:10FCA000232E3115EF8061064810EF80810B184834
:10FCB0005C48030604033AC03EC2030814035C44D4
:10FCC0001844541097C50100938545F83695EF8088
:10FCD000C1034810EF80E1085C103E958307640083
:10FCE00017C60100130606F489C717C601001306DC
:10FCF000E6F297D501009385E5ABEF80010148104E
:10FD0000EF802106544C104C5C1097C50100938580
:10FD1000E5F43E95EF70717F4810EF808104030693
:10FD200034035C103E9597C501009385E5F3EF70B1
:10FD3000D17D4810EF80E10203072403AA844850D4
:10FD40003ACE138401F4EF60D17E72475C10AE8628
:10FD50002A8697C50100938525F233859700EF70B9
:10FD6000D17A4810EF70F17F5C1003C641F797C558
:10FD700001009385E5F13E95EF7031794810EF7001
:10FD8000517E5C1097C50100938585F13E95EF701B
:10FD9000317C1389E1F5A28497D90100938909A1E7
:10FDA00003C6740519CA481032CEEF70917B7246B3
:10FDB0005C10CE853E95EF7051758504E39224FF6B
:10FDC0004810EF70117A5C1097C501009385C5ED5E
:10FDD0003E95EF70F17797D401009384249D0346FC
:10FDE000940319CA481032CEEF70B17772465C1096
:10FDF000A6853E95EF7071710504E31224FF4C1047
:10FE00002545EFA0007F8320C1160324811683249B
:10FE10004116032901168329C1157561828041119C
:10FE200022C406C626C2830755012A84B9C7A9463B
:10FE3000938707FDB387D70203476501130707FDC3
:10FE4000BA97A381F1F4030775018347850113076E
:10FE500007FD3307D702938707FD3E972382E1F41E
:10FE6000830795010347A501938707FDB387D70251
:10FE7000130707FDBA97A382F1F48307940281CB9D
:10FE8000130710046391E71485472383F1F4830774
:10FE9000D403938401F499C71305D403EF7021129E
:10FEA00088C4CCC40306140509CA8844CC442388FA
:10FEB000C1F6EFF0BFA388C4CCC48307540699C72A
:10FEC00013055406EF70A10F88C8CCC80306940729
:10FED00009CA8848CC48A388C1F6EFF0FFAC88C8AF
:10FEE000CCC88307D40899CF1305D408EF70210D2F
:10FEF00097C70100938707D29043D443EF506165C1
:10FF000088CCCCCC8307140A99C71305140AEF7068
:10FF1000610B2390A1F68307540BB9C7A9469387B9
:10FF200007FDB387D7020347640B130707FDBA9792
:10FF30002381F1F40307740B8347840B130707FD38
:10FF40003307D702938707FD3E97A380E1F4830729
:10FF5000940B0347A40B938707FDB387D7021307BE
:10FF600007FDBA972380F1F483853400856703C6C3
:10FF700041F4938707E11307C0033307E60283C602
:10FF800051F4B387F502BA97B69723A6F1F617573F
:10FF9000FF1F130767AE835707003A8413F58700E6
:10FFA00039E1038564000547631FE50203C721F4B7
:10FFB00011EF8844CC4401468146EF50A13C05E94D
:10FFC000238301F4B9A0238301F4D1B5FDD175D207
:10FFD000EDD293E78700138501F41757FF1F231D08
:10FFE000F7A8EFF01FC083876400E1F7D1BF88480E
:10FFF000CC4801468146EF50E13879D183C721F4DE
:020000021000EC
:10000000E1D313068007938501F4138581ECEF603B
:10001000317E03C581B79D4705053365F50213069B
:100020008007938501F4238CA1B6930780073305DD
:10003000F502938701B83E95EF60917BEFF0DFC248
:100040001C582244B24092441757FF1F2322F7A6A0
:10005000130680078145138501F441016FE0AF98D5
:100060000171232C811E232A911E1306101E2A843F
:10007000AE8468008145232E111E2328211FEFE046
:100080008F9681458147014701465148CD485D43E0
:100090006340960899C12306F1001306A002A685C5
:1000A0002285EFA0C0798347C10051473386A44021
:1000B000B387E7029305150078007D16A2958507A2
:1000C0003305F700EF60D1721306A002A6852285E2
:1000D00003491400EFA0A076894763C3A70803452E
:1000E000C100D1473305F5027C0005053E95EFF0D0
:1000F0004FCA631CA904194697C50100938585AFB3
:100100001305D100EFA0300125C56800093B35A8D3
:10011000B306C40003C50600930665FD93F6D60F2B
:1001200091EA850793F7F70F6361F302854501476D
:100130000506B9BFB3860703130E011FF296BA96E0
:10014000A38EA6E00507E3D5E8FE8320C11F0324A4
:10015000811F8324411F0329011F13010120828075
:100160003307F4000347070085073349E900B5B7B3
:10017000194697C50100938525A81305D100EFA066
:1001800080790DED194697C50100938525A71305C4
:10019000D100EFA0407819ED194697C5010093856D
:1001A00025A61305D100EFA0007745D16800EFF038
:1001B0008FCF61BF6800EFF0AFEE41BF6800EFF096
:1001C000EFCA61B7757122C526C34AC1CEDED2DC43
:1001D000D6DADAD806C7AA892E8981440144814734
:1001E000130A4002854A354B139704014183636C1F
:1001F0002701BA402A449A440A49F659665AD65AFF
:10020000465B49618280338799000347070063009A
:100210004703639C5701631D67019C18A297A28541
:100220006800238E07F82D3D8147850475BF014482
:100230009C18A29705041374F40F238EE7F89337E4
:100240003406E5B7411106C6138581B7834705001B
:10025000130780078145B387E70213068007A107CC
:100260003E95EFD05FF8B2408145114541016FA046
:10027000F070138581B78347050013078007B387A4
:10028000E702A1073E958280138581EC8280974723
:10029000FF1F83C7F77E81CF9747FF1F83D767C0B4
:1002A000FD17C207C1831307A0036375F70023A4DA
:1002B0000182828031714ED79389818283A70900A0
:1002C00056D3938A81B7850722DD26DB52D55AD1D2
:1002D0005ECF62CD66CB6AC906DF4AD96EC723A45A
:1002E000F18283C481B7014A130C8007568497CCEE
:1002F0000100938C2C84054D9D4B154B3389840351
:1003000056998307E900E1CF03A60C0083A64C00B1
:100310000325090283254902EF5041186341050C6A
:1003200083470904638DA70B93171A001808BA971F
:10033000035789022390E7003C00D297238097005F
:10034000050A9904B3E47403E31A6AFB03578101B5
:1003500083570101998F13D7F741B98F998F9394E0
:1003600007011307400BC1806358F70093078016FD
:10037000B3849740C204C180268697B50100938557
:10038000657E6808EF7071186C082545EFA060263F
:10039000938714FFC207C1837947636EF708034947
:1003A0009100130A80078545014533094903210956
:1003B00022994A86EF8050368344B1008545014535
:1003C000B3844403A104A2942686EF80F034CA8546
:1003D0000D45EF300025A6850D45EF30802483A71D
:1003E00009001747FF1F0357C7AB63E7E70203C5C1
:1003F00081B79304800733059502B30DA40083876A
:10040000ED0099CB83C741FD138981FB6397070EEC
:1004100021052295EFF06F94FA506A54DA544A5944
:10042000BA592A5A9A5A0A5BFA4B6A4CDA4C4A4D24
:10043000BA4D296182809307D002E3F297FA834B89
:100440008100930A80078545B38B5B030145138CBC
:100450008B00229C6286EF80302C034B91008545F7
:100460000145330B5B03A29B210B229B5A86EF8035
:10047000B02A034AA10085450145330A5A03210ADF
:10048000229A5286EF8050290349B10085450145E3
:1004900033095903210922994A86EF80F0278344C2
:1004A000C10085450145B3845403A104A294268666
:1004B000EF809026E2850D45EF30A016DA850D45D8
:1004C000EF302016D2850D45EF30A015CA850D45B9
:1004D000EF302015A6850D45EF30A01483C781B7F6
:1004E000B38A570303A74B03A29A83A74A03E318CF
:1004F000F7EE85472380FA04DDB517BD0100130D23
:10050000ED6303260D0083264D0003A50D0183A591
:100510004D0197B901009389E962EF50810303A669
:10052000090083A64900EF40B10A2A8BAE8B03264F
:100530000D0083264D00032589008325C900EF5057
:10054000410103A6090083A64900EF4071082A8AE9
:10055000AE8A2A86AE865A85DE85EF50014B97B764
:1005600001009387A75E9043D443EF40917EEFD084
:1005700030452A8CAE8C5A85DE85EFD0503B2A8BD5
:10058000AE8B5285D685EFD0903A0326090183269B
:1005900049012A8AAE8A03A58D0183A5CD01EF50BA
:1005A000C14603260D0083264D00EF40917A03A635
:1005B000090083A64900EF40B10197B70100938776
:1005C000E7589043D443EF40D178EFD0703F2A8969
:1005D000AE895286D6865A85DE85EF4091774A8667
:1005E000CE86EF4011774A86CE86EF4091762A89F3
:1005F000AE896286E6866285E685EF4091752A8639
:10060000AE864A85CE85EF40A109EFE0E002EFD04B
:1006100070442A86AE86EF40A10897B70100938701
:1006200067539043D443EF40D17297B7010093874B
:10063000E7529043D443EF40D1712A86AE862A898F
:10064000AE89680897B501009385C552EF70E16BDC
:100650006C082545EF90F0791735FF1F0345456E6F
:10066000EF50913E2A86AE864A85CE85EF403158BE
:10067000E354A0DA03C681B73306960285450145E7
:1006800021062296EF80500983C581B7B385950274
:100690000D45A105A295EF20D07803C581B733059C
:1006A000950221052295EFE05FEB23A40182ADB313
:1006B0000111254697B50100938545C6480006CE31
:1006C000EF6011134C0025461735FF1F130505CEAB
:1006D000EF60301497B501009385854B2545EF9069
:1006E0005071F24005618280797122D42D4697B510
:1006F0000100938525C42A84280006D6EF60510F97
:100700002D4697B501009385A5C34808EF60510EAB
:100710002D461DC02C001735FF1F130525C9EF609E
:10072000500F97B50100938525482545EF90706CD3
:10073000B2502254456182804C081735FF1F1305C3
:10074000E5C6EF60100D97B501009385E546F1BF52
:10075000317186064ED7AA8913D5160006DF22DD31
:1007600026DB4AD9B2CE2E89EF60415797B70100F8
:100770009387C73376468C432A843285EF60012DF8
:10078000EF60C155AA84554681452801EFD0BFA529
:1007900085472308F10693D789402309F10693D7AB
:1007A0000941A309F10693578940230BF10693579A
:1007B0000941A30BF10693D78400230DF10693D7CB
:1007C0000401A30DF10693578400230FF1069357FC
:1007D0000401A30FF106B7E70B109387179FA30837
:1007E0003107A30A210793D9894113598941A30CE1
:1007F0009106A30E8106E18061803EC35801C54782
:10080000230081082304F108230A3107230C210760
:10081000230E9106FC103A849306D10703C64700C5
:1008200085070507A302C700E39AD7FE034881089E
:100830000147814793055800894693F7F70F1377CF
:10084000F70F63DCD50AA30DF108BEC28347A109E7
:10085000230EE108BAC4BEC08347910997B50100D1
:100860009385052525453EDE834781093EDC834788
:1008700071093EDA834761093ED8834751093ED664
:10088000834741093ED4834731093ED2834721093A
:100890003ED0834711093ECE834701093ECC8347B2
:1008A000F1083ECA8347E1083EC88347D1083EC6E7
:1008B0008347C10883489108034761083EC48347C2
:1008C000B10883465108034641083EC28347A10848
:1008D0003EC083477108EF901068A2851735FF1F4F
:1008E0001305C5AC6546EF60C072FA506A54DA541D
:1008F0004A59BA590145296182803306D40003461A
:1009000006008506B29713F6F70F32979317860104
:100910006207E187618715B7854763DBB70A79719D
:1009200026D24AD052CC5AC85EC662C466C206D627
:1009300022D44ECE56CA2A8A0149930B100F130CAB
:10094000900D973CFF1F938C6CA617BB0100130BF7
:10095000EB149384F5FFB3092A0103C70900930739
:100960001900631577053307FA0003470700631F73
:10097000870303C4590083C74900CE8522045D8CD8
:10098000930A8400C20A93DA0A0156866685EF60EC
:1009900040685686CE855A85EFA0402D0D459700BC
:1009A000FF1FE780400493078900A29763E0970246
:1009B000B250225492540259F249624AD24A424BEE
:1009C000B24B224C924C0145456182803E8961B711
:1009D0007D558280914763E3C70A17B7010013076B
:1009E000672D0A063A961C42411122C406C6BA97E0
:1009F0002A84828797C501009385055F1145EF9092
:100A0000503FA2851145EF90D03E2244B24097C599
:100A100001009385255F114541016F90903DB9CA52
:100A20009737FF1F83C7474B81C79042EF40F0467F
:100A30002244B240014697550000938585CC3D4540
:100A400041016F3040489DC62244C8C2B24003C530
:100A5000A6002394B6003686954541016F80C04BB1
:100A60002244B24041016FD000632244B2404101B0
:100A70006F300006B24022444101828082804111E1
:100A800006C6EF805072B24041016F8090385571B8
:100A900058109306310213062102930511029307A1
:100AA00051021305610286C7EF6050609747FF1F30
:100AB000938787FC83D70700BD9B1747FF1F231D24
:100AC000F7FAEFF00FFB030305039305E0048356E9
:100AD0006102034711028347210203483102834820
:100AE0004102034E510217D601001306A6DD63161C
:100AF000B30017D601001306A6CA830E150313030D
:100B00005004032F8500832FC50097D501009385DE
:100B100025C963866E0097D501009385A5DA032366
:100B20000501832345017AC41ACC1ECE7EC672C04D
:100B30002EC832C297C50100938505A71736FF1F3F
:100B40001306C6FD2810EF70411CEF80C05E281010
:100B5000EF7021219387C1829043931505019386FD
:100B600081FD2810C181BD35BE406961828041117F
:100B700006C623A6B18201C61C4223ACF1FC9737FE
:100B8000FF1F83C757129DEB0545EFA0D05897B5BF
:100B900001009385E51E2545EF90B0259747FF1F7F
:100BA00083D787ED93E707011747FF1F2316F7EC5D
:100BB000EF80A057B24041016F40802605470545B0
:100BC000639CE700EFA030550545EFA0606297B544
:100BD00001009385251CC1B7EFA0F0530545EFA098
:100BE000905B0545EFA0C06097B501009385051C9B
:100BF0005DB7411122C42A848307D40306C626C2E6
:100C00002E8589C71307F0036398E7021737FF1F84
:100C10001307D70F9736FF1F9386360C1736FF1F23
:100C20001306960897B50100938585232244B240A8
:100C3000924441016F70610D9737FF1FA38607062D
:100C40009737FF1FA38B07089737FF1FA380070C59
:100C5000034704008547AE8463FAE7009305D40395
:100C60001735FF1F13055504EF70810E8307940796
:100C700091CF03470400894763FAE700930594077F
:100C80001735FF1F13057505EF70810C8307540B93
:100C900091CF034704008D4763FAE7009305540B97
:100CA0001735FF1F13059506EF70810A014697451A
:100CB00000009385C50C1305C012EF30C020EF5023
:100CC000700B1737FF1F130777049736FF1F9386A4
:100CD000D6001736FF1F130636FD97B50100938522
:100CE000651A2685A1B7411126C206C622C403474C
:100CF00005008947AE8463F7E7029305D5032A848C
:100D0000130620031735FF1F130505F3EF70410984
:100D100013059407EF60012B9737FF1F2390A7F867
:100D2000EF50C07FEF5090039736FF1F83D606F732
:100D30001736FF1F130646F097B501009385C57D52
:100D40002685EF60917C85479735FF1F938505DDEC
:100D50001735FF1F130505ED1737FF1FA308F7E22F
:100D6000EF60117F9735FF1F938515F41735FF1F2F
:100D70001305E5E1EF60D17D9735FF1F9385F5F50C
:100D80001735FF1F1305C5E3EF60917C9735FF1FF3
:100D90009385D5F71735FF1F1305A5E5EF60517B48
:100DA00097A50100938505771735FF1F1305E5EB20
:100DB000EF60117AEF5080760146974500009385E9
:100DC00025F57945EF3020102244B2409244014687
:100DD000976500009385C5421305600941016F3096
:100DE000800E411122C426C24AC006C68307D5031D
:100DF000AE8417B901001309E9401744FF1F13041B
:100E0000A4C789C71307F0036391E7041735FF1FD1
:100E10000345F5F2EF5041430326090083264900BC
:100E2000EF30117BEF50B17B28C4EF509170AE864C
:100E30002A8697B501009385653D2244B240024958
:100E40002685924441016F60516C1305D503EF6014
:100E500061179737FF1FA384A7EE1375F50FEF50A7
:100E6000A13E0326090083264900EF307176EF503A
:100E7000117728C4EF5000702844EF50916BAE8674
:100E80002A8697B501009385653A45BFAA870387EF
:100E9000D7032E8509C79306F0036315D70297374A
:100EA000FF1F83C737E017B601001306E63289E754
:100EB00017B601001306C63297B501009385C533F6
:100EC0006F60B16441111385D70306C622C42E8416
:100ED000EF60410F9737FF1FA386A7DCEF508069B3
:100EE0009737FF1F83C717DC97B501009385C52F80
:100EF00089E797B501009385A52F22852244B2404A
:100F000041016F60F164411126C206C6AA8422C461
:100F10008387D4032E8589C71307F0036396E704FC
:100F20009737FF1F83C737D805476385E70289CB0B
:100F300009476386E702B24022449244410182801D
:100F400097B501009385C5322244B24092444101D5
:100F50006F60116097B5010093850534F5B797B5BB
:100F6000010093852536CDB79384D4032E8426853E
:100F700097B5010093850538EF60D1641DC189479D
:100F80001737FF1FA301F7D297B501009385C53A24
:100F90002285EF60F15B2244B240924441016F50E0
:100FA000605D2685EF6001021375F50F9737FF1F0F
:100FB000A38BA7CE854797B501009385E535E30957
:100FC000F5FC97B501009385653379D18947E30D29
:100FD000F5FA1737FF1FA308F7CC97B501009385E3
:100FE000E5377DB741112E8597B501009385853A88
:100FF00006C6EF60F155014697450000938545D13F
:101000007945EF20506CB24001469765000093850A
:10101000251F1305600941016F20F06A411122C4A8
:1010200026C206C68307D503AE841734FF1F1304F8
:1010300024C789C71307F003639BE70283061420C4
:1010400017B601001306465163D6060017C6010005
:1010500013060675268597B5010093852550EF6028
:10106000D14A2244B240924441016F90F0341305BA
:10107000D503EF5031759737FF1FA383A7E2EF9099
:10108000B0330306142097B501009385E54E25453E
:10109000EF90606C834714206147B10793F7F70F17
:1010A0006377F700A1471737FF1FA30BF7DEEF5059
:1010B000604C8306142017B601001306E64963D678
:1010C000060017C601001306A66D2244B24026850D
:1010D000924497B501009385A54A41016F60F142A2
:1010E000797122D49307D1012E8478089306B10137
:1010F0001306A101930591011305E10106D6EF60E6
:10110000E07A8348D1010348C1018347B101034715
:10111000A101834691010356E10197B50100938532
:10112000E5F92285EF60713E2285EF609143974794
:10113000FF1F938767948C5B03A8870305661306DC
:1011400006E19306C00333F3C50222953377D80234
:10115000B378C8023AC0DC5733F7D502B3D8D80207
:101160003358C802B356D30233D6C50297B501002F
:10117000938505F7EF6071392285EF60913E2A94DF
:10118000EF90600017B60100130606F309C517B605
:101190000100130626F297B50100938565F82285B4
:1011A000EF60B13695471737FF1F2305F7D2173782
:1011B000FF1F2300F79CEF50E03BEF50A040B250E0
:1011C000225445618280AA870387D7032E8509C7E9
:1011D0009306F0036311D7029737FF1F83C7C7AC8D
:1011E00097B50100938545BE89E797B501009385C2
:1011F000A5C06F60F13541111385D70322C406C61F
:101200002E84EF50315C1375F50F9737FF1F238D38
:10121000A7A81737FF1F0347B7A889476316F7002A
:101220000DE91145EF90D07C9737FF1F83C7C7A703
:1012300097B501009385C5BD89E797B501009385F2
:1012400065C02285EF60D1302244B24041016F5029
:1012500060321145EF90B07CC1BFAA870387D703E6
:101260002E8509C79306F003631ED7029737FF1F29
:1012700083C767A30547638DE70089C70947638E66
:10128000E700828097B50100938585C26F60512C7D
:1012900097B50100938505C6D5BF97B50100938525
:1012A00025CBEDB741111385D70322C406C62E8482
:1012B000EF5051511375F50F9737FF1F2385A79EE8
:1012C000854797B501009385E5C26306F50297B59A
:1012D00001009385E5BD05C1894797B50100938558
:1012E00025C7630AF5001737FF1F230EF79A97B536
:1012F00001009385A5CB2285EF6091252244B24061
:1013000041016F502027AA870387D7032E8509C77D
:101310009306F003631CD7001736FF1F034646A24F
:1013200097B501009385C5E56F60311E41111385A6
:10133000D70306C622C42E84EF5051499737FF1FAA
:101340002380A7A0EF50002322852244B240173605
:10135000FF1F0346E69E97B501009385A5E4410172
:10136000E1B7411122C4130550042E84814506C6FD
:10137000EF309008EF5000152A8622852244B240B3
:1013800097B50100938585E441016F601118411103
:1013900022C41305D5032E8497B50100938545D942
:1013A00006C6EF90804B11CD0145EF50202797B531
:1013B00001009385A5D822852244B24041016F6087
:1013C00031190545EF50802597B501009385C5D8A3
:1013D000DDB7411122C42A848307D40306C626C27E
:1013E0002E8589C71307F003639CE7029737FF1F19
:1013F0009387779E1737FF1F1307D79A9736FF1FDC
:1014000083D646AB1736FF1F1306B69697B5010075
:10141000938585FA2244B240924441016F60F10EF7
:10142000AE841735FF1F1305D5949305D403EF60E1
:1014300031121735FF1F1305D593EF6091129315E5
:101440000501C1811735FF1F1305B592EF90007894
:101450008307940789CB13059407EF50B13697376C
:10146000FF1F2399A7A48307540B85CB9305540B27
:101470001735FF1F13051593EF60910D1735FF1FEB
:1014800013055592EF60F10D93150501C1811735D4
:10149000FF1F13053591EF9060738307140F85CB01
:1014A0009305140F1735FF1F1305F592EF60510ACE
:1014B0001735FF1F13053592EF60B10A931505012B
:1014C000C1811735FF1F13051591EF902070EF5064
:1014D000600A9737FF1F938717901737FF1F13076F
:1014E000778C9736FF1F83D6E69C1736FF1F1306AF
:1014F000568897B50100938565ED268521BFAA879B
:101500000387D7032E8509C79306F003631CD70012
:101510001736FF1F0356E69897B50100938545FDE2
:101520006F60A17E41111385D70306C622C42E84A5
:10153000EF505129131605019737FF1F2393A796E4
:10154000418297B501009385E5FB2285EF60E17B41
:101550009727FF1F83C7D77409476388E700ED17F4
:1015600093F7F70F0547636AF7009737FF1F83D795
:10157000479389EB0945EF90904A2244B2404101DC
:101580006F40507FEF90B03775D51737FF1F035767
:1015900047919307B003E3EFE7FC0945EF9050450F
:1015A000E9BFAA870387D7032E8509C79306F003EF
:1015B0006313D7069737FF1F83C757910547638982
:1015C000E70289CF0947638EE7020D476380E7048E
:1015D00097B501009385C5EA6F60817717B6010062
:1015E0001306C6E097B501009385C5E16F60E17110
:1015F00017B601001306C6E197B50100938545E2D1
:10160000F5B717B60100130626E4FDB717B60100BB
:101610001306C6E4D5B741111385D70322C426C2E9
:1016200006C62E84EF50111A1375F50F9737FF1F5A
:10163000A38EA7888544630295041DC18947630A68
:10164000F5048D47630CF50497B50100938545E7D4
:101650002285EF60E16F9737FF1FA389978601A866
:1016600097B50100938545E22285EF60616E2244C3
:10167000B240924441016F40F06F17B6010013066B
:1016800026D997B50100938565E12285EF60E16772
:10169000F9BF17B60100130626DBE5B717B6010040
:1016A0001306C6DBF9BF011106CE2EC6EF909022BD
:1016B00085471737FF1FA301F782EF40B06B324514
:1016C000F24097B501009385A59805616F60416868
:1016D000011106CE2EC6EF9050219727FF1FA38D34
:1016E000077EEF4030693245F24097B5010093859F
:1016F000E59B05616F60C165011122CC4AC806CE29
:1017000026CA4EC68307D5032E891724FF1F13044C
:10171000245989C71307F0036395E70203250422C0
:10172000EF502161AE862A8697B501009385858E9C
:101730006244F240D244B2494A85424905616F6031
:10174000C15CAA841305D503EF507107EF502169DE
:10175000AA8913859407EF50F1061375F50F1DE55F
:101760003145EF60A041AA854E85EF4031722320BC
:10177000A422EF40306003250422EF50815BAE8647
:101780002A8697B501009385258A5DB723203423E7
:10179000CDB7AA870387D7032E8509C79306F00321
:1017A0006315D7029727FF1F83C7277317B601005A
:1017B0001306868A89E717B601001306E68A97B5ED
:1017C00001009385258B6F60415441111385D70328
:1017D00022C406C62E84EF50E17E1375F50F9727BD
:1017E000FF1F238CA76E17B601001306E68609E5D6
:1017F00017B6010013064687228597B50100938529
:10180000E588EF6081502244B24041016F4090561C
:10181000130101BA23225145B28A2E86AA8568187F
:10182000232E1144232C8144232A9144232821452B
:10183000232631452320614523244145368B232E21
:101840007143232C8143232A91432328A143232638
:10185000B143EF9020271305D103EF60815093151A
:101860000501C1811305D10397B40100938444D9C4
:10187000EF90C0310144268993098002C840930546
:10188000D103EF8090750DC90E044A9483170400AC
:10189000139707012300012241839306700263F42A
:1018A000E6006F10A02B17A701001307E7418A0776
:1018B000BA979C43BA9782870504A104E31034FDCC
:1018C000FD57F9B71727FF1F03471754A1476312A6
:1018D000F70C19464C081725FF1F13056525EF90D7
:1018E000E00C0814230001020014EF6081479727E1
:1018F000FF1F83D7475C1727FF1F1307375497260F
:10190000FF1F9386A621500897B50100938585E7B0
:101910002295EF60813F0814EF60A1441C14172644
:10192000FF1F130676383E9597B50100938545E86D
:10193000EF60A13D0814EF60C1421C143E9597274B
:10194000FF1F9387E7358386172017B6010013061C
:10195000A6C063D6060017C60100130666E497B555
:101960000100938565E5EF60413A1724FF1F0344AA
:1019700034339307F4FF93F7F70F15476363F710BA
:1019800017A701001307473E8A07BA979C43BA97E7
:1019900082870814EF60E13C1C141727FF1F0357D0
:1019A000C7519726FF1F9386B6391726FF1F1306C8
:1019B000E61697B501009385A5DE3E95EF60E1340C
:1019C00099BF0814EF60E1391C143E95854797B51F
:1019D0000100938525DF6306F40097B50100938528
:1019E000E5DEC164EF60C1361724FF1F1304442BEA
:1019F000172AFF1F130A6A2BFD149309C00397BB14
:101A00000100938B2BDD03594420630E99000814C9
:101A1000EF602135B37639031C14DE853E953356CD
:101A20003903EF60812E0904E31F8AFC0814EF607C
:101A300041331726FF1F0346D62697B5010093852D
:101A400025DA1C143E95BDA81726FF1F03566645D0
:101A50009726FF1F83D6A645081432C636C4EF600A
:101A6000413032461C143E95A24621C297B5010072
:101A7000938505D8A1CA97B50100938525D8EF6055
:101A8000C1280814EF60E12D1C149726FF1F83D690
:101A9000E60D1726FF1F0356860D97B501009385A7
:101AA00065DF3E95EF606126D1A481EA97B501001C
:101AB0009385C5D5EF60C129E9B7368697B5010092
:101AC0009385C5D5EF6061246DBF0814EF6061296F
:101AD0001726FF1F0356A63D97B501009385C5D471
