:040000006F2080717C
:10000400000000000000000090000020060900200D
:10001400A9BDF9F5940000200000000000000000D4
:10002400960000209800002000000000000000005E
:100034009A000020000000009C0000200000000046
:100044009E0000202603002054030020A40000206A
:10005400A6000020A8000020AA000020AC00002078
:10006400AE000020B0000020C60000205E01002089
:1000740082090020B8000020BA000020BC00002043
:10008400BE000020F60100208E020020C4000020E3
:1000940001A001A001A001A001A001A001A001A054
:1000A40001A001A001A001A001A001A001A001A044
:1000B40001A001A001A001A001A001A001A001A034
:1000C40001A001A001A037370040834747009946AB
:1000D4004111BD8B638ED70231476386E706114712
:1000E4006390E704A30301001756000003468685C6
:1000F40037370040834771006317F6022C00174519
:1001040000001305E5A497B000E0E780008409A887
:100114008347570093F7F70F2304F10083478100C7
:1001240041017300203083477100834687000C0827
:10013400AE97238CD7FE83477100850793F7F70F9B
:10014400A303F10045BF2800971001E0E78040E1D8
:100154001375F50FA303A1000346710045B73737A4
:1001640000408347474099464111BD8B638ED702B7
:1001740031476386E70611476390E704A303010050
:10018400174600000346267C37370040834771003A
:100194006317F6022C00174500001305A59C97A0D1
:1001A40000E0E780807A09A88347574093F7F70F68
:1001B4002304F10083478100410173002030834709
:1001C4007100834687400C08AE97238CD7FE834783
:1001D4007100850793F7F70FA303F10045BF2800CB
:1001E400971001E0E78080E91375F50FA303A100E0
:1001F4000346710045B73747004083474780994617
:100204004111BD8B638ED70231476386E7061147E0
:100214006390E704A30301001746000003469672A7
:1002240037470040834771006317F6022C001745D7
:1002340000001305659497A000E0E780007109A809
:100244008347578093F7F70F2304F1008347810016
:1002540041017300203083477100834687800C0876
:10026400AE97238CD7FE83477100850793F7F70F6A
:10027400A303F10045BF2800971001E0E780C0F117
:100284001375F50FA303A1000346710045B7374763
:100294000040834747C099464111BD8B638ED70206
:1002A40031476386E70611476390E704A30301001F
:1002B400175600000346E6A93747004083477100FC
:1002C4006317F6022C00174500001305258C97A030
:1002D40000E0E780806709A8834757C093F7F70FCA
:1002E4002304F100834781004101730020308347D8
:1002F4007100834687C00C08AE97238CD7FE8347D2
:100304007100850793F7F70FA303F10045BF280099
:10031400971001E0E78000FA1375F50FA303A1001D
:100324000346710045B7411122C637140040835774
:10033400C40913972701635B0700A145014597F0A2
:1003440000E0E78060408967231EF40832444101DD
:1003540073002030411122C6371400408357E4094A
:100364008357E409139737016359070097F000E0B6
:10037400E780200A8567231FF40832444101730093
:100384002030411122C406C69747000083C72710B6
:10039400175400001304C4AC95CB83479404858B95
:1003A40095C78357040013974701634107028D459E
:1003B400094597F000E0E780203991451755000082
:1003C400034525AC975001E0E7808039975700003A
:1003D40083D707A913F7074029C31397470163413C
:1003E40007028D45094597F000E0E780E035914527
:1003F400175500000345E5A8975001E0E780403613
:100404009747000083C7672B89EB8357040093F752
:10041400F7BF175700002315F7A4B2402244410147
:1004240082804111814601468145114506C62D2D24
:10043400B727004011472383E780B7F700E003A7FD
:1004440007D16D9B23A8E7D003A707D15D9B23A801
:10045400E7D07300501001000100B24041018280D6
:100464004111814681450146114506C6F52BB72742
:10047400004011472383E780B717004003C7E70212
:1004840083C5E70483D7870391661377F70F93E552
:10049400350063E5D700719B13671700B717004059
:1004A400130670052380C704930680FA2380D704BB
:1004B40001000100238207022380C7042380D7049C
:1004C400010001002387E7022387B7042380C704C0
:1004D4002380D7040100010003C7B7041367070290
:1004E400A385E7042380070437F700E0832507D1B9
:1004F40093E545002328B7D0832507D1DD99232828
:10050400B7D073005010010001002380C70423807A
:10051400D7040100010003C7B7041377F70DA385BF
:10052400E70423800704B240410182800111B7F53A
:10053400070022CC8146E1052A840A86194506CEA5
:1005440026CA02C0231201000523B717004003C7BF
:10055400E70283C5E70483D7870391661377F70F10
:1005640093E5350063E5D700719B13671700B71750
:100574000040130670052380C704930680FA238085
:10058400D70401000100238207022380C7042380CB
:10059400D704010001002387E7022387B7042380DF
:1005A4000704B7F500E003A705D11367470023A8A4
:1005B400E5D003D507026577110713750560418DF2
:1005C400598D4205418101002380C7042380D7044B
:1005D4000100010003C7F70037F40700B7F400E097
:1005E40013670704A387E70003C7B704610413670D
:1005F4000702A385E7042390A70283A704D1DD9B08
:1006040023A8F4D073005010010001001305600406
:10061400352E81463000A285194502C423160100F7
:10062400A12122478247E31AF7FCB71700401307BA
:1006340070052380E704130780FA2380E704010090
:10064400010003C7B7041377F70DA385E7042380DC
:100654000704F2406244D2440561828001114EC60F
:1006640081460146AA898145114506CE22CC26CA77
:100674004AC8DD2EB716004083C7E60203C7E60466
:1006840083D68603116693F7F70F1367370063E584
:10069400C600F19B93E71700371400401309700557
:1006A40023002405930480FA23009404010001002C
:1006B4002302040223002405230094040100010002
:1006C4002307F4022307E40423000404130550025F
:1006D4005920B7F700E003A707D11367470023A801
:1006E400E7D02300240523009404010001000347FC
:1006F400F40013670704A307E40023002405230080
:100704009404010001002567B3E9E90023103403D0
:1007140003A707D15D9B23A8E7D073005010010005
:10072400010081460146814511453D2E23002405E3
:1007340023009404010001008347640493E7170035
:100744002303F40423000404F2406244D2444249E3
:10075400B24905618280B717004093067005238073
:10076400D704130780FA2380E7040100010003C6BD
:10077400B7041376F60DA385C70423800704137604
:1007840005024DC203C6A700118A1DE22380D704C7
:100794002380E7040100010003C7A7001367470093
:1007A4002385E7009307004B01000100FD17EDFFCF
:1007B400B7170040930670052380D704130780FA07
:1007C4002380E704010001007D892394A700010030
:1007D400010001000100238007042380D704238043
:1007E400E7040100010001000100372700409306DF
:1007F4001005A303D78023800704B717004013070D
:1008040070052380E704130780FA2380E7040100BE
:10081400010003C7B70413670708A385E70423800F
:10082400070482801376050441C603C6A700418AE3
:100834001DE22380D7042380E7040100010003C7DD
:10084400A700136707012385E7009307007D0100D4
:100854000100FD17EDFFB7170040930670052380D4
:10086400D704130780FA2380E704010001001376FC
:10087400F501136606042394C7000100010001007A
:100884000100238007042380D70413066004238017
:10089400E7046318C50001000100372700408946BA
:1008A40089BF01000100372700409306200591B756
:1008B4002380D7042380E7040100010003D78700C5
:1008C4001367070C2394E7000DBF411181460146CD
:1008D4008145114506C6492AB7170040130770051C
:1008E4002380E704130780FA2380E7040100010052
:1008F40003C76704136717002383E70423800704EF
:10090400B240410182808146014681451145A92AB0
:10091400B7170040930670052380D704130780FAA5
:100924002380E704010001007D562396C70223803B
:10093400D7042380E7040100010003C76704136799
:1009440017002383E7042380070401A0BD47330570
:10095400F50201007D1575FD8280411122C426C275
:1009640006C6AA84014463179400B2402244924408
:100974004101828005041305803E4204C13F418049
:10098400DDB7B7170040130700032388E702854744
:1009940017470000232EF75473002030411106C678
:1009A400A52D97B000E0E780E00EDDBF23030480AF
:1009B40015472303E48001002302A4808280830777
:1009C4006480E3CE07FE230304808280830764806F
:1009D400E3CE07FE03454480828083076480E3CE30
:1009E40007FE2302A4808280411126C44AC24EC05D
:1009F40006C61377F50BAD47AA892E89954463067D
:100A0400F70019456537653F8D444E854537FD59D7
:100A1400FD1463983401B240A24412498249410151
:100A24008280135509011375F50F453F2209CDB78F
:100A3400011126CC06CEB704080051371545BD3741
:100A4400713769372AC6A53F32459377150089EB7C
:100A5400136515001375F50FF240E24405618280B9
:100A6400FD14E9FC0145CDBF397126DC4ADA4ED8C4
:100A740052D656D45AD25ED006DE62CE66CCB7E7E2
:100A840000E07D5783AA070022C603AA470023A0DB
:100A9400E71823A2E718B71700401307700523804F
:100AA400E704130780FA2380E70483C74704930B02
:100AB40075FFB684E20793FBFB0F8546AA892E8B4C
:100AC400328937240040E187015763FA76016308CD
:100AD400D5008946130700026313D5000157D98F47
:100AE40093F7F70FB71C00402382FC04114723033C
:100AF400E4801305F00F5D3D094CD135636D7C1125
:100B0400B7050700DA9537870700795563F2E504DE
:100B1400B3879500636EF702370B0800A94733EBE0
:100B240065016399F90689E48144513D26850DA048
:100B3400DA850945553D05090345F9FFFD14050B03
:100B4400693D81C49377FB0FFDF7DD3569FD7D5564
:100B5400B7170040130770052380E704130780FAD2
:100B64002380E70403C74704418B2382E704F25040
:100B7400B7E700E023A0571123A24711E2543244FF
:100B84005259C259325AA25A125B825B724CE24CDD
:100B940021618280A5476395F90685691309F00FE1
:100BA400B3069900B3742B01B6941349F9FFB374D7
:100BB4009900856B33796901416B9387F9FFB3F72A
:100BC400270199E363FC340193D94900C147E3E663
:100BD40037FF99BF0569C1697D19D9B71305800D20
:100BE4006388690113050002638479011305100801
:100BF400CA85DD3B353D21DD4E99B3843441D9B7F7
:100C0400DA852D45D533CA94E30099F205097D3B75
:100C1400A30FA9FED5BF9387F9FF93F7F70F63617D
:100C2400FC0C83C71C0413073008631FF704370741
:100C34000800636BEB04B3079B00B706100063F571
:100C4400D704334BEB0089476393F9068980D54970
:100C5400E38C04ECDA850945413B11090327C9FFFC
:100C640091472320E48003076480E34E07FE2303B7
:100C74003481FD17EDFBFD14110B81C49377FB0F39
:100C8400E9FF7D3371F5E1B5B717004003C7570499
:100C9400B70708001377070219E3B78707007955E8
:100CA400E378FBEA33079B00E3FFE7F855B5854794
:100CB400E382F9F2DA852D45053B9389F4FFE38558
:100CC40004E6293393F7390091EB83260480032744
:100CD400090093074900E39AE6E43E89CE84F1BF14
:100CE400B5476396F9001305900BC93135BDB1477B
:100CF4001305B00AE38BF9FE99476391F904B7052C
:100D04000800B365BB002D45C53181448D4BA14915
:100D1400753963967401832704802320F9008504C0
:100D2400E39834FF8327048013172B0163550700CE
:100D34002312F900D5BB2322F900FDB39D47639923
:100D4400F90281451305B0044531BD44232009004F
:100D540023220900FD599D3993F77400CA9703C7EC
:100D64000700FD14398D2380A700E39634FF6DBB83
:100D7400A1476392F9046D398144630D0B008D47DB
:100D84009304C0036308FB009304000563048B0110
:100D9400930440041375C507E30895D81945393100
:100DA40039390545213126850D3909453D3149310A
:100DB400E31C05D669BB91476399F90013056006E6
:100DC400F536F53E130590090DB7E38F09D4F154B8
:100DD400A9BB19CD91CD09CE81473387F500834650
:100DE40007003307F50085072300D700E317F6FE55
:100DF400828019C991C909CA910583A7C5FF110544
:100E04007D16232EF5FEC5BF828001C919C62A9618
:100E14000505A30FB5FEE31DA6FE828081473307B7
:100E2400F5000307070019E33E8582808507C5BFE7
:100E340001112E8626CAAA84131506019305F0040F
:100E4400418122CC06CE32C6EF1080632A8401C5CC
:100E54003246A685BD3F2285F2406244D2440561F4
:100E64008280854715C18DC105C28147B306F5004F
:100E74003387F50083C60600034707006398E6003E
:100E84008507E315F6FE85473E8582808147EDBFE1
:100E94009307F6FFBE952A966313C5008280FD155D
:100EA40083C715000505A30FF5FEFDB7AA87014505
:100EB40081CF09CE3E96850703C7F7FF6317B700B6
:100EC400E39BC7FE0545828082800145828079715B
:100ED400976700009387878A22D4804306D626D258
:100EE4004AD04ECE52CC56CA5AC85EC662C45DCCF5
:100EF40037C9C901814B176A0000130AAA8C976489
:100F040000009384E4871309F937976A0000938AF1
:100F1400AA81B709C0A8370B40578357240095E32B
:100F24005C44639D0B00176700002329F784032C9E
:100F3400C4002285EF10E061628499A823A6FB0017
:100F4400FDB783270A008297838664011C4463DB10
:100F540006063307F5406367E9089757000023AD99
:100F6400077C8355240003450400974001E0E78093
:100F7400207F5C405844A9CF1444B697838664010B
:100F840063C5060063E33701DA971CC4A28B3A8475
:100F940049F497570000938727799C4B0947637856
:100FA400F706F917175700002328F778B250225490
:100FB40092540259F249624AD24A424BB24B224CF1
:100FC40045618280E377F5F83387F9402A9761B762
:100FD40063970B009757000023A2E77A89BF23A6E3
:100FE400EB00B1B7D85009CF63DF06003385A740C3
:100FF40083A70A016376F5009757000023AEA77212
:10100400A28B404471B7E3F3A7FECE97C5B79757B9
:10101400000023A3077259BF411122C417540000D2
:10102400130484731C4006C626C24AC091C7829723
:101034009757000023A207725C4091C382971C401B
:101044006391071C9767000083C7978F858B9DC7A3
:1010540097670000A386078E176700000347778E03
:10106400954763FDE700EF0050419767000083C791
:10107400578DF5178A07A2979C438297176900003A
:101084001309C98F8347C900918B99C3EF10A0320C
:101094001C4491C38297975400009384E46D984054
:1010A40017560000034656689757000083C7C76762
:1010B40093961700BA9683D60600D5CA97570000B0
:1010C40083C7876663EFC70A97570000238E0764B8
:1010D4001C40639807129767000083C7B78691CFB7
:1010E4009767000083C7F78589EB97670000A38B98
:1010F400078497D002E0E780801497570000938715
:10110400676C9C43638F070EB707C0A8175700008E
:101114002324F7626D3B9757000093876766DC537F
:10112400EDC31757000013072760184B97570000AB
:1011340083C757666367F70C176700000347778018
:10114400954763E0E70C8347C900918BDDEB904042
:101154009756000083C6565D63CBD70A2244B2403B
:10116400924402494101174301E06700833C85072B
:1011740093F7F70F975600002388F65AE3E6C7F271
:1011840035BF86073E9783550700231007009757FE
:1011940000002391075E975700009387A75B9C4349
:1011A400175500000345455813172500BA979C436B
:1011B40082979757000083D7E75B175700000347D0
:1011C400A75693C7F7FF7D8D9317170098403E9756
:1011D400835707005D8D2310A7009757000083C72E
:1011E400A75491C7850717570000230FF7521757C5
:1011F4000000034767539757000083C7F752E3750E
:10120400F7ECB24022449244024941018280139790
:1012140017003297035707006DF7850735BFAD6791
:1012240037C70040BD072326F7200F10000097574B
:1012340000009387674FC84F83278726BD66BD0686
:1012440093C7F7FF99836A052326D7205D8D828093
:101254004111B7170040985F3AC6945F3247E39C48
:10126400E6FE3245410182808280032785116300B6
:101274000712411122C406C68347C5008345C5042D
:101284002A8493F7C70F2306F50083469700035675
:10129400C70013958601618563F1C508635A050685
:1012A4000345870093F6F607A304D700054693E6A3
:1012B40027006314C50093E617002306D4005C439B
:1012C40089075CC3A30AB400032504112E864C438A
:1012D400090501368327841103465401D44303D7F7
:1012E400C700B296118FD4C32396E7008947A30D94
:1012F400F400034744039757000083C78749637882
:10130400F7048347C40093E707012306F40081A090
:1013140093E717002306F40075B79376F60F635D21
:10132400050203458700854513E627006314B500CD
:1013340013E617002306C400A30AD400A30407007D
:101344008547A30DF400832784119C43DDF3B24049
:10135400224401454101828093E717002306F400EB
:10136400A30AD400A3040700032504114C43090570
:101374008D348327841103465401D44303D7C70013
:10138400B296118FD4C32396E7008D475DBF054500
:101394008280975700009387E7589C43411122C4E9
:1013A40006C6858B2A84C5EF4165130525F597404C
:1013B40002E0E780806245C58347A5002315F50058
:1013C40083270412BDE72320A4122322A4128547F5
:1013D4002310F40423200500834764015441231699
:1013E400F5000347D4002304E5000547A304E50002
:1013F4001757000013078754184F138517021581D8
:101404001C437D151375F50F9CC25C43DCC21C475D
:101414009CC65C47DCC61C4B9CCA5C4BDCCA1C4F9C
:101424009CCE5C4FDCCE19CD9386060213070702CF
:10143400C1BF8327441288C3835704042322A41200
:10144400850779B79757000083D7C75C8507175777
:1014540000002311F75CB24022444101828083479B
:10146400C40023090400054593C747002306F4007C
:10147400DDB78347850193F7E70FD5EF83479501E0
:10148400DDEB034625018346C50009CA83454503B0
:10149400175700000347F72F63E7E50013F706012A
:1014A40041CF014709C6C18A0357651C81C68356CB
:1014B400A51C369751C31307C712175500000355CF
:1014C4002529B335A70237460F0041111306062418
:1014D400814622C426C206C67D543305A7029760FE
:1014E40003E0E780E0AB9757000083C7F72AB38493
:1014F400A700975700009387675103A7070983271D
:10150400070963F387003E84184375FB975700006F
:101514009387472B9C43829781476364A400B30756
:10152400A440B2402244B3B7970093C71700924433
:101534003E854101828081473E858280797126D231
:1015440006D622D44AD04ECE52CC56CA5AC85EC60B
:101554008347350303447513AA843E941374F40F2C
:101564009307400263F687001304B4FD1374F40F69
:1015740003AA841383AAC413A38B841222865285DC
:10158400D685976003E0E780209C058915E503CBA9
:10159400D41201498149337B6403930B50024A8678
:1015A4005285D685976003E0E780009A058915C5C2
:1015B400639169031374F90F238B8412B25022547C
:1015C40092540259F249624AD24A424BB24B4561A3
:1015D40082808509E20993D989410509E31179FDDE
:1015E400E1BF832785090356E503797193D6070183
:1015F400BD8EC206C182358E13577640935756402E
:10160400898B058B5D8F93573640918B5D8F9357F4
:101614001640A18B5D8F93171600C18B5D8F9317B6
:10162400360093F707025D8F931756009355860093
:1016340093F707041E065D8F1376F60F518F93D729
:10164400554013D63540118A898BD18F13D67540F6
:10165400D18F13D61540218AD18F13961500418A54
:10166400D18F1396350013760602D18F1396550049
:10167400137606049E05D18F93F5F50FCD8FA2073F
:1016840045465D8F3307C70222D42A8426D252CC22
:1016940056CA032A8413832AC4135AC806D6369713
:1016A4004207418393577740135557400989858BE7
:1016B400C98F135537401189C98F13551740218994
:1016C400C98F131517004189C98F13153700137576
:1016D4000502C98F13155700935587001375050428
:1016E4001E07C98F1377F70FD98F13D5354013D73A
:1016F40055401189098B498F13D57540498F13D5EE
:1017040015402189498F139515004189498F1395F7
:10171400350013750502498F13955500137505049B
:101724009E05498F93F5F50F4D8F2207D98FB38707
:10173400C7024AD04ECE5EC662C4B697C207C18302
:1017440013D7774013D557400989058B498F13D593
:1017540037401189498F13D517402189498F139533
:1017640017004189498F1395370013750502498F76
:101774001395570093D58700137505049E07498F69
:1017840093F7F70FD98F13D5354013D755401189E7
:10179400098B498F13D57540498F13D5154021897D
:1017A400498F139515004189498F13953500137599
:1017B4000502498F13955500137505049E05498F3D
:1017C40093F5F50F4D8F2207D98FB387C702130600
:1017D40050025285D685B697BD8E93940601C1807A
:1017E40033F6C402137BF60F975003E0E780C0750D
:1017F40005890DED8347D41201498149B3849702C9
:10180400130C5002C1804A865285D685975003E056
:10181400E78080730589937BF90F11C563863403D0
:10182400850993F9F90F0509E31F89FD230B641357
:10183400B250225492540259F249624AD24A424B5B
:10184400B24B224C456182805E8BCDB7011122CC14
:10185400604126CA4AC84EC652C406CEAA841D4A4E
:10186400130965058549BC446364F400054581A8F2
:1018740003C7D40083474400631B470503C784029E
:101884006304F7000040C5B70347540083C75405F9
:10189400E31AF7FE1946CA8513056400EFF06FDCFE
:1018A400E31235FF0347C40083C79402E31CF7FC2B
:1018B4000357E40083D7A402E316F7FC0145F24082
:1018C4006244D2444249B249224A05618280E31B00
:1018D400F7FA0347540083C75405E315F7FA19468A
:1018E400CA8513056400EFF0CFD7E31D35F9F9B7C6
:1018F4000111975700009387671122CC03A4470B6B
:1019040026CA06CE2AC42EC6854419E40145F240EF
:101914006244D244056182808347910003471400E6
:10192400858B6304F7000044CDB719469305A100E5
:1019340013052400EFF0EFD2E31795FE0545C1BF70
:10194400011122CC175400001304040118402AC6C4
:101954002EC432C206CE3C4B93F7F7F73CCB97D05C
:1019640002E0E780808A184097560000938606FCC0
:101974003C4B93E707083CCB9C423245A24523A04D
:101984000700034715000348250022074208429731
:10199400034805004297034835006208429798D7E8
:1019A400034755000348650022074208429703484D
:1019B400450042970348750062084297D8D7034709
:1019C40095000348A5002207420842970348850072
:1019D40042970348B5006208429798DB0347D50055
:1019E4000348E5002207420842970348C50003451F
:1019F400F500429762052A97D8DB03C7150003C593
:101A04002500220742052A9703C505002A9703C526
:101A1400350062052A9798CF03C7550003C56500B2
:101A2400220742052A9703C545002A9703C5750076
:101A340062052A97D8CF03C7950003C5A5002207DE
:101A440042052A9703C585002A9703C5B500620598
:101A54002A9798D303C7D50003C5E500220742059A
:101A64002A9703C5C50083C5F5002A97E2052E977A
:101A7400D8D3D843759BD8C3D84313671700D8C3AA
:101A840098431367170098C3124698425C43858BAA
:101A9400D1E71C4F01452300F6009C429C4FA183D3
:101AA400A300F6009C429C4FC1832301F6009C4294
:101AB4009C4FE183A301F6009C42D84F2302E60029
:101AC400D84F2183A302E600D84F41832303E600C5
:101AD400D84F6183A303E60098532304E600985388
:101AE4002183A304E600985341832305E600985319
:101AF4006183A305E600D8532306E600D853218367
:101B0400A306E600D85341832307E600DC53E183B0
:101B1400A307F600F2406244056182800100B5B774
:101B2400175700001307C7E01443411122C49C5EF9
:101B34004AC006C6998326C2858B3A841759000089
:101B44001309C9DED1CB9C5E97540000938404DF53
:101B540093F7F7F99CDE17570000034787DE9307D6
:101B64000008631BF700832709009C4393F70704CD
:101B7400175700002307F7DC83C7040093F7070413
:101B84009DC3975700009387E7C39C438297975759
:101B9400000023ADA7DA83C7040093F7F70B1757A8
:101BA4000000230DF7D883C7440093F707048DE79B
:101BB400854717570000A305F7D897570000938768
:101BC400A7D99C43096798C7130700FC97560000E0
:101BD4002388E6D6D844F8D31C40985F1183058B3C
:101BE40009CB985F3D9B98DF0547975600002389F2
:101BF400E6D4985F1D83058B11CB985F1377F7F7B5
:101C040098DF854717570000230CF7D28327090074
:101C1400D8430583058B19C7D843759BD8C3D843CC
:101C2400799BD8C3B2402244924402494101828044
:101C3400397106DE16DC1ADA1ED82AD62ED432D230
:101C440036D03ACE3ECC42CA46C872C676C47AC2B0
:101C54007EC0F935F250E2525253C2533255A25566
:101C6400125682567247E2475248C248324EA24E3A
:101C7400124F824F216173002030975700009387E1
:101C8400A7CD944397570000938747CB03C707001A
:101C9400058B11CB97570000238407CA9757000080
:101CA400A38007CA828003C71700058B65F7F85223
:101CB40071FF83C75700DDB717580000130848C7E2
:101CC400032708001C5F9583858BD1E709C61C5B3D
:101CD400BD832300F60085CA83270800985B460766
:101CE400935767016356070093E707C0C207C18390
:101CF40003970600C207C18709C7BA970947B3C744
:101D0400E7022390F60085CD834715008DCB9756C7
:101D1400000083C606C393F6060413879700894719
:101D24008DCA3A9503470500854699471376F70609
:101D34006311D60262076187B947634C07008327A2
:101D440008009C5FED838D8B17570000A30DF7BE31
:101D540081473E8582808547EDBF411122C406C676
:101D640017540000130444BF184049E9AE87745364
:101D7400FDFE3E85B28597570000238207BC97C0BD
:101D840002E0E780801E97570000938767BA9C4360
:101D9400B70680009843558F98C3D857719BD8D7FE
:101DA40097570000A38E07B897570000A38807B879
:101DB4001C40094798C3B7F700E003A707D16D9B00
:101DC40023A8E7D003A707D15D9B23A8E7D073001E
:101DD4005010144017570000130747B683472700D5
:101DE400858B89EB83473700858BD9C797570000CC
:101DF400238807B4B2402244410182808D47631096
:101E0400F502975700009387A7B29C43B70680005A
:101E14009843558F98C3D857719BD8D75DBF8547D2
:101E2400E319F5FAB567BD075CC70F1000001C4045
:101E34000967094698C7130700F8975600002381DD
:101E4400E6B0175700001307A7AE14439842318336
:101E54000D8B6319C7001307E043F8D33D673D07B3
:101E6400D8C785BF984231830D8B01E713076019EA
:101E7400EDB71307E01BD5B7FC52ADF3A5BF5D71F9
:101E840052DC175A0000130AAAAA03270A0086C6BE
:101E9400A2C4A6C2CAC04EDE1C439759000093894F
:101EA40069B017590000130929AB93F7F7E793E7D3
:101EB40007081CC383A609003707CEFF7D179C467D
:101EC400130680022A84F98F9CC68327090013070E
:101ED40000082800B8CBAE8493051008EFE0FFF2A9
:101EE40097C002E0E780603297C002E0E780603F7D
:101EF40083270A009376F41F370FFCFF23A40700FF
:101F0400984B4E88CA881367F70398CBF84F13058C
:101F140010F8D285137707E0558FF8CF9843F576FC
:101F2400FD16758F98C39843B7063300B7020400B3
:101F34001377F7E798C398439303401F7D1F1377E4
:101F4400F7E71367071098C303A70900930F8002EC
:101F540085491C47D58F1CC7832709001307900D9B
:101F64003400B8CB114901471353370026938347F4
:101F7400030013767700B3D7C740858BDDCF9C4130
:101F8400832E0800239C07042390070603AECE0289
:101F9400137EDEFF23A6CE0383AE0700137EF7076E
:101FA40093FE0EF833EECE0123A0C70103AE470221
:101FB400336E5E0023A2C70383AE0800014E23A242
:101FC4007E0603DA070663074E0303AE0703038A9C
:101FD4000600135EFE00620E135E8E416358CA0152
:101FE40003AE0703135EFE002380C60103DE07066B
:101FF400137EFE0F03AA4E0663060A0003DA870562
:10200400E37F49FB03AE4702337EEE0123A2C703FD
:1020140083870600635CF400034E03003396C90013
:102024001346F6FF3376C6012300C3003E8663D30E
:10203400A7002A8613158601618505071377F70F14
:102044008506E313F7F3B640264496440649F2594D
:10205400625A61618280975600009386E68F9C42A3
:10206400D84713161701635506029847131617012C
:10207400635006027D57B8D7174700001307C76A95
:10208400584F050717460000232EE66A116798C7C4
:1020940098470D83058B1DC3175700000347278AF4
:1020A4001367170017560000230BE688130700F880
:1020B400175600002306E688214798C79847058BE2
:1020C40009CF175700000347778713671700175680
:1020D4000000A305E686054798C798470983058B42
:1020E40009E798470583058B31CF984717560000B9
:1020F4001306C68417550000130585830983058BD1
:10210400630307101841184331830D8B75EBAC4BF7
:10211400184E93F5050203471700CDCD79EF130749
:102124007006D8CF03470600136717001756000040
:102134002306E680114798C718415C57F19B93E743
:1021440017005CD79C4298479316370163D6060262
:102154009756000083C6C692C18A1757000013071A
:10216400E78AC5CE0347470713670702975600005F
:102174002388E690056798C798479316270163D18B
:102184000602174700000347A77B6207618763576E
:1021940007000547974600002384E67A096798C735
:1021A40098479316070163D606029756000083C624
:1021B400368D858A1757000013074785ADCE034730
:1021C40057071367270097560000A38BE68A2167F9
:1021D40098C7828029D785456315B7001307B006D1
:1021E40089B789456315B7001307F0061DBF8D45F0
:1021F4006315B700130730072DB71307500715B73A
:102204001307600739BF03473600136717001746E3
:102214000000A306E672094739BF8346470709460B
:10222400BD8A6388C600034747078D463D8BE31389
:10223400D7F4114725BF83465707918AC9DA034764
:1022440057071367870041B7397106DE16DC1ADABF
:102254001ED82AD62ED432D236D03ACE3ECC42CA5A
:1022640046C872C676C47AC27EC0F533F250E252D2
:102274005253C2533255A255125682567247E24700
:102284005248C248324EA24E124F824F216173000F
:102294002030174700001307676C8346B701974740
:1022A400000083C7776E4C4BB697FD8B33D7F50090
:1022B40097460000A384F66A97460000A386F66C4E
:1022C400058B15EF174700000347576CB3F7E70278
:1022D400814601471305000233D6E500058A1378C9
:1022E400F70F19CA6397D70097470000A3880767B9
:1022F4008280850693F6F60F0507E31FA7FC82800C
:10230400974700009387074C9C43011122CC4EC68B
:1023140006CE26CA4AC852C456C2829797470000BE
:102324009387C765804781496305A406BE849747A0
:1023340000009387E744038767013E8963550706D6
:10234400018D135455009747000083C7C7629379E2
:10235400F501636DF402370AC0A8B70A4057153F68
:102364009C449746000083C60661139756003E9727
:1023740083076901158C63C507006363470156979A
:102384009747000023A0E760E37BD4FC1604B369FD
:102394003401F24062444E85D2444249B249224A51
:1023A400924A05618280E37D85F8B707C0A833842B
:1023B4008740229579B7974700009387A7409C43AD
:1023C400411122C406C626C282979747000093870C
:1023D400E75A80476309A406BE84974700009387A1
:1023E400273A8387670163D80704018D1354550086
:1023F4009747000083C727586367F404593D9844FE
:102404009747000083C727579396570036971D8C2C
:102414009746000023A8E656E372F4FE2244B24035
:10242400924417450000034575538145410117C384
:1024340002E067002332E37A85FAB707C0A8338441
:102444008740229565B7B24022449244410182807C
:1024540097470000938707559843B757020093871F
:10246400079F8326070913965600635806008326A0
:1024740007091396660063440600FD17FDF3828086
:1024840071C5AA870145E9C58D07C207C183F19BC0
:10249400C207C18313074003636FF70217470000A5
:1024A40013074756084317470000130727551443DB
:1024B4006398A602174700001307872C185B014591
:1024C40041CB4111C20706C60545DD8D0297B240D6
:1024D4000145410182801747000013076752D9B7AD
:1024E4000357650035E303574500636FF704B306EC
:1024F400F7402146637CD6020328050093868700B3
:102504001D8FAA9661171746000003564622239290
:10251400E60023A006012393060014C12312F5004C
:10252400130786FF974600002393E6202313B50084
:102534009745000083D5A51FB387F54017470000D2
:102544002317F71E2105828008419DB7014582802B
:1025540082800DC1974700009387C74A03A30700F1
:10256400974700009387874983A8070081469A8785
:1025740063E31701828003A80700636DF50A636BA8
:10258400A80A13878700E367E5FE03D6670021677F
:1025940005076317E60003C741950507238AE194FD
:1025A400974500009385451803D6470003D7650077
:1025B40023930700329742074183174500002318ED
:1025C400E516638A67021745000013056543084151
:1025D4006303F50203D5660019ED83D7460023A0F3
:1025E400060121073E9621062392C6009747000064
:1025F400239FE712B6879843E30E17F79746000028
:10260400938606409442E307D7F683566700BDF2EB
:1026140083D64700035647001843A106B296239277
:10262400D70098C383D76500A1071747000023107C
:10263400F7108280BE86C28725BF0111974700002C
:102644009387C73C22CC03A4C70B26CA4AC84EC6EC
:1026540006CEAA8413092500854915C083C7140032
:1026640003473400858B6304F700405CFDB71946CB
:10267400930544004A85EFE0CFFEE31835FF228539
:10268400F2406244D2444249B24905618280411118
:10269400974700009387873722C403A4C70B26C239
:1026A4004AC006C693042500054901E82285B240C4
:1026B40022449244024941018280A6851305A40262
:1026C400974003E0E7804042E30225FF405CF1BF0E
:1026D4004111974700009387673322C403A4C70BB3
:1026E40026C24AC006C693042500054901E822858E
:1026F400B24022449244024941018280A6851305D6
:10270400A401974003E0E780203EE30225FF405CFC
:04271400F1BF000011
:1027180097110020938101B1176100201301018EE8
:102728001305400097E5FF1F9385458D1706002088
:10273800130606FE63FAC5008322050023A0550090
:1027480011059105E3EAC5FE1705040013050510F8
:10275800970500209385C5FB1386818463FAC5001D
:102768008322050023A0550011059105E3EAC5FE63
:1027780013858184974500209385C53A6377B50012
:10278800232005001105E36DB5FEFD42739002BCE0
:102798008D4273904280B72200009382828873A092
:1027A800023097E2FF1F9382628593E232007390B2
:1027B800523097020100938262C7739012347300FB
:1027C80020303D432A876373C3029377F700BDEF38
:1027D800ADE5937606FF3D8ABA960CC34CC30CC789
:1027E8004CC74107E36BD7FE11E28280B306C340B2
:1027F8008A069702000096966780A6002307B7000E
:10280800A306B7002306B700A305B7002305B70042
:10281800A304B7002304B700A303B7002303B7003A
:10282800A302B7002302B700A301B7002301B70032
:10283800A300B7002300B700828093F5F50F9396A5
:102848008500D58D93960501D58D61B793962700A0
:102858009702000096968682E78086FA9680C117CE
:102868001D8F3E96E374C3F8A5B73367B500FD53D3
:102878000D8B79E7B7877F7F9387F7F710419441EE
:10288800B372F6003363F600BE92B3E26200639758
:10289800720C6318D6065041D441B372F600336304
:1028A800F600BE92B3E262006398720A631BD60414
:1028B80010459445B372F6003363F600BE92B3E256
:1028C80062006391720A631ED6025045D445B37202
:1028D800F6003363F600BE92B3E26200639A7208B0
:1028E8006311D60210499449B372F6003363F600B7
:1028F800BE92B3E26200639372085105D105E30FFB
:10290800D6F61317060193970601631CF7001357B1
:10291800060193D706013305F7409375F50F91E942
:1029280082804183C1833305F7409375F50F91E1A8
:1029380082801377F70F93F7F70F3305F7408280FC
:102948000346050083C60500050585056313D60003
:1029580065FA3305D640828011059105E312D6FE4B
:10296800014582802105A105E31CD6FC0145828032
:102978003105B105E316D6FC014582804105C10544
:10298800E310D6FC01458280014711464148B386D1
:10299800E5008147B308F50083C808008507C1062C
:1029A80023A816FFE398C7FE11071105E31107FFD7
:1029B8008280935785019CC19357054193F7F70F80
:1029C800DCC19357854093F7F70F1375F50F9CC536
:1029D800C8C582801C414111130705013EC05C41F6
:1029E8003EC21C453EC45C453EC69397250014086C
:1029F800B69783A707FF85051105232EF5FE8D8958
:102A0800E315E5FE41018280397122DC41661384B9
:102A1800419D06DE26DA4AD84ED652D456D25AD02E
:102A28005ECE93050501A2863708FF007D16830751
:102A38000500034735001105E207D98F0307D5FFC5
:102A48009106420733770701D98F0307E5FF22076D
:102A5800718FD98F23AEF6FEE39BA5FC8149914483
:102A6800930A010117BB0300130BCB2097BB03008C
:102A7800938BCB1D130AC00293F73400032904007B
:102A88004844BDE78A85353785450A85A1370A87D1
:102A98001C43110793F6F70093F7070FDA97B697D9
:102AA80083C70700232EF7FEE394EAFE0245924708
:102AB8006205C2075D8DB2475D8DA247A2075D8D95
:102AC80093972900DE979C4385093D8D3345250161
:102AD80008C885041104E39144FBF2506254D254AF
:102AE8004259B259225A925A025BF24B21618280B2
:102AF8003345A90008C8F1BF797122D426D24AD03B
:102B08004ECE52CC56CA06D62A8A9399450001441D
:102B1800938A419D13090101C144B3073401D69733
:102B280088438A85793533078A008A871443904316
:102B380091074107B18E2328D7FEE39927FF110497
:102B4800E31D94FCB250225492540259F249624A4D
:102B5800D24A45618280397122DC1304050106DE00
:102B680022878147C1460C433306F10011070CC286
:102B78004C4710083E960CC24C4F10103E960CC2A3
:102B88009107E392D7FE85450A85A9358945080846
:102B980091358D4508103D3D81474147B306F10009
:102BA80094421104232ED4FE1408BE96944254C4B1
:102BB8001410BE969442910754CCE391E7FEF2506C
:102BC80062542161828006059377051089C71375C1
:102BD800F50F1345B5018280411106C6ED37B240A5
:102BE8004101D5B781471148C1483386F500B3067E
:102BF800F500014703AE06003303E600050723008E
:102C0800C301C106E31807FF9107E39017FF82800D
:102C18009306050117B603001306C6151305050527
:102C2800138706FF1C43110793F5F70093F7070F67
:102C3800B297AE9783C70700232EF7FEE394E6FE0C
:102C4800C106E31FD5FC82801C414111FD563EC0E0
:102C58005C413EC21C453EC45C453EC68D47B385BB
:102C6800B7409307C500139725001008329703272C
:102C780007FFFD1598C36393D5008D451387C7FFDC
:102C88006314F50041018280BA87F1BF397122DCF3
:102C98001304050106DE22878147C1460C4333062B
:102CA800F10011070CC24C4710083E960CC24C4F5D
:102CB80010103E960CC29107E392D7FE85450A850F
:102CC80061378945080849378D450810B53F814760
:102CD8004147B306F10094421104232ED4FE140890
:102CE800BE96944254C41410BE969442910754CC94
:102CF800E391E7FEF2506254216182809306050158
:102D080017B60300130606F713050505138706FF14
:102D18001C43110793F5F70093F7070FB297AE9787
:102D280083C70700232EF7FEE394E6FEC106E31FE0
:102D3800D5FC8280411122C406C626C285472E844E
:102D48006301F50289476318F5002244B2409244B2
:102D58002E8541018DBD8D47631BF5002E85A53558
:102D6800298C2285B2402244924441018280A547A1
:102D78006315F5002E858D35DDB7AD47631AF5006F
:102D88002E85993D8935AA842285353D258DC9BF73
:102D9800B5476316F5002E858135AA84FDB7B94776
:102DA800E311F5FC2E850D3DAA84313DA98C2285C1
:102DB800193D3344950075B7597186D6A2D4A6D269
:102DC800CAD0CECED2CCD6CADAC8DEC6E2C4E6C2F3
:102DD800930605040A87AA879043C1074107232859
:102DE800C7FE03A647FF232AC7FE03A687FF232C97
:102DF800C7FE03A6C7FF232EC7FEE39FD7FC17B95C
:102E080003001309290B130A050193090505832CEF
:102E18000900032C4900832B8900032BC900930A5E
:102E28000AFF8A848C406685910A29378C482A844F
:102E3800628509378C50298C5E85ED3D8C58298C2C
:102E48005A85CD3D218D23AEAAFE9104E31C5AFD7F
:102E5800410A4109E39D49FBB65026549654065948
:102E6800F649664AD64A464BB64B264C964C65619F
:102E780082806382051493F7F500639E071215712B
:102E8800D6C3AA8A3285A2CDA6CB86CFCAC9CEC759
:102E9800D2C5DAC15EDF62DD66DB6AD96ED73284FD
:102EA800AE84EF70237EC147631EF5002285A93EDC
:102EB8000149130A010697BB0300938BABFF294C0A
:102EC80063419902FE406E44DE444E49BE492E4A93
:102ED8009E4A0E4BFA5B6A5CDA5C4A5DBA5D2D610C
:102EE8008280338B2A010C105A85793C8145081061
:102EF80021318549081019350810B1391C10D286BE
:102F08003E8710434107C10623A8C6FE032647FF94
:102F180023AAC6FE032687FF23ACC6FE0326C7FFE7
:102F280023AEC6FEE31FEAFC17B70300130787F4B6
:102F380003280700832D4700032D8700832CC70033
:102F48005284138607010C4042853ECE3ACC32CAE1
:102F580042C8CD330C482AC66E85E93BB2460C50B0
:102F68001104A98E6A8536C6F133B2464C54A98E2F
:102F7800668536C6C133B246F2475246358D88C398
:102F8800910742486247E310F6FC4107B287E39194
:102F9800EBFACE85081085098536E39D89F508107A
:102FA800B13B08104D3EA9450810B936DA8508101E
:102FB8001539410931B78280638D051093F7F50003
:102FC800639907105171CECFAA893285A2D5A6D3AD
:102FD80086D7CAD1D2CDD6CBDAC9DEC73284AE8481
:102FE800EF70436AC1476319F5002285313C0149F6
:102FF800138B419D634D9900BE502E549E540E591B
:10300800FE496E4ADE4A4E4BBE4B6D618280338A62
:1030180029018C0052858D3AA9458800F13C13841A
:1030280041A6C14A930B00048800DD368800B939EF
:103038008800593308408A85AD3A48400C08953ACB
:1030480008440C10BD3248440C18A53218018147B9
:10305800B306F100944241072328D7FE1408BE9610
:103068009442232AD7FE1410BE969442232CD7FEEE
:103078001418BE9694429107232ED7FEE39A57FD63
:1030880008011D3B01479C003385E7001C01B3057F
:10309800F70081473306F5003388F500144203280A
:1030A80008009107B3C6060114C2E39557FF41070C
:1030B800E31B77FD4114E31964F78800913E88000B
:1030C800F136814588000D3CD2858800213E4109B2
:1030D80015B782809307F00F6385F60A2D71232AAE
:1030E800911023282111B2842326311113060010D0
:1030F8002E89AA89930530020A85232E1110232CC4
:1031080081103684EFF0EFEBA2852685EFB0A0158D
:1031180013178500935785003365F7002310A10026
:10312800A68522861305310093043400230181000B
:1031380093F4F40FEF60E37D93F6F40089C64D0431
:10314800158C9374F40F1C02A697A6850A8517B6EA
:1031580003001306E6DB238007F0213B26868A85D9
:103168004E85EF60037B230099008320C11103245F
:10317800811183244111032901118329C11015618B
:1031880082808280797122D432844AD04ECE2A89B4
:10319800AE892285B68517B60300130666D726D2F0
:1031A80052CC06D636C6093DB246130A34005285BB
:1031B800A2962380060083440400834714008345B5
:1031C8002400A204DD8CEFB0000A639AA40203462F
:1031D8002400D2854A852380C900EF70834E254597
:1031E80097B50300938505D1EFB0A00B0545B25004
:1031F800225492540259F249624A456182802380DE
:10320800090025452300090097B50300938545CF9C
:10321800EFB020090145E1BF411106C6EF708027D4
:10322800B240AA8617B70300130787D417160020E1
:103238001306460E97B503009385C5D41145410181
:103248006FB0601C130101DB232481242320212576
:103258002326112423229124232E3123232C412396
:10326800232A5123232861230347050093071004C9
:103278002A892E84631BF7620347150093074005CC
:103288006315F762034725009307E005631FF7609E
:103298002E86AA852545EFB0E00B1306D003A2853C
:1032A8004A85EFB0C024AA84635A05003546A28532
:1032B8004A85EFB0C023AA84634405089389D4FFE4
:1032C8009307100363CE37074E8693053900280805
:1032D800EF70233F1C1CBE9917BA0300130A8AF625
:1032E800238409DED28A81494D4B83254A00280868
:1032F800EFB0A0190DC18E09D69983D709004947A7
:10330800636FF70017B703001307C7C18A07BA9797
:103318009C43BA9782878509210AE39869FD97B586
:103328000300938565F1CDA89305F4FF858D13857A
:103338001400C20581460146C1814A95EF2030112B
:103348008320C124032481248324412403290124C4
:103358008329C123032A8123832A4123032B0123A1
:103368001301012582801306F4FF058E938514004E
:1033780042064182CA95E800EFB0C03F1305D10468
:10338800EF70433093150501C1811305D104EFB0E7
:10339800E04A97B50300938525C01305D104EFB023
:1033A800C00E19CD97B50300938585BF0545EFA0DD
:1033B800506F172500200345F5AAEF40F04E49B796
:1033C80097B50300938505BF1305D104EFB0E00B53
:1033D80019CD97B50300938565BE0545EFA0706CC0
:1033E80017250020034515A8EF40D04E91BF97B58B
:1033F80003009385A5BD1305D104EFB000090DC1E5
:10340800371700408327C70A856697B50300938559
:1034180065BCD58F2326F70A2545EFA090680DB720
:1034280097B503009385C5BB1305D104EFB0E0053C
:1034380011CD371700408327870A856697B50300A3
:10344800938585BAD58F2324F70AF9B797B5030072
:10345800938505BA1305D104EFB0200311CD3717B2
:1034680000408327C70AA16697B50300938505B96D
:10347800D58F2326F70A4DB797B50300938505B96D
:103488001305D104EFB0600011CD37170040832732
:10349800870AA16697B50300938505B8D58F2324BD
:1034A800F70A9DBF97B50300938505B81305D104A6
:1034B800EFA0B07D97B503009385C5B731FD97B5EB
:1034C80003009385E5B71305D104EFA0107C97B5E9
:1034D80003009385A5B729F197B503009385C5B770
:1034E8001305D104EFA0707A11C59727002023ABEC
:1034F8000798B9B597B503009385C5B61305D104E8
:10350800EFA0B07801C5EF5010031DBD97B50300BB
:10351800938505B61305D104EFA0307701C5EF50A8
:10352800700839BD97B50300938545B51305D104D7
:10353800EFA0B07501C5EF50401319B597B503005A
:10354800938585B41305D104EFA0307401C5EF80CD
:103558000052FDB397B50300938585B31305D104D5
:10356800EFA0B07209C50545EF701068D1BB97B5DB
:103578000300938565B21305D104EFA0107119C13A
:103588000145DDB797B50300938585B11305D104CF
:10359800EFA0B06F11C9371700408327C70A91669B
:1035A800D58F2326F70A69BB97B503009385C5AF66
:1035B8001305D104EFA0706D11C937170040832798
:1035C800870A9166D58F2324F70A9DBB0346D10449
:1035D800A547130606FD1376F60FE3E3C7D697272C
:1035E8000020A389C78897B50300938565ACEFA031
:1035F8009061B9B31306F4FF058E138514004206D3
:10360800418297B50300938525494A95EFA0B07B81
:10361800172400201304448421C997B50300938517
:1036280065AAE800EF70E304E800EF70A30513163D
:1036380005014182EC00170500201305A554EF7021
:10364800101197B503009385A5AA1145EFA0704501
:1036580083570400414593E7170017170020231DDF
:10366800F77EEFB0406CE9B997B50300938505A9DB
:103678001145EFA010437D55EFB010178357040094
:10368800F99B171700202319F77C5DB971364DB9DE
:103698001306F4FF058E138514004206418297B580
:1036A80003009385653F4A95EFA0F0711714002039
:1036B8001304847A39C18357040097B503009385AE
:1036C800A5A4E80093E71700171700202316F7783A
:1036D800EF60337AE800EF60F37A13160501EC0027
:1036E8004182170500201305E549EF70500697B58C
:1036F8000300938525A311450DB397B50300938562
:1037080025A3E800EF60F376E800EF60B3771316BF
:103718000501EC004182170500201305A546EF704E
:1037280010038357040097B50300938525A2F99BDE
:10373800171700202312F7727DBFEF601015971737
:10374800002093876771A843EF50D370AE862A860E
:1037580097B50300938545A01145EFA0D04ACDB693
:10376800EF40902AF1BE17B603001306663397B5EB
:1037780003009385259F11459DBDEF60705697B551
:1037880003009385E59E25F997B503009385459F2A
:103798009DB73545EF80C022AA84EF50B36B2A86C7
:1037A800AE86254597B503009385C59EEFA0B04525
:1037B80097A703009387077E8843A68517140020E0
:1037C800130444CCEF50A37E2320A422EF60D057EB
:1037D80003250422EF501368AE862A8697B50300A6
:1037E8009385059C95BF81450D45EF502043EF60BB
:1037F80030492A8697B503009385459DADBF81451D
:103808002D45EF50A04181453545EF502041814578
:103818003145EF50A040EF6050472AC6EF6030486E
:10382800B2462A87171600201306C6AE97B50300BE
:103838009385C59A1145EFA0103D19B617170020BA
:103848000357E7E5971600209386D6CD1716002074
:10385800130646AC97B503009385859AE1BF854763
:10386800171700202306F7E4EF60104E97B5030002
:103878009385459A49B517170020034767E385479D
:1038880097B5030093858599E317F7E6C5B79717AA
:1038980000209387675CC85FEF50D35BAE862A86AB
:1038A80097B503009385059845BD0146A2854A85CD
:1038B800EF50801871B4411122C42164930504802B
:1038C80099460146254506C697D0FF1FE78080190F
:1038D800930504802244B240994613868184294581
:1038E800410117D3FF1F6700E31799E10145828063
:1038F80075DD011152C403DAC18426CA93548A00C3
:103908008504A204C204C18056C2B38A4441C20AD3
:1039180022CC4AC82E862E842A8997B5030093851F
:1039280025B6254593DA0A014EC606CE93898184C9
:10393800EFA0702D63ED8A0883D5C18493F7F50F46
:10394800B1CF8D6783D5C18493870780A2864A86C5
:10395800BE95294597D0FF1FE780C0101375F50F56
:1039680029ED83D749001566A2972396F18403D7DA
:10397800C18483D7A1846309F70063F3E700B29792
:10398800998F139607014182254597B503009385C2
:10399800A5B0EFA050271375F40F0DA08D6793877E
:1039A8000780930600100146BE95254597D0FF1F56
:1039B800E780400B1375F50F49D50145F240624485
:1039C800D2444249B249224A924A05618280B307E9
:1039D8009440D297C207C183A18303C749008507D2
:1039E80093F7F70F9396870011EB9386170093745C
:1039F8000AF0A206C204C206C180C18283D7A1848C
:103A080063F6F40033879600E3C9E7FA0D6A130AF0
:103A18000A800146B3854401254597D0FF1FE780FA
:103A280060041375F50F51F983D5C184A2864A86BF
:103A3800D29505B7411122C413848184228581451A
:103A4800194606C697D0FF1FE780E03B9307B0FAF8
:103A58002300F4008D352244B24097B503009385C6
:103A6800A59A254541016FA0D003A165411199464A
:103A780013868184938505802D4506C697D0FF1F40
:103A8800E78040FE03C781849307B00A6303F70009
:103A98005537B24083D6C18403D6A18497B50300B5
:103AA80093854597254541016FA0F01583D741A817
:103AB8000145638C071003D561A86366F50023A24E
:103AC80001A8014582803385A740D1473355F502C7
:103AD8001375F50F01E5239201A88280130101BD3A
:103AE8002324814223261142232291422320214369
:103AF800232E3141232C4141232A514195471374E8
:103B0800F50F63F3A7001544228697B50300938544
:103B1800659A2545EFA0300F01498144938981A812
:103B2800514AA14A9377F90F03D561A817170020C6
:103B38000347D7AB63E98704D1473304F4022A94D7
:103B4800239381A8A147631CF706A6850808EF30D0
:103B5800100603D761A883D741A805456364F70019
:103B680023A201A88320C142032481428324414225
:103B7800032901428329C141032A8141832A414102
:103B8800130101438280B30749031408AA97CE970B
:103B980033859600631E5701BE85EF30D02023176A
:103BA800A1008357E1000509BE94C204C1809DBFEE
:103BB800AA851306E1003E85EF80B027DDB726868B
:103BC8000C080145EF50500269B78280011106CEFA
:103BD80022CC26CA4AC84EC691E901442285F24041
:103BE8006244D2444249B24905618280AA8975D5A6
:103BF80083D7C18403D6A1842E849564638AC700C1
:103C08006374F60015673A961D8E93140601C180F9
:103C1800268697A503009385257C2545EFA0A07EE1
:103C2800938714F06356F4009307F00F63EA970044
:103C380097A503009385C57B2545EFA0C07C71BF80
:103C480083D4C18433878400956763C7E700A2855E
:103C58004E8561398D3159B7156933099940420943
:103C680013590901CA854E85493125D9ED75A6959F
:103C7800A295C20523960184C18133852901D1BF4C
:103C880083D641A881EA97A503009385E57C25455D
:103C98006FA0206103D661A84111918E97A50300FA
:103CA8009385857C254506C6EFA0E075138741A856
:103CB8008355070083D761A8138581A89D8DC20508
:103CC8003E95C1812137B24023A201A841018280DB
:103CD800411183D741A822C426C206C6AE9713074E
:103CE800401FAA842E84635AF700593F97A5030002
:103CF800938545742545EFA0C05A83D741A81385FD
:103D080081A82286A6853E95EF50B34003D641A8E8
:103D1800229642062244B240924441822392C1A88C
:103D280097A5030093858572254541016FA0A06D75
:103D3800011126CA06CE22CC4AC84EC652C456C263
:103D4800814459C1D1C183D7A18403D4C184638D6F
:103D5800870663F587081D8C42044180AE892A894D
:103D6800228697A503009385A5630145EFA0A06966
:103D7800A28463F38900CE84C2040D6A83D7A18428
:103D880003D7C184C180938A8184130A0A8063FAA5
:103D9800E704A6864A86B38547012D4597D0FF1FBD
:103DA800E78040CC83D72A00A6972395F184EFF0CB
:103DB8009FB083D6C18403D6A18497A503009385B9
:103DC800655F2545EFA02064F2406244268542499C
:103DD800D244B249224A924A0561828015673A94D0
:103DE8009DBF15671D8FB385470163D5E400A6867F
:103DF8004A8665B79569B389F9406D743E94C209DE
:103E080093D909012694CE864A8642042D4597D037
:103E1800FF1FE78020C54180A28633063901D2857D
:103E28002D452395018497D0FF1FE780A0C383D732
:103E38002A003E94239581849DBF18419387010CE5
:103E4800104598C303574500544590C72392E7008F
:103E580058551049D4C7544998CF97A5030093855E
:103E6800256D0547254590CBD4CB238EE7006FA061
:103E78004043397126DA4AD84ED652D456D25AD04F
:103E880006DE22DC62CE66CC2A89EF60A37F9374BB
:103E9800F50F8149254BE54A17AA0300130A0A635F
:103EA80091ECF25062544E85D2544259B259225A7A
:103EB800925A025B724CE24C2161828003470900EE
:103EC800930707FD93F7F70F637CFB009307F7F958
:103ED80093F7F70F63E2FA06930797FA93F7F70F4A
:103EE800139487016184FD14230089002685EF401F
:103EF800737E2A86AE8603250A0083254A0093F43A
:103F0800F40F0509EFE0007D2AC422852EC6EF4094
:103F1800737C2246B246EF40832C2A8C4E85AE8CA9
:103F2800EF5063022A86AE866285E685EF3003404D
:103F3800EF409374AA89ADB79306F7FB93F6F60F93
:103F48008147E3EFDAF8930797FC49BF411122C490
:103F580006C6830795022A8499C713059502EF5070
:103F68009318238DA1068307D41291CB1305D4127D
:103F7800EF501317EF50C37893878104C8D3B2402A
:103F8800224441018280011126CA9304150022CCE3
:103F980097A503009385855D2A84268506CE4AC8A1
:103FA8004EC6EFA08056631E051097A503009385A3
:103FB800255C2685EFA060556302050E85448307BE
:103FC800D4036386070C13059402EF50D311854977
:103FD8001379F50F1305D4036387340F8947638C6E
:103FE800F418EF505310A38EA106631A39017946CD
:103FF80081451385F10923870184EFE08FFC83074E
:10400800D40885C31305D408EF50F30D03C7E18422
:10401800930717002387F18493878104BA97A38BAA
:10402800A7048307D40D85C31305D40DEF50B30B34
:1040380003C7E184930717002387F18493878104DA
:10404800BA97A38BA7048307D41285C31305D41288
:10405800EF50730903C7E184930717002387F1849E
:1040680093878104BA97A38BA7048307D41785C3C2
:104078001305D417EF50330703C7E18493071700DC
:104088002387F18493878104BA97A38BA704F2400E
:104098006244D2444249B2490561828097A503002F
:1040A8009385454D2685EFA04046E31905F0268502
:1040B80097A503009385454CEFA020458944E3105C
:1040C80005F08144EDBDEF501302238FA106631A5A
:1040D8009900794681451385110823870184EFE00B
:1040E8004FEE8307D40885C31305D408EF50A37F88
:1040F80003C7E184930717002387F184938781041A
:10410800BA97A38CA7028307D40D85C31305D40DD2
:10411800EF50637D03C7E184930717002387F18479
:1041280093878104BA97A38CA7028307D41285C307
:104138001305D412EF50237B03C7E18493071700BC
:104148002387F18493878104BA97A38CA7028307F6
:10415800D417E38E07F21305D417EF50C37803C7BB
:10416800E184930717002387F18493878104BA9722
:10417800A38CA70229BFEF500377A38FA10601BF25
:10418800411122C406C6830795072A8499C71305D7
:104198009507EF504375A38DA1068307D40899C7E7
:1041A8001305D408EF502374238EA1068307540BFC
:1041B80091CB1305540BEF50A372EF5063549387C0
:1041C800810488D7B240224441018280011126CA65
:1041D8008146B284014652C456C206CE22CC4AC891
:1041E8004EC62A8AAE8AEF30B36241CD9307E00407
:1041F8006386F400930730056395F40897A90300D4
:104208009389C93403A6090083A649005285D68537
:10421800EF30F37C37949800EF401346130404689A
:104228002A8933758502EF40135203A6090083A635
:104238004900EF30B30297A703009387A731904353
:10424800D443EF30B3012A8A33558902AE8AEF404E
:10425800934F2A86AE865285D685EF30230D1307F5
:104268003005AE876395E400B7070080AD8FF24054
:104278006244D2444249B249224A924ABE85056103
:10428800828001458147E5B7011126CA8146B2847B
:10429800014652C456C206CE22CC4AC84EC62A8A05
:1042A800AE8AEF30F35641CD930750046386F4008D
:1042B800930770056395F40897A903009389092962
:1042C80003A6090083A649005285D685EF303371CD
:1042D80037949800EF40533A130404682A893375D9
:1042E8008502EF40534603A6090083A64900EF3034
:1042F800E37697A703009387E7259043D443EF30ED
:10430800E3752A8A33558902AE8AEF40D3432A8659
:10431800AE865285D685EF30630113077005AE87E8
:104328006395E400B7070080AD8FF2406244D24441
:104338004249B249224A924ABE85056182800145B6
:104348008147E5B7135785009357050113D88500B2
:104358009376F50F01111377F70F93F7F70F618530
:1043680093F5F50F1378F80F99C211C3B9E3230C2D
:10437800D100A30CE100230DF100A30DA10003451A
:104388009101834781010347A1012205A30E010181
:104398004207C98F230EB1000345B101D98F0347E6
:1043A800D1018345C101620522075D8DD98D056163
:1043B800828032951375F50F1313850113538341CA
:1043C8005D466357660861463363C3028507137603
:1043D800D70F114593F7F70F6305A6002545631A14
:1043E800A6007946637FF60205071377F70F85471E
:1043F8000DA809466312C7041386067D9308400674
:10440800B36816036385080013F5360011C5130554
:1044180000193366A60219EE75466374F6008547DF
:104428000D47230CD100A30CE100230DF100A30DCF
:104438006100B1B77146D5B77D46E374F6FEB14762
:10444800E314F7FA850693F6F60F85470547D1BFBB
:10445800E35903FC6105FD171313850193F7F70F63
:1044680013538341DDFF7D171377F70F1146F94783
:10447800E309C7FA1946E306C7FA2546E303C7FA6C
:104488002D46E300C7FA89476316F7021386067DAF
:1044980093074006B367F60291C793F83600F547CD
:1044A800E38108F893070019B367F60293B717007A
:1044B800F10785BFFD4735F7FD1693F6F60F31472F
:1044C8008DB783471500034705000111A2075D8FCB
:1044D800834725008346350006CEC207D98F034798
:1044E800550083454500170600201306A6F9030664
:1044F8001620E206220733E5F600D98DA1351358B8
:1045080085001356050193D7850013F7F50F93F728
:10451800F70F935685011376F60F9375F80F1375F9
:10452800F50FEF7080269707002083C7B7F505477A
:104538006385E70011476396E700F24005616F70F5
:104548004034F24005618280497123248116138426
:1045580081048307340083C8D10403C8C10403C796
:10456800A10483C6910403C6810497A5030093851B
:10457800650248102326111623229116232021179D
:10458800232E3115EF60830A4810EF60A30F1848F7
:104598005C48030604033AC03EC2030814035C44A3
:1045A8001844541097A503009385C5003695EF600D
:1045B800E3074810EF60030D5C103E958307640025
:1045C80017A60300130686FC89C717A6030013065F
:1045D80066FB97B50300938565A6EF602305481031
:1045E800EF60430A544C104C5C1097A50300938568
:1045F80065FD3E95EF6083034810EF60A30803064E
:1046080034035C103E9597A50300938565FCEF6025
:10461800E3014810EF60030703072403AA84485006
:104628003ACE13848104EF50E30272475C10AE86E1
:104638002A8697A503009385A5FA33859700EF503E
:10464800F37E4810EF6003045C1003C6C10797A50A
:104658000300938565FA3E95EF50537D4810EF604F
:1046680063025C1097A50300938505FA3E95EF60F9
:10467800430013896106A28497B903009389899B33
:1046880003C6740519CA481032CEEF50B37F72467C
:104698005C10CE853E95EF5073798504E39224FF34
:1046A8004810EF50337E5C1097A50300938545F6BC
:1046B8003E95EF50137C97B403009384A497034668
:1046C800940319CA481032CEEF50D37B72465C105F
:1046D800A6853E95EF5093750504E31224FF4C1010
:1046E8002545EF90103C8320C116032481168324AE
:1046F8004116032901168329C1157561828041116C
:1047080022C406C626C2830755012A84B9C7A9460A
:10471800938707FDB387D70203476501130707FD92
:10472800BA97A385F1040307750183478501130729
:1047380007FD3307D702938707FD3E972386E104D9
:10474800830795010347A501938707FDB387D70220
:10475800130707FDBA97A386F1048307940281CB58
:10476800130710046391E71485472387F10483072F
:10477800D4039384810499C71305D403EF504316D7
:1047880088C4CCC40306140509CA8844CC44238CC5
:10479800C106EFF0BFA388C4CCC48307540699C7E9
:1047A80013055406EF50C31388C8CCC803069407F2
:1047B80009CA8848CC48A38CC106EFF0FFAC88C86A
:1047C800CCC88307D40899CF1305D408EF504311F8
:1047D80097A70300938787DA9043D443EF303320B9
:1047E80088CCCCCC8307140A99C71305140AEF5058
:1047F800830F2394A1068307540BB9C7A94693874F
:1048080007FDB387D7020347640B130707FDBA9761
:104818002385F1040307740B8347840B130707FDF3
:104828003307D702938707FD3E97A384E1048307E4
:10483800940B0347A40B938707FDB387D70213078D
:1048480007FDBA972384F10483853400856703C67E
:10485800C104938707E11307C0033307E60283C641
:10486800D104B387F502BA97B69723AAF1061707BA
:1048780000201307675E835707003A8413F5870003
:1048880039E1038564000547631FE50203C7A104F6
:1048980011EF8844CC4401468146EF30637705E93F
:1048A80023870104B9A023870104D1B5FDD175D2AE
:1048B800EDD293E787001385810417070020231D95
:1048C800F758EFF01FC083876400E1F7D1BF88482D
:1048D800CC4801468146EF30A37379D183C7A10440
:1048E800E1D31306800793858104138501FDEF50FA
:1048F800430203C501C89D4705053365F502130644
:104908008007938581042380A1C893078007330516
:10491800F502938781C83E95EF40B37FEFF0DFC281
:104928001C582244B2409244170700202322F7560D
:104938001306800781451385810441016FD07FE804
:104948000171232C811E232A911E1306101E2A840E
:10495800AE8468008145232E111E2328211FEFD025
:104968005FE681458147014701465148CD485D438F
:104978006340960899C12306F1001306A002A68594
:104988002285EF90D0368347C10051473386A44033
:10499800B387E7029305150078007D16A295850771
:1049A8003305F700EF40F3761306A002A6852285AB
:1049B80003491400EF90B033894763C3A708034540
:1049C800C100D1473305F5027C0005053E95EFF09F
:1049D8004FCA631CA904194697A50300938505B817
:1049E8001305D100EF90303E25C56800093B35A876
:1049F800B306C40003C50600930665FD93F6D60FFB
:104A080091EA850793F7F70F6361F302854501473C
:104A18000506B9BFB3860703130E011FF296BA96AF
:104A2800A38EA6E00507E3D5E8FE8320C11F032473
:104A3800811F8324411F0329011F13010120828044
:104A48003307F4000347070085073349E900B5B782
:104A5800194697A503009385A5B01305D100EF90DB
:104A680090360DED194697A503009385A5AF13055C
:104A7800D100EF90503519ED194697A5030093859D
:104A8800A5AE1305D100EF90103445D16800EFF0C2
:104A98008FCF61BF6800EFF0AFEE41BF6800EFF065
:104AA800EFCA61B7757122C526C34AC1CEDED2DC12
:104AB800D6DADAD806C7AA892E8981440144814703
:104AC800130A4002854A354B139704014183636CEE
:104AD8002701BA402A449A440A49F659665AD65ACE
:104AE800465B49618280338799000347070063006A
:104AF8004703639C5701631D67019C18A297A28511
:104B08006800238E07F82D3D8147850475BF014451
:104B18009C18A29705041374F40F238EE7F89337B3
:104B28003406E5B7411106C6138501C88347050059
:104B3800130780078145B387E70213068007A1079B
:104B48003E95EFD01FC8B2408145114541016FA085
:104B58004016138501C88347050013078007B387EC
:104B6800E702A1073E958280138501FD82809707A1
:104B7800002083C7F72E81CF9707002083D7A7B0DF
:104B8800FD17C207C1831307A0036375F70023A8A5
:104B98000184828031714ED79389018583A70900EA
:104BA80056D3938A01C8850722DD26DB52D55AD110
:104BB8005ECF62CD66CB6AC906DF4AD96EC723A825
:104BC800F18483C401C8014A130C8007568497AC4A
:104BD8000300938C2C90054D9D4B154B3389840312
:104BE80056998307E900E1CF03A60C0083A64C0081
:104BF8000325090283254902EF3003536341050C5D
:104C080083470904638DA70B93171A001808BA97EE
:104C1800035789022390E7003C00D297238097002E
:104C2800050A9904B3E47403E31A6AFB0357810184
:104C380083570101998F13D7F741B98F998F9394AF
:104C480007011307400BC1806358F70093078016CC
:104C5800B3849740C204C180268697A50300938534
:104C6800658A6808EF50931C6C082545EF906063CF
:104C7800938714FFC207C1837947636EF708034916
:104C88009100130A80078545014533094903210925
:104C980022994A86EF70D0688344B1008545014562
:104CA800B3844403A104A2942686EF707067CA8572
:104CB8000D45EF209011A6850D45EF20101183A713
:104CC8000900170700200357079C63E7E70203C59D
:104CD80001C89304800733059502B30DA4008387A8
:104CE800ED0099CB83C7C10D1389010C6397070E9B
:104CF80021052295EFF06F94FA506A54DA544A5914
:104D0800BA592A5A9A5A0A5BFA4B6A4CDA4C4A4DF3
:104D1800BA4D296182809307D002E3F297FA834B58
:104D28008100930A80078545B38B5B030145138C8B
:104D38008B00229C6286EF70B05E034B9100854524
:104D48000145330B5B03A29B210B229B5A86EF7014
:104D5800305D034AA10085450145330A5A03210AFB
:104D6800229A5286EF70D05B0349B1008545014510
:104D780033095903210922994A86EF70705A8344EE
:104D8800C10085450145B3845403A104A294268635
:104D9800EF701059E2850D45EF203003DA850D4597
:104DA800EF20B002D2850D45EF203002CA850D45AF
:104DB800EF20B001A6850D45EF20300183C701C85B
:104DC800B38A570303A74B03A29A83A74A03E3189E
:104DD800F7EE85472380FA04DDB5179D0300130D10
:104DE800ED6F03260D0083264D0003A58D0183A5D5
:104DF800CD01979903009389E96EEF30433E03A6EE
:104E0800090083A64900EF2073452A8BAE8B032641
:104E18000D0083264D000325090183254901EF3044
:104E2800033C03A6090083A64900EF2033432A8ADE
:104E3800AE8A2A86AE865A85DE85EF30D3059797E7
:104E480003009387A76A9043D443EF304339EFD0E8
:104E580040732A8CAE8C5A85DE85EFD060692A8B28
:104E6800AE8B5285D685EFD0A068032689008326AD
:104E7800C9002A8AAE8A03A50D0183A54D01EF302A
:104E8800930103260D0083264D00EF30433503A61A
:104E9800090083A64900EF20733C97970300938786
:104EA800E7649043D443EF308333EFD0806D2A8991
:104EB800AE895286D6865A85DE85EF3043324A86D9
:104EC800CE86EF30C3314A86CE86EF3043312A8909
:104ED800AE896286E6866285E685EF3043302A86AB
:104EE800AE864A85CE85EF206344EFD01031EFD0EF
:104EF80080722A86AE86EF206343979703009387D4
:104F0800675F9043D443EF30832D979703009387CF
:104F1800E75E9043D443EF30832C2A86AE862A89F5
:104F2800AE896808979503009385C55EEF500370B6
:104F38006C082545EF90E03617F5FF1F0345855EA1
:104F4800EF3053792A86AE864A85CE85EF30E31254
:104F5800E354A0DA03C601C8330696028545014525
:104F680021062296EF70D03B83C501C8B385950210
:104F78000D45A105A295EF20406503C501C833057D
:104F8800950221052295EFE05FEB23A80184ADB3DC
:104F9800914763EEC70817970300130727680A06A7
:104FA8003A961C42411122C406C6BA972A848287BF
:104FB80097A50300938585721145EF90802EA285F1
:104FC8001145EF90002E2244B24097A50300938527
:104FD800A572114541016F90C02CB1C69042EF40B7
:104FE800E04D2244B2400146974500009385855321
:104FF8003D4541016F20B0679DC62244C8C2B240FA
:1050080003C5A6002394B6003686954541016F7006
:1050180030312244B24041016FD000442244B240B2
:1050280041016F207025B240224441018280828074
:10503800411106C6EF808044B24041016F80A00B49
:105048005571581093063102130621029305110277
:10505800930751021305610286C7EF60E06C97075A
:105068000020938767DF83D70700BD9B17070020C1
:105078002314F7DEEFF0FFAD030305039305E00407
:105088008356610203471102834721020348310214
:1050980083484102034E510217B60300130606F671
:1050A8006316B30017B60300130646E0830E150314
:1050B80013035004032F8500832FC50097B5030001
:1050C8009385C5DE63866E0097B50300938505F367
:1050D80003230501832345017AC41ACC1ECE7EC65C
:1050E80072C02EC832C297A503009385E5D617F67D
:1050F800FF1F130626222810EF504353EF70304449
:105108002810EF5023589387418590439315050144
:105118009386010E2810C181A53DBE406961828039
:10512800411106C623AAB18401C61C4223A0F10E70
:1051380097F7FF1F83C777358DEB0545EFA02059FB
:1051480097950300938585582545EF908015970717
:10515800002083D767D0B24093E7070117070020E4
:10516800231CF7CE41016F70D03C05470545639C71
:10517800E700EFA0C0550545EF90F03A979503007A
:1051880093850556D1B7EFA080540545EFA0805709
:105198000545EF905039979503009385E5556DB710
:1051A800411122C42A848307D40306C626C22E8549
:1051B80089C71307F0036398E70217F7FF1F130760
:1051C800373397F6FF1F9386962F17F6FF1F1306A0
:1051D800F62B979503009385655D2244B24092446F
:1051E80041016F50A34497F7FF1FA381072A97F740
:1051F800FF1FA386072C97F7FF1FA38B072E0347D4
:1052080004008547AE8463FAE7009305D40317F5D5
:10521800FF1F1305B527EF50C3458307940791CFA8
:1052280003470400894763FAE7009305940717F5D5
:10523800FF1F1305D528EF50C3438307540B91CFA5
:10524800034704008D4763FAE7009305540B17F5ED
:10525800FF1F1305F529EF50C3410146974500008C
:10526800938585B41305C012EF207040EF50C02D10
:1052780017F7FF1F1307D72797F6FF1F93863624C4
:1052880017F6FF1F1306962097950300938545543C
:105298002685A1B7411126C206C622C403470500C8
:1052A8008947AE8463F5E7029305D5032A8417F589
:1052B800FF1F1305A516EF50C33B13059407EF40D6
:1052C800836297F7FF1F239DA71AEF506022EF50C4
:1052D800202697F6FF1F83D6A61A17F6FF1F130678
:1052E800E61397A50300938525AE2685EF50033472
:1052F800854797F5FF1F9385E50117F5FF1F1305F0
:10530800A51017F7FF1FA305F706EF50833697F58B
:10531800FF1F9385B51717F5FF1F13058505EF5078
:10532800433597F5FF1F9385951917F5FF1F13054B
:105338006507EF50033497F5FF1F9385751B17F525
:10534800FF1F13054509EF50C33297950300938556
:1053580025C217F5FF1F1305850FEF508331EF5056
:1053680020190146974500009385259D7945EF2032
:1053780010302244B240924401469765000093855C
:1053880085D21305000541016F20702E411122C4FA
:1053980026C24AC006C68307D503AE841799030000
:1053A8001309497117040020130404AB89C71307B4
:1053B800F0036391E70417F5FF1F03459516EF30D7
:1053C80073310326090083264900EF202369EF4043
:1053D800233368C0EF400328AE862A8697950300DA
:1053E8009385C56D2244B240024926859244410105
:1053F8006F50C3231305D503EF40E34E97F7FF1F04
:10540800A381A7121375F50FEF30D32C03260900DB
:1054180083264900EF208364EF40832E68C0EF5055
:10542800A0126840EF400323AE862A8697950300B2
:105438009385C56A45BFAA870387D7032E8509C701
:105448009306F0036315D70297F7FF1F83C7D703A7
:10545800179603001306066389E7179603001306D9
:10546800E662979503009385E5636F50231C41110D
:105478001385D70306C622C42E84EF40C34697F788
:10548800FF1FA383A700EF50200C97F7FF1F83C7C8
:10549800B7FF979503009385E55F89E79795030024
:1054A8009385C55F22852244B24041016F50631C39
:1054B800411126C206C6AA8422C48387D4032E8536
:1054C80089C71307F0036396E70497F7FF1F83C79D
:1054D800D7FB05476385E70289CB09476386E7025F
:1054E800B2402244924441018280979503009385FB
:1054F80025632244B240924441016F508317979527
:10550800030093856564F5B79795030093858566D1
:10551800CDB79384D4032E8426859795030093856D
:105528006568EF50431C1DC1894717F7FF1FA30E7D
:10553800F7F4979503009385256B2285EF50631345
:105548002244B240924441016F5000002685EF404A
:1055580083391375F50F97F7FF1FA388A7F28547BF
:105568009795030093854566E309F5FC9795030035
:105578009385C56379D18947E30DF5FA17F7FF1FBE
:10558800A305F7F097950300938545687DB741110A
:105598002E85979503009385E56A06C6EF50630D3F
:1055A800014697350000938545797945EF20300C01
:1055B800B2400146976500009385E5AE13050005E6
:1055C80041016F20D00A411122C426C206C68307B2
:1055D800D503AE8417F4FF1F1304C4EA89C7130761
:1055E800F003639BE7028306142017A60300130643
:1055F800A68163D6060017B603001306268B2685F8
:1056080097A5030093858580EF5043022244B2405A
:10561800924441016F9040251305D503EF40A32C18
:1056280097F7FF1FA380A706EF9000240306142016
:10563800979503009385457F2545EF80D05C834788
:1056480014206147B10793F7F70F6377F700A14775
:1056580017F7FF1FA308F702EF40106F8306142007
:10566800179603001306467A63D6060017B603009A
:105678001306C6832244B2402685924497950300B8
:105688009385057B41016F40737A797122D4930722
:10569800D1012E8478089306B1011306A101930560
:1056A80091011305E10106D6EF6000088348D10196
:1056B8000348C1018347B1010347A1018346910112
:1056C8000356E101979503009385052A2285EF404B
:1056D800F3752285EF40137B97F7FF1F9387C777F2
:1056E8008C5B03A887030566130606E19306C003CF
:1056F80033F3C50222953377D802B378C8023AC08B
:10570800DC5733F7D502B3D8D8023358C802B3569A
:10571800D30233D6C5029795030093852527EF401A
:10572800F3702285EF4013762A94EF804071179624
:1057380003001306262309C51796030013064622FD
:1057480097950300938585282285EF40336E95470A
:1057580017F7FF1F2302F7F617F7FF1F2307F7C0F6
:10576800EF40905EEF405063B25022544561828012
:10577800AA870387D7032E8509C79306F003631109
:10578800D70297F7FF1F83C767D0979503009385C4
:1057980065F889E7979503009385C5FA6F40736D9F
:1057A80041111385D70322C406C62E84EF40A313E4
:1057B8001375F50F97F7FF1F238AA7CC17F7FF1F5D
:1057C800034757CC89476316F7000DE91145EF9059
:1057D800805597F7FF1F83C767CB9795030093857D
:1057E800E5F789E797950300938585FA2285EF40C9
:1057F80053682244B24041016F4010551145EF9063
:10580800A07EC1BFAA870387D7032E8509C7930641
:10581800F003631ED70297F7FF1F83C707C7054723
:10582800638DE70089C70947638EE70082809795F3
:1058380003009385A5FC6F40D36397950300938578
:105848002500D5BF9795030093854505EDB7411110
:105858001385D70322C406C62E84EF40C3081375E8
:10586800F50F97F7FF1F2382A7C285479795030077
:10587800938505FD6306F50297950300938505F862
:1058880005C189479795030093854501630AF5008B
:1058980017F7FF1F230BF7BE979503009385C505E0
:1058A8002285EF40135D2244B24041016F40D04948
:1058B800AA870387D7032E8509C79306F003631CBD
:1058C800D70017F6FF1F0346E6C597950300938593
:1058D800E5156F40B35541111385D70306C622C499
:1058E8002E84EF40C30097F7FF1F238DA7C2EF4018
:1058F800B04522852244B24017F6FF1F034686C2F0
:10590800979503009385C5144101E1B7411122C45D
:1059180035452E84814506C6EF304030EF4030389B
:105928002A8622852244B240979503009385C514A0
:1059380041016F40B34F411122C41305D5032E8492
:10594800979503009385850906C6EF80103C11CD15
:105958000145EF40F049979503009385E5082285B6
:105968002244B24041016F40D3500545EF405048B2
:105978009795030093850509DDB7411122C42A8450
:105988008307D40306C626C22E8589C71307F003EA
:10599800639CE70297F7FF1F938737C217F7FF1F2C
:1059A800130797BE97F6FF1F83D606CF17F6FF1F7C
:1059B800130676BA979503009385052B2244B240C7
:1059C800924441016F409346AE8417F5FF1F1305BB
:1059D80095B89305D403EF40D34917F5FF1F130576
:1059E80095B7EF40334A93150501C18117F5FF1F9D
:1059F800130575B6EF80306B8307940789CB1305C1
:105A08009407EF30536E97F7FF1F2397A7C88307B4
:105A1800540B85CB9305540B17F5FF1F1305D5B60B
:105A2800EF40334517F5FF1F130515B6EF409345B3
:105A380093150501C18117F5FF1F1305F5B4EF8014
:105A480090668307140F85CB9305140F17F5FF1F76
:105A58001305B5B6EF40F34117F5FF1F1305F5B56C
:105A6800EF40534293150501C18117F5FF1F130538
:105A7800D5B4EF805063EF40302D97F7FF1F938721
:105A8800D7B317F7FF1F130737B097F6FF1F83D653
:105A9800A6C017F6FF1F130616AC9795030093854B
:105AA800E51D268521BFAA870387D7032E8509C749
:105AB8009306F003631CD70017F6FF1F0356A6BC16
:105AC800979503009385C52D6F4053364111138573
