:04C000006F2000139A
:10C004000000000000000000900000208E090020C5
:10C01400A9BDF9F594000020000000000000000014
:10C02400960000209800002000000000000000009E
:10C034009A000020000000009C0000200000000086
:10C044009E00002026030020AA030020A400002054
:10C05400A6000020A8000020AA000020AC000020B8
:10C06400AE000020B0000020C60000205E010020C9
:10C074000A0A0020B8000020BA000020BC000020FA
:10C08400BE000020F60100208E020020C400002023
:10C0940001A001A001A001A001A001A001A001A094
:10C0A40001A001A001A001A001A001A001A001A084
:10C0B40001A001A001A001A001A001A001A001A074
:10C0C40001A001A001A037370040834747009946EB
:10C0D4004111BD8B638ED70231476386E706114752
:10C0E4006390E704A3030100174600000346863467
:10C0F40037370040834771006317F6022C00173569
:10C10400000013056526976001E0E780406309A8F5
:10C114008347570093F7F70F2304F1008347810007
:10C1240041017300203083477100834687000C0867
:10C13400AE97238CD7FE83477100850793F7F70FDB
:10C14400A303F10045BF280097D001E0E78020F762
:10C154001375F50FA303A1000346710045B73737E4
:10C1640000408347474099464111BD8B638ED702F7
:10C1740031476386E70611476390E704A303010090
:10C18400174600000346262B3737004083477100CB
:10C194006317F6022C00173500001305251E97605F
:10C1A40001E0E780C05909A88347574093F7F70F88
:10C1B4002304F10083478100410173002030834749
:10C1C4007100834687400C08AE97238CD7FE8347C3
:10C1D4007100850793F7F70FA303F10045BF28000B
:10C1E40097D001E0E78060FF1375F50FA303A1006A
:10C1F4000346710045B73747004083474780994657
:10C204004111BD8B638ED70231476386E706114720
:10C214006390E704A3030100174600000346962138
:10C2240037470040834771006317F6022C00173527
:10C2340000001305E515976001E0E780405009A868
:10C244008347578093F7F70F2304F1008347810056
:10C2540041017300203083477100834687800C08B6
:10C26400AE97238CD7FE83477100850793F7F70FAA
:10C27400A303F10045BF280097D001E0E780A007A1
:10C284001375F50FA303A1000346710045B73747A3
:10C294000040834747C099464111BD8B638ED70246
:10C2A40031476386E70611476390E704A30301005F
:10C2B400174600000346E67837470040834771007D
:10C2C4006317F6022C00173500001305A50D9760BF
:10C2D40001E0E780C04609A8834757C093F7F70FEA
:10C2E4002304F10083478100410173002030834718
:10C2F4007100834687C00C08AE97238CD7FE834712
:10C304007100850793F7F70FA303F10045BF2800D9
:10C3140097D001E0E780E00F1375F50FA303A100A8
:10C324000346710045B7411126C4B714004022C624
:10C3340003D4C409420441809317240163DB07003A
:10C34400A145014597B001E0E78040108967239E2D
:10C35400F4081374042015CC9757000083C717847E
:10C3640093E7170017570000A30AF782B717004096
:10C3740003A7470A1377072015C303A7C70A136740
:10C38400072023A6E70AB717004013070020239EBF
:10C39400E7083244A24441017300203003A7870A0E
:10C3A4001367072023A4E70AF9BFB717004003D790
:10C3B400E70903D7E7099316370163D4060417473F
:10C3C40000000347277F0507974600002384E67E85
:10C3D400174700000357C7771367074097460000C5
:10C3E4002398E6760567239FE70803A7470C85662D
:10C3F400131637016359060003A7C70C558F23A6EC
:10C40400E70C7300203003A7870C558F23A4E70C97
:10C41400CDBF411122C406C69747000083C7679465
:10C42400174400001304C47295CB8347D404858B4E
:10C4340095C78357040013974701634107028D454D
:10C44400094597B001E0E780600091451745000079
:10C4540003452572970002E0E780A05E974700003D
:10C4640083D7076F13F7074005CF1397470163413D
:10C4740007028D45094597B001E0E78020FD91450D
:10C48400174500000345E56E970002E0E780605B16
:10C494008357040093F7F7BF17470000231AF76A7E
:10C4A400B2402244410182804111814601468145C6
:10C4B400114506C6EF00A077B72700401147238334
:10C4C400E780B7F700E003A707D16D9B23A8E7D067
:10C4D40003A707D15D9B23A8E7D073005010010088
:10C4E4000100B240410182804111814681450146EB
:10C4F400114506C62D2FB727004011472383E78037
:10C50400B717004003C7E70283C5E70483D787034F
:10C5140091661377F70F93E5350063E5D700719BB8
:10C5240013671700B7170040130670052380C7046C
:10C53400930680FA2380D7040100010023820702B6
:10C544002380C7042380D704010001002387E70266
:10C554002387B7042380C7042380D7040100010084
:10C5640003C7B70413670702A385E70423800704FE
:10C5740037F700E0832507D193E545002328B7D09A
:10C58400832507D1DD992328B7D07300501001000B
:10C5940001002380C7042380D7040100010003C7DE
:10C5A400B7041377F70DA385E70423800704B2408B
:10C5B400410182800111B7F5070022CC8146E105D3
:10C5C4002A840A86194506CE26CA02C0231201000F
:10C5D400B92DB717004003C7E70283C5E70483D723
:10C5E400870391661377F70F93E5350063E5D7006A
:10C5F400719B13671700B71700401306700523805B
:10C60400C704930680FA2380D70401000100238223
:10C6140007022380C7042380D70401000100238775
:10C62400E7022387B70423800704B7F500E003A7D4
:10C6340005D11367470023A8E5D003D50702657722
:10C64400110713750560418D598D42054181010023
:10C654002380C7042380D7040100010003C7F70027
:10C6640037F40700B7F400E013670704A387E70073
:10C6740003C7B704610413670702A385E704239083
:10C68400A70283A704D1DD9B23A8F4D07300501024
:10C694000100010013056004352E81463000A28597
:10C6A400194502C423160100592322478247E31A7D
:10C6B400F7FCB7170040130770052380E70413073E
:10C6C40080FA2380E7040100010003C7B70413774D
:10C6D400F70DA385E70423800704F2406244D244A3
:10C6E4000561828001114EC681460146AA898145B1
:10C6F400114506CE22CC26CA4AC8152BB7160040CF
:10C7040083C7E60203C7E60483D68603116693F75C
:10C71400F70F1367370063E5C600F19B93E7170033
:10C72400371400401309700523002405930480FA8C
:10C7340023009404010001002302040223002405C1
:10C7440023009404010001002307F4022307E404F6
:10C7540023000404130550025920B7F700E003A78F
:10C7640007D11367470023A8E7D02300240523003B
:10C774009404010001000347F40013670704A307AE
:10C78400E40023002405230094040100010025672C
:10C79400B3E9E9002310340303A707D15D9B23A861
:10C7A400E7D0730050100100010081460146814525
:10C7B4001145B52923002405230094040100010038
:10C7C4008347640493E717002303F4042300040459
:10C7D400F2406244D2444249B24905618280B717AB
:10C7E4000040930670052380D704130780FA238042
:10C7F400E7040100010003C6B7041376F60DA38510
:10C80400C70423800704137605024DC203C6A7009C
:10C81400118A1DE22380D7042380E704010001006C
:10C8240003C7A700136747002385E7009307004B5E
:10C8340001000100FD17EDFFB717004093067005D6
:10C844002380D704130780FA2380E7040100010042
:10C854007D892394A70001000100010001002380C9
:10C8640007042380D7042380E704010001000100AA
:10C8740001003727004093061005A303D7802380C7
:10C884000704B7170040130770052380E704130754
:10C8940080FA2380E7040100010003C7B70413678B
:10C8A4000708A385E7042380070482801376050420
:10C8B40041C603C6A700418A1DE22380D704238012
:10C8C400E7040100010003C7A700136707012385DC
:10C8D400E7009307007D01000100FD17EDFFB71786
:10C8E4000040930670052380D704130780FA238041
:10C8F400E704010001001376F5011366060423948E
:10C90400C700010001000100010023800704238007
:10C91400D704130660042380E7046318C5000100EC
:10C92400010037270040894689BF010001003727ED
:10C9340000409306200591B72380D7042380E704A1
:10C944000100010003D787001367070C2394E70055
:10C954000DBF4111814601468145114506C6C12CD2
:10C96400B7170040130770052380E704130780FA04
:10C974002380E7040100010003C76704136717005D
:10C984002383E70423800704B24041018280814667
:10C99400014681451145612CB71700409306700587
:10C9A4002380D704130780FA2380E70401000100E1
:10C9B4007D562396C7022380D7042380E704010011
:10C9C400010003C76704136717002383E704238068
:10C9D400070401A0BD473305F50201007D1575FD6F
:10C9E4008280411122C426C206C6AA840144631768
:10C9F4009400B2402244924441018280050413050C
:10CA0400803E4204C13F4180DDB7B71700401307A1
:10CA140000032388E7028547174700002328F71CF3
:10CA240073002030397122DC4ED656D237140040C0
:10CA3400E57AB7F9070026DA52D45AD05ECE06DE7C
:10CA44004AD862CC2A8B916B93040404130A7005B0
:10CA5400910AE1098347E4020347E404835684030B
:10CA640093F7F70F1367370063E57601F19B93E7BC
:10CA7400170023804401130980FA23802401010054
:10CA840001002302040223804401238024010100C5
:10CA940001002307F4022307E4042380040037F78A
:10CAA40000E0832707D193E747002328F7D0835773
:10CAB400040293F70760B3E76701B3E75701C207BE
:10CAC400C18301002380440123802401010001006B
:10CAD4008346F400130CB40493E60604A307D400BD
:10CAE4008346B40493E60602A305D4042310F40297
:10CAF400832707D1DD9B2328F7D073005010010052
:10CB0400010013056004F9353000CE8581461945CE
:10CB140002C423160100212A11469745000093857B
:10CB2400650D280011231DD5930770052380F4009B
:10CB3400238024010100010083470C0093F7F70DC3
:10CB44002300FC0023800400F2506254D254425962
:10CB5400B259225A925A025BF24B624C2161828092
:10CB6400411106C6AD2D7530977001E0E78040E1B4
:10CB7400D5BF2303048015472303E4800100230267
:10CB8400A480828083076480E3CE07FE23030480AD
:10CB9400828083076480E3CE07FE0345448082805D
:10CBA40083076480E3CE07FE2302A48082804111C0
:10CBB40026C44AC24EC006C61377F50BAD47AA89F0
:10CBC4002E8995446306F70019456537653F8D4402
:10CBD4004E854537FD59FD1463983401B240A24493
:10CBE4001249824941018280135509011375F50FD9
:10CBF400453F2209CDB7011126CC06CEB704080063
:10CC040051371545BD37713769372AC6A53F3245B7
:10CC14009377150089EB136515001375F50FF24032
:10CC2400E24405618280FD14E9FC0145CDBF397100
:10CC340026DC4ADA4ED852D656D45AD25ED006DE14
:10CC440062CE66CCB7E700E07D5783AA070022C610
:10CC540003AA470023A0E71823A2E718B717004048
:10CC6400130770052380E704130780FA2380E70481
:10CC740083C74704930B75FFB684E20793FBFB0F4E
:10CC84008546AA892E8B328937240040E1870157D3
:10CC940063FA76016308D50089461307000263131B
:10CCA400D5000157D98F93F7F70FB71C00402382A3
:10CCB400FC0411472303E4801305F00F5D3D094C88
:10CCC400D135636D7C11B7050700DA953787070006
:10CCD400795563F2E504B3879500636EF702370B69
:10CCE4000800A94733EB65016399F90689E4814497
:10CCF400513D26850DA0DA850945553D05090345B5
:10CD0400F9FFFD14050B693D81C49377FB0FFDF713
:10CD1400DD3569FD7D55B717004013077005238085
:10CD2400E704130780FA2380E70403C74704418B11
:10CD34002382E704F250B7E700E023A0571123A2AF
:10CD44004711E25432445259C259325AA25A125B20
:10CD5400825B724CE24C21618280A5476395F9069F
:10CD640085691309F00FB3069900B3742B01B694C7
:10CD74001349F9FFB3749900856B33796901416BE9
:10CD84009387F9FFB3F7270199E363FC340193D93F
:10CD94004900C147E3E637FF99BF0569C1697D19B9
:10CDA400D9B71305800D63886901130500026384F4
:10CDB400790113051008CA85DD3B353D21DD4E9907
:10CDC400B3843441D9B7DA852D45D533CA94E30009
:10CDD40099F205097D3BA30FA9FED5BF9387F9FFFF
:10CDE40093F7F70F6361FC0C83C71C041307300827
:10CDF400631FF70437070800636BEB04B3079B005A
:10CE0400B706100063F5D704334BEB0089476393EF
:10CE1400F9068980D549E38C04ECDA850945413B60
:10CE240011090327C9FF91472320E4800307648085
:10CE3400E34E07FE23033481FD17EDFBFD14110BB4
:10CE440081C49377FB0FE9FF7D3371F5E1B5B71723
:10CE5400004003C75704B70708001377070219E314
:10CE6400B78707007955E378FBEA33079B00E3FFB4
:10CE7400E7F855B58547E382F9F2DA852D45053B98
:10CE84009389F4FFE38504E6293393F7390091EBA2
:10CE9400832604800327090093074900E39AE6E404
:10CEA4003E89CE84F1BFB5476396F9001305900B14
:10CEB400C93135BDB1471305B00AE38BF9FE994773
:10CEC4006391F904B7050800B365BB002D45C5316E
:10CED40081448D4BA149753963967401832704807D
:10CEE4002320F9008504E39834FF83270480131773
:10CEF4002B01635507002312F900D5BB2322F90047
:10CF0400FDB39D476399F90281451305B00445318A
:10CF1400BD442320090023220900FD599D3993F7BC
:10CF24007400CA9703C70700FD14398D2380A70036
:10CF3400E39634FF6DBBA1476392F9046D398144D4
:10CF4400630D0B008D479304C0036308FB00930437
:10CF5400000563048B01930440041375C507E308BB
:10CF640095D81945393139390545213126850D3989
:10CF740009453D314931E31C05D669BB91476399A5
:10CF8400F90013056006F536F53E130590090DB753
:10CF9400E38F09D4F154A9BB19CD91CD09CE8147B2
:10CFA4003387F500834607003307F5008507230020
:10CFB400D700E317F6FE828019C991C909CA910501
:10CFC40083A7C5FF11057D16232EF5FEC5BF8280FC
:10CFD40001C919C62A960505A30FB5FEE31DA6FED1
:10CFE400828081473307F5000307070019E33E8574
:10CFF40082808507C5BF01112E8626CAAA8413150F
:10D0040006019305F004418122CC06CE32C6EF001E
:10D0140010762A8401C53246A685BD3F2285F2409A
:10D024006244D24405618280854715C18DC105C221
:10D034008147B306F5003387F50083C6060003472E
:10D0440007006398E6008507E315F6FE85473E85ED
:10D0540082808147EDBF9307F6FFBE952A9663133E
:10D06400C5008280FD1583C715000505A30FF5FED5
:10D07400FDB7AA87014581CF09CE3E96850703C730
:10D08400F7FF6317B700E39BC7FE054582808280E4
:10D09400014582807971975700009387E73D22D438
:10D0A400804306D626D24AD04ECE52CC56CA5AC84F
:10D0B4005EC662C45DCC37C9C901814B175A0000F2
:10D0C400130A0A40975400009384443B1309F93728
:10D0D400975A0000938A0A35B709C0A8370B4057FE
:10D0E4008357240095E35C44639D0B0017570000AD
:10D0F4002324F738032CC4002285EF007074628463
:10D1040099A823A6FB00FDB783270A00829783868C
:10D1140064011C4463DB06063307F5406367E908D2
:10D124009757000023A807308355240003450400C3
:10D13400970002E0E780E0905C405844A9CF144493
:10D14400B6978386640163C5060063E33701DA9703
:10D154001CC4A28B3A8449F4975700009387872C08
:10D164009C4B09476378F706F917175700002323E8
:10D17400F72CB250225492540259F249624AD24ACC
:10D18400424BB24B224C45618280E377F5F83387FA
:10D19400F9402A9761B763970B009757000023ADB6
:10D1A400E72C89BF23A6EB00B1B7D85009CF63DFC2
:10D1B40006003385A74083A70A016376F5009757D5
:10D1C400000023A9A726A28B404471B7E3F3A7FE6E
:10D1D400CE97C5B79757000023AE072459BF411116
:10D1E40022C4175400001304E4261C4006C626C2B9
:10D1F4004AC091C782979757000023AD07245C402B
:10D2040091C382971C406390071C9757000083C703
:10D21400373F858B95C797570000A383073E175761
:10D2240000000347173E954763FCE700352B9757EB
:10D23400000083C7173DF5178A07A2979C4382977E
:10D24400175900001309893F8347C900918B99C37B
:10D25400EF0050451C4491C3829797540000938477
:10D2640064219840175600000346D61B97570000C8
:10D2740083C7471B93961700BA9683D60600D5CA70
:10D284009757000083C7071A63EFC70A9757000030
:10D29400238A07181C40639807129757000083C716
:10D2A400773691CF9757000083C7B73589EB9757E7
:10D2B4000000A3890734971002E0E780A0EF975796
:10D2C40000009387E71F9C43638F070EB707C0A82E
:10D2D400175700002320F716753B975700009387D4
:10D2E400E719DC53EDC3175700001307A713184BB6
:10D2F4009757000083C7D7196367F70C17570000C7
:10D3040003473730954763E0E70C8347C900918BA7
:10D31400DDEB90409756000083C6D61063CBD70A46
:10D324002244B24092440249410117F301E06700EC
:10D33400235E850793F7F70F975600002384F60EB4
:10D34400E3E6C7F235BF86073E97835507002310EF
:10D35400070097570000239D0710975700009387F5
:10D36400270F9C43175500000345C50B13172500D1
:10D37400BA979C4382979757000083D7670F175734
:10D3840000000347270A93C7F7FF7D8D9317170003
:10D3940098403E97835707005D8D2310A700975749
:10D3A400000083C7270891C7850717570000230B80
:10D3B400F706175700000347E7069757000083C78F
:10D3C4007706E375F7ECB2402244924402494101E6
:10D3D4008280139717003297035707006DF785076C
:10D3E40035BFAD6737C70040BD072326F7200F10B0
:10D3F4000000975700009387E702C84F83278726CA
:10D40400BD66BD0693C7F7FF99836A052326D72017
:10D414005D8D82804111B7170040985F3AC6945FD2
:10D424003247E39CE6FE324541018280828001114D
:10D4340022CC175400001304241E18402AC62EC4FC
:10D4440032C206CE3C4B93F7F7F73CCB971002E081
:10D45400E78000D3184097560000938626193C4B6A
:10D4640093E707083CCB9C423245A24523A0070022
:10D474000347150003482500220742084297034842
:10D4840005004297034835006208429798D703473E
:10D4940055000348650022074208429703484500A7
:10D4A40042970348750062084297D8D7034795000E
:10D4B4000348A50022074208429703488500429783
:10D4C4000348B5006208429798DB0347D500034838
:10D4D400E5002207420842970348C5000345F500CA
:10D4E400429762052A97D8DB03C7150003C52500B8
:10D4F400220742052A9703C505002A9703C535006C
:10D5040062052A9798CF03C7550003C56500220713
:10D5140042052A9703C545002A9703C5750062058D
:10D524002A97D8CF03C7950003C5A5002207420553
:10D534002A9703C585002A9703C5B50062052A9773
:10D5440098D303C7D50003C5E500220742052A97EF
:10D5540003C5C50083C5F5002A97E2052E97D8D3E5
:10D56400D843759BD8C3D84313671700D8C39843CF
:10D574001367170098C3124698425C43858BD1E722
:10D584001C4F01452300F6009C429C4FA183A3003D
:10D59400F6009C429C4FC1832301F6009C429C4FA1
:10D5A400E183A301F6009C42D84F2302E600D84F42
:10D5B4002183A302E600D84F41832303E600D84F1A
:10D5C4006183A303E60098532304E6009853218360
:10D5D400A304E600985341832305E600985361832E
:10D5E400A305E600D8532306E600D8532183A306F7
:10D5F400E600D85341832307E600DC53E183A30705
:10D60400F600F2406244056182800100B5B7175705
:10D6140000001307E7FD1443411122C49C5E4AC075
:10D6240006C6998326C2858B3A84175900001309CC
:10D63400E9FBD1CB9C5E97540000938424FC93F7C0
:10D64400F7F99CDE175700000347A7FB9307000870
:10D65400631BF700832709009C4393F707041757BC
:10D6640000002300F7FA83C7040093F707049DC35F
:10D67400975700009387C7E49C438297975700000D
:10D6840023A6A7F883C7040093F7F70B17570000E6
:10D694002306F7F683C7440093F707048DE785470D
:10D6A40017570000A30EF7F4975700009387C7F6A7
:10D6B4009C43096798C7130700FC97560000238111
:10D6C400E6F4D844F8D31C40985F1183058B09CB4A
:10D6D400985F3D9B98DF0547975600002382E6F24A
:10D6E400985F1D83058B11CB985F1377F7F798DF4D
:10D6F4008547175700002305F7F083270900D8430F
:10D704000583058B19C7D843759BD8C3D843799B28
:10D71400D8C3B24022449244024941018280397103
:10D7240006DE16DC1ADA1ED82AD62ED432D236D029
:10D734003ACE3ECC42CA46C872C676C47AC27EC0CD
:10D74400F935F250E2525253C2533255A255125691
:10D7540082567247E2475248C248324EA24E124F96
:10D76400824F216173002030975700009387C7EAE6
:10D77400944397570000938767E803C70700058B16
:10D7840011CB97570000238D07E697570000A38914
:10D7940007E6828003C71700058B65F7F85271FF0F
:10D7A40083C75700DDB717580000130868E4032740
:10D7B40008001C5F9583858BD1E709C61C5BBD837C
:10D7C4002300F60085CA83270800985B4607935711
:10D7D40067016356070093E707C0C207C183039735
:10D7E4000600C207C18709C7BA970947B3C7E7024A
:10D7F4002390F60085CD834715008DCB9756000006
:10D8040083C626E093F606041387970089478DCADA
:10D814003A9503470500854699471376F706631141
:10D82400D60262076187B947634C07008327080063
:10D834009C5FED838D8B17570000A306F7DC8147AF
:10D844003E8582808547EDBF411122C406C6175428
:10D854000000130464DC184049E9AE877453FDFEEC
:10D864003E85B28597570000238B07D8970002E0C6
:10D87400E780606C97570000938787D79C43B7066F
:10D8840080009843558F98C3D857719BD8D7975722
:10D894000000A38707D697570000A38107D61C4032
:10D8A400094798C3B7F700E003A707D16D9B23A8E6
:10D8B400E7D003A707D15D9B23A8E7D073005010DE
:10D8C400144017570000130767D383472700858B3D
:10D8D40089EB83473700858BD9C79757000023818D
:10D8E40007D2B2402244410182808D476310F50281
:10D8F400975700009387C7CF9C43B706800098438F
:10D90400558F98C3D857719BD8D75DBF8547E31906
:10D91400F5FAB567BD075CC70F1000001C40096726
:10D92400094698C7130700F897560000238AE6CCE7
:10D93400175700001307C7CB1443984231830D8B4C
:10D944006319C7001307E043F8D33D673D07D8C701
:10D9540085BF984231830D8B01E713076019EDB73A
:10D964001307E01BD5B7FC52ADF3A5BF5D7152DCC4
:10D97400175A0000130ACAC703270A0086C6A2C49E
:10D98400A6C2CAC04EDE1C4397590000938989CDB4
:10D9940017590000130949C893F7F7E793E70708F5
:10D9A4001CC383A609003707CEFF7D179C461306C8
:10D9B40080022A84F98F9CC6832709001307000874
:10D9C4002800B8CBAE8493051008EFF06FE0970001
:10D9D40002E0E780E07A971002E0E780E08783279F
:10D9E4000A009376F41F370FFCFF23A40700984B1B
:10D9F4004E88CA881367F70398CBF84F130510F8BD
:10DA0400D285137707E0558FF8CF9843F576FD1646
:10DA1400758F98C39843B7063300B7020400137791
:10DA2400F7E798C398439303401F7D1F1377F7E7E5
:10DA34001367071098C303A70900930F8002854951
:10DA44001C47D58F1CC7832709001307900D34008A
:10DA5400B8CB11490147135337002693834703007A
:10DA640013767700B3D7C740858BDDCF9C41832ED7
:10DA74000800239C07042390070603AECE02137EFE
:10DA8400DEFF23A6CE0383AE0700137EF70793FEC3
:10DA94000EF833EECE0123A0C70103AE4702336E66
:10DAA4005E0023A2C70383AE0800014E23A27E06B4
:10DAB40003DA070663074E0303AE0703038A06006F
:10DAC400135EFE00620E135E8E416358CA0103AEFC
:10DAD4000703135EFE002380C60103DE0706137EE0
:10DAE400FE0F03AA4E0663060A0003DA8705E37FE6
:10DAF40049FB03AE4702337EEE0123A2C7038387AB
:10DB04000600635CF400034E03003396C900134619
:10DB1400F6FF3376C6012300C3003E8663D3A70015
:10DB24002A8613158601618505071377F70F850685
:10DB3400E313F7F3B640264496440649F259625A71
:10DB44006161828097560000938606AD9C42D84757
:10DB540013161701635506029847131617016350ED
:10DB640006027D57B8D7175700001307A78B584FE5
:10DB74000507175600002325E68C116798C79847B8
:10DB84000D83058B1DC317570000034747A7136771
:10DB94001700175600002304E6A6130700F81756CB
:10DBA4000000230FE6A4214798C79847058B09CFA7
:10DBB40017570000034797A4136717001756000070
:10DBC400A30EE6A2054798C798470983058B09E782
:10DBD40098470583058B31CF9847175600001306E5
:10DBE400E6A1175500001305A5A00983058B63035F
:10DBF40007101841184331830D8B75EBAC4B184E4D
:10DC040093F5050203471700CDCD79EF130770068E
:10DC1400D8CF034706001367170017560000230FD9
:10DC2400E69C114798C718415C57F19B93E717008E
:10DC34005CD79C4298479316370163D606029756E1
:10DC4400000083C6E6AAC18A17570000130707A37A
:10DC5400C5CE034747071367070297560000238979
:10DC6400E6A8056798C798479316270163D106026B
:10DC7400175700000347C798620761876357070077
:10DC8400054797560000238DE696096798C798477D
:10DC94009316070163D606029756000083C656A55D
:10DCA400858A175700001307679DADCE03475707B2
:10DCB4001367270097560000A38CE6A2216798C734
:10DCC400828029D785456315B7001307B00689B745
:10DCD40089456315B7001307F0061DBF8D4563150D
:10DCE400B700130730072DB71307500715B71307ED
:10DCF400600739BF03473600136717001756000043
:10DD0400A30FE68E094739BF834647070946BD8AF4
:10DD14006388C600034747078D463D8BE313D7F45A
:10DD2400114725BF83465707918AC9DA0347570726
:10DD34001367870041B7397106DE16DC1ADA1ED87C
:10DD44002AD62ED432D236D03ACE3ECC42CA46C897
:10DD540072C676C47AC27EC0F533F250E252525390
:10DD6400C2533255A255125682567247E247524860
:10DD7400C248324EA24E124F824F216173002030AE
:10DD840017570000130787898346B7019757000088
:10DD940083C7978B4C4BB697FD8B33D7F5009756BB
:10DDA4000000A38DF68697560000A38FF688058B96
:10DDB40015EF1757000003477789B3F7E702814649
:10DDC40001471305000233D6E500058A1378F70FDF
:10DDD40019CA6397D70097570000A38107858280EB
:10DDE400850693F6F60F0507E31FA7FC8280974785
:10DDF40000009387E76C9C43011122CC4EC606CEEB
:10DE040026CA4AC852C456C28297975700009387BD
:10DE1400E782804781496305A406BE8497470000D2
:10DE24009387C765038767013E8963550706018D9C
:10DE3400135455009747000083C7E77F9379F50192
:10DE4400636DF402370AC0A8B70A4057153F9C44D3
:10DE54009746000083C6267E139756003E97830795
:10DE64006901158C63C5070063634701569797479B
:10DE7400000023A9E77CE37BD4FC1604B3693401D6
:10DE8400F24062444E85D2444249B249224A924AFF
:10DE940005618280E37D85F8B707C0A83384874095
:10DEA400229579B797470000938787619C43411176
:10DEB40022C406C626C28297974700009387077834
:10DEC40080476309A406BE84974700009387075BD5
:10DED4008387670163D80704018D1354550097475E
:10DEE400000083C747756367F404593D9844974716
:10DEF400000083C747749396570036971D8C974646
:10DF0400000023A1E674E372F4FE2244B24092447A
:10DF1400174500000345957081454101170302E050
:10DF24006700034FE37A85FAB707C0A833848740B4
:10DF3400229565B7B24022449244410182809747BA
:10DF44000000938727729843B75702009387079F6F
:10DF5400832607091396560063580600832607098B
:10DF64001396660063440600FD17FDF3828071C5B5
:10DF7400AA870145E9C58D07C207C183F19BC20782
:10DF8400C18313074003636FF702174700001307A9
:10DF9400676E0843174700001307476D14436398DF
:10DFA400A602174700001307674D185B014541CBD4
:10DFB4004111C20706C60545DD8D0297B2400145F1
:10DFC40041018280174700001307876AD9B70357B6
:10DFD400650035E303574500636FF704B306F74064
:10DFE4002146637CD60203280500938687001D8F93
:10DFF400AA96611717460000035626432392E600AB
:10E0040023A006012393060014C12312F50013076D
:10E0140086FF97460000239AE6402313B5009745F0
:10E02400000083D58540B387F54017470000231EC1
:10E03400F73E2105828008419DB701458280828098
:10E044000DC1974700009387E76203A30700974732
:10E0540000009387A76183A8070081469A8763E33A
:10E064001701828003A80700636DF50A636BA80A91
:10E0740013878700E367E5FE03D66700216705077A
:10E084006317E60003C7318B0507A389E18A974527
:10E0940000009385253903D6470003D765002393F1
:10E0A400070032974207418317450000231FE536D6
:10E0B400638A6702174500001305855B0841630303
:10E0C400F50203D5660019ED83D7460023A00601A7
:10E0D40021073E9621062392C60097470000239607
:10E0E400E734B6879843E30E17F797460000938604
:10E0F40026589442E307D7F683566700BDF283D6C9
:10E104004700035647001843A106B2962392D7004E
:10E1140098C383D76500A107174700002317F7307A
:08E124008280BE86C28725BF80
:10E130009751FF1F938101A217A1FF1F130181ECCB
:10E1400017E5FFFF130545EC9725FF1F938585EB2A
:10E150001746FF1F130686FD63FAC50083220500DC
:10E1600023A0550011059105E3EAC5FE171502002D
:10E170001305059F9745FF1F938545FB1386018275
:10E1800063FAC5008322050023A0550011059105FF
:10E19000E3EAC5FE138501829785FF1F9385C55F5E
:10E1A0006377B500232005001105E36DB5FEFD4240
:10E1B000739002BC8D4273904280B722000093821C
:10E1C000828873A002309722FF1F9382A2E393E21A
:10E1D00032007390523097F200009382026973907C
:10E1E0001234730020303D432A876373C302937750
:10E1F000F700BDEFADE5937606FF3D8ABA960CC3F6
:10E200004CC30CC74CC74107E36BD7FE11E28280B9
:10E21000B306C3408A069702000096966780A60060
:10E220002307B700A306B7002306B700A305B7006E
:10E230002305B700A304B7002304B700A303B70066
:10E240002303B700A302B7002302B700A301B7005E
:10E250002301B700A300B7002300B700828093F525
:10E26000F50F93968500D58D93960501D58D61B7F1
:10E27000939627009702000096968682E78086FA9A
:10E280009680C1171D8F3E96E374C3F8A5B7336718
:10E29000B500FD530D8B79E7B7877F7F9387F7F73D
:10E2A00010419441B372F6003363F600BE92B3E2BC
:10E2B00062006397720C6318D6065041D441B37262
:10E2C000F6003363F600BE92B3E262006398720A0E
:10E2D000631BD60410459445B372F6003363F60011
:10E2E000BE92B3E262006391720A631ED602504589
:10E2F000D445B372F6003363F600BE92B3E2620017
:10E30000639A72086311D60210499449B372F600F9
:10E310003363F600BE92B3E2620063937208510564
:10E32000D105E30FD6F61317060193970601631C78
:10E33000F7001357060193D706013305F74093758D
:10E34000F50F91E982804183C1833305F7409375CE
:10E35000F50F91E182801377F70F93F7F70F3305ED
:10E36000F74082800346050083C605000505850544
:10E370006313D60065FA3305D640828011059105F6
:10E38000E312D6FE014582802105A105E31CD6FCDF
:10E39000014582803105B105E316D6FC0145828036
:10E3A0004105C105E310D6FC0145828001471146B5
:10E3B0004148B386E5008147B308F50083C80800EB
:10E3C0008507C10623A816FFE398C7FE11071105AC
:10E3D000E31107FF8280935785019CC19357054144
:10E3E00093F7F70FDCC19357854093F7F70F137539
:10E3F000F50F9CC5C8C582801C414111130705015A
:10E400003EC05C413EC21C453EC45C453EC693973F
:10E4100025001408B69783A707FF85051105232E4D
:10E42000F5FE8D89E315E5FE41018280397122DC1C
:10E4300041661384418C06DE26DA4AD84ED652D481
:10E4400056D25AD05ECE93050501A2863708FF004A
:10E450007D1683070500034735001105E207D98FB4
:10E460000307D5FF9106420733770701D98F0307CA
:10E47000E5FF2207718FD98F23AEF6FEE39BA5FC43
:10E4800081499144930A010117CB0100130B8B378B
:10E4900097CB0100938B8B34130AC00293F734009F
:10E4A000032904004844BDE78A85353785450A8538
:10E4B000A1370A871C43110793F6F70093F7070F5C
:10E4C000DA97B69783C70700232EF7FEE394EAFE98
:10E4D000024592476205C2075D8DB2475D8DA24736
:10E4E000A2075D8D93972900DE979C4385093D8D9A
:10E4F0003345250108C885041104E39144FBF2501B
:10E500006254D2544259B259225A925A025BF24B87
:10E51000216182803345A90008C8F1BF797122D4F6
:10E5200026D24AD04ECE52CC56CA06D62A8A9399C3
:10E5300045000144938A418C13090101C144B3078A
:10E540003401D69788438A85793533078A008A87CC
:10E550001443904391074107B18E2328D7FEE399D6
:10E5600027FF1104E31D94FCB25022549254025927
:10E57000F249624AD24A45618280397122DC130431
:10E58000050106DE22878147C1460C433306F100B0
:10E5900011070CC24C4710083E960CC24C4F10108D
:10E5A0003E960CC29107E392D7FE85450A85A935B0
:10E5B0008945080891358D4508103D3D8147414703
:10E5C000B306F10094421104232ED4FE1408BE9623
:10E5D000944254C41410BE969442910754CCE391D3
:10E5E000E7FEF250625421618280060593770510A0
:10E5F00089C71375F50F1345B5018280411106C611
:10E60000ED37B2404101D5B781471148C148338643
:10E61000F500B306F500014703AE06003303E6003C
:10E6200005072300C301C106E31807FF9107E39024
:10E6300017FF82809306050117C601001306861C8A
:10E6400013050505138706FF1C43110793F5F70013
:10E6500093F7070FB297AE9783C70700232EF7FEF5
:10E66000E394E6FEC106E31FD5FC8280411122C47B
:10E6700006C626C285472E846301F50289476318C2
:10E68000F5002244B24092442E854101B9BF8D4726
:10E69000631BF5002E85913F298C2285B2402244D0
:10E6A000924441018280A5476315F5002E85B93754
:10E6B000DDB7AD47631AF5002E8589373D37AA844B
:10E6C00022852537258DC9BFB5476316F5002E85F0
:10E6D0003537AA84FDB7B947E311F5FC2E85393FDC
:10E6E000AA842137A98C228509373344950075B750
:10E6F0006382051493F7F500639E07121571D6C364
:10E70000AA8A3285A2CDA6CB86CFCAC9CEC7D2C52A
:10E71000DAC15EDF62DD66DB6AD96ED73284AE8431
:10E72000EF80512DC147631EF50022850133014959
:10E73000130A010697CB0100938BCB20294C634130
:10E740009902FE406E44DE444E49BE492E4A9E4A1E
:10E750000E4BFA5B6A5CDA5C4A5DBA5D2D618280C1
:10E76000338B2A010C105A859131814508107D3375
:10E7700085490810C135081009351C10D2863E871E
:10E7800010434107C10623A8C6FE032647FF23AA5C
:10E79000C6FE032687FF23ACC6FE0326C7FF23AEB3
:10E7A000C6FEE31FEAFC17C701001307A7150328DD
:10E7B0000700832D4700032D8700832CC700528458
:10E7C000138607010C4042853ECE3ACC32CA42C87D
:10E7D000713D0C482AC66E85513DB2460C5011045D
:10E7E000A98E6A8536C65935B2464C54A98E6685BF
:10E7F00036C6AD3DB246F2475246358D88C39107C5
:10E8000042486247E310F6FC4107B287E391EBFA16
:10E81000CE85081085091933E39D89F50810193D47
:10E820000810A13BA9450810D539DA850810E93B45
:10E83000410931B782809307F00F6384F60A2D7186
:10E84000232A911023282111B28423263111130683
:10E8500000102E89AA89930530020A85232E1110F3
:10E86000232C811036844132A2852685EFB0D00555
:10E8700013178500935785003365F7002310A10017
:10E88000A6852286130531009304340023018100FC
:10E8900093F4F40FEF70F13E93F6F40089C64D0443
:10E8A000158C9374F40F1C02A697A6850A8517C6CB
:10E8B000010013062609238007F01D3D26868A8560
:10E8C0004E85EF70113C230099008320C111032471
:10E8D000811183244111032901118329C11015617C
:10E8E00082808280411106C6EF70300DB240AA8648
:10E8F00017C701001307070B1756FF1F1306062E35
:10E9000097C501009385850B114541016FB0D01566
:10E91000130101DB23248124232021252326112414
:10E9200023229124232E3123232C4123232A5123D4
:10E930002328612303470500930710042A892E84A6
:10E940006315F7680347150093074005631FF766D3
:10E95000034725009307E0056319F7662E86AA850D
:10E960002545EFB050051306D003A2854A85EFB0C8
:10E97000301EAA84635A05003546A2854A85EFB049
:10E98000301DAA84634405089389D4FF93071003BC
:10E9900063CE37074E86930539002808EF8071094A
:10E9A0001C1CBE9917CA0100130A8A2F238409DE92
:10E9B000D28A81494D4B83254A002808EFB01013B5
:10E9C0000DC18E09D69983D709004947636FF700B7
:10E9D00017C70100130747F88A07BA979C43BA97ED
:10E9E00082878509210AE39869FD97C5010093850F
:10E9F000652ADDA89305F4FF858D13851400C205F3
:10EA000081460146C1814A95EF20B05D8320C12433
:10EA10000324812483244124032901248329C1233D
:10EA2000032A8123832A4123032B01231301012578
:10EA300082807D1493871400B3049440C2043E99ED
:10EA4000C1802686CA85E800EFB0F0381305D104EE
:10EA5000EF80417A93150501C1811305D104EFB010
:10EA6000104497C501009385A5F61305D104EFB0B6
:10EA7000F00719CD97C50100938505F60545EFB060
:10EA800060681765FF1F0345750DEF50603DBDBF02
:10EA900097C50100938585F51305D104EFB01005E6
:10EAA00019CD97C501009385E5F40545EFB0806564
:10EAB0001765FF1F0345950AEF50403D81BF97C57D
:10EAC0000100938525F41305D104EFB0300219CD70
:10EAD000371700408327C70A856697C501009385CD
:10EAE000E5F2D58F2326F70A254501A697C5010033
:10EAF000938585F21305D104EFB0407F11CD371710
:10EB000000408327870A856697C50100938545F1F4
:10EB1000D58F2324F70AC9BF97C501009385C5F097
:10EB20001305D104EFB0807C11CD37170040832747
:10EB3000C70AA16697C501009385C5EFD58F232627
:10EB4000F70A5DB797C501009385C5EF1305D1049A
:10EB5000EFB0C07911CD371700408327870AA1662F
:10EB600097C501009385C5EED58F2324F70AADBF65
:10EB700097C501009385C5EE1305D104EFB000776A
:10EB800005C1B716004083A7860A056713070780EB
:10EB9000D98F23A4F60A97C50100938525EDA9B75F
:10EBA00097C50100938545ED1305D104EFB00074BE
:10EBB00005C1B716004083A7C60A0567130707807B
:10EBC000D98F23A6F60A97C501009385A5EB29BF27
:10EBD00097C501009385C5EB1305D104EFB0007113
:10EBE00011C59767FF1F23AB07F80DB597C5010047
:10EBF0009385C5EA1305D104EFB0406F01C5EF500E
:10EC0000D06B29B597C50100938505EA1305D1049A
:10EC1000EFB0C06D01C5EF503071CDBB97C501009D
:10EC2000938545E91305D104EFB0406C01C5EF5061
:10EC30007006E9BB97C50100938585E81305D104EB
:10EC4000EFB0C06A01C5EF80D051C9B397C50100CC
:10EC5000938585E71305D104EFB0406909C50545E3
:10EC6000EF80E06265B397C50100938565E6130503
:10EC7000D104EFB0A06719C10145DDB797C5010008
:10EC8000938585E51305D104EFB0406611C93717A8
:10EC900000408327C70A9166D58F2326F70ABDB3A4
:10ECA00097C501009385C5E31305D104EFB0006457
:10ECB00011C9371700408327870A9166D58F23240F
:10ECC000F70AA9B397C50100938505E21305D1049E
:10ECD000EFB0C06111C5A6854A85EF5030723DB3D3
:10ECE0000346D104A547130606FD1376F60FE3EF9E
:10ECF000C7D09767FF1FA38BC7E697C50100938511
:10ED000025DFEFB0605619B31306F4FF058E1385A7
:10ED100014004206418297D501009385A5914A953A
:10ED2000EFB080701764FF1F130484E21DC5054512
:10ED3000EF10F01B97C501009385C5DC1145EFB0BE
:10ED4000603C83570400414593E717001767FF1F96
:10ED50002310F7E0EFB0507455B997C501009385C3
:10ED600025DB1145EFB0003A7D55EFB0D0758357E4
:10ED70000400F99B1767FF1F231CF7DC41B99D3680
:10ED800071B11306F4FF058E13851400420641820B
:10ED900097D501009385058A4A95EFB0E06817641E
:10EDA000FF1F1304E4DA29C58357040097C5010047
:10EDB0009385C5D6E80093E717001767FF1F23194F
:10EDC000F7D8EF800142E800EF80C1421316050139
:10EDD000EC0041821745FF1F1305C55CEF70B07949
:10EDE00097C50100938545D51145EFB0A03139B9DC
:10EDF00097C50100938505D5E800EF80813EE800C6
:10EE0000EF80413F13160501EC0041821745FF1FBB
:10EE100013054559EF7030768357040097C50100FC
:10EE2000938505D4F99B1767FF1F2313F7D26DBF96
:10EE3000EF6050779767FF1F938787D1E843EF70A4
:10EE40006138AE862A8697C50100938525D2114583
:10EE5000EFB0804165BEEF5040184DBE17C60100AF
:10EE60001306C67D97C50100938505D1114551BD97
:10EE7000EF70C03897C501009385C5D035F597C5AB
:10EE80000100938525D18DB73145EF80B022AA844A
:10EE9000EF7041332A86AE86254597C501009385DC
:10EEA000A5D0EFB0603C97C70100938727B2884395
:10EEB000A6851754FF1F1304A4EAEF6051462320D0
:10EEC000A422EF70A03A03250422EF70A12FAE8692
:10EED0002A8697C501009385E5CD95BF81450D45EF
:10EEE000EF50702CEF70A02C2A8697C501009385F7
:10EEF00025CFADBF81452D45EF50F02A8145130543
:10EF00005004EF50502A97C50100938565CE3145D6
:10EF1000EF507029EF70002A2AC6EF70602AB246BF
:10EF20002A871756FF1F130666CB97C501009385E6
:10EF300065CC1145EFB04033D1BC1757FF1F0357C5
:10EF4000C7039756FF1F9386B6EB1756FF1F13068E
:10EF5000E6C897C50100938525CCE1BF85471757C3
:10EF6000FF1F2305F702EF70603097C501009385FE
:10EF7000E5CB9DBD1757FF1F03474701854797C541
:10EF80000100938525CBE311F7E6C5B79767FF1F0F
:10EF9000938707BCA843EF70E122AE862A8697C507
:10EFA00001009385A5C965B5B717004083A7470A37
:10EFB00097C501009385C5C993F70720E39607E23B
:10EFC00097C501009385C5CA05B50146A2854A8546
:10EFD000EF50A07E25BC411122C42164930504801A
:10EFE00099460146254506C69720FF1FE78060C465
:10EFF000930504802244B240994613860182294534
:10F0000041011723FF1F6700C3C299E101458280B8
:10F0100075DD011152C403DA418226CA93548A0075
:10F020008504A204C204C18056C2B38A4441C20A04
:10F0300022CC4AC82E862E842A8997C50100938542
:10F04000E5E9254593DA0A014EC606CE9389018289
:10F05000EFB0802163ED8A0883D5418293F7F50FE5
:10F06000B1CF8D6783D5418293870780A2864A8678
:10F07000BE9529459720FF1FE780A0BB1375F50FAC
:10F0800029ED83D749001566A2972392F18203D711
:10F09000418283D721826309F70063F3E700B297C7
:10F0A000998F139607014182254597C501009385E5
:10F0B00065E4EFB0601B1375F40F0DA08D679387A7
:10F0C0000780930600100146BE9525459720FF1F37
:10F0D000E78020B61375F50F49D50145F24062442B
:10F0E000D2444249B249224A924A05618280B3071A
:10F0F0009440D297C207C183A18303C74900850703
:10F1000093F7F70F9396870011EB9386170093748C
:10F110000AF0A206C204C206C180C18283D721823E
:10F1200063F6F40033879600E3C9E7FA0D6A130A21
:10F130000A800146B385440125459720FF1FE780DB
:10F1400040AF1375F50F51F983D54182A2864A86E7
:10F15000D29505B7411122C41384018222858145CD
:10F16000194606C69720FF1FE780C0E69307B0FA4E
:10F170002300F4008D352244B24097C501009385E9
:10F1800065CE254541016FA0F077A16541119946F3
:10F1900013860182938505802D4506C69720FF1FA3
:10F1A000E78020A903C701829307B00A6303F70031
:10F1B0005537B24083D6418203D6218297C50100DC
:10F1C000938505CB254541016FB0000A83D7419750
:10F1D0000145638C071003D561976366F50023AA88
:10F1E0000196014582803385A740D1473355F5020A
:10F1F0001375F50F01E5239A01968280130101BD75
:10F200002324814223261142232291422320214399
:10F21000232E3141232C4141232A51419547137418
:10F22000F50F63F3A7001544228697C50100938567
:10F2300025CE2545EFB0400301498144938981974C
:10F24000514AA14A9377F90F03D561971757FF1FCA
:10F25000034797C763E98704D1473304F4022A942C
:10F26000239B8196A147631CF706A6850808EF300B
:10F27000906F03D7619783D7419705456364F70083
:10F2800023AA01968320C142032481428324414260
:10F29000032901428329C141032A8141832A414133
:10F2A000130101438280B30749031408AA97CE973C
:10F2B00033859600631E5701BE85EF40400A231731
:10F2C000A1008357E1000509BE94C204C1809DBF1F
:10F2D000AA851306E1003E85EF904025DDB726861E
:10F2E0000C080145EF60400869B78280011106CE25
:10F2F00022CC26CA4AC84EC691E901442285F24072
:10F300006244D2444249B24905618280AA8975D5D6
:10F3100083D7418203D621822E849564638AC700F5
:10F320006374F60015673A961D8E93140601C1802A
:10F33000268697C501009385E5AF2545EFA0D072DD
:10F34000938714F06356F4009307F00F63EA970075
:10F3500097C50100938585AF2545EFA0F07071BF7B
:10F3600083D4418233878400956763C7E700A28511
:10F370004E8561398D3159B7156933099940420974
:10F3800013590901CA854E85493125D9ED75A695D0
:10F39000A295C20523920182C18133852901D1BF83
:10F3A00083D6419781EA97C501009385A5B025458D
:10F3B0006FA0505503D661974111918E97C50100FA
:10F3C000938545B0254506C6EFA0106A138741977F
:10F3D0008355070083D76197138581979D8DC2055B
:10F3E0003E95C1812137B24023AA01964101828016
:10F3F000411183D7419722C426C206C6AE97130790
:10F40000401FAA842E84635AF700593F97C5010014
:10F41000938505A82545EFA0F04E83D74197138526
:10F4200081972286A6853E95EF70A10503D6419768
:10F43000229642062244B24092444182239AC196C7
:10F4400097C50100938545A6254541016FA0D06170
:10F45000011126CA06CE22CC4AC84EC652C456C294
:10F46000814459C1D1C183D7218203D44182638DA4
:10F47000870663F587081D8C42044180AE892A897E
:10F48000228697C50100938565970145EFA0D05D61
:10F49000A28463F38900CE84C2040D6A83D72182DB
:10F4A00003D74182C180938A0182130A0A8063FADA
:10F4B000E704A6864A86B38547012D459710FF1FAE
:10F4C000E780207783D72A00A6972391F182EFF077
:10F4D0009FB083D6418203D6218297C501009385D0
:10F4E00025932545EFA05058F240624426854249B5
:10F4F000D244B249224A924A0561828015673A9401
:10F500009DBF15671D8FB385470163D5E400A686AF
:10F510004A8665B79569B389F9406D743E94C2090E
:10F5200093D909012694CE864A8642042D45971028
:10F53000FF1FE78000704180A28633063901D28523
:10F540002D45239101829710FF1FE780806E83D79E
:10F550002A003E94239181829DBF1841938701FB2D
:10F56000104598C303574500544590C72392E700C0
:10F5700058551049D4C7544998CF97C50100938571
:10F58000A5AD0547254590CBD4CB238EE7006FA0D2
:10F590007037397126DA4AD84ED652D456D25AD05C
:10F5A00006DE22DC62CE66CC2A89EF70B144937409
:10F5B000F50F8149254BE54A17CA0100130A8A96BF
:10F5C00091ECF25062544E85D2544259B259225AAB
:10F5D000925A025B724CE24C21618280034709001F
:10F5E000930707FD93F7F70F637CFB009307F7F989
:10F5F00093F7F70F63E2FA06930797FA93F7F70F7B
:10F60000139487016184FD14230089002685EF602F
:10F6100061432A86AE8603250A0083254A0093F4B7
:10F62000F40F0509EFE0A04E2AC422852EC6EF6034
:10F6300061412246B246EF5081712A8C4E85AE8CD4
:10F64000EF6061472A86AE866285E685EF40110548
:10F65000EF608139AA89ADB79306F7FB93F6F60FF1
:10F660008147E3EFDAF8930797FC49BF411122C4C1
:10F6700006C6830795022A8499C713059502EF6091
:10F68000915D2385A1F68307D41291CB1305D41283
:10F69000EF60115CEF60D13D938781F3C8D3B24036
:10F6A000224441018280011126CA9304150022CC14
:10F6B00097C501009385059E2A84268506CE4AC8F3
:10F6C0004EC6EFA0B04A631E051097C50100938592
:10F6D000A59C2685EFA090496302050E854483070B
:10F6E000D4036386070C13059402EF60D156854955
:10F6F0001379F50F1305D4036387340F8947638C9F
:10F70000F418EF605155A386A1F6631A39017946C2
:10F7100081451385F1F823830182EFE0DFAC830795
:10F72000D40885C31305D408EF60F15203C7618282
:10F73000930717002383F182938781F3BA97A38BF2
:10F74000A7048307D40D85C31305D40DEF60B15012
:10F7500003C76182930717002383F182938781F3A4
:10F76000BA97A38BA7048307D41285C31305D412B9
:10F77000EF60714E03C76182930717002383F18204
:10F78000938781F3BA97A38BA7048307D41785C304
:10F790001305D417EF60314C03C76182930717003C
:10F7A0002383F182938781F3BA97A38BA704F24056
:10F7B0006244D2444249B2490561828097C5010042
:10F7C0009385C58D2685EFA0703AE31905F026854F
:10F7D00097C501009385C58CEFA050398944E3108B
:10F7E00005F08144EDBDEF6011472387A1F6631A50
:10F7F000990079468145138511F723830182EFE053
:10F800009F9E8307D40885C31305D408EF60B144D5
:10F8100003C76182930717002383F182938781F3E3
:10F82000BA97A38CA7028307D40D85C31305D40D03
:10F83000EF60714203C76182930717002383F1824F
:10F84000938781F3BA97A38CA7028307D41285C349
:10F850001305D412EF60314003C76182930717008C
:10F860002383F182938781F3BA97A38CA70283073E
:10F87000D417E38E07F21305D417EF60D13D03C709
:10F880006182930717002383F182938781F3BA97EC
:10F89000A38CA70229BFEF60113CA387A1F601BF8B
:10F8A000411122C406C6830795072A8499C7130508
:10F8B0009507EF60513AA385A1F68307D40899C74D
:10F8C0001305D408EF6031392386A1F68307540B62
:10F8D00091CB1305540BEF60B137EF60711993872B
:10F8E00081F388D7B240224441018280011126CAA7
:10F8F0008146B284014652C456C206CE22CC4AC8C2
:10F900004EC62A8AAE8AEF50A12741CD9307E00464
:10F910006386F400930730056395F40897B90100F6
:10F920009389497503A6090083A649005285D685A7
:10F93000EF50E14137949800EF60010B1304046825
:10F940002A8933758502EF60011703A6090083A693
:10F950004900EF40B14797B7010093872772904362
:10F96000D443EF40B1462A8A33558902AE8AEF600C
:10F9700081142A86AE865285D685EF402152130720
:10F980003005AE876395E400B7070080AD8FF24085
:10F990006244D2444249B249224A924ABE85056134
:10F9A000828001458147E5B7011126CA8146B284AC
:10F9B000014652C456C206CE22CC4AC84EC62A8A36
:10F9C000AE8AEF50E11B41CD930750046386F400EB
:10F9D000930770056395F40897B9010093898969C5
:10F9E00003A6090083A649005285D685EF5021362B
:10F9F00037949800EF50517F130404682A893375B7
:10FA00008502EF60410B03A6090083A64900EF4081
:10FA1000F13B97B70100938767669043D443EF406B
:10FA2000F13A2A8A33558902AE8AEF60C1082A86E4
:10FA3000AE865285D685EF40614613077005AE87C6
:10FA40006395E400B7070080AD8FF2406244D24472
:10FA50004249B249224A924ABE85056182800145E7
:10FA60008147E5B7135785009357050113D88500E3
:10FA70009376F50F01111377F70F93F7F70F618561
:10FA800093F5F50F1378F80F99C211C3B9E3230C5E
:10FA9000D100A30CE100230DF100A30DA10003454B
:10FAA0009101834781010347A1012205A30E0101B2
:10FAB0004207C98F230EB1000345B101D98F034717
:10FAC000D1018345C101620522075D8DD98D056194
:10FAD000828032951375F50F1313850113538341FB
:10FAE0005D466357660861463363C3028507137634
:10FAF000D70F114593F7F70F6305A6002545631A45
:10FB0000A6007946637FF60205071377F70F85474E
:10FB10000DA809466312C7041386067D93084006A4
:10FB2000B36816036385080013F5360011C5130585
:10FB300000193366A60219EE75466374F600854710
:10FB40000D47230CD100A30CE100230DF100A30D00
:10FB50006100B1B77146D5B77D46E374F6FEB14793
:10FB6000E314F7FA850693F6F60F85470547D1BFEC
:10FB7000E35903FC6105FD171313850193F7F70F94
:10FB800013538341DDFF7D171377F70F1146F947B4
:10FB9000E309C7FA1946E306C7FA2546E303C7FA9D
:10FBA0002D46E300C7FA89476316F7021386067DE0
:10FBB00093074006B367F60291C793F83600F547FE
:10FBC000E38108F893070019B367F60293B71700AB
:10FBD000F10785BFFD4735F7FD1693F6F60F314760
:10FBE0008DB783471500034705000111A2075D8FFC
:10FBF000834725008346350083454500C207D98FDA
:10FC00000347550022CC1744FF1F13046415030655
:10FC10001420E206220733E5F600D98D06CE993589
:10FC2000135885001356050193D7850013F7F50F78
:10FC300093F7F70F935685011376F60F9375F80F28
:10FC40001375F50FEF70B02383471400054793F742
:10FC5000B70F6397E7006244F24005616F70B031FF
:10FC6000F240624405618280497123248116138425
:10FC700081F38307340083C8D1F303C8C1F303C7FA
:10FC8000A1F383C691F303C681F397B50100938571
:10FC9000E54248102326111623229116232021170E
:10FCA000232E3115EF70814F4810EF70A154184882
:10FCB0005C48030604033AC03EC2030814035C44D4
:10FCC0001844541097B50100938545413695EF705F
:10FCD000E14C4810EF7001525C103E9583076400C0
:10FCE00017B601001306063D89C717B601001306B3
:10FCF000E63B97C50100938525F2EF70214A481035
:10FD0000EF70414F544C104C5C1097B50100938537
:10FD1000E53D3E95EF7081484810EF70A14D030618
:10FD200034035C103E9597B501009385E53CEF7078
:10FD3000E1464810EF70014C03072403AA844850A1
:10FD40003ACE138481F3EF60E14772475C10AE86D0
:10FD50002A8697B501009385253B33859700EF7080
:10FD6000E1434810EF7001495C1003C6C1F697B536
:10FD700001009385E53A3E95EF7041424810EF70DF
:10FD800061475C1097B501009385853A3E95EF7009
:10FD90004145138961F5A28497C90100938949E718
:10FDA00003C6740519CA481032CEEF70A1447246DA
:10FDB0005C10CE853E95EF70613E8504E39224FF92
:10FDC0004810EF7021435C1097B501009385C5364C
:10FDD0003E95EF70014197C40100938464E30346AC
:10FDE000940319CA481032CEEF70C14072465C10BD
:10FDF000A6853E95EF70813A0504E31224FF4C106E
:10FE00002545EFA020308320C116032481168324CA
:10FE10004116032901168329C1157561828041119C
:10FE200022C406C626C2830755012A84B9C7A9463B
:10FE3000938707FDB387D70203476501130707FDC3
:10FE4000BA97A38DF1F20307750183478501130764
:10FE500007FD3307D702938707FD3E97238EE1F214
:10FE6000830795010347A501938707FDB387D70251
:10FE7000130707FDBA97A38EF1F28307940281CB93
:10FE8000130710046391E7148547238FF1F283076A
:10FE9000D403938481F399C71305D403EF60415BC6
:10FEA00088C4CCC40306140509CA8844CC442384FE
:10FEB000C1F6EFF0BFA388C4CCC48307540699C72A
:10FEC00013055406EF60C15888C8CCC803069407D0
:10FED00009CA8848CC48A384C1F6EFF0FFAC88C8B3
:10FEE000CCC88307D40899CF1305D408EF604156D6
:10FEF00097B701009387071B9043D443EF403165C8
:10FF000088CCCCCC8307140A99C71305140AEF6078
:10FF10008154239CA1F48307540BB9C7A946938746
:10FF200007FDB387D7020347640B130707FDBA9792
:10FF3000238DF1F20307740B8347840B130707FD2E
:10FF40003307D702938707FD3E97A38CE1F283071F
:10FF5000940B0347A40B938707FDB387D7021307BE
:10FF600007FDBA97238CF1F283853400856703C6B9
:10FF7000C1F3938707E11307C0033307E60283C683
:10FF8000D1F3B387F502BA97B69723A2F1F61757C4
:10FF9000FF1F1307E7BB835707003A8413F5870059
:10FFA00039E1038564000547631FE50203C7A1F338
:10FFB00011EF8844CC4401468146EF40713C05E98D
:10FFC000238F01F2B9A0238F01F2D1B5FDD175D2F3
:10FFD000EDD293E78700138581F31757FF1F23198D
:10FFE000F7B6EFF01FC083876400E1F7D1BF884800
:10FFF000CC4801468146EF40B13879D183C7A1F39F
:020000021000EC
:10000000E1D313068007938581F3138501ECEF603C
:10001000414703C501B79D4705053365F502130642
:100020008007938581F32388A1B693078007330562
:10003000F502938781B73E95EF60A144EFF0DFC2F0
:100040001C582244B24092441757FF1F232EF7B288
:10005000130680078145138581F341016FE0AF9856
:100060000171232C811E232A911E1306101E2A843F
:10007000AE8468008145232E111E2328211FEFE046
:100080008F9681458147014701465148CD485D43E0
:100090006340960899C12306F1001306A002A685C5
:1000A0002285EFA0E02A8347C10051473386A44050
:1000B000B387E7029305150078007D16A2958507A2
:1000C0003305F700EF60E13B1306A002A685228509
:1000D00003491400EFA0C027894763C3A70803455D
:1000E000C100D1473305F5027C0005053E95EFF0D0
:1000F0004FCA631CA904194697B50100938585F87A
:100100001305D100EFA0403225C56800093B35A892
:10011000B306C40003C50600930665FD93F6D60F2B
:1001200091EA850793F7F70F6361F302854501476D
:100130000506B9BFB3860703130E011FF296BA96E0
:10014000A38EA6E00507E3D5E8FE8320C11F0324A4
:10015000811F8324411F0329011F13010120828075
:100160003307F4000347070085073349E900B5B7B3
:10017000194697B50100938525F11305D100EFA02D
:10018000A02A0DED194697B50100938525F01305BA
:10019000D100EFA0602919ED194697B501009385AC
:1001A00025EF1305D100EFA0202845D16800EFF01E
:1001B0008FCF61BF6800EFF0AFEE41BF6800EFF096
:1001C000EFCA61B7757122C526C34AC1CEDED2DC43
:1001D000D6DADAD806C7AA892E8981440144814734
:1001E000130A4002854A354B139704014183636C1F
:1001F0002701BA402A449A440A49F659665AD65AFF
:10020000465B49618280338799000347070063009A
:100210004703639C5701631D67019C18A297A28541
:100220006800238E07F82D3D8147850475BF014482
:100230009C18A29705041374F40F238EE7F89337E4
:100240003406E5B7411106C6138501B7834705009B
:10025000130780078145B387E70213068007A107CC
:100260003E95EFD05FF8B2408145114541016FA046
:10027000701B138501B78347050013078007B387F9
:10028000E702A1073E958280138501EC8280975793
:10029000FF1F83C7778C81CF9747FF1F83D767CC1A
:1002A000FD17C207C1831307A0036375F70023A4DA
:1002B0000182828031714ED79389818283A70900A0
:1002C00056D3938A01B7850722DD26DB52D55AD152
:1002D0005ECF62CD66CB6AC906DF4AD96EC723A45A
:1002E000F18283C401B7014A130C8007568497BC7E
:1002F0000100938C2CCD054D9D4B154B3389840308
:1003000056998307E900F9CF03A60C0083A64C0099
:100310000325090283254902EF4011186344050CA7
:10032000834709046380A70D93171A001808BA972A
:10033000035789022390E7003C00D297238097005F
:10034000050A9904B3E47403E31A6AFB03578101B5
:1003500083570101998F13D7F741B98F998F9394E0
:1003600007011307400BC1806358F70093078016FD
:10037000B3849740C204C180268697B50100938557
:1003800065C76808EF6091616C082545EF9090574C
:100390009747FF1F83C767C063E2F40A9307D00241
:1003A00063E2970A03499100930780078344B100F1
:1003B000854501453309F902B384F40221092299E4
:1003C0004A86EF80806585450145A104A294268672
:1003D000EF80A064CA850D45EF20B07AA6850D4553
:1003E000EF20307A83A709001747FF1F035767B72D
:1003F00063E7E70203C501B793048007330595025D
:10040000B30DA4008387ED0099CB83C7C1FC13898A
:1004100001FB6397070E21052295EFF00F94FA5028
:100420006A54DA544A59BA592A5A9A5A0A5BFA4B08
:100430006A4CDA4C4A4DBA4D296182809307D0024A
:10044000E3F297FA834B8100930A80078545B38BCB
:100450005B030145138C8B00229C6286EF80E05B7E
:10046000034B910085450145330B5B03A29B210B98
:10047000229B5A86EF80605A034AA10085450145B8
:10048000330A5A03210A229A5286EF8000590349FF
:10049000B1008545014533095903210922994A864E
:1004A000EF80A0578344C10085450145B3845403C0
:1004B000A104A2942686EF804056E2850D45EF20E8
:1004C000506CDA850D45EF20D06BD2850D45EF20BD
:1004D000506BCA850D45EF20D06AA6850D45EF20EB
:1004E000506A83C701B7B38A570303A74B03A29A85
:1004F00083A74A03E318F7EE85472380FA04DDB5A6
:1005000017BD0100130D8DAC03260D0083264D0091
:1005100003A50D0183A54D0197B90100938989AB0E
:10052000EF40F10203A6090083A64900EF40010A4B
:100530002A8BAE8B03260D0083264D0003258900F0
:100540008325C900EF40B10003A6090083A6490036
:10055000EF40C1072A8AAE8A2A86AE865A85DE8592
:10056000EF40714A97B70100938747A79043D44360
:10057000EF40E17DEFD080442A8CAE8C5A85DE8539
:10058000EFD0A03A2A8BAE8B5285D685EFD0E039DA
:1005900003260901832649012A8AAE8A03A58D0113
:1005A00083A5CD01EF40314603260D0083264D0083
:1005B000EF40E17903A6090083A64900EF4001015D
:1005C00097B70100938787A19043D443EF402178E8
:1005D000EFD0C03E2A89AE895286D6865A85DE85FE
:1005E000EF40E1764A86CE86EF4061764A86CE8637
:1005F000EF40E1752A89AE896286E6866285E685E6
:10060000EF40E1742A86AE864A85CE85EF30110927
:10061000EFD05002EFD0C0432A86AE86EF301108EB
:1006200097B701009387079C9043D443EF40217212
:1006300097B701009387879B9043D443EF40217184
:100640002A86AE862A89AE89680897B50100938507
:10065000659BEF60B1346C082545EF90B02A1735E3
:10066000FF1F0345E579EF50E13D2A86AE864A85B6
:10067000CE85EF408157E354A0DA03C601B73306B5
:1006800096028545014521062296EF80003983C5F3
:1006900001B7B38595020D45A105A295EF20704ED7
:1006A00003C501B73305950221052295EFE0FFEA66
:1006B00023A40182ADB30111254697A501009385BE
:1006C000E50E480006CEEF50D15B4C0025461735AD
:1006D000FF1F130525CDEF60006A97B501009385D4
:1006E00025942545EF901022F240056182807971B2
:1006F00022D42D4697A501009385C50C2A84280095
:1007000006D6EF5011582D4697A501009385450C4C
:100710004808EF5011572D461DC02C001735FF1FFC
:10072000130545C8EF60206597B501009385C59016
:100730002545EF90301DB2502254456182804C080F
:100740001735FF1F130505C6EF60E06297B501007E
:100750009385858FF1BF317186064ED7AA8913D54F
:10076000160006DF22DD26DB4AD9B2CE2E89EF50F5
:10077000112097A701009387677C76468C432A84D3
:100780003285EF50C175EF50911EAA8455468145C0
:100790002801EFD05FA585472308F10693D789404C
:1007A0002309F10693D70941A309F106935789401C
:1007B000230BF10693570941A30BF10693D784004D
:1007C000230DF10693D70401A30DF106935784007E
:1007D000230FF10693570401A30FF106B7E70B109F
:1007E0009387179FA3083107A30A210793D989414B
:1007F00013598941A30C9106A30E8106E180618003
:100800003EC35801C547230081082304F108230A89
:100810003107230C2107230E9106FC103A8493061E
:10082000D10703C6470085070507A302C700E39A5F
:10083000D7FE034881080147814793055800894640
:1008400093F7F70F1377F70F63DCD50AA30DF108C1
:10085000BEC28347A109230EE108BAC4BEC08347C4
:10086000910997A501009385A56D25453EDE834737
:1008700081093EDC834771093EDA834761093ED82E
:10088000834751093ED6834741093ED48347310906
:100890003ED2834721093ED0834711093ECE83478C
:1008A00001093ECC8347F1083ECA8347E1083EC8B0
:1008B0008347D1083EC68347C10883489108034750
:1008C00061083EC48347B108834651080346410886
:1008D0003EC28347A1083EC083477108EF90D018FD
:1008E000A2851735FF1F1305E5AB6546EF60A048ED
:1008F000FA506A54DA544A59BA590145296182803A
:100900003306D400034606008506B29713F6F70FA8
:100910003297931786016207E187618715B785478C
:1009200063DBB70A797126D24AD052CC5AC85EC668
:1009300062C466C206D622D44ECE56CA2A8A01495D
:10094000930B100F130C900D973CFF1F938C8CA5ED
:1009500017AB0100130B8B5D9384F5FFB3092A01DC
:1009600003C7090093071900631577053307FA00D9
:1009700003470700631F870303C4590083C7490067
:10098000CE8522045D8C930A8400C20A93DA0A01A0
:1009900056866685EF60203E5686CE855A85EF9056
:1009A00010570D459700FF1FE780E003930789006C
:1009B000A29763E09702B250225492540259F2492E
:1009C000624AD24A424BB24B224C924C014545619D
:1009D00082803E8961B77D558280914763E3C70A73
:1009E00017A70100130707760A063A961C42411121
:1009F00022C406C6BA972A84828797C501009385C8
:100A000025921145EF900070A2851145EF90806FFF
:100A10002244B24097C5010093854592114541019A
:100A20006F90406EB9CA9737FF1F83C7E75681C7DB
:100A30009042EF40101F2244B240014697550000FB
:100A40009385A5A43D4541016F30E01D9DC622441C
:100A5000C8C2B24003C5A6002394B60036869545A9
:100A600041016F70907B2244B24041016FC07062BF
:100A70002244B24041016F20B05BB24022444101A8
:100A800082808280411106C6EF801023B24041016E
:100A90006F80406955715810930631021306210288
:100AA00093051102930751021305610286C7EF6097
:100AB000F0369747FF1F9387A70983D70700BD9B91
:100AC0001747FF1F2316F708EFF0AFFA03030503DC
:100AD0009305E00483566102034711028347210214
:100AE0000348310283484102034E510217C60100F8
:100AF0001306860F6316B30017C601001306C6FC63
:100B0000830E150313035004032F8500832FC500A4
:100B100097C50100938545FB63866E0097C501006C
:100B20009385850C03230501832345017AC41ACCE0
:100B30001ECE7EC672C02EC832C297B50100938504
:100B4000E5EC1736FF1F130666092810EF600165F4
:100B5000EF80800E2810EF60E1699387C182904397
:100B600093150501938601FD2810C181BD35BE4056
:100B700069618280411106C623A6B18201C61C426A
:100B800023A8F1FC9737FF1F83C7F71D9DEB054591
:100B9000EFA0F00197A50100938545672545EF90EB
:100BA00060569747FF1F83D7A7FA93E707011747B8
:100BB000FF1F231FF7F8EF806007B24041016F402D
:100BC000000105470545639CE700EFA0407E054511
:100BD000EFA0800C97A5010093858564C1B7EFA0B5
:100BE000007D0545EFA0B0040545EFA0E00A97A5FC
:100BF0000100938565645DB7411122C42A8483078F
:100C0000D40306C626C22E8589C71307F00363984E
:100C1000E7021737FF1F1307771B9736FF1F9386CF
:100C2000D6171736FF1F1306361497A501009385B4
:100C3000E56B2244B240924441016F6021569737E0
:100C4000FF1FA38307129737FF1FA3880714973747
:100C5000FF1FA38D0716034704008547AE8463FA80
:100C6000E7009305D4031735FF1F1305F50FEF6059
:100C700041578307940791CF03470400894763FADC
:100C8000E700930594071735FF1F13051511EF6053
:100C900041558307540B91CF034704008D4763FAF6
:100CA000E7009305540B1735FF1F13053512EF604E
:100CB0004153014697450000938545E71305C0124F
:100CC000EF207076EF50805A1737FF1F1307171069
:100CD0009736FF1F9386760C1736FF1F1306D6082C
:100CE00097A501009385C5622685A1B7411126C24B
:100CF00006C622C4034705008947AE8463F7E702AE
:100D00009305D5032A84130620031735FF1F130507
:100D1000A5FEEF60015213059407EF50C17397379A
:100D2000FF1F239DA702EF50E04EEF50A0529736D1
:100D3000FF1F83D6A6021736FF1F1306E6FB97B5E3
:100D400001009385A5C32685EF604145854797350A
:100D5000FF1F9385A5E81735FF1F1305A5F8173763
:100D6000FF1FA305F7EEEF60C1479735FF1F93857F
:100D7000B5FF1735FF1F130585EDEF6081469735E9
:100D8000FF1F938595011735FF1F130565EFEF6072
:100D900041459735FF1F938575031735FF1F1305D1
:100DA00045F1EF60014497A501009385A5BF173574
:100DB000FF1F130585F7EF60C142EF50A0450146C4
:100DC000974500009385A5CF7945EF20D065224453
:100DD000B24092440146976500009385A51813051B
:100DE000000541016F203064411122C426C24AC06F
:100DF00006C68307D503AE8417B901001309098518
:100E00001744FF1F1304C4D489C71307F003639169
:100E1000E7041735FF1F034595FEEF40B142032657
:100E2000090083264900EF30617AEF50614428C4FD
:100E3000EF504139AE862A8697B5010093858581AA
:100E40002244B24002492685924441016F60013537
:100E50001305D503EF5021609737FF1FA381A7FA31
:100E60001375F50FEF40113E032609008326490054
:100E7000EF30C175EF50C13F28C4EF50203F2844E8
:100E8000EF504134AE862A8697A501009385857E72
:100E900045BFAA870387D7032E8509C79306F003AA
:100EA0006315D7029737FF1F83C7D7EB17A601003B
:100EB0001306067789E717A601001306E67697A5BD
:100EC00001009385E5776F60612D41111385D7038C
:100ED00006C622C42E84EF5001589737FF1FA38304
:100EE000A7E8EF50A0389737FF1F83C7B7E797A54C
:100EF00001009385E57389E797A501009385C57384
:100F000022852244B24041016F60A12D411126C2C9
:100F100006C6AA8422C48387D4032E8589C71307F3
:100F2000F0036396E7049737FF1F83C7D7E30547AE
:100F30006385E70289CB09476386E702B240224412
:100F400092444101828097A501009385E576224471
:100F5000B240924441016F60C12897A5010093857A
:100F60002578F5B797A501009385457ACDB7938489
:100F7000D4032E84268597A501009385257CEF60F8
:100F8000812D1DC189471737FF1FA30EF7DC97A5D9
:100F900001009385E57E2285EF60A1242244B240C2
:100FA000924441016F50802C2685EF50C14A137541
:100FB000F50F9737FF1FA388A7DA854797A501008C
:100FC0009385057AE309F5FC97A50100938585775C
:100FD00079D18947E30DF5FA1737FF1FA305F7D835
:100FE00097A501009385057C7DB741112E8597A5B6
:100FF00001009385A57E06C6EF60A11E01469745B8
:1010000000009385C5AB7945EF20F041B240014621
:1010100097650000938505F51305000541016F20D4
:101020009040411122C426C206C68307D503AE8470
:101030001734FF1F1304C4D289C71307F003639B3F
:10104000E7028306142017B601001306269763D61D
:10105000060017C60100130626A7268597B50100CE
:1010600093850596EF6081132244B240924441017A
:101070006F90A0651305D503EF50E13D9737FF1F33
:10108000A380A7EEEF9060640306142097B50100DB
:101090009385C5942545EF90201D83471420614713
:1010A000B10793F7F70F6377F700A1471737FF1FD3
:1010B000A308F7EAEF50801B8306142017B601003F
:1010C0001306C68F63D6060017C601001306C69F17
:1010D0002244B2402685924497B5010093858590BD
:1010E00041016F60A10B797122D49307D1012E8445
:1010F00078089306B1011306A10193059101130528
:10110000E10106D626D2EF6060518348D101034841
:10111000C1018347B1010347A101834691010356F1
:10112000E10197A501009385253D2285EF60010728
:101130002285EF60210C9747FF1F938767A18C5B87
:1011400003A887030566130606E19306C00333F37D
:10115000C50222953377D802B378C8023AC0DC576B
:1011600033F7D502B3D8D8023358C802B356D302E6
:1011700033D6C50297A501009385453AEF60010279
:101180002285EF602107B304A400EF80F03017A69A
:1011900001001306263609C517A6010013064635B9
:1011A00097A501009385853B2685EF50317F2285E9
:1011B000EF6041041736FF1F130686DE97A5010076
:1011C0009385C53A2295EF50717D95471737FF1FDC
:1011D0002302F7DC1737FF1F230DF7A4EF50000998
:1011E000EF50C00DB2502254925445618280AA87BC
:1011F0000387D7032E8509C79306F0036311D7022F
:101200009737FF1F83C747B697A5010093858504CD
:1012100089E797A501009385E5066F50917C411100
:101220001385D70322C406C62E84EF50C12213753E
:10123000F50F9737FF1F2389A7B21737FF1F034703
:1012400037B289476316F7000DE91145EF90D024B6
:101250009737FF1F83C747B197A501009385050402
:1012600089E797A501009385A5062285EF50717740
:101270002244B24041016F40707F1145EF90B0248D
:10128000C1BFAA870387D7032E8509C79306F0033A
:10129000631ED7029737FF1F83C7E7AC0547638DEF
:1012A000E70089C70947638EE700828097A50100A0
:1012B0009385C5086F50F17297A501009385450C81
:1012C000D5BF97A5010093856511EDB74111138531
:1012D000D70322C406C62E84EF50E1171375F50F0D
:1012E0009737FF1F2381A7A8854797A501009385FE
:1012F00025096306F50297A501009385250405C11C
:10130000894797A501009385650D630AF500173796
:10131000FF1F230AF7A497A501009385E5112285F5
:10132000EF50316C2244B24041016F403074AA87C3
:101330000387D7032E8509C79306F003631CD700E4
:101340001736FF1F0346C6AB97A501009385C52737
:101350006F50D16441111385D70306C622C42E8471
:10136000EF50E10F9737FF1F238CA7A8EF401070B5
:1013700022852244B2401736FF1F034666A897A570
:1013800001009385A5264101E1B7411122C413054F
:1013900050042E84814506C6EF30E060EF40506275
:1013A0002A8622852244B24097A50100938585268E
:1013B00041016F50B15E411122C41305D5032E8443
:1013C00097A501009385451B06C6EF80307A11CDA5
:1013D0000145EF40307497A501009385A51A228539
:1013E0002244B24041016F50D15F0545EF409072F9
:1013F00097A501009385C51ADDB7411122C42A843F
:101400008307D40306C626C22E8589C71307F003B7
:10141000639CE7029737FF1F9387F7A71737FF1FD4
:10142000130757A49736FF1F83D6C6B41736FF1F7E
:10143000130636A097A501009385853C2244B2404F
:10144000924441016F509155AE841735FF1F13052B
:10145000559E9305D403EF50D1581735FF1F130540
:10146000559DEF50315993150501C1811735FF1F67
:101470001305359CEF90A0268307940789CB1305AD
:101480009407EF40517D9737FF1F2395A7AE830741
:10149000540B85CB9305540B1735FF1F1305959CF3
:1014A000EF5031541735FF1F1305D59BEF50915462
:1014B00093150501C1811735FF1F1305B59AEF90EC
:1014C00000228307140F85CB9305140F1735FF1FD8
:1014D0001305759CEF50F1501735FF1F1305B59B91
:1014E000EF50515193150501C1811735FF1F1305A9
:1014F000959AEF90C01EEF4070579737FF1F938764
:1015000097991737FF1F1307F7959736FF1F83D655
:1015100066A61736FF1F1306D69197A5010093857F
:10152000652F268521BFAA870387D7032E8509C784
:101530009306F003631CD7001736FF1F035666A2FD
:1015400097A50100938505416F50514541111385C1
:10155000D70306C622C42E84EF40F16F131605018F
:101560009737FF1F239FA79E418297A50100938570
:10157000A53F2285EF5091429727FF1F83C7577ED3
:1015800009476388E700ED1793F7F70F0547636A8C
:10159000F7009737FF1F83D7C79C89EB0945EF906A
:1015A00080722244B24041016F40504CEF90A05FE6
:1015B00075D51737FF1F0357C79A9307B003E3EF9B
:1015C000E7FC0945EF90406DE9BFAA870387D70381
:1015D0002E8509C79306F0036313D7069737FF1FBD
:1015E00083C7D79A05476389E70289CF0947638E86
:1015F000E7020D476380E70497A501009385852ED8
:101600006F50313E17A601001306862497A50100EE
:10161000938585256F50913817A6010013068625FE
:1016200097A5010093850526F5B717A601001306B7
:10163000E627FDB717A6010013068628D5B7411186
:101640001385D70322C426C206C62E84EF40B1609C
:101650001375F50F9737FF1FA38AA792854463027E
:1016600095041DC18947630AF5048D47630CF50491
:1016700097A501009385052B2285EF50913697376A
:10168000FF1FA385979001A897A5010093850526C4
:101690002285EF5011352244B240924441016F40FF
:1016A000F03C17A601001306E61C97A501009385E0
:1016B00025252285EF50912EF9BF17A601001306AC
:1016C000E61EE5B717A601001306861FF9BF011134
:1016D00006CE2EC6EF90804A85471737FF1FA30D11
:1016E000F78AEF40B0383245F24097A50100938564
:1016F00025DF05616F50F12E011106CE2EC6EF9049
:1017000040499737FF1FA3890788EF40303632459D
:10171000F24097A50100938525DD05616F50712C7E
:10172000AA870387D7032E8509C79306F003631C96
:10173000D7001736FF1F0346468697A501009385FD
:1017400025D66F50B12541111385D70306C622C493
:101750002E84EF4051509737FF1F2380A7841376C4
:10176000F50F97A50100938565D52285EF501123CC
:101770002244B24041016F40702FAA870387D703EC
:101780002E8509C79306F003631CD7001726FF1F99
:101790001306C64497A501009385C5096F50112013
:1017A000411122C43D462E841725FF1F1305054312
:1017B0009385D70306C6EF40D14C22851726FF1F1D
:1017C0001306C64197A50100938585079727FF1F3C
:1017D000A38D0740EF50911C2244B24041016F405D
:1017E000F02D130101BA23225145B28A2E86AA8513
:1017F0006818232E1144232C8144232A9144232842
:101800002145232631452320614523244145368B3C
:10181000232E7143232C8143232A91432328A14360
:101820002326B143EF80305B1305D103EF50911CA9
:1018300093150501C1811305D10397A40100938479
:101840006422EF80D0650144268993097002C84064
:101850009305D103EF8090290DC90E044A94831794
:1018600004001397070123000122418393066002BD
:1018700063F4E6006F10A00417A701001307C78DDB
:101880008A07BA979C43BA9782870504A104E3109C
:1018900034FDFD57F9B71727FF1F0347F762A1472C
:1018A0006312F70C19464C081725FF1F1305453422
:1018B000EF80F0400814230001020014EF50911350
:1018C0009727FF1F83D7276B1727FF1F1307176360
:1018D0009726FF1F93868630500897A501009385B1
:1018E000A5302295EF50910B0814EF50B1101C1445
:1018F0001726FF1F130656473E9597A501009385AF
:101900006531EF50B1090814EF50D10E1C143E950B
:101910009727FF1F9387C7448386172017A60100C8
:101920001306C60963D6060017B601001306C619CA
:1019300097A501009385852EEF5051061724FF1FB0
:10194000034414429307F4FF93F7F70F1547636FAF
:10195000F70E17A701001307E7898A07BA979C4378
:10196000BA9782870814EF50F1081C141727FF1F3D
:101970000357A7609726FF1F938696481726FF1FD9
:101980001306C62597A501009385C5273E95EF5000
:10199000F10099BF0814EF50F1051C143E958547DE
:1019A00097A50100938545286306F40097A50100DB
:1019B00093850528C164EF50D1021724FF1F13043B
:1019C000243A172AFF1F130A4A3AFD149309C00349
:1019D00097AB0100938B4B2603594420630E99006B
:1019E0000814EF503101B37639031C14DE853E959F
:1019F00033563903EF50817A0904E31F8AFC081437
:101A0000EF50417F1726FF1F0346B63597A501000B
:101A1000938545231C143E9505A81726FF1F0356E2
:101A200046549726FF1F83D68654081432C636C400
:101A3000EF50417C32461C143E95A24639C29DEAC5
:101A400097A5010093850521EF5041750814EF50CB
:101A5000617A1C149726FF1F83D6461D1726FF1F89
:101A60000356E61C97A501009385C5253E95EF50CA
:101A7000E17245AC97A501009385851EEF50017278
:101A8000F1B781EA97A501009385851EEF50617536
:101A900075BF368697A501009385851E75B7081416
:101AA000EF5041751726FF1F0356664C97A501009E
:101AB0009385C51D85B70814EF50C1731726FF1F06
:101AC0000356E64A97A501009385851DA1B7081422
:101AD000EF5041721C141727FF1F0357474C9726DE
