:04C000006F2000129B
:10C004000000000000000000900000207E090020D5
:10C01400A9BDF9F594000020000000000000000014
:10C02400960000209800002000000000000000009E
:10C034009A000020000000009C0000200000000086
:10C044009E000020160300209A030020A400002074
:10C05400A6000020A8000020AA000020AC000020B8
:10C06400AE000020B0000020C60000205A010020CD
:10C07400FA090020B8000020BA000020BC0000200B
:10C08400BE000020EE01002082020020C400002037
:10C0940001A001A001A001A001A001A001A001A094
:10C0A40001A001A001A001A001A001A001A001A084
:10C0B40001A001A001A001A001A001A001A001A074
:10C0C40001A001A001A037370040834747009946EB
:10C0D4004111BD8B638CD70231476384E706114756
:10C0E400639EE702A303010017460000034686147B
:10C0F40037370040834771006315F6022C0013851F
:10C10400C177977001E0E780002B09A883475700A7
:10C1140093F7F70F2304F100834781004101730073
:10C12400203083477100834687000C08AE97238C28
:10C13400D7FE83477100850793F7F70FA303F10038
:10C1440055BF280097F001E0E78060E51375F50F0F
:10C15400A303A1000346710055B737370040834756
:10C16400474099464111BD8B638CD70231476384A4
:10C17400E7061147639EE702A30301001746000088
:10C184000346660B37370040834771006315F60298
:10C194002C0013850179977001E0E780C02109A87C
:10C1A4008347574093F7F70F2304F1008347810037
:10C1B40041017300203083477100834687400C0897
:10C1C400AE97238CD7FE83477100850793F7F70F4B
:10C1D400A303F10055BF280097F001E0E780E0EDEC
:10C1E4001375F50FA303A1000346710055B7374734
:10C1F40000408347478099464111BD8B638CD70229
:10C2040031476384E7061147639EE702A3030100F5
:10C214001746000003461602374700408347710063
:10C224006315F6022C001385417A977001E0E780CC
:10C23400801809A88347578093F7F70F2304F10068
:10C244008347810041017300203083477100834696
:10C2540087800C08AE97238CD7FE8347710085072F
:10C2640093F7F70FA303F10055BF280097F001E0FF
:10C27400E78060F61375F50FA303A1000346710070
:10C2840055B737470040834747C099464111BD8B96
:10C29400638CD70231476384E7061147639EE70244
:10C2A400A3030100174600000346A63937470040A0
:10C2B400834771006315F6022C001385817B977008
:10C2C40001E0E780400F09A8834757C093F7F70FB1
:10C2D4002304F10083478100410173002030834728
:10C2E4007100834687C00C08AE97238CD7FE834722
:10C2F4007100850793F7F70FA303F10055BF2800DA
:10C3040097F001E0E780E0FE1375F50FA303A100A9
:10C314000346710055B7411126C4B714004022C624
:10C3240003D4C409420441809317240163DB07004A
:10C33400A145014597C001E0E78080188967239EE5
:10C34400F4081374042015CC9747000083C797455D
:10C3540093E7170017470000A306F744B7170040F8
:10C3640003A7470A1377072015C303A7C70A136750
:10C37400072023A6E70AB717004013070020239ECF
:10C38400E7083244A24441017300203003A7870A1E
:10C394001367072023A4E70AF9BFB717004003D7A0
:10C3A400E70903D7E7099316370163D4060417474F
:10C3B40000000347E7400507974600002382E64054
:10C3C400174700000357C738136707409746000014
:10C3D4002390E6380567239FE70803A7470C856683
:10C3E400131637016359060003A7C70C558F23A6FC
:10C3F400E70C7300203003A7870C558F23A4E70CA8
:10C40400CDBF411122C406C69747000083C7678683
:10C41400174400001304C43395CB83475405858B1C
:10C4240095C78357040013974701634107028D455D
:10C43400094597C001E0E780A00891451745000031
:10C4440003456533972002E0E780A04D974700003D
:10C4540083D7073013F7074005CF1397470163418C
:10C4640007028D45094597C001E0E78060059145C5
:10C474001745000003452530972002E0E780604A15
:10C484008357040093F7F7BF174700002312F72CD4
:10C49400B2402244410182804111814601468145D6
:10C4A400114506C6EF00A077B72700401147238344
:10C4B400E780B7F700E003A707D16D9B23A8E7D077
:10C4C40003A707D15D9B23A8E7D073005010010098
:10C4D4000100B240410182804111814681450146FB
:10C4E400114506C62D2FB727004011472383E78047
:10C4F400B717004003C7E70283C5E70483D7870360
:10C5040091661377F70F93E5350063E5D700719BC8
:10C5140013671700B7170040130670052380C7047C
:10C52400930680FA2380D7040100010023820702C6
:10C534002380C7042380D704010001002387E70276
:10C544002387B7042380C7042380D7040100010094
:10C5540003C7B70413670702A385E704238007040E
:10C5640037F700E0832507D193E545002328B7D0AA
:10C57400832507D1DD992328B7D07300501001001B
:10C5840001002380C7042380D7040100010003C7EE
:10C59400B7041377F70DA385E70423800704B2409B
:10C5A400410182800111B7F5070022CC8146E105E3
:10C5B4002A840A86194506CE26CA02C0231201001F
:10C5C400B92DB717004003C7E70283C5E70483D733
:10C5D400870391661377F70F93E5350063E5D7007A
:10C5E400719B13671700B71700401306700523806B
:10C5F400C704930680FA2380D70401000100238234
:10C6040007022380C7042380D70401000100238785
:10C61400E7022387B70423800704B7F500E003A7E4
:10C6240005D11367470023A8E5D003D50702657732
:10C63400110713750560418D598D42054181010033
:10C644002380C7042380D7040100010003C7F70037
:10C6540037F40700B7F400E013670704A387E70083
:10C6640003C7B704610413670702A385E704239093
:10C67400A70283A704D1DD9B23A8F4D07300501034
:10C684000100010013056004352E81463000A285A7
:10C69400194502C423160100592322478247E31A8D
:10C6A400F7FCB7170040130770052380E70413074E
:10C6B40080FA2380E7040100010003C7B70413775D
:10C6C400F70DA385E70423800704F2406244D244B3
:10C6D4000561828001114EC681460146AA898145C1
:10C6E400114506CE22CC26CA4AC8152BB7160040DF
:10C6F40083C7E60203C7E60483D68603116693F76D
:10C70400F70F1367370063E5C600F19B93E7170043
:10C71400371400401309700523002405930480FA9C
:10C7240023009404010001002302040223002405D1
:10C7340023009404010001002307F4022307E40406
:10C7440023000404130550025920B7F700E003A79F
:10C7540007D11367470023A8E7D02300240523004B
:10C764009404010001000347F40013670704A307BE
:10C77400E40023002405230094040100010025673C
:10C78400B3E9E9002310340303A707D15D9B23A871
:10C79400E7D0730050100100010081460146814535
:10C7A4001145B52923002405230094040100010048
:10C7B4008347640493E717002303F4042300040469
:10C7C400F2406244D2444249B24905618280B717BB
:10C7D4000040930670052380D704130780FA238052
:10C7E400E7040100010003C6B7041376F60DA38520
:10C7F400C70423800704137605024DC203C6A700AD
:10C80400118A1DE22380D7042380E704010001007C
:10C8140003C7A700136747002385E7009307004B6E
:10C8240001000100FD17EDFFB717004093067005E6
:10C834002380D704130780FA2380E7040100010052
:10C844007D892394A70001000100010001002380D9
:10C8540007042380D7042380E704010001000100BA
:10C8640001003727004093061005A303D7802380D7
:10C874000704B7170040130770052380E704130764
:10C8840080FA2380E7040100010003C7B70413679B
:10C894000708A385E7042380070482801376050430
:10C8A40041C603C6A700418A1DE22380D704238022
:10C8B400E7040100010003C7A700136707012385EC
:10C8C400E7009307007D01000100FD17EDFFB71796
:10C8D4000040930670052380D704130780FA238051
:10C8E400E704010001001376F5011366060423949E
:10C8F400C700010001000100010023800704238018
:10C90400D704130660042380E7046318C5000100FC
:10C91400010037270040894689BF010001003727FD
:10C9240000409306200591B72380D7042380E704B1
:10C934000100010003D787001367070C2394E70065
:10C944000DBF4111814601468145114506C6C12CE2
:10C95400B7170040130770052380E704130780FA14
:10C964002380E7040100010003C76704136717006D
:10C974002383E70423800704B24041018280814677
:10C98400014681451145612CB71700409306700597
:10C994002380D704130780FA2380E70401000100F1
:10C9A4007D562396C7022380D7042380E704010021
:10C9B400010003C76704136717002383E704238078
:10C9C400070401A0BD473305F50201007D1575FD7F
:10C9D4008280411122C426C206C6AA840144631778
:10C9E4009400B2402244924441018280050413051C
:10C9F400803E4204C13F4180DDB7B71700401307B2
:10CA040000032388E7028547174700002326F7DE43
:10CA140073002030397122DC4ED656D237140040D0
:10CA2400E57AB7F9070026DA52D45AD05ECE06DE8C
:10CA34004AD862CC2A8B916B93040404130A7005C0
:10CA4400910AE1098347E4020347E404835684031B
:10CA540093F7F70F1367370063E57601F19B93E7CC
:10CA6400170023804401130980FA23802401010064
:10CA740001002302040223804401238024010100D5
:10CA840001002307F4022307E4042380040037F79A
:10CA940000E0832707D193E747002328F7D0835783
:10CAA400040293F70760B3E76701B3E75701C207CE
:10CAB400C18301002380440123802401010001007B
:10CAC4008346F400130CB40493E60604A307D400CD
:10CAD4008346B40493E60602A305D4042310F402A7
:10CAE400832707D1DD9B2328F7D073005010010062
:10CAF400010013056004F9353000CE8581461945DF
:10CB040002C423160100212A11469745000093858B
:10CB140025CF280011231DD5930770052380F40029
:10CB2400238024010100010083470C0093F7F70DD3
:10CB34002300FC0023800400F2506254D254425972
:10CB4400B259225A925A025BF24B624C21618280A2
:10CB5400411106C6AD2D7530978001E0E78080B2A3
:10CB6400D5BF2303048015472303E4800100230277
:10CB7400A480828083076480E3CE07FE23030480BD
:10CB8400828083076480E3CE07FE0345448082806D
:10CB940083076480E3CE07FE2302A48082804111D0
:10CBA40026C44AC24EC006C61377F50BAD47AA8900
:10CBB4002E8995446306F70019456537653F8D4412
:10CBC4004E854537FD59FD1463983401B240A244A3
:10CBD4001249824941018280135509011375F50FE9
:10CBE400453F2209CDB7011126CC06CEB704080073
:10CBF40051371545BD37713769372AC6A53F3245C8
:10CC04009377150089EB136515001375F50FF24042
:10CC1400E24405618280FD14E9FC0145CDBF397110
:10CC240026DC4ADA4ED852D656D45AD25ED006DE24
:10CC340062CE66CCB7E700E07D5783AA070022C620
:10CC440003AA470023A0E71823A2E718B717004058
:10CC5400130770052380E704130780FA2380E70491
:10CC640083C74704930B75FFB684E20793FBFB0F5E
:10CC74008546AA892E8B328937240040E1870157E3
:10CC840063FA76016308D50089461307000263132B
:10CC9400D5000157D98F93F7F70FB71C00402382B3
:10CCA400FC0411472303E4801305F00F5D3D094C98
:10CCB400D135636D7C11B7050700DA953787070016
:10CCC400795563F2E504B3879500636EF702370B79
:10CCD4000800A94733EB65016399F90689E48144A7
:10CCE400513D26850DA0DA850945553D05090345C5
:10CCF400F9FFFD14050B693D81C49377FB0FFDF724
:10CD0400DD3569FD7D55B717004013077005238095
:10CD1400E704130780FA2380E70403C74704418B21
:10CD24002382E704F250B7E700E023A0571123A2BF
:10CD34004711E25432445259C259325AA25A125B30
:10CD4400825B724CE24C21618280A5476395F906AF
:10CD540085691309F00FB3069900B3742B01B694D7
:10CD64001349F9FFB3749900856B33796901416BF9
:10CD74009387F9FFB3F7270199E363FC340193D94F
:10CD84004900C147E3E637FF99BF0569C1697D19C9
:10CD9400D9B71305800D6388690113050002638404
:10CDA400790113051008CA85DD3B353D21DD4E9917
:10CDB400B3843441D9B7DA852D45D533CA94E30019
:10CDC40099F205097D3BA30FA9FED5BF9387F9FF0F
:10CDD40093F7F70F6361FC0C83C71C041307300837
:10CDE400631FF70437070800636BEB04B3079B006A
:10CDF400B706100063F5D704334BEB008947639300
:10CE0400F9068980D549E38C04ECDA850945413B70
:10CE140011090327C9FF91472320E4800307648095
:10CE2400E34E07FE23033481FD17EDFBFD14110BC4
:10CE340081C49377FB0FE9FF7D3371F5E1B5B71733
:10CE4400004003C75704B70708001377070219E324
:10CE5400B78707007955E378FBEA33079B00E3FFC4
:10CE6400E7F855B58547E382F9F2DA852D45053BA8
:10CE74009389F4FFE38504E6293393F7390091EBB2
:10CE8400832604800327090093074900E39AE6E414
:10CE94003E89CE84F1BFB5476396F9001305900B24
:10CEA400C93135BDB1471305B00AE38BF9FE994783
:10CEB4006391F904B7050800B365BB002D45C5317E
:10CEC40081448D4BA149753963967401832704808D
:10CED4002320F9008504E39834FF83270480131783
:10CEE4002B01635507002312F900D5BB2322F90057
:10CEF400FDB39D476399F90281451305B00445319B
:10CF0400BD442320090023220900FD599D3993F7CC
:10CF14007400CA9703C70700FD14398D2380A70046
:10CF2400E39634FF6DBBA1476392F9046D398144E4
:10CF3400630D0B008D479304C0036308FB00930447
:10CF4400000563048B01930440041375C507E308CB
:10CF540095D81945393139390545213126850D3999
:10CF640009453D314931E31C05D669BB91476399B5
:10CF7400F90013056006F536F53E130590090DB763
:10CF8400E38F09D4F154A9BB19CD91CD09CE8147C2
:10CF94003387F500834607003307F5008507230030
:10CFA400D700E317F6FE828019C991C909CA910511
:10CFB40083A7C5FF11057D16232EF5FEC5BF82800C
:10CFC40001C919C62A960505A30FB5FEE31DA6FEE1
:10CFD400828081473307F5000307070019E33E8584
:10CFE40082808507C5BF01112E8626CAAA8413151F
:10CFF40006019305F004418122CC06CE32C6EF002F
:10D0040010762A8401C53246A685BD3F2285F240AA
:10D014006244D24405618280854715C18DC105C231
:10D024008147B306F5003387F50083C6060003473E
:10D0340007006398E6008507E315F6FE85473E85FD
:10D0440082808147EDBF9307F6FFBE952A9663134E
:10D05400C5008280FD1583C715000505A30FF5FEE5
:10D06400FDB7AA87014581CF09CE3E96850703C740
:10D07400F7FF6317B700E39BC7FE054582808280F4
:10D08400014582807971975700009387A7FF22D4C6
:10D09400804306D626D24AD04ECE52CC56CA5AC85F
:10D0A4005EC662C45DCC37C9C901814B175A000002
:10D0B400130ACA0197540000938404FD1309F93735
:10D0C400975A0000938ACAF6B709C0A8370B40578D
:10D0D4008357240095E35C44639D0B0017570000BD
:10D0E4002322F7FA032CC4002285EF0070746284B3
:10D0F40099A823A6FB00FDB783270A00829783869D
:10D1040064011C4463DB06063307F5406367E908E2
:10D114009757000023A607F2835524000345040013
:10D12400971002E0E780E07F5C405844A9CF1444A4
:10D13400B6978386640163C5060063E33701DA9713
:10D144001CC4A28B3A8449F497570000938747EE96
:10D154009C4B09476378F706F917175700002321FA
:10D16400F7EEB250225492540259F249624AD24A1A
:10D17400424BB24B224C45618280E377F5F833870A
:10D18400F9402A9761B763970B009757000023ABC8
:10D19400E7EE89BF23A6EB00B1B7D85009CF63DF10
:10D1A40006003385A74083A70A016376F5009757E5
:10D1B400000023A7A7E8A28B404471B7E3F3A7FEBE
:10D1C400CE97C5B79757000023AC07E659BF411166
:10D1D40022C4175400001304A4E81C4006C626C247
:10D1E4004AC091C782979757000023AB07E65C407B
:10D1F40091C382971C406390071C9757000083C714
:10D20400F700858B95C797570000A3810700175730
:10D2140000000347D7FF954763FCE700352B97577A
:10D22400000083C7D7FEF5178A07A2979C4382970D
:10D2340017590000130949018347C900918B99C309
:10D24400EF0050451C4491C3829797540000938487
:10D2540024E3984017560000034696DD97570000D4
:10D2640083C707DD93961700BA9683D60600D5CAFE
:10D274009757000083C7C7DB63EFC70A97570000BF
:10D28400238807DA1C40639807129757000083C766
:10D2940037F891CF9757000083C777F789EB9757F3
:10D2A4000000A38707F6973002E0E780A0DE9757D7
:10D2B40000009387A7E19C43638F070EB707C0A8BC
:10D2C40017570000232EF7D6753B97570000938716
:10D2D400A7DBDC53EDC317570000130767D5184BC2
:10D2E4009757000083C797DB6367F70C1757000055
:10D2F4000347F7F1954763E0E70C8347C900918B37
:10D30400DDEB90409756000083C696D263CBD70AD4
:10D314002244B240924402494101171302E06700DB
:10D32400234D850793F7F70F975600002382F6D015
:10D33400E3E6C7F235BF86073E97835507002310FF
:10D34400070097570000239B07D297570000938745
:10D35400E7D09C4317550000034585CD13172500DE
:10D36400BA979C4382979757000083D727D11757C2
:10D3740000000347E7CB93C7F7FF7D8D9317170092
:10D3840098403E97835707005D8D2310A700975759
:10D39400000083C7E7C991C7850717570000230911
:10D3A400F7C8175700000347A7C89757000083C75B
:10D3B40037C8E375F7ECB240224492440249410174
:10D3C4008280139717003297035707006DF785077C
:10D3D40035BFAD6737C70040BD072326F7200F10C0
:10D3E4000000975700009387A7C4C84F8327872658
:10D3F400BD66BD0693C7F7FF99836A052326D72028
:10D404005D8D82804111B7170040985F3AC6945FE2
:10D414003247E39CE6FE324541018280828001115D
:10D4240022CC175400001304E4DF18402AC62EC48B
:10D4340032C206CE3C4B93F7F7F73CCB973002E071
:10D44400E78000C21840975600009386E6DA3C4B0A
:10D4540093E707083CCB9C423245A24523A0070032
:10D464000347150003482500220742084297034852
:10D4740005004297034835006208429798D703474E
:10D4840055000348650022074208429703484500B7
:10D4940042970348750062084297D8D7034795001E
:10D4A4000348A50022074208429703488500429793
:10D4B4000348B5006208429798DB0347D500034848
:10D4C400E5002207420842970348C5000345F500DA
:10D4D400429762052A97D8DB03C7150003C52500C8
:10D4E400220742052A9703C505002A9703C535007C
:10D4F40062052A9798CF03C7550003C56500220724
:10D5040042052A9703C545002A9703C5750062059D
:10D514002A97D8CF03C7950003C5A5002207420563
:10D524002A9703C585002A9703C5B50062052A9783
:10D5340098D303C7D50003C5E500220742052A97FF
:10D5440003C5C50083C5F5002A97E2052E97D8D3F5
:10D55400D843759BD8C3D84313671700D8C39843DF
:10D564001367170098C3124698425C43858BD1E732
:10D574001C4F01452300F6009C429C4FA183A3004D
:10D58400F6009C429C4FC1832301F6009C429C4FB1
:10D59400E183A301F6009C42D84F2302E600D84F52
:10D5A4002183A302E600D84F41832303E600D84F2A
:10D5B4006183A303E60098532304E6009853218370
:10D5C400A304E600985341832305E600985361833E
:10D5D400A305E600D8532306E600D8532183A30607
:10D5E400E600D85341832307E600DC53E183A30715
:10D5F400F600F2406244056182800100B5B7175716
:10D6040000001307A7BF1443411122C49C5E4AC003
:10D6140006C6998326C2858B3A84175900001309DC
:10D62400A9BDD1CB9C5E975400009384E4BD93F7CD
:10D63400F7F99CDE17570000034767BD93070008FE
:10D64400631BF700832709009C4393F707041757CC
:10D654000000230EF7BA83C7040093F707049DC3A1
:10D6640097570000938787A69C438297975700009B
:10D6740023A4A7BA83C7040093F7F70B1757000036
:10D684002304F7B883C7440093F707048DE785475D
:10D6940017570000A30CF7B697570000938787B875
:10D6A4009C43096798C7130700FC97560000238F13
:10D6B400E6B4D844F8D31C40985F1183058B09CB9A
:10D6C400985F3D9B98DF0547975600002380E6B49A
:10D6D400985F1D83058B11CB985F1377F7F798DF5D
:10D6E4008547175700002303F7B283270900D8435F
:10D6F4000583058B19C7D843759BD8C3D843799B39
:10D70400D8C3B24022449244024941018280397113
:10D7140006DE16DC1ADA1ED82AD62ED432D236D039
:10D724003ACE3ECC42CA46C872C676C47AC27EC0DD
:10D73400F935F250E2525253C2533255A2551256A1
:10D7440082567247E2475248C248324EA24E124FA6
:10D75400824F21617300203097570000938787AC74
:10D76400944397570000938727AA03C70700058BA4
:10D7740011CB97570000238B07A897570000A38766
:10D7840007A8828003C71700058B65F7F85271FF5D
:10D7940083C75700DDB717580000130828A60327CE
:10D7A40008001C5F9583858BD1E709C61C5BBD838C
:10D7B4002300F60085CA83270800985B4607935721
:10D7C40067016356070093E707C0C207C183039745
:10D7D4000600C207C18709C7BA970947B3C7E7025A
:10D7E4002390F60085CD834715008DCB9756000016
:10D7F40083C6E6A193F606041387970089478DCA6A
:10D804003A9503470500854699471376F706631151
:10D81400D60262076187B947634C07008327080073
:10D824009C5FED838D8B17570000A304F79E8147FF
:10D834003E8582808547EDBF411122C406C6175438
:10D8440000001304249E184049E9AE877453FDFE7A
:10D854003E85B285975700002389079A972002E0F6
:10D86400E780605B97570000938747999C43B7060E
:10D8740080009843558F98C3D857719BD8D7975732
:10D884000000A385079897570000A38F07961C40B4
:10D89400094798C3B7F700E003A707D16D9B23A8F6
:10D8A400E7D003A707D15D9B23A8E7D073005010EE
:10D8B4001440175700001307279583472700858BCB
:10D8C40089EB83473700858BD9C797570000238F8F
:10D8D4000792B2402244410182808D476310F502D1
:10D8E40097570000938787919C43B706800098431D
:10D8F400558F98C3D857719BD8D75DBF8547E31917
:10D90400F5FAB567BD075CC70F1000001C40096736
:10D91400094698C7130700F8975600002388E68E37
:10D92400175700001307878D1443984231830D8BDA
:10D934006319C7001307E043F8D33D673D07D8C711
:10D9440085BF984231830D8B01E713076019EDB74A
:10D954001307E01BD5B7FC52ADF3A5BF5D7152DCD4
:10D96400175A0000130A8A8903270A0086C6A2C42C
:10D97400A6C2CAC04EDE1C43975900009389498F42
:10D98400175900001309098A93F7F7E793E7070883
:10D994001CC383A609003707CEFF7D179C461306D8
:10D9A40080022A84F98F9CC6832709001307000884
:10D9B4002800B8CBAE8493051008EFF06FE09720F1
:10D9C40002E0E780E069972002E0E780E0768327C1
:10D9D4000A009376F41F370FFCFF23A40700984B2B
:10D9E4004E88CA881367F70398CBF84F130510F8CD
:10D9F400D285137707E0558FF8CF9843F576FD1657
:10DA0400758F98C39843B7063300B70204001377A1
:10DA1400F7E798C398439303401F7D1F1377F7E7F5
:10DA24001367071098C303A70900930F8002854961
:10DA34001C47D58F1CC7832709001307900D34009A
:10DA4400B8CB11490147135337002693834703008A
:10DA540013767700B3D7C740858BDDCF9C41832EE7
:10DA64000800239C07042390070603AECE02137E0E
:10DA7400DEFF23A6CE0383AE0700137EF70793FED3
:10DA84000EF833EECE0123A0C70103AE4702336E76
:10DA94005E0023A2C70383AE0800014E23A27E06C4
:10DAA40003DA070663074E0303AE0703038A06007F
:10DAB400135EFE00620E135E8E416358CA0103AE0C
:10DAC4000703135EFE002380C60103DE0706137EF0
:10DAD400FE0F03AA4E0663060A0003DA8705E37FF6
:10DAE40049FB03AE4702337EEE0123A2C7038387BB
:10DAF4000600635CF400034E03003396C90013462A
:10DB0400F6FF3376C6012300C3003E8663D3A70025
:10DB14002A8613158601618505071377F70F850695
:10DB2400E313F7F3B640264496440649F259625A81
:10DB340061618280974600009386C66E9C42D847F6
:10DB440013161701635506029847131617016350FD
:10DB540006027D57B8D7174700001307674D584F83
:10DB64000507174600002323E64E116798C7984718
:10DB74000D83058B1DC3174700000347076913670F
:10DB84001700174600002302E668130700F817463B
:10DB94000000230DE666214798C79847058B09CFF7
:10DBA400174700000347576613671700174600001E
:10DBB400A30CE664054798C798470983058B09E7D2
:10DBC40098470583058B31CF984717460000130605
:10DBD400A66317450000130565620983058B63037B
:10DBE40007101841184331830D8B75EBAC4B184E5D
:10DBF40093F5050203471700CDCD79EF130770069F
:10DC0400D8CF034706001367170017460000230DFB
:10DC1400E65E114798C718415C57F19B93E71700DC
:10DC24005CD79C4298479316370163D60602974601
:10DC3400000083C6666CC18A174700001307876417
:10DC4400C5CE03474707136707029746000023859D
:10DC5400E66A056798C798479316270163D10602B9
:10DC6400174700000347875A620761876357070015
:10DC7400054797460000238BE658096798C79847DD
:10DC84009316070163D606029746000083C6D6663C
:10DC9400858A174700001307E75EADCE0347570791
:10DCA4001367270097460000A388E664216798C796
:10DCB400828029D785456315B7001307B00689B755
:10DCC40089456315B7001307F0061DBF8D4563151D
:10DCD400B700130730072DB71307500715B71307FD
:10DCE400600739BF03473600136717001746000063
:10DCF400A30DE650094739BF834647070946BD8A45
:10DD04006388C600034747078D463D8BE313D7F46A
:10DD1400114725BF83465707918AC9DA0347570736
:10DD24001367870041B7397106DE16DC1ADA1ED88C
:10DD34002AD62ED432D236D03ACE3ECC42CA46C8A7
:10DD440072C676C47AC27EC0F533F250E2525253A0
:10DD5400C2533255A255125682567247E247524870
:10DD6400C248324EA24E124F824F216173002030BE
:10DD7400174700001307474B8346B7019747000036
:10DD840083C7574D4C4BB697FD8B33D7F500974659
:10DD94000000A38BF64897460000A38DF64A058B36
:10DDA40015EF174700000347374BB3F7E7028146E7
:10DDB40001471305000233D6E500058A1378F70FEF
:10DDC40019CA6397D70097470000A38F074582803D
:10DDD400850693F6F60F0507E31FA7FC8280974795
:10DDE40000009387A72E9C43011122CC4EC606CE79
:10DDF40026CA4AC852C456C28297974700009387DE
:10DE0400A744804781496305A406BE849747000060
:10DE140093878727038767013E8963550706018D2A
:10DE2400135455009747000083C7A7419379F50120
:10DE3400636DF402370AC0A8B70A4057153F9C44E3
:10DE44009746000083C6E63F139756003E97830724
:10DE54006901158C63C507006363470156979747AB
:10DE6400000023A7E73EE37BD4FC1604B369340126
:10DE7400F24062444E85D2444249B249224A924A0F
:10DE840005618280E37D85F8B707C0A833848740A5
:10DE9400229579B797470000938747239C43411104
:10DEA40022C406C626C28297974700009387C739C3
:10DEB40080476309A406BE84974700009387C71C64
:10DEC4008387670163D80704018D1354550097476E
:10DED400000083C707376367F404593D98449747A4
:10DEE400000083C707369396570036971D8C9746D4
:10DEF400000023AFE634E372F4FE2244B2409244BD
:10DF0400174500000345553281454101172302E0BE
:10DF14006700033EE37A85FAB707C0A833848740D5
:10DF2400229565B7B24022449244410182809747CA
:10DF340000009387E7339843B75702009387079FFE
:10DF4400832607091396560063580600832607099B
:10DF54001396660063440600FD17FDF3828071C5C5
:10DF6400AA870145E9C58D07C207C183F19BC20792
:10DF7400C18313074003636FF702174700001307B9
:10DF840027300843174700001307072F14436398EB
:10DF9400A602174700001307270F185B014541CB62
:10DFA4004111C20706C60545DD8D0297B240014501
:10DFB40041018280174700001307472CD9B7035744
:10DFC400650035E303574500636FF704B306F74074
:10DFD4002146637CD60203280500938687001D8FA3
:10DFE400AA966117174600000356E6042392E6003A
:10DFF40023A006012393060014C12312F50013077E
:10E0040086FF974600002398E6022313B500974540
:10E01400000083D54502B387F54017470000231C51
:10E02400F7002105828008419DB7014582808280E6
:10E034000DC1974700009387A72403A307009747C0
:10E0440000009387672383A8070081469A8763E3C8
:10E054001701828003A80700636DF50A636BA80AA1
:10E0640013878700E367E5FE03D66700216705078A
:10E074006317E60003C7718C0507A383E18C9745FA
:10E0840000009385E5FA03D6470003D76500239380
:10E09400070032974207418317450000231DE5F826
:10E0A400638A6702174500001305451D0841630391
:10E0B400F50203D5660019ED83D7460023A00601B7
:10E0C40021073E9621062392C60097470000239419
:10E0D400E7F6B6879843E30E17F797460000938652
:10E0E400E6199442E307D7F683566700BDF283D658
:10E0F4004700035647001843A106B2962392D7005F
:10E1040098C383D76500A107174700002315F7F2CA
:08E114008280BE86C28725BF90
:10E120009751FF1F938101A217A1FF1F130181EDDA
:10E1300017E5FFFF130545ED9725FF1F938585EC38
:10E140001746FF1F130686FD63FAC50083220500EC
:10E1500023A0550011059105E3EAC5FE173502001D
:10E16000130585449745FF1F938545FB1386018260
:10E1700063FAC5008322050023A05500110591050F
:10E18000E3EAC5FE138501829785FF1F938545212C
:10E190006377B500232005001105E36DB5FEFD4250
:10E1A000739002BC8D4273904280B722000093822C
:10E1B000828873A002309722FF1F9382A2E493E229
:10E1C000320073905230971201009382025873907C
:10E1D0001234730020303D432A876373C302937760
:10E1E000F700BDEFADE5937606FF3D8ABA960CC306
:10E1F0004CC30CC74CC74107E36BD7FE11E28280CA
:10E20000B306C3408A069702000096966780A60070
:10E210002307B700A306B7002306B700A305B7007E
:10E220002305B700A304B7002304B700A303B70076
:10E230002303B700A302B7002302B700A301B7006E
:10E240002301B700A300B7002300B700828093F535
:10E25000F50F93968500D58D93960501D58D61B701
:10E26000939627009702000096968682E78086FAAA
:10E270009680C1171D8F3E96E374C3F8A5B7336728
:10E28000B500FD530D8B79E7B7877F7F9387F7F74D
:10E2900010419441B372F6003363F600BE92B3E2CC
:10E2A00062006397720C6318D6065041D441B37272
:10E2B000F6003363F600BE92B3E262006398720A1E
:10E2C000631BD60410459445B372F6003363F60021
:10E2D000BE92B3E262006391720A631ED602504599
:10E2E000D445B372F6003363F600BE92B3E2620027
:10E2F000639A72086311D60210499449B372F6000A
:10E300003363F600BE92B3E2620063937208510574
:10E31000D105E30FD6F61317060193970601631C88
:10E32000F7001357060193D706013305F74093759D
:10E33000F50F91E982804183C1833305F7409375DE
:10E34000F50F91E182801377F70F93F7F70F3305FD
:10E35000F74082800346050083C605000505850554
:10E360006313D60065FA3305D64082801105910506
:10E37000E312D6FE014582802105A105E31CD6FCEF
:10E38000014582803105B105E316D6FC0145828046
:10E390004105C105E310D6FC0145828001471146C5
:10E3A0004148B386E5008147B308F50083C80800FB
:10E3B0008507C10623A816FFE398C7FE11071105BC
:10E3C000E31107FF8280935785019CC19357054154
:10E3D00093F7F70FDCC19357854093F7F70F137549
:10E3E000F50F9CC5C8C582801C414111130705016A
:10E3F0003EC05C413EC21C453EC45C453EC6939750
:10E4000025001408B69783A707FF85051105232E5D
:10E41000F5FE8D89E315E5FE41018280397122DC2C
:10E4200041661384818D06DE26DA4AD84ED652D450
:10E4300056D25AD05ECE93050501A2863708FF005A
:10E440007D1683070500034735001105E207D98FC4
:10E450000307D5FF9106420733770701D98F0307DA
:10E46000E5FF2207718FD98F23AEF6FEE39BA5FC53
:10E4700081499144930A010117EB0100130BCB6909
:10E4800097EB0100938BCB66130AC00293F734001D
:10E49000032904004844BDE78A85353785450A8548
:10E4A000A1370A871C43110793F6F70093F7070F6C
:10E4B000DA97B69783C70700232EF7FEE394EAFEA8
:10E4C000024592476205C2075D8DB2475D8DA24746
:10E4D000A2075D8D93972900DE979C4385093D8DAA
:10E4E0003345250108C885041104E39144FBF2502B
:10E4F0006254D2544259B259225A925A025BF24B98
:10E50000216182803345A90008C8F1BF797122D406
:10E5100026D24AD04ECE52CC56CA06D62A8A9399D3
:10E5200045000144938A818D13090101C144B30759
:10E530003401D69788438A85793533078A008A87DC
:10E540001443904391074107B18E2328D7FEE399E6
:10E5500027FF1104E31D94FCB25022549254025937
:10E56000F249624AD24A45618280397122DC130441
:10E57000050106DE22878147C1460C433306F100C0
:10E5800011070CC24C4710083E960CC24C4F10109D
:10E590003E960CC29107E392D7FE85450A85A935C0
:10E5A0008945080891358D4508103D3D8147414713
:10E5B000B306F10094421104232ED4FE1408BE9633
:10E5C000944254C41410BE969442910754CCE391E3
:10E5D000E7FEF250625421618280060593770510B0
:10E5E00089C71375F50F1345B5018280411106C621
:10E5F000ED37B2404101D5B781471148C148338654
:10E60000F500B306F500014703AE06003303E6004C
:10E6100005072300C301C106E31807FF9107E39034
:10E6200017FF82809306050117E601001306C64E08
:10E6300013050505138706FF1C43110793F5F70023
:10E6400093F7070FB297AE9783C70700232EF7FE05
:10E65000E394E6FEC106E31FD5FC8280411122C48B
:10E6600006C626C285472E846301F50289476318D2
:10E67000F5002244B24092442E854101B9BF8D4736
:10E68000631BF5002E85913F298C2285B2402244E0
:10E69000924441018280A5476315F5002E85B93764
:10E6A000DDB7AD47631AF5002E8589373D37AA845B
:10E6B00022852537258DC9BFB5476316F5002E8500
:10E6C0003537AA84FDB7B947E311F5FC2E85393FEC
:10E6D000AA842137A98C228509373344950075B760
:10E6E0006382051493F7F500639E07121571D6C374
:10E6F000AA8A3285A2CDA6CB86CFCAC9CEC7D2C53B
:10E70000DAC15EDF62DD66DB6AD96ED73284AE8441
:10E71000EFA0915FC147631EF500228501330149D7
:10E72000130A010697EB0100938B0B53294C6341AD
:10E730009902FE406E44DE444E49BE492E4A9E4A2E
:10E740000E4BFA5B6A5CDA5C4A5DBA5D2D618280D1
:10E75000338B2A010C105A859131814508107D3385
:10E7600085490810C135081009351C10D2863E872E
:10E7700010434107C10623A8C6FE032647FF23AA6C
:10E78000C6FE032687FF23ACC6FE0326C7FF23AEC3
:10E79000C6FEE31FEAFC17E701001307E74703285B
:10E7A0000700832D4700032D8700832CC700528468
:10E7B000138607010C4042853ECE3ACC32CA42C88D
:10E7C000713D0C482AC66E85513DB2460C5011046D
:10E7D000A98E6A8536C65935B2464C54A98E6685CF
:10E7E00036C6AD3DB246F2475246358D88C39107D5
:10E7F00042486247E310F6FC4107B287E391EBFA27
:10E80000CE85081085091933E39D89F50810193D57
:10E810000810A13BA9450810D539DA850810E93B55
:10E82000410931B782809307F00F6384F60A2D7196
:10E83000232A911023282111B28423263111130693
:10E8400000102E89AA89930530020A85232E111003
:10E85000232C811036844132A2852685EFC0607456
:10E8600013178500935785003365F7002310A10027
:10E87000A68522861305310093043400230181000C
:10E8800093F4F40FEF90317193F6F40089C64D04C0
:10E89000158C9374F40F1C02A697A6850A8517E6BB
:10E8A00001001306663B238007F01D3D26868A85FE
:10E8B0004E85EF90516E230099008320C1110324EF
:10E8C000811183244111032901118329C11015618C
:10E8D00082808280411106C6EF80C058B240AA866D
:10E8E00017E701001307473D1756FF1F13060620C1
:10E8F00097E501009385C53D114541016FC0F002C8
:10E90000130101DB23248124232021252326112424
:10E9100023229124232E3123232C4123232A5123E4
:10E920002328612303470500930710042A892E84B6
:10E930006313F76E0347150093074005631DF76CDB
:10E94000034725009307E0056317F76C2E86AA8519
:10E950002545EFC020731306D003A2854A85EFC07A
:10E96000100BAA84635A05003546A2854A85EFC07C
:10E97000100AAA84634405089389D4FF93071003FF
:10E9800063CE37074E86930539002808EFA0B13BC8
:10E990001C1CBE9917EA0100130A4A62238409DE8F
:10E9A000D28A81494D4B83254A002808EFC0E07F79
:10E9B0000DC18E09D69983D709004947636FF700C7
:10E9C00017E701001307872A8A07BA979C43BA976B
:10E9D00082878509210AE39869FD97E501009385FF
:10E9E000255DCDA89305F4FF858D13851400C20520
:10E9F00081460146C1814A95EF30C0418320C12440
:10EA00000324812483244124032901248329C1234D
:10EA1000032A8123832A4123032B01231301012588
:10EA200082801306F4FF058E93851400420641820E
:10EA3000CA95E800EFC010261305D104EFA0D12C31
:10EA400093150501C1811305D104EFC0303197E55D
:10EA50000100938525291305D104EFC0007519CD58
:10EA600097E50100938585280545EFC04057176558
:10EA7000FF1F0345F5CEEF50304C49B797E5010035
:10EA8000938505281305D104EFC0207219CD97E5B1
:10EA90000100938565270545EFC060541765FF1F8A
:10EAA000034515CCEF50104C91BF97E501009385BD
:10EAB000A5261305D104EFC0406F19CD37170040CC
:10EAC0008327C70A856697E5010093856525D58F5D
:10EAD0002326F70A254595A697E501009385052588
:10EAE0001305D104EFC0606C11CD371700408327A8
:10EAF000870A856697E501009385C523D58F232472
:10EB0000F70AC9BF97E50100938545231305D10492
:10EB1000EFC0A06911CD371700408327C70AA1664F
:10EB200097E5010093854522D58F2326F70A5DB727
:10EB300097E50100938545221305D104EFC0E066F7
:10EB400011CD371700408327870AA16697E501009A
:10EB500093854521D58F2324F70AADBF97E50100A2
:10EB6000938545211305D104EFC0206405C1B71674
:10EB7000004083A7860A056713070780D98F23A45F
:10EB8000F60A97E501009385A51FA9B797E501004F
:10EB90009385C51F1305D104EFC0206105C1B716C9
:10EBA000004083A7C60A056713070780D98F23A6ED
:10EBB000F60A97E501009385251E29BF97E5010018
:10EBC0009385451E1305D104EFC0205E01C5EF708B
:10EBD00000452DB597E501009385051D1305D1046A
:10EBE000EFC0A05C11C59767FF1F23AD07B839B50B
:10EBF00097E501009385051C1305D104EFC0E05A89
:10EC000001C5EF60A06CDDBB97E501009385451B56
:10EC10001305D104EFC0605901C5EF60806BF9BBEB
:10EC200097E501009385851A1305D104EFC0E057DD
:10EC300001C5EF604069D9B397E501009385C51917
:10EC40001305D104EFC0605601C5EF90D0217DB30C
:10EC500097E501009385C5181305D104EFC0E05472
:10EC600009C50545EF90602051BB97E501009385EC
:10EC7000A5171305D104EFC0405319C10145DDB7F5
:10EC800097E501009385C5161305D104EFC0E05147
:10EC900011C9371700408327C70A9166D58F2326ED
:10ECA000F70AA9BB97E50100938505151305D10463
:10ECB000EFC0A04F11C9371700408327870A91661C
:10ECC000D58F2324F70A1DBB97E5010093854513D3
:10ECD0001305D104EFC0604D09CD39669776000069
:10ECE0009386A6511306061085450145EF80301026
:10ECF00031B397E501009385E5101305D104EFC00A
:10ED0000C04A19C539668146130606108145F1BF10
:10ED100097E501009385450F1305D104EFC0E04846
:10ED200011C913059108EF9051241375F50FEF6089
:10ED30000058E9B10346D104A547130606FD137632
:10ED4000F60FE3EDC7CA9767FF1FA383C7A297E536
:10ED500001009385A50BEFC0403D4DB11306F4FFB4
:10ED6000058E138514004206418297F501009385B4
:10ED700065E44A95EFC020571764FF1F1304449DB4
:10ED80001DC50545EF10102A97E50100938545093B
:10ED90001145EFC0C02483570400414593E7170095
:10EDA0001767FF1F2316F79AEFC0706281B997E5C6
:10EDB00001009385A5071145EFC060227D55EFC086
:10EDC000F06383570400F99B1767FF1F2312F7981E
:10EDD00035B1093625B11306F4FF058E13851400ED
:10EDE0004206418297F501009385C5DC4A95EFC044
:10EDF000804F1764FF1F1304A49539C18357040083
:10EE000097E5010093854503E80093E7170017672E
:10EE1000FF1F231FF792EFA0016EE800EFA0C16E65
:10EE200013160501EC0041821385817BEF8070325F
:10EE300097E50100938505021145EFC0401A7DBE9C
:10EE400097E501009385C501E800EFA0C16AE800DD
:10EE5000EFA0816B13160501EC0041821385817BC5
:10EE6000EF80302F8357040097E50100938505015B
:10EE7000F99B1767FF1F231DF78C7DBFEF70703E56
:10EE80009767FF1F9387C78CE847EF90E164AE86D2
:10EE90002A8697E50100938525FF1145EFC0E028FC
:10EEA000B1BEEF50101F99BE17F60100130606D130
:10EEB00097E50100938505FE114571BDEF70B07EA9
:10EEC00097E501009385C5FD25F997E50100938538
:10EED00025FE9DB73145EF90C05EAA84EF90C15FDB
:10EEE0002A86AE86254597E501009385A5FDEFC0EE
:10EEF000C02397E701009387A7DE8843A6851754B0
:10EF0000FF1F1304E4D6EF8031662320A422EF8094
:10EF1000800003250422EF90215CAE862A8697E5C7
:10EF200001009385E5FA95BF81450D45EF60E0242A
:10EF3000EF7090722A8697E50100938525FCADBF9E
:10EF400081452D45EF606023814513055004EF6036
:10EF5000C02297E50100938565FB3145EF60E02114
:10EF6000EF70F06F2AC6EF705070B2462A871756BE
:10EF7000FF1F1306A6B797E50100938565F91145B4
:10EF8000EFC0A01AA5BC1757FF1F035707F09756ED
:10EF9000FF1F9386F6D71756FF1F130626B597E572
:10EFA0000100938525F9E1BF85471757FF1F230708
:10EFB000F7EEEF70507697E501009385E5F8ADBD6B
:10EFC0001757FF1F034787ED854797E50100938596
:10EFD00025F8E313F7E6C5B79757FF1F93874777E1
:10EFE000A847EF90614FAE862A8697E5010093858A
:10EFF000A5F665B5B717004083A7470A97E5010056
:10F000009385C5F693F70720E39807E297E501009B
:10F010009385C5F715B50146A2854A85EF50107650
:10F02000F1BA411122C42164930504809946014636
:10F03000254506C69720FF1FE780A0BE93050480E4
:10F040002244B24099461386018229454101172383
:10F05000FF1F670003BD99E10145828075DD011145
:10F0600052C403DA418226CA93548A008504A2045A
:10F07000C204C18056C2B38A4441C20A22CC4AC8E3
:10F080002E862E842A8997E501009385E51625456D
:10F0900093DA0A014EC606CE93890182EFC0E008DA
:10F0A00063ED8A0883D5418293F7F50FB1CF8D6761
:10F0B00083D5418293870780A2864A86BE952945DB
:10F0C0009720FF1FE780E0B51375F50F29ED83D773
:10F0D00049001566A2972392F18203D7418283D714
:10F0E00021826309F70063F3E700B297998F1396C3
:10F0F00007014182254597E5010093856511EFC021
:10F10000C0021375F40F0DA08D67938707809306D7
:10F1100000100146BE9525459720FF1FE78060B08F
:10F120001375F50F49D50145F2406244D244424976
:10F13000B249224A924A05618280B3079440D2972D
:10F14000C207C183A18303C74900850793F7F70F5F
:10F150009396870011EB9386170093740AF0A2062A
:10F16000C204C206C180C18283D7218263F6F40043
:10F1700033879600E3C9E7FA0D6A130A0A8001464D
:10F18000B385440125459720FF1FE78080A91375AB
:10F19000F50F51F983D54182A2864A86D29505B7EB
:10F1A000411122C41384018222858145194606C675
:10F1B0009720FF1FE78000E19307B0FA2300F400D7
:10F1C0008D352244B24097E50100938565FB2545C6
:10F1D00041016FB0D060A16541119946138601824B
:10F1E000938505802D4506C69720FF1FE78060A305
:10F1F00003C701829307B00A6303F7005537B24093
:10F2000083D6418203D6218297E50100938505F8D4
:10F21000254541016FB0707183D781980145638C9A
:10F22000071003D5A1986366F50023A40198014552
:10F2300082803385A740D1473355F5021375F50F0A
:10F2400001E5239401988280130101BD23248142AA
:10F25000232611422322914223202143232E314190
:10F26000232C4141232A514195471374F50F63F331
:10F27000A7001544228697E50100938525FB2545C7
:10F28000EFB0B06A014981449389C198514AA14ABB
:10F290009377F90F03D5A1981757FF1F0347D7B3EB
:10F2A00063E98704D1473304F4022A9423958198B3
:10F2B000A147631CF706A6850808EF40007803D72E
:10F2C000A19883D7819805456364F70023A401982A
:10F2D0008320C14203248142832441420329014205
:10F2E0008329C141032A8141832A414113010143FA
:10F2F0008280B30749031408AA97CE9733859600F6
:10F30000631E5701BE85EF40D0122317A10083571B
:10F31000E1000509BE94C204C1809DBFAA85130601
:10F32000E1003E85EFA02010DDB726860C080145E0
:10F33000EF60D04569B78280011106CE22CC26CA83
:10F340004AC84EC691E901442285F2406244D24443
:10F350004249B24905618280AA8975D583D7418225
:10F3600003D621822E849564638AC7006374F600F5
:10F3700015673A961D8E93140601C180268697E57F
:10F3800001009385E5DC2545EFB0305A938714F0F2
:10F390006356F4009307F00F63EA970097E50100C6
:10F3A000938585DC2545EFB0505871BF83D44182E9
:10F3B00033878400956763C7E700A2854E8561396E
:10F3C0008D3159B71569330999404209135909011B
:10F3D000CA854E85493125D9ED75A695A295C205F8
:10F3E00023920182C18133852901D1BF83D68198BF
:10F3F00081EA97E501009385A5DD25456FB0303E94
:10F4000003D6A1984111918E97E50100938545DDC2
:10F41000254506C6EFB070511387819883550700C4
:10F4200083D7A1981385C1989D8DC2053E95C18152
:10F430002137B24023A4019841018280411183D732
:10F44000819822C426C206C6AE971307401FAA841D
:10F450002E84635AF700593F97E50100938505D53F
:10F460002545EFB0D03783D781981385C198228680
:10F47000A6853E95EF90213203D6819822964206CA
:10F480002244B240924441822394C19897E50100FE
:10F49000938545D3254541016FB03049011126CAF6
:10F4A00006CE22CC4AC84EC652C456C2814459C167
:10F4B000D1C183D7218203D44182638D870663F54E
:10F4C00087081D8C42044180AE892A89228697E5EF
:10F4D0000100938565C40145EFB03045A28463F314
:10F4E0008900CE84C2040D6A83D7218203D741826A
:10F4F000C180938A0182130A0A8063FAE704A68610
:10F500004A86B38547012D459710FF1FE78060713C
:10F5100083D72A00A6972391F182EFF09FB083D67C
:10F52000418203D6218297E50100938525C02545B8
:10F53000EFB0B03FF240624426854249D244B2491E
:10F54000224A924A0561828015673A949DBF1567E9
:10F550001D8FB385470163D5E400A6864A8665B74B
:10F560009569B389F9406D743E94C20993D9090134
:10F570002694CE864A8642042D459710FF1FE780C9
:10F58000406A4180A28633063901D2852D452391F8
:10F5900001829710FF1FE780C06883D72A003E943E
:10F5A000239181829DBF1841938701FC104598C328
:10F5B00003574500544590C72392E700585510491A
:10F5C000D4C7544998CF97E50100938565DC05477A
:10F5D000254590CBD4CB238EE7006FB050203971F6
:10F5E00026DA4AD84ED652D456D25AD006DE22DC7B
:10F5F00062CE66CC2A89EF9031719374F50F814900
:10F60000254BE54A17EA0100130ACAC391ECF250F0
:10F6100062544E85D2544259B259225A925A025BD0
:10F62000724CE24C2161828003470900930707FD79
:10F6300093F7F70F637CFB009307F7F993F7F70F46
:10F6400063E2FA06930797FA93F7F70F139487018B
:10F650006184FD14230089002685EF80A12C2A8671
:10F66000AE8603250A0083254A0093F4F40F0509AA
:10F67000EF00E1372AC422852EC6EF80A12A224658
:10F68000B246EF70C15A2A8C4E85AE8CEF80A13005
:10F690002A86AE866285E685EF60416EEF80C122E4
:10F6A000AA89ADB79306F7FB93F6F60F8147E3EF10
:10F6B000DAF8930797FC49BF411122C406C68307B5
:10F6C00095022A8499C713059502EF90010A238DAC
:10F6D000A1F68307D41291CB1305D412EF908108C1
:10F6E000EF80516A938781F4C8D3B240224441012C
:10F6F0008280011126CA9304150022CC97E50100EF
:10F700009385C5CC2A84268506CE4AC84EC6EFB05E
:10F71000D031631E051097E50100938565CB2685E2
:10F72000EFB0B0306302050E85448307D4036386CF
:10F73000070C13059402EF90410385491379F50FE7
:10F740001305D4036387340F8947638CF418EF9053
:10F75000C101A38EA1F6631A39017946814513854B
:10F76000F1F923830182EFE01FA78307D40885C343
:10F770001305D408EF80717F03C7618293071700D8
:10F780002383F182938781F4BA97A38BA70483071D
:10F79000D40D85C31305D40DEF80317D03C761827D
:10F7A000930717002383F182938781F4BA97A38B81
:10F7B000A7048307D41285C31305D412EF80F17A0E
:10F7C00003C76182930717002383F182938781F433
:10F7D000BA97A38BA7048307D41785C31305D4173F
:10F7E000EF80B17803C76182930717002383F1820A
:10F7F000938781F4BA97A38BA704F2406244D24462
:10F800004249B2490561828097E50100938585BC34
:10F810002685EFB09021E31905F0268597E50100D4
:10F82000938585BBEFB070208944E31005F08144D7
:10F83000EDBDEF809173238FA1F6631A990079468D
:10F840008145138511F823830182EFE0DF98830758
:10F85000D40885C31305D408EF80317103C76182D2
:10F86000930717002383F182938781F4BA97A38CBF
:10F87000A7028307D40D85C31305D40DEF80F16E65
:10F8800003C76182930717002383F182938781F472
:10F89000BA97A38CA7028307D41285C31305D41289
:10F8A000EF80B16C03C76182930717002383F18255
:10F8B000938781F4BA97A38CA7028307D417E38EAA
:10F8C00007F21305D417EF80516A03C761829307CB
:10F8D00017002383F182938781F4BA97A38CA70240
:10F8E00029BFEF809168A38FA1F601BF411122C407
:10F8F00006C6830795072A8499C713059507EF80E5
:10F90000D166A38DA1F68307D40899C71305D4083F
:10F91000EF80B165238EA1F68307540B91CB1305BD
:10F92000540BEF803164EF80F145938781F488D7E1
:10F93000B240224441018280011126CA8146B2842C
:10F94000014652C456C206CE22CC4AC84EC62A8AA6
:10F95000AE8AEF70E11041CD9307E0046386F400B6
:10F96000930730056395F40897E90100938909A48A
:10F9700003A6090083A649005285D685EF70212B86
:10F9800037949800EF705174130404682A89337512
:10F990008502EF80410003A6090083A64900EF60BD
:10F9A000F13097E701009387E7A09043D443EF60DD
:10F9B000F12F2A8A33558902AE8AEF70D17D2A86CB
:10F9C000AE865285D685EF60613B13073005AE8762
:10F9D0006395E400B7070080AD8FF2406244D244E3
:10F9E0004249B249224A924ABE8505618280014558
:10F9F0008147E5B7011126CA8146B284014652C447
:10FA000056C206CE22CC4AC84EC62A8AAE8AEF70AB
:10FA1000210541CD930750046386F40093077005D8
:10FA20006395F40897E901009389499803A60900B2
:10FA300083A649005285D685EF70611F37949800E0
:10FA4000EF709168130404682A8933758502EF709A
:10FA5000917403A6090083A64900EF60312597E75A
:10FA60000100938727959043D443EF6031242A8A7D
:10FA700033558902AE8AEF7011722A86AE8652859E
:10FA8000D685EF60A12F13077005AE876395E4005C
:10FA9000B7070080AD8FF2406244D2444249B24978
:10FAA000224A924ABE850561828001458147E5B7B9
:10FAB000135785009357050113D885009376F50FEA
:10FAC00001111377F70F93F7F70F618593F5F50F92
:10FAD0001378F80F99C211C3B9E3230CD100A30C1A
:10FAE000E100230DF100A30DA1000345910183471F
:10FAF00081010347A1012205A30E01014207C98F1D
:10FB0000230EB1000345B101D98F0347D1018345CD
:10FB1000C101620522075D8DD98D05618280329514
:10FB20001375F50F13138501135383415D46635716
:10FB3000660861463363C30285071376D70F114504
:10FB400093F7F70F6305A6002545631AA6007946CB
:10FB5000637FF60205071377F70F85470DA809465F
:10FB60006312C7041386067D93084006B368160324
:10FB70006385080013F5360011C5130500193366B7
:10FB8000A60219EE75466374F60085470D47230CEF
:10FB9000D100A30CE100230DF100A30D6100B1B76A
:10FBA0007146D5B77D46E374F6FEB147E314F7FA24
:10FBB000850693F6F60F85470547D1BFE35903FC49
:10FBC0006105FD171313850193F7F70F1353834155
:10FBD000DDFF7D171377F70F1146F947E309C7FAE1
:10FBE0001946E306C7FA2546E303C7FA2D46E300A4
:10FBF000C7FA89476316F7021386067D9307400606
:10FC0000B367F60291C793F83600F547E38108F829
:10FC100093070019B367F60293B71700F10785BF82
:10FC2000FD4735F7FD1693F6F60F31478DB783473D
:10FC30001500034705000111A2075D8F83472500CA
:10FC40008346350083454500C207D98F03475500D9
:10FC500022CC1744FF1F1304A40103061420E2065C
:10FC6000220733E5F600D98D06CE99351358850065
:10FC70001356050193D7850013F7F50F93F7F70F88
:10FC8000935685011376F60F9375F80F1375F50FDC
:10FC9000EF80605C83471400054793F7B70F6397C5
:10FCA000E7006244F24005616F80406AF2406244BE
:10FCB00005618280497123248116138481F48307AE
:10FCC000340083C8D1F403C8C1F403C7A1F483C6C8
:10FCD00091F403C681F497D50100938525774810E8
:10FCE000232611162322911623202117232E3115A6
:10FCF000EF90017C4810EF90310118485C480306F2
:10FD000004033AC03EC2030814035C441844541070
:10FD100097D50100938585753695EF9061794810E8
:10FD2000EF90817E5C103E958307640017D601003A
:10FD30001306467189C717D601001306267097E58A
:10FD400001009385254CEF90A1764810EF90C17B80
:10FD5000544C104C5C1097D50100938525723E954C
:10FD6000EF9001754810EF90217A030634035C1080
:10FD70003E9597D5010093852571EF9061734810EA
:10FD8000EF90817803072403AA8448503ACE138465
:10FD900081F4EF80617472475C10AE862A8697D535
:10FDA00001009385656F33859700EF90617048106F
:10FDB000EF9081755C1003C6C1F797D5010093855C
:10FDC000256F3E95EF90C16E4810EF90E1735C1087
:10FDD00097D501009385C56E3E95EF90C17113894B
:10FDE00061F6A28497E901009389494103C674052D
:10FDF00019CA481032CEEF90217172465C10CE8540
:10FE00003E95EF90E16A8504E39224FF4810EF905D
:10FE1000A16F5C1097D501009385056B3E95EF901F
:10FE2000816D97E401009384643D0346940319CAED
:10FE3000481032CEEF90416D72465C10A6853E951B
:10FE4000EF9001670504E31224FF4C102545EFB045
:10FE500000198320C1160324811683244116032927
:10FE600001168329C11575618280397122DC06DE95
:10FE700026DA4AD84ED652D456D2830755012A8460
:10FE8000B9C7A946938707FDB387D7020347650122
:10FE9000130707FDBA97A385F1F40307750183479C
:10FEA0008501130707FD3307D702938707FD3E97A8
:10FEB0002386E1F4830795010347A501938707FD96
:10FEC000B387D702130707FDBA97A386F1F4830718
:10FED000940281CB13071004639EE71485472387A0
:10FEE000F1F48307D403938481F499C71305D403F1
:10FEF000EF80510788C4CCC40306140509CA88449E
:10FF0000CC44238CC1F6EFF03FA388C4CCC4830754
:10FF1000540699C713055406EF80D10488C8CCC88D
:10FF20000306940709CA8848CC48A38CC1F6EFF0B1
:10FF30007FAC88C8CCC88307D40899CF1305D408F0
:10FF4000EF80510297D70100938747499043D443EC
:10FF5000EF60F14D88CCCCCC8307140A99C7130508
:10FF6000140AEF8091002394A1F68307540BB9C7BC
:10FF7000A946938707FDB387D7020347640B13078E
:10FF800007FDBA972385F1F40307740B8347840BAD
:10FF9000130707FD3307D702938707FD3E97A38416
:10FFA000E1F48307940B0347A40B938707FDB38702
:10FFB000D702130707FDBA972384F1F48385340031
:10FFC000856703C6C1F4938707E11307C0033307AE
:10FFD000E60283C6D1F41744FF1F13046477B38786
:10FFE000F502BA97B69723AAF1F68357040013F7E0
:10FFF00087002DE3038564000547631DE50403C7FF
:020000021000EC
:10000000A1F405EF9747FF1F83C787EA0385240301
:10001000D5E3EF8001409747FF1F938767C583A50E
:10002000C723EF70917F6352A00A97D50100938593
:10003000E53C41A8238701F46DB5E9D561D6F9D235
:1000400093E78700138581F41747FF1F2312F7708A
:10005000EFF0FFBD83876400D5F7238701F403C564
:1000600001B89D4705053365F502130680079385A2
:1000700081F42380A1B8930780073305F5029387A5
:1000800081B83E95EF802171EFF0DFC21C5C6254B5
:10009000F250D2544259B259225A925A1747FF1F6E
:1000A0002328F76E130680078145138581F42161AB
:1000B0006FE06F928D4797D5010093852533E30A52
:1000C000F5F40D45EFB0600649BF03A9840083A98C
:1000D000C400014681464A85CE85EF60711835DD42
:1000E00003AA040183AA4401014681465285D685AC
:1000F000EF6011173DD183C7A1F4A5D397D70100B5
:100100009387472E9843DC435286D6864A85CE8510
:1001100002C802CA02CC02CEEF00103A15CD2C085C
:100120000808EF0090436247F24742483AC03EC297
:100130009848DC48D2489044D44497D50100938530
:10014000652C2545EFA0707E4247D24798C4DCC499
:100150006247F24798C8DCC813068007938581F48C
:10016000138501EDEF802163DDBD0171232C811E1C
:10017000232A911E1306101E2A84AE84680081452E
:10018000232E111E2328211FEFE0EF848145814794
:10019000014701465148CD485D436341960899C1E6
:1001A0002306F1001306A002A6852285EFB02006E3
:1001B0008347C10051473386A440B387E7029305C4
:1001C000150078007D16A29585073305F700EF80AE
:1001D000815C1306A002A685228503491400EFB0B6
:1001E0000003894763C4A7080345C100D14733050D
:1001F000F5027C0005053E95EFF06FBE631DA90476
:10020000194697D501009385651B1305D100EFB002
:10021000800D2DC56800EFF05FC535A8B306C4009A
:1002200003C50600930665FD93F6D60F91EA850790
:1002300093F7F70F6361F302854501470506B1BFE8
:10024000B3860703130E011FF296BA96A38EA6E09B
:100250000507E3D5E8FE8320C11F0324811F832403
:10026000411F0329011F1301012082803307F4007D
:100270000347070085073349E900ADB7194697D50D
:1002800001009385E5131305D100EFB0C0050DED16
:10029000194697D501009385E5121305D100EFB0FB
:1002A000800419ED194697D501009385E5111305D2
:1002B000D100EFB0400345D16800EFF08FC361BFBC
:1002C0006800EFF0AFE241BF6800EFF0EFBE61B74A
:1002D000757122C526C34AC1CEDED2DCD6DADAD8A1
:1002E00006C7AA892E89814401448147130A400226
:1002F000854A354B139704014183636C2701BA404B
:100300002A449A440A49F659665AD65A465B4961C4
:100310008280338799000347070063004703639C8B
:100320005701631D67019C18A297A2856800238E60
:1003300007F8253D8147850475BF01449C18A297A5
:1003400005041374F40F238EE7F893373406E5B7EA
:10035000411106C6138501B88347050013078007BE
:100360008145B387E70213068007A1073E95EFD0CA
:100370009FE6B2408145114541016FB0007E138573
:1003800001B88347050013078007B387E702A10779
:100390003E958280138501ED82809747FF1F83C7BA
:1003A000B73B81CF9747FF1F83D7A7ACFD17C20785
:1003B000C1831307A0036375F70023A40182828021
:1003C00031714ED79389818283A7090056D3938ACE
:1003D00001B8850722DD26DB52D55AD15ECF62CD2A
:1003E00066CB6AC906DF4AD96EC723A4F18283C4EB
:1003F00001B8014A130C8007568497DC0100938CE6
:100400006CEE054D9D4B154B33898403569983073C
:10041000E900E1CF03A60C0083A64C0003250902E6
:1004200083254902EF6041756341050C8347090448
:10043000638DA70B93171A001808BA970357890200
:100440002390E7003C00D29723809700050A990487
:10045000B3E47403E31A6AFB035781018357010174
:10046000998F13D7F741B98F998F93940701130789
:10047000400BC1806358F70093078016B384974000
:10048000C204C180268697D501009385A5E8680837
:10049000EF9001026C082545EFA07034938714FF9C
:1004A000C207C1837947636EF70803499100130AB5
:1004B00080078545014533094903210922994A8668
:1004C000EF9040458344B10085450145B384440322
:1004D000A104A2942686EF90E043CA850D45EF3033
:1004E0008077A6850D45EF30007783A70900174771
:1004F000FF1F0357079863E7E70203C501B893049A
:10050000800733059502B30DA4008387ED0099CBD6
:1005100083C7C1FD138901FC6397070E210522954E
:10052000EFF06F88FA506A54DA544A59BA592A5A85
:100530009A5A0A5BFA4B6A4CDA4C4A4DBA4D296119
:1005400082809307D002E3F297FA834B8100930AEB
:1005500080078545B38B5B030145138C8B00229C80
:100560006286EF90203B034B910085450145330B9C
:100570005B03A29B210B229B5A86EF90A039034A72
:10058000A10085450145330A5A03210A229A528661
:10059000EF9040380349B1008545014533095903BF
:1005A000210922994A86EF90E0368344C1008545AF
:1005B0000145B3845403A104A2942686EF908035AC
:1005C000E2850D45EF302069DA850D45EF30A068F2
:1005D000D2850D45EF302068CA850D45EF30A06704
:1005E000A6850D45EF30206783C701B8B38A57034E
:1005F00003A74B03A29A83A74A03E318F7EE8547A4
:100600002380FA04DDB517DD0100130D2DCE03267E
:100610000D0083264D0003A50D0183A54D0197D93B
:100620000100938929CDEF60816003A6090083A6AC
:100630004900EF50B1672A8BAE8B03260D0083264D
:100640004D00032589008325C900EF60415E03A6A4
:10065000090083A64900EF5071652A8AAE8A2A866E
:10066000AE865A85DE85EF60112897D70100938703
:10067000E7C89043D443EF60815BEFF020222A8CDF
:10068000AE8C5A85DE85EFF040182A8BAE8B5285F2
:10069000D685EFF0801703260901832649012A8AAF
:1006A000AE8A03A58D0183A5CD01EF60D12303267A
:1006B0000D0083264D00EF60815703A6090083A635
:1006C0004900EF50B15E97D70100938727C390434D
:1006D000D443EF60C155EFF0601C2A89AE89528681
:1006E000D6865A85DE85EF6081544A86CE86EF60D5
:1006F00001544A86CE86EF6081532A89AE8962868C
:10070000E6866285E685EF6081522A86AE864A8556
:10071000CE85EF50A166EFF0E05FEFF060212A8612
:10072000AE86EF50A16597D701009387A7BD904390
:10073000D443EF60C14F97D70100938727BD904303
:10074000D443EF60C14E2A86AE862A89AE896808F6
:1007500097D50100938505BDEF8091556C0825451F
:10076000EFA0F0071735FF1F0345855AEF70811B77
:100770002A86AE864A85CE85EF602135E354A0DA1D
:1007800003C601B833069602854501452106229627
:10079000EF90401883C501B8B38595020D45A105BA
:1007A000A295EF30404B03C501B8330595022105F2
:1007B0002295EFE05FDF23A40182ADB3011125464E
:1007C00097C501009385C52F480006CEEF70B17C18
:1007D0004C0025461385817BEF70A01797D501004B
:1007E000938505B62545EFA0807FF24005618280A4
:1007F0000111254697C501009385452D480006CE79
:10080000EF7071794C0025461385817BEF70601481
:1008100097D50100938545B62545EFA0407CF24071
:1008200005618280797122D42D4697C50100938598
:10083000A52A2A84280006D6EF70F1752D4697C5A3
:1008400001009385252A4808EF70F1742D460DC0EC
:100850002C001385817BEF70C00F97D50100938525
:10086000A5AF2545EFA0A077B25022544561828004
:100870004C081385817BEF70C00D97D501009385DF
:10088000A5AEC5B7317186064ED7AA8913D5160015
:1008900006DF22DD26DB4AD9B2CE2E89EF70113277
:1008A00097D701009387879B76468C432A843285AD
:1008B000EF70D107EF709130AA8455468145280129
:1008C000EFD07F9185472308F10693D7894023090C
:1008D000F10693D70941A309F10693578940230BE9
:1008E000F10693570941A30BF10693D78400230D1A
:1008F000F10693D70401A30DF10693578400230F4B
:10090000F10693570401A30FF106B7E70B10938785
:10091000179FA3083107A30A210793D989411359C7
:100920008941A30C9106A30E8106E18061803EC33C
:100930005801C547230081082304F108230A310721
:10094000230C2107230E9106FC103A849306D1074D
:1009500003C6470085070507A302C700E39AD7FE31
:10096000034881080147814793055800894693F75A
:10097000F70F1377F70F63DAD50AA30DF108BEC29C
:100980008347A109230EE108BAC4BEC08347910979
:1009900097D501009385C58C25453EDE83478109A7
:1009A0003EDC834771093EDA834761093ED88347BD
:1009B00051093ED6834741093ED4834731093ED28F
:1009C000834721093ED0834711093ECE8347010961
:1009D0003ECC8347F1083ECA8347E1083EC88347BF
:1009E000D1083EC68347C108834891080347610880
:1009F0003EC48347B10883465108034641083EC2BE
:100A00008347A1083EC083477108EFA00072A2850A
:100A10001385817B6546EF60D073FA506A54DA54CF
:100A20004A59BA590145296182803306D4000346E8
:100A300006008506B29713F6F70F329793178601D3
:100A40006207E187618725B7854763D9B70A79715E
:100A500026D24AD052CC5AC85EC662C466C206D6F6
:100A600022D44ECE56CA2A8A0149930B100F130C7A
:100A7000900D938C817B17CB0100130B2B7D9384FE
:100A8000F5FFB3092A0103C709009307190063158D
:100A900077053307FA0003470700631F870303C482
:100AA000590083C74900CE8522045D8C930A8400D7
:100AB000C20A93DA0A0156866685EF609069568607
:100AC000CE855A85EFA090370D459700FF1FE78030
:100AD00080F093078900A29763E09702B2502254F6
:100AE00092540259F249624AD24A424BB24B224CCA
:100AF000924C0145456182803E8961B77D55828077
:100B000041111306001481451385010006C69700A4
:100B1000FF1FE780204B130600028145138501FE6D
:100B20009700FF1FE780004AB240238801824101FD
:100B300082809387C1829C43639707147571D2DECC
:100B4000D6DC2A8AAE8A1145894506C722C54AC322
:100B50004EC1DADADED8EFC090602A844845EFD083
:100B6000201F5C4408480148944797D701009387A9
:100B7000E79998439042DC43D44218CA5CCADCCE61
:100B800097D701009387078603A9070083A9470029
:100B900098CE81484AC84ECA4287C6874A86CE86C2
:100BA00002D002D202CC02CE02C402C602C002C2ED
:100BB000EFD0601497D701009387C79503AB070068
:100BC00083AB47004848014881484287C6875AC8D6
:100BD0005ECA5A86DE8602C402C602C002C2CAD0FB
:100BE000CED24ADC4EDE82CC82CE82C882CA82C499
:100BF00082C682C082C202D802DA02D402D602D0F1
:100C000002D202CC02CEEFD0000F5A86DE86528589
:100C1000D685EF60C1012A86084C01488148AE861E
:100C20002EC232C04287C687EFD0E00C085C014874
:100C30008148C68742864287C68602C002C2EFD07C
:100C4000800B485CEFD0C01097D701009387078DC9
:100C50008C43D043485CEFD0805C23A681822A4439
:100C6000BA401A498A49765AE65A565BC65B17D685
:100C700001001306268697D501009385A58A254590
:100C800049616FA0804A8280411122C41384C182CD
:100C9000084006C6EFC0B057232004002244B240EB
:100CA00017D601001306868497D5010093858587A2
:100CB000254541016FA0604779711388C18222D414
:100CC0000324080006D626D24AD04ECE52CC56CAAD
:100CD0003DC8B68A5444328A2A89844697D6010090
:100CE0009386C6829042D4423A85AE89BE85EF5043
:100CF00011749C4088CBCCCBDC4097C4010093841A
:100D0000E4609040D44088CFCCCF5285D685EF5058
:100D100011729040D4402AC42EC64A85CE85EF5029
:100D200011712247B2472A86484CAE86EFC0B07C8C
:100D300022852254B25092540259F249624AD24A50
:100D400045616FC0B051B250225492540259F249D9
:100D5000624AD24A0145456182809387C1829C43A1
:100D6000B9CF9C5F01114EC683A987004AC817C935
:100D700001001309A95983A7090022CC26CA2E8491
:100D8000AA84CC438843032609008326490006CE63
:100D9000EF50C17183A7490088C0CCC08843CC43C1
:100DA0000326090083264900EF50417008C04CC05B
:100DB000F2406244D2444249B24905618280828055
:100DC000914763E3C70A17C70100130727760A068E
:100DD0003A961C42411122C406C6BA972A848287D9
:100DE00097E50100938545C51145EFA0401FA285F9
:100DF0001145EFA0C01E2244B24097E50100938543
:100E000065C5114541016FA0801DB9CA9737FF1F05
:100E100083C7870981C79042EF5040242244B240E3
:100E20000146975500009385E5293D4541016F3006
:100E3000006D9DC62244C8C2B24003C5A6002394DB
:100E4000B6003686954541016F80D02C2244B240D1
:100E500041016FE010122244B24041016F30802AFC
:100E6000B2402244410182808280411106C6EF9047
:100E70004052B24041016F90C0185571581093060E
:100E80003102130621029305110293075102130543
:100E9000610286C7EF7000369747FF1F9387478B25
:100EA00083D70700BD9B1747FF1F2313F78AEFF077
:100EB0000FCD030305039305E00483566102034746
:100EC0001102834721020348310283484102034E45
:100ED000510217E601001306E6466316B30017E653
:100EE00001001306E636830E150313035004032F87
:100EF0008500832FC50097E50100938565356386DE
:100F00006E0097E501009385E543032305018323E4
:100F100045017AC41ACC1ECE7EC672C02EC832C21B
:100F200097D501009385450B1736FF1F130606BCA6
:100F30002810EF80E157EF80503F2810EF80C15C10
:100F400093874183904393150501938601142810DC
:100F5000C181BD35BE4069618280411106C623AAA8
:100F6000B18201C61C4223A0F1149737FF1F83C72B
:100F700097D09DEB0545EFB0204597C501009385BF
:100F8000A5682545EFA0A0059737FF1F83D7477CAD
:100F900093E707011737FF1F231CF77AEF803038DC
:100FA000B24041016F40C07C05470545639CE700A6
:100FB000EFB080410545EFA0904197C501009385B2
:100FC000E565C1B7EFB040400545EFB020480545A5
:100FD000EFA0F03F97C501009385C5655DB741114E
:100FE00022C42A848307D40306C626C22E8589C755
:100FF0001307F0036398E7021737FF1F130717CE95
:101000009736FF1F938676CA1736FF1F1306D6C67C
:1010100097C501009385456D2244B2409244410139
:101020006F8001499737FF1FA38807C49737FF1FB9
:10103000A38D07C69737FF1FA38207CA0347040083
:101040008547AE8463FAE7009305D4031735FF1F85
:10105000130595C2EF80214A8307940791CF034778
:101060000400894763FAE700930594071735FF1FCB
:101070001305B5C3EF8021488307540B91CF034775
:1010800004008D4763FAE7009305540B1735FF1FE3
:101090001305D5C4EF80214601469745000093858E
:1010A00085231305C012EF308045EF50D066173707
:1010B000FF1F1307B7C29736FF1F938616BF173659
:1010C000FF1F130676BB97C501009385256426850F
:1010D000A1B7411126C206C622C4034705008947AD
:1010E000AE8463F7E7029305D5032A841306200331
:1010F0001735FF1F130545B1EF80E1441305940731
:10110000EF70A1669737FF1F2392A7B6EF50305BB1
:10111000EF50F05E9736FF1F83D646B51736FF1F98
:10112000130686AE97D50100938505E22685EF80EC
:10113000213885479735FF1F9385459B1735FF1F3E
:10114000130545AB1737FF1FA30AF7A0EF80A13A9D
:101150009735FF1F938555B21735FF1F130525A03F
:10116000EF8061399735FF1F938535B41735FF1F21
:10117000130505A2EF8021389735FF1F938515B61B
:101180001735FF1F1305E5A3EF80E13697C5010072
:10119000938585B21735FF1F130525AAEF80A1356A
:1011A000EF50F0510146974500009385651279454F
:1011B000EF30E0342244B24092440146977500007B
:1011C000938505981305600441016F304033411148
:1011D00022C426C24AC006C68307D503AE8417D9E7
:1011E00001001309A99E1734FF1F1304645689C711
:1011F0001307F0036391E7041735FF1F034535B16B
:10120000EF6041720326090083264900EF50012A4E
:10121000EF70413728C8EF70212CAE862A8697D50B
:1012200001009385259B2244B240024926859244C1
:1012300041016F80E1271305D503EF700153973704
:10124000FF1FA386A7AC1375F50FEF60A16D0326F2
:10125000090083264900EF506125EF70A13228C8AC
:10126000EF50704B2848EF702127AE862A8697D51D
:1012700001009385259845BFAA870387D7032E854C
:1012800009C79306F0036315D7029737FF1F83C77B
:10129000779E17D601001306A69089E717D601009E
:1012A0001306869097D50100938585916F80412024
:1012B00041111385D70306C622C42E84EF70E14A7C
:1012C0009737FF1FA388A79AEF50F0449737FF1F67
:1012D00083C7579A97D501009385858D89E797D560
:1012E00001009385658D22852244B24041016F80C3
:1012F0008120411126C206C6AA8422C48387D40352
:101300002E8589C71307F0036396E7049737FF1FFD
:1013100083C7779605476385E70289CB09476386CC
:10132000E702B240224492444101828097D50100F5
:10133000938585902244B240924441016F80A11B65
:1013400097D501009385C591F5B797D50100938591
:10135000E593CDB79384D4032E84268597D50100D9
:101360009385C595EF8061201DC189471737FF1F01
:10137000A303F79097D50100938585982285EF8088
:1013800081172244B240924441016F50D0382685E3
:10139000EF70A13D1375F50F9737FF1FA38DA78C35
:1013A000854797D501009385A593E309F5FC97D56B
:1013B00001009385259179D18947E30DF5FA173717
:1013C000FF1FA30AF78A97D501009385A5957DB7DE
:1013D00041112E8597D501009385C59B06C6EF80E8
:1013E0008111014697450000938585EE7945EF30E0
:1013F0000011B2400146976500009385657413059E
:10140000600941016F30A00F411122C426C206C6F7
:101410008307D503AE841734FF1F1304648589C77F
:101420001307F003639BE7028306142017D601001D
:10143000130686B563D6060017E60100130646E1DB
:10144000268597D50100938565B4EF806106224417
:10145000B240924441016FA020131305D503EF70F1
:10146000C1309737FF1FA385A7A0EFA0E0110306A7
:10147000142097D50100938525B32545EF90F04AB8
:10148000834714206147B10793F7F70F6377F7009D
:10149000A1471737FF1FA30DF79CEF50D0278306F6
:1014A000142017D60100130626AE63D6060017E6F1
:1014B00001001306E6D92244B2402685924497D50E
:1014C00001009385E5AE41016F70917E797122D460
:1014D0009307D1012E8478089306B1011306A10168
:1014E000930591011305E10106D626D24AD0EF609B
:1014F00070508348D1010348C1018347B1010347BC
:10150000A101834691010356E10197C5010093852E
:1015100065432285EF70D1792285EF70F17E973493
:10152000FF1F9384E4228C5C03A804040566130661
:1015300006E133F3C5029306C0032295B378C802CF
:10154000B377D80233F7D5023EC0DC58B3D8D802FF
:101550003358C802B356D30233D6C50297C501002B
:1015600093858540EF70D1742285EF70F17933094E
:10157000A400EF90006017C601001306663C09C581
:1015800017C601001306863B97C501009385C54128
:101590004A85EF70F1712285EF70117794402295A2
:1015A0001738FF1F0348081B93D726008582858BB9
:1015B0001737FF1F0347F719858A1736FF1F0346A2
:1015C000E61E97C501009385253FEF70716EB250FE
:1015D00022549254025945618280AA870387D70317
:1015E0002E8509C79306F0036311D7029727FF1FC3
:1015F00083C7876897C501009385850589E797C5E7
:1016000001009385E5076F70116F41111385D703B2
:1016100022C406C62E84EF7041151375F50F972767
:10162000FF1F238BA7641727FF1F03477764894792
:101630006316F7000DE91145EFA060599727FF1FCA
:1016400083C7876397C501009385050589E797C51B
:1016500001009385A5072285EF70F1692244B2400D
:1016600041016F50500B1145EFA04059C1BFAA87EF
:101670000387D7032E8509C79306F003631ED7029D
:101680009727FF1F83C7275F0547638DE70089C73B
:101690000947638EE700828097C501009385C509DD
:1016A0006F70716597C501009385450DD5BF97C5CE
:1016B000010093856512EDB741111385D70322C44C
:1016C00006C62E84EF70610A1375F50F9727FF1F6A
:1016D0002383A75A854797C501009385250A63068A
:1016E000F50297C501009385250505C1894797C572
:1016F00001009385650E630AF5001727FF1F230C71
:10170000F75697C501009385E5122285EF70B15E0B
:101710002244B24041016F501000AA870387D703CB
:101720002E8509C79306F003631CD7001726FF1FF9
:101730000346065E97C501009385852F6F7051574C
:1017400041111385D70306C622C42E84EF706102AF
:101750009727FF1F238EA75AEF50E07B2285224454
:10176000B2401726FF1F0346A65A97C5010093856E
:10177000652E4101E1B7411122C4130550042E84A6
:10178000814506C6EF30701FEF50206E2A862285F5
:101790002244B24097C501009385C53F41016F7057
:1017A0003151411122C41305D5032E8497C5010080
:1017B0009385052306C6EF90502711CD0145EF50C4
:1017C000100097C501009385652222852244B2400E
:1017D00041016F7051520545EF50607E97C5010081
:1017E00093858522DDB7411122C42A848307D4035F
:1017F00006C626C22E8589C71307F003639CE7023D
:101800009727FF1F9387375A1727FF1F13079756EE
:101810009726FF1F83D606671726FF1F13067652EB
:1018200097C50100938545592244B2409244410135
:101830006F701148AE841725FF1F1305955093054F
:10184000D403EF70514B1725FF1F1305954FEF7011
:10185000B14B93150501C1811725FF1F1305754E67
:10186000EF90D0538307940789CB13059407EF605B
:10187000D16F9727FF1F2397A7608307540B85CB52
:101880009305540B1725FF1F1305D54EEF70B14676
:101890001725FF1F1305154EEF701147931505010E
:1018A000C1811725FF1F1305F54CEF90304F8307BB
:1018B000140F85CB9305140F1725FF1F1305B54E85
:1018C000EF7071431725FF1F1305F54DEF70D143DE
:1018D00093150501C1811725FF1F1305D54CEF9006
:1018E000F04BEF5040639727FF1F9387D74B172785
:1018F000FF1F130737489726FF1F83D6A6581726C2
:10190000FF1F1306164497C501009385254C2685B5
:1019100021BFAA870387D7032E8509C79306F00343
:10192000631CD7001726FF1F0356A65497C5010056
:101930009385055F6F70D13741111385D70306C6B4
:1019400022C42E84EF607162131605019727FF1FD2
:101950002391A752418297C501009385A55D2285F9
:10196000EF7011359727FF1F83C7973009476388AA
:10197000E700ED1793F7F70F0547636AF70097271E
:10198000FF1F83D7074F89EB0945EFA0202722448B
:10199000B24041016F502058EFA0401475D5172771
:1019A000FF1F0357074D9307B003E3EFE7FC09451B
:1019B000EFA0E021E9BFAA870387D7032E8509C7D7
:1019C0009306F0036313D7069727FF1F83C7174DAE
:1019D00005476389E70289CF0947638EE7020D4710
:1019E0006380E70497C50100938585496F70B13026
:1019F00017C601001306863F97C5010093858540F1
:101A00006F70112B17C601001306864097C50100A1
:101A100093850541F5B717C601001306E642FDB7E9
:101A200017C6010013068643D5B741111385D703A6
:101A300022C426C206C62E84EF6031531375F50FFB
:101A40009727FF1FA38CA7448544630295041DC1FB
:101A50008947630AF5048D47630CF50497C50100B7
:101A6000938505462285EF7011299727FF1FA387CD
:101A7000974201A897C50100938505412285EF7023
:101A800091272244B240924441016F50C04817C68A
:101A900001001306E63797C501009385254022858E
:101AA000EF701121F9BF17C601001306E639E5B73B
:101AB00017C601001306863AF9BF011106CE2EC6DD
:101AC000EF90307F85471727FF1FA30FF73CEF509C
:101AD00080443245F24097C501009385E5DF0561FA
